:020000040800F2
:100000000000082411540108093601080B360108C4
:100010000D3601080F3601081136010800000000F6
:100020000000000000000000000000001180000837
:100030001336010800000000A18000083178000894
:1000400061540108615401086154010861540108B8
:1000500061540108615401086154010861540108A8
:100060006154010815360108615401086154010802
:100070006154010861540108615401086154010888
:100080006154010861540108615401081D360108DA
:10009000293601083536010839360108615401084E
:1000A0006154010861540108615401086154010858
:1000B0003D3601086154010861540108615401088A
:1000C0006154010861540108615401086154010838
:1000D0006154010861540108615401086154010828
:1000E00061540108615401080000000061540108D6
:1000F0006154010861540108615401086154010808
:1001000061540108893601086154010861540108ED
:1001100061540108615401086154010861540108E7
:1001200061540108615401086154010861540108D7
:1001300061540108615401086154010861540108C7
:100140006154010861540108000000000000000033
:1001500061540108615401086154010861540108A7
:100160006154010861540108615401086154010897
:1001700061540108493601086154010861540108BD
:100180006154010861540108615401086154010877
:100190006154010861540108615401086154010867
:1001A0005536010861540108814D00086154010869
:1001B0006154010861540108615401086154010847
:1001C0006154010861540108615401086154010837
:1001D0006154010861540108615401086154010827
:1001E0006154010861540108615401086154010817
:1001F0006154010861540108615401086154010807
:1002000061540108615401086154010861540108F6
:1002100061540108615401086154010861540108E6
:1002200061540108613601086D3601086154010806
:1002300061540108615401086154010861540108C6
:1002400061540108615401086154010861540108B6
:1002500061540108615401086154010861540108A6
:100260006154010861540108615401086154010896
:100270006154010861540108615401086154010886
:100280006154010861540108615401080000000034
:080290006154010861540108EA
:1002C00002780B78012A28BF9A4240F0D8806DE965
:1002D000044540EA0104CDE902676FF0000C4FEAE3
:1002E00044721AB380EA010414F0070F6BD100F0D6
:1002F000070420F0070004F0030521F007014FEA8E
:10030000C505F0E8042314F0040FF1E804670CFAC3
:1003100005F462EA040266EA04060BD063EA040309
:10032000624667EA0407664604E000BFF0E804237B
:10033000F1E8046782FA4CF582EA0604A4FA8CF428
:100340006CBB83FA4CF583EA0705A5FA8CF595B9E1
:1003500050E9022351E9026782FA4CF582EA060469
:10036000A4FA8CF483FA4CF583EA0705A5FA8CF518
:100370002543DBD09CB92DBAB5FA85F424F00704E7
:1003800027FA04F1DDE9026723FA04F303F0FF0022
:1003900001F0FF01FDE80445A0EB0100704724BA1D
:1003A000B4FA84F424F0070426FA04F1DDE90267C4
:1003B00022FA04F202F0FF0001F0FF01FDE804451B
:1003C000A0EB0100704714F0030F3CD110F00304C0
:1003D00028D150F8082B51F8083B82FA4CF582EAF4
:1003E0000305A5FA8CF55DB950F8042C51F8043CCE
:1003F00082FA4CF582EA0305A5FA8CF5002DE8D0C7
:100400002DBAB5FA85F424F0070423FA04F122FA90
:1004100004F202F0FF0001F0FF01FDE80445A0EB4B
:10042000010070474FEAC40420F0030050F8082B85
:1004300021F0030151F8083B0CFA04F462EA0402CB
:1004400063EA0403C9E710F003041DD0A1EB040123
:1004500020F00300E40750F8042B06D012D28B786A
:100460005FFAA2F4E41A06D12BB1CB785FFAB2F4AA
:10047000E41A00D133B920465DF8104B7047A2EB67
:100480000300704701F1040150F8042BCC0721F060
:10049000030151F8043B48D824D222F07F4482FA69
:1004A0004CF594EA1325A5FA8CF50AD165B951F8F3
:1004B000043B84EA0204B4EB036F0ED150F8042B22
:1004C000EBE74FEA132355E035F07F454DD108782F
:1004D000FDE80445C0F1000070474FEA126203F0E6
:1004E000FF0347E002EA1C4482FA4CF594EA134504
:1004F000A5FA8CF50AD165B951F8043B84EA0204E7
:10050000B4EB034F0CD150F8042BEBE74FEA134345
:1005100030E015EA1C4528D10B884FEA124229E049
:100520004FEA124203EA1C4324E002F0FF0482FA7D
:100530004CF594EA1365A5FA8CF50AD165B951F822
:10054000043B84EA0204B4EB032F09D150F8042BD6
:10055000EBE74FEA13630DE015F0FF0F05D10B68D1
:100560004FEA122223F07F4304E04FF00000FDE841
:100570000445704712BA1BBA82FA4CF482EA0304AB
:10058000A4FA8CF5B5FA85F402FA04F203FA04F33E
:100590004FEA1260FDE80445A0EB1360704700BF0E
:1005A00001F0FF01102A2BDB10F0070F08D010F824
:1005B000013B013A8B422DD010F0070F42B3F6D128
:1005C000F0B441EA012141EA014122F007047FF041
:1005D00000070023F0E80256083C85EA010586EA98
:1005E000010685FA47F5A3FA87F586FA47F6A5FAD4
:1005F00087F68EB9EED1F0BC01F0FF0102F00702E0
:1006000032B110F8013B013A83EA010313B1F8D18A
:100610000020704701387047002D06BF354603386B
:10062000073815F0010F07D1013015F4807F02BFA4
:10063000013015F4C03F0130F0BC0138704700BFF5
:10064000844641EA000313F003036DD1403A41D3DD
:1006500051F8043B40F8043B51F8043B40F8043B9C
:1006600051F8043B40F8043B51F8043B40F8043B8C
:1006700051F8043B40F8043B51F8043B40F8043B7C
:1006800051F8043B40F8043B51F8043B40F8043B6C
:1006900051F8043B40F8043B51F8043B40F8043B5C
:1006A00051F8043B40F8043B51F8043B40F8043B4C
:1006B00051F8043B40F8043B51F8043B40F8043B3C
:1006C00051F8043B40F8043B51F8043B40F8043B2C
:1006D000403ABDD2303211D351F8043B40F8043BCC
:1006E00051F8043B40F8043B51F8043B40F8043B0C
:1006F00051F8043B40F8043B103AEDD20C3205D3DC
:1007000051F8043B40F8043B043AF9D2043208D0D3
:10071000D2071CBF11F8013B00F8013B01D30B8845
:1007200003806046704700BF082A13D38B078DD023
:1007300010F003038AD0C3F10403D21ADB071CBFF5
:1007400011F8013B00F8013B80D331F8023B20F85F
:10075000023B7BE7043AD9D3013A11F8013B00F898
:10076000013BF9D20B7803704B7843708B78837020
:10077000604670470000000000000000000000001C
:1007800030B490F800F020F007016FF0000C10F08A
:10079000070491F820F040F048804FF000046FF01B
:1007A0000700D1E9002391F840F000F1080082FA37
:1007B0004CF2A4FA8CF283FA4CF3A2FA8CF34BBB02
:1007C000D1E9022382FA4CF200F10800A4FA8CF27B
:1007D00083FA4CF3A2FA8CF3E3B9D1E9042382FA49
:1007E0004CF200F10800A4FA8CF283FA4CF3A2FA5E
:1007F0008CF37BB9D1E9062301F1200182FA4CF296
:1008000000F10800A4FA8CF283FA4CF3A2FA8CF3FC
:10081000002BC6D0002A04BF04301A4612BAB2FA1E
:1008200082F200EBD20030BC7047D1E9002304F023
:100830000305C4F100004FEAC50514F0040F91F858
:1008400040F00CFA05F562EA05021CBF63EA0503F5
:1008500062464FF00004AAE781F0004102E000BFC9
:1008600083F0004330B54FEA41044FEA430594EA70
:10087000050F08BF90EA020F1FBF54EA000C55EAAB
:10088000020C7FEA645C7FEA655C00F0E2804FEA7C
:100890005454D4EB5555B8BF6D420CDD2C4480EA5E
:1008A000020281EA030382EA000083EA010180EA8E
:1008B000020281EA0303362D88BF30BD11F0004FDC
:1008C0004FEA01314FF4801C4CEA113102D0404212
:1008D00061EB410113F0004F4FEA03334CEA13334D
:1008E00002D0524263EB430394EA050F00F0A78065
:1008F000A4F10104D5F1200E0DDB02FA0EFC22FA60
:1009000005F2801841F1000103FA0EF2801843FA53
:1009100005F359410EE0A5F120050EF1200E012A44
:1009200003FA0EFC28BF4CF0020C43FA05F3C01882
:1009300051EBE37101F0004507D54FF0000EDCF1FB
:10094000000C7EEB00006EEB0101B1F5801F1BD3A4
:10095000B1F5001F0CD349085FEA30004FEA3C0CA8
:1009600004F101044FEA445212F5800F80F09A809E
:10097000BCF1004F08BF5FEA500C50F1000041EBA2
:10098000045141EA050130BD5FEA4C0C404141EBA6
:100990000101013C28BFB1F5801FE9D291F0000FA1
:1009A00004BF01460020B1FA81F308BF2033A3F150
:1009B0000B03B3F120020CDA0C3208DD02F1140C47
:1009C000C2F10C0201FA0CF021FA02F10CE002F182
:1009D0001402D8BFC2F1200C01FA02F120FA0CFC7B
:1009E000DCBF41EA0C019040E41AA2BF01EB0451C4
:1009F000294330BD6FEA04041F3C1CDA0C340EDCC2
:100A000004F11404C4F1200220FA04F001FA02F304
:100A100040EA030021FA04F345EA030130BDC4F1C2
:100A20000C04C4F1200220FA02F001FA04F340EAB7
:100A30000300294630BD21FA04F0294630BD94F068
:100A4000000F83F4801306BF81F480110134013D4F
:100A50004EE77FEA645C18BF7FEA655C29D094EAC0
:100A6000050F08BF90EA020F05D054EA000C04BF3E
:100A70001946104630BD91EA030F1EBF0021002029
:100A800030BD5FEA545C05D14000494128BF41F0C8
:100A9000004130BD14F580043CBF01F5801130BD2C
:100AA00001F0004545F0FE4141F470014FF00000B7
:100AB00030BD7FEA645C1ABF194610467FEA655C68
:100AC0001CBF0B46024650EA013406BF52EA03350A
:100AD00091EA030F41F4002130BD00BF90F0000FF8
:100AE00004BF0021704730B54FF4806404F1320434
:100AF0004FF000054FF0000150E700BF90F0000FED
:100B000004BF0021704730B54FF4806404F1320413
:100B100010F0004548BF40424FF000013EE700BFE3
:100B200042004FEAE2014FEA31014FEA02701FBF73
:100B300012F07F4393F07F4F81F06051704732F0A5
:100B40007F4208BF704793F07F4F04BF41F40021FC
:100B5000704730B54FF4607401F0004521F000415A
:100B60001CE700BF50EA010208BF704730B54FF0E4
:100B700000050AE050EA010208BF704730B511F0E5
:100B8000004502D5404261EB41014FF4806404F11D
:100B900032045FEA915C3FF4D8AE4FF003025FEAA3
:100BA000DC0C18BF03325FEADC0C18BF033202EB27
:100BB000DC02C2F1200300FA03FC20FA02F001FA81
:100BC00003FE40EA0E0021FA02F11444BDE600BF24
:100BD00080F0004002E000BF81F0004142001FBFF2
:100BE0005FEA410392EA030F7FEA226C7FEA236CFB
:100BF0006AD04FEA1262D2EB1363C1BFD2184140F0
:100C000048404140B8BF5B42192B88BF704710F085
:100C1000004F40F4000020F07F4018BF404211F028
:100C2000004F41F4000121F07F4118BF494292EA90
:100C3000030F3FD0A2F1010241FA03FC10EB0C00BC
:100C4000C3F1200301FA03F100F0004302D5494249
:100C500060EB4000B0F5000F13D3B0F1807F06D3F6
:100C600040084FEA310102F10102FE2A51D2B1F1EE
:100C7000004F40EBC25008BF20F0010040EA0300E3
:100C80007047490040EB0000013A28BFB0F5000F63
:100C9000EDD2B0FA80FCACF1080CB2EB0C0200FA19
:100CA0000CF0AABF00EBC25052421843BCBFD04068
:100CB0001843704792F0000F81F4000106BF80F4E2
:100CC00000000132013BB5E74FEA41037FEA226CA5
:100CD00018BF7FEA236C21D092EA030F04D092F070
:100CE000000F08BF0846704790EA010F1CBF0020A4
:100CF000704712F07F4F04D1400028BF40F0004001
:100D0000704712F100723CBF00F50000704700F020
:100D1000004343F0FE4040F4000070477FEA226247
:100D200016BF08467FEA23630146420206BF5FEA18
:100D3000412390EA010F40F4800070474FF0000318
:100D400004E000BF10F0004348BF40425FEA000CDF
:100D500008BF704743F0964301464FF000001CE087
:100D600050EA010208BF70474FF000030AE000BFDD
:100D700050EA010208BF704711F0004302D540421B
:100D800061EB41015FEA010C02BF8446014600208D
:100D900043F0B64308BFA3F18053A3F50003BCFAA8
:100DA0008CF2083AA3EBC25310DB01FA02FC634455
:100DB00000FA02FCC2F12002BCF1004F20FA02F25C
:100DC00043EB020008BF20F00100704702F120024F
:100DD00001FA02FCC2F1200250EA4C0021FA02F2B0
:100DE00043EB020008BF20EADC70704753B94AB9F0
:100DF000002908BF00281CBF4FF0FF314FF0FF3023
:100E000000F0E2B8ADF1080C6DE904CE3BF02CFC2B
:100E1000DDF804E0DDE9022304B0704700F134019D
:100E200091E838009C46A6464CF8045D90E8FF0F18
:100E3000E54600BD90EC210B704700BF80EC210B14
:100E4000704700BF90EC200B704700BF80EC200B78
:100E5000704700BFD0EC200B704700BFC0EC200BE8
:100E6000704700BFF0EC0201F0EC0211F0EC02213F
:100E7000F0EC0231F0EC0241F0EC0251F0EC0261D6
:100E8000F0EC0271F0EC0281F0EC0291F0EC02A1C6
:100E9000F0EC02B1F0EC02C1F0EC02D1F0EC02E1B6
:100EA000F0EC02F1704700BFE0EC0201E0EC02114F
:100EB000E0EC0221E0EC0231E0EC0241E0EC025116
:100EC000E0EC0261E0EC0271E0EC0281E0EC029106
:100ED000E0EC02A1E0EC02B1E0EC02C1E0EC02D1F6
:100EE000E0EC02E1E0EC02F1704700BFB0FC0181F0
:100EF000B0FC0191B0FC01A1B0FC01B1704700BF92
:100F0000A0FC0181A0FC0191A0FC01A1A0FC01B109
:100F1000704700BFEC4600B52DE900502DE9FF1FDA
:100F20004FF000032DE90C0001A93BF057FEDDF85E
:100F300040E012B0704700BFEC4600B52DE900500C
:100F40002DE9FF1F4FF000032DE90C0001A93BF034
:100F500081FEDDF840E012B0704700BFEC4600B5FE
:100F60002DE900502DE9FF1F4FF000032DE90C0083
:100F700001A93BF091FEDDF840E012B0704700BFE0
:100F8000EC4600B52DE900502DE9FF1F4FF000039E
:100F90002DE90C0001AB3BF055FEDDF840E012B04E
:100FA000704700BFEC4600B52DE900502DE9FF1F4A
:100FB0004FF000032DE90C0001AA3BF0CDFEDDF857
:100FC00040E012B0704700BF704700BF0348044BB9
:100FD000834202D0034B03B118477047C007002477
:100FE000C0070024000000000548064B1B1AD90F5B
:100FF00001EBA301491002D0034B03B1184770471E
:10100000C0070024C00700240000000010B5064CF3
:10101000237843B9FFF7DAFF044B13B10448AFF369
:1010200000800123237010BDC08100240000000057
:10103000D4D7030808B5054B1BB105490548AFF3E4
:101040000080BDE80840FFF7CFBF00BF00000000F0
:10105000C4810024D4D70308704704387047704710
:1010600082B002B0704782B002B0704782B002B066
:10107000704782B002B0704784B004B0704784B04B
:1010800001A804B080E80E00704784B001A804B045
:1010900080E80E00704784B004A800E90E0004B098
:1010A000704784B004A800E90E0004B0704710B582
:1010B000044610212DF0D4FA204610BDA0F1040002
:1010C000F5E784B010B5044603A880E80E00E06898
:1010D0009DF810209DF80C1000F0EEFA9DF8141009
:1010E000E06800F005FA9DF81810E06800F0BCFA1E
:1010F0009DED087ADDED077ABCEEC77AE068FCEE7C
:10110000E77A17EE103ABDE810409AB217EE903A1F
:1011100004B099B200F01ABAA0F10400FFF7D1BFF1
:1011200082B0C06802AB03E90600114602B000F0CD
:10113000E7B8A0F10400FFF7F3BF84B010B5044690
:1011400003A880E80E00E0689DF80C1000F000FB9A
:101150009DF81010E06800F05FFA9DF81410E06848
:1011600000F0C6F89DF81810E068BDE8104004B023
:1011700000F001BBA0F10400FFF7DFBFBCEEC00A26
:1011800084B00021C06810EE103A9AB204B000F0AA
:101190008FB9A0F10400FFF7F1BF13B502AB04460D
:1011A000C06803E90600DDED017A0022FCEEE77A73
:1011B00017EE903A99B200F07BF99DF80010E068C4
:1011C00002B0BDE8104000F087BAA0F10400FFF7BC
:1011D000E4BFBCEEC00A82B0C06810EE103A99B20B
:1011E00002B000F053B9A0F10400FFF7F2BF82B0E3
:1011F000C06802AB03E906009DED010A02B000F0F1
:1012000083BAA0F10400FFF7F2BF82B002B07047CA
:1012100082B002B0704782B002B0704782B002B0B4
:10122000704784B004B0704784B001A804B080E86F
:101230000E00704784B001A804B080E80E0070472B
:1012400084B004A800E90E0004B0704784B004A87C
:1012500000E90E0004B070470022C1608260024ABB
:10126000026058324260704784D803087047704764
:1012700070470000034B10B50446036001F08EF97F
:10128000204610BD90F6030810B50446FFF7F2FFA4
:1012900045F68C7120462DF0E3F9204610BD02681A
:1012A000B0EE401AD0ED0E0AD26F90ED0D0A104745
:1012B00010B5044601F0A6FA0B4B00220021236072
:1012C00004F5A04303F67C70C3F8782F016004F5A1
:1012D000BF40016003F68471044808602046A3F80B
:1012E000882F83F88A2F10BD90F6030800009D42D6
:1012F0004B1E00F5A0405942594180F88A1F7047A3
:101300007047000038B5044601F031F95023594ABE
:1013100004F598500221584D18301EF08EF804F64E
:1013200044301BF09DFF04F5975064232A460A21A0
:1013300004301EF082F804F5BA601BF091FF04F54A
:1013400097504E4B2A460A2118301EF076F804F2C8
:101350001C601BF085FF04F59C50B4232A4608212D
:1013600014301EF06AF804F552601BF079FF04F5A2
:101370009F5000232A4604210C301EF05EF804F62C
:10138000F4601BF06DFF04F5985106223C480C31C7
:101390001EF083FA04F5CD601BF062FF04F598504F
:1013A00042F210732A460A211C301EF046F804F55A
:1013B000995042F210732A460A2110301EF03DF86F
:1013C00004F6E8301BF04CFF04F59A5042F210731B
:1013D0002A460A2104301EF030F804F59A5042F2F1
:1013E00010732A460A2118301EF027F804F63840F8
:1013F0001BF036FF04F59B5042F210732A460A2177
:101400000C301EF01AF842F210732A460A2104F535
:101410009C501EF012F804F688401BF021FF04F6E1
:10142000D4401BF01DFF04F5A15000232A460821DB
:1014300004301EF002F804F5825010301BF010FF4B
:1014400004F5A1500F4B0A210F4A14301DF0F5FF8F
:1014500004F584501C301BF003FF04F5A042002368
:1014600004F58054A2F8883F82F88A3F84F8DD3280
:1014700038BD00BF24D9030827D903087EC912004C
:101480002AD9030830D9030835D9030810B5044612
:1014900000F597500B46054A0A2104301DF0CDFF98
:1014A00004F5BA60BDE810401BF0DABE27D9030886
:1014B00070B504460D4E00F59F5013460D4632465A
:1014C000082114301DF0B9FF04F574601BF0C8FE4C
:1014D00004F5A0502B463246082104301DF0ADFF24
:1014E00004F68C70BDE870401BF0BABE27D9030823
:1014F00010B50446032921D8DFE801F023021A1DA4
:101500000122502304F5805104F5985081F8DD2222
:1015100018300D4A02211DF090FF04F644301BF0F4
:101520009FFE04F59550BDE8104018301BF098BEA2
:1015300000224423E6E700225223E3E700222D2382
:10154000E0E700224E23DDE724D9030807EE901AD6
:101550009FED2F7A0821F0B52DED028BF8EEE78A8A
:1015600083B0F8EE677A04462A4D00F59C5068EE89
:10157000878A01AB04F6582608EE102A14302A4652
:10158000CDED017A1EF080F904F5526004F2B467E3
:101590001BF066FEB0EE680A3046FFF780FE30466C
:1015A00004F5F4661BF05CFEB0EE680A3846FFF7FF
:1015B00076FEB0EE680A3046FFF771FE38461BF043
:1015C0004FFE30461BF04CFEB8EE488A04F59D50A5
:1015D00001AB2A46082104308DED018A1EF054F932
:1015E00004F66C501BF03CFE04F59D5001AB2A46FE
:1015F000082114308DED018A1EF046F904F6B8502A
:1016000003B0BDEC028BBDE8F0401BF029BE00BF6B
:101610002EFA8E3C38D903080B46022900F5A15159
:101620004FF00A0210B500F5845401F1140104F1E1
:101630001C040CD0032B0CD0012B14BF0648074808
:101640001EF02BF92046BDE810401BF009BE0448EF
:10165000F6E70448F4E700BF30D903083DD9030892
:1016600041D9030849D90308012910B504460FD010
:10167000022913D0C1B900F5985106220B480C314C
:101680001EF00BF904F5CD60BDE810401BF0E8BD7D
:1016900000F59851062206480C31F1E700F5985103
:1016A000062204480C31EBE710BD00BF52D90308F5
:1016B0002AD9030856D9030838B504460D4600F563
:1016C0000E70114617F0F6FD294604F20440BDE8FD
:1016D000384017F0EFBD000038B5044600F68C0026
:1016E0000D4617F0E7FD04F59F50064A2B460421EE
:1016F0000C301DF0A2FE04F6F460BDE838401BF08B
:10170000AFBD00BF27D90308FDEEC07A10B504466F
:1017100017EE901A6C302DED028B82B0B0EE408A3D
:1017200017F0C8FD04F5A15001AB084A08210430A8
:101730008DED018A1EF0A8F804F58250103002B039
:10174000BDEC028BBDE810401BF08ABD5BD90308DD
:1017500007B521B101290CD003B05DF804FB0623C5
:1017600000F5945001A9ADF804300C3017F061FE7B
:10177000F2E70723F4E700F5A04313B503291FD8C8
:10178000DFE801F01E02070A0122A3F8882F02B049
:1017900010BD4FF48072F8E740F2011200F58E544C
:1017A000A3F8882F04340E23204601A9ADF8043095
:1017B00017F03FFE204602B0BDE810401BF050BDC0
:1017C000002200F58E54A3F8882F04340F23EBE792
:1017D000F7B500F5A0473C2300F587560446D7F837
:1017E000785F0836013595FBF3F2C7F8785F03FBA5
:1017F000125597F8883F4BB11D2D01A93046D4BF33
:1018000014231523ADF8043017F013FE304604F509
:1018100088561BF025FD97F8893F14364BB11D2DD6
:1018200001A93046D4BF1F232023ADF8043017F0A0
:1018300000FE304604F58A541BF012FD97F88A3FEB
:101840004BB11D2D01A92046D4BF17231823ADF895
:10185000043017F0EEFD204603B0BDE8F0401BF069
:10186000FFBC00220260704730B52DED028B85B0C1
:101870009FED388ADFED388A04A80A9C00E90E0043
:10188000082200210DEB020010F00EF82368082258
:101890008342114618BF20600DEB020014BF0125E2
:1018A000002510F001F8636803221021834218BF5D
:1018B000606002A818BF01250FF0F6FFA36803229D
:1018C0001621834218BFA06002A818BF01250FF09F
:1018D000EBFFE36810222021834218BFE06002A8DA
:1018E00018BF01250FF0E0FFFFF73AFAB0EE487A93
:1018F00007EE900A102202A83021A7EEA87AD4EDB4
:10190000047A77EEC77AF0EEE77AF4EEE87AF1EE51
:1019100010FAC4BF84ED047A01250FF0C5FFFFF76C
:101920001FFAF0EE487A07EE100AE7EE287A94EDF7
:10193000057A37EE677AB0EEC77AB4EEE87AF1EE60
:1019400010FAC4BF0125C4ED057A284605B0BDECE8
:10195000028B30BD000061C4CDCCCC3D30B585B02C
:1019600004A8089C00E90E00012202A800210FF043
:101970009BFF236803220121834218BF206002A835
:1019800014BF012500250FF08FFF63680122042199
:10199000834218BF606002A818BF01250FF084FFC2
:1019A000A36803220521834218BFA06002A818BFC4
:1019B00001250FF079FFE36801220A21834218BF55
:1019C000E06002A818BF01250FF06EFF2369012215
:1019D0000C21834218BF206102A818BF01250FF017
:1019E00063FF636983421CBF01256061284605B01F
:1019F00030BD000030B52DED028B85B09FED268AFD
:101A0000DFED268A04A80A9C00E90E00202202A825
:101A100000210FF049FFFFF7A3F9B0EE487A07EE77
:101A2000900A202202A8A7EEA87AD4ED007A1146E7
:101A3000F8EE677A77EEC77AF0EEE77AF4EEE87AB6
:101A4000F1EE10FAC5BFBCEEC77A0125002584ED82
:101A5000007A0FF029FFFFF783F9F0EE487A07EEDE
:101A6000100AE7EE287A94ED017AB8EE477A37EE5D
:101A7000677AB0EEC77AB4EEE87AF1EE10FAC4BF36
:101A80000125FCEEE77A2846C8BFC4ED017A05B00F
:101A9000BDEC028B30BD00BF0000FAC30AD7233C67
:101AA00030B585B004A8089C00E90E00202202A8E9
:101AB00000210FF0F9FE23680C222021834218BF79
:101AC000206002A814BF012500250FF0EDFEFFF7EE
:101AD00047F9DFED0B6A07EE100AD4ED017A27EE25
:101AE000267A77EEC77AF0EEE77AF4EEE67AF1EE50
:101AF00010FAC4BF012584ED017A284605B030BD37
:101B0000CDCCCC3D30B52DED028B85B0DFED2F8AED
:101B10009FED2F8A04A80A9C00E90E00102202A85B
:101B200000210FF0C1FEFFF71BF907EE100AD4EDFC
:101B3000007A102227EE287A02A8114677EEC77A9B
:101B4000F0EEE77AF4EEE87AF1EE10FAC6BF84ED33
:101B5000007A012500250FF0A7FEFFF701F9B0EE8E
:101B6000487A07EE900A202202A8A7EEA87AD4EDC0
:101B7000017A114677EEC77AF0EEE77AF4EEE87A6A
:101B8000F1EE10FAC4BF84ED017A01250FF08CFE4E
:101B9000FFF7E6F8F0EE487A06EE900A9FED0D7A30
:101BA000E6EE877A94ED027A37EE677AB0EEC77A7E
:101BB000B4EEE87AF1EE10FAC4BF0125C4ED027A62
:101BC000284605B0BDEC028B30BD00BFCDCCCC3D6E
:101BD00000401CC50AD7233C30B585B004A8089C3A
:101BE00000E90E00082200210DEB02000FF05CFE60
:101BF000236820221021834218BF206002A814BF4E
:101C0000012500250FF050FEFFF7AAF8DFED0B6A63
:101C100007EE100AD4ED017A27EE267A77EEC77A1E
:101C2000F0EEE77AF4EEE67AF1EE10FAC4BF0125A1
:101C300084ED017A284605B030BD00BF0AD7233CA9
:101C400030B52DED028B85B09FED218ADFED218A25
:101C500004A80A9C00E90E00142202A800210FF03B
:101C600023FEFFF77DF8B0EE487A07EE900A1422C3
:101C700002A82021A7EEA87AD4ED007A77EEC77AE1
:101C8000F0EEE77AF4EEE87AF1EE10FAC6BF84EDF2
:101C9000007A012500250FF007FEFFF761F8F0EE4E
:101CA000487A07EE100AE7EE287A94ED017A37EECB
:101CB000677AB0EEC77AB4EEE87AF1EE10FAC4BFF4
:101CC0000125C4ED017A284605B0BDEC028B30BD7C
:101CD00000409CC5CDCCCC3D30B52DED028B85B000
:101CE0009FED218ADFED218A04A80A9C00E90E00FD
:101CF000142202A800210FF0D7FDFFF731F8B0EE53
:101D0000487A07EE900A142202A82021A7EEA87AAA
:101D1000D4ED007A77EEC77AF0EEE77AF4EEE87A5F
:101D2000F1EE10FAC6BF84ED007A012500250FF010
:101D3000BBFDFFF715F8F0EE487A07EE100AE7EE64
:101D4000287A94ED017A37EE677AB0EEC77AB4EE6E
:101D5000E87AF1EE10FAC4BF0125C4ED017A2846F5
:101D600005B0BDEC028B30BD00409CC5CDCCCC3D58
:101D700030B52DED028B85B09FED218ADFED218AF4
:101D800004A80A9C00E90E00142202A800210FF00A
:101D90008BFDFEF7E5FFB0EE487A07EE900A1422BD
:101DA00002A82021A7EEA87AD4ED007A77EEC77AB0
:101DB000F0EEE77AF4EEE87AF1EE10FAC6BF84EDC1
:101DC000007A012500250FF06FFDFEF7C9FFF0EE48
:101DD000487A07EE100AE7EE287A94ED017A37EE9A
:101DE000677AB0EEC77AB4EEE87AF1EE10FAC4BFC3
:101DF0000125C4ED017A284605B0BDEC028B30BD4B
:101E000000409CC5CDCCCC3D30B52DED028B85B0CE
:101E10009FED208A04A80A9C00E90E00142202A863
:101E200000210FF041FDFEF79BFF9FED1B7A07EEAF
:101E3000900A142202A82021A7EE887AD4ED007A15
:101E400077EEC77AF0EEE77AF4EEC87AF1EE10FAA0
:101E5000C6BF84ED007A012500250FF025FDFEF7B1
:101E60007FFF9FED0E7A07EE900AA7EE887AD4EDF9
:101E7000017A77EEC77AF0EEE77AF4EEC87AF1EEFF
:101E800010FAC4BF012584ED017A284605B0BDECE7
:101E9000028B30BDCDCCCC3D00401CC500409CC564
:101EA00030B52DED028B85B09FED378A04A80A9CD2
:101EB00000E90E00102202A800210FF0F5FCFEF749
:101EC0004FFF07EE100AD4ED007A102227EE087AB1
:101ED00002A8114677EEC77AF0EEE77AF4EEC87AF8
:101EE000F1EE10FAC6BF84ED007A012500250FF04F
:101EF000DBFCFEF735FF07EE100AD4ED017A0A226B
:101F000027EE087A02A8202177EEC77AF0EEE77A6A
:101F1000F4EEC87AF1EE10FAC4BF84ED017A01251F
:101F20000FF0C2FCFEF71CFF07EE100AD4ED027A98
:101F30000A2227EE087A02A8302177EEC77AF0EE5F
:101F4000E77AF4EEC87AF1EE10FAC4BF84ED027AB3
:101F500001250FF0A9FCFEF703FF07EE100AD4EDF0
:101F6000037A27EE087A77EEC77AF0EEE77AF4EE96
:101F7000C87AF1EE10FAC4BF012584ED037A284631
:101F800005B0BDEC028B30BD0AD7233C30B52DED3A
:101F9000028B85B09FED1E8A04A80A9C00E90E0002
:101FA000142202A800210FF07FFCFEF7D9FE07EEF5
:101FB000100AD4ED007A142227EE087A02A8202114
:101FC00077EEC77AF0EEE77AF4EEC87AF1EE10FA1F
:101FD000C6BF84ED007A012500250FF065FCFEF7F1
:101FE000BFFE07EE100AD4ED017A27EE087A77EEED
:101FF000C77AF0EEE77AF4EEC87AF1EE10FAC4BFD1
:10200000012584ED017A284605B0BDEC028B30BD78
:102010000AD7233C30B52DED028B85B09FED348A75
:10202000DFED348A04A80A9C00E90E00102202A801
:1020300000210FF039FCFEF793FEB0EE487A07EE70
:10204000900A102202A8A7EEA87AD4ED007A1146D1
:10205000F8EE677A77EEC77AF0EEE77AF4EEE87A90
:10206000F1EE10FAC5BFBCEEC77A0125002584ED5C
:10207000007A0FF019FCFEF773FEB0EE487A07EE17
:10208000900A102202A82021A7EEA87AD4ED017AA6
:10209000F8EE677A77EEC77AF0EEE77AF4EEE87A50
:1020A000F1EE10FAC2BFBCEEC77A012584ED017AC9
:1020B0000FF0FAFBFEF754FE07EE900AA7EEA88A8F
:1020C000D4ED027AF8EE677A77EEC87AF0EEE77A26
:1020D000F4EEE87AF1EE10FAC4BF0125BCEEC88A2E
:1020E0002846C8BF84ED028A05B0BDEC028B30BD26
:1020F00000401CC5CDCCCC3D30B585B004A8089CB3
:1021000000E90E00032202A800210FF0CDFB236896
:1021100003220421834218BF206002A814BF0125B6
:1021200000250FF0C1FB636808210322834218BF1A
:1021300060600DEB010018BF01250FF0B5FBA3682F
:1021400083421CBF0125A060284605B030BD0000B9
:102150002DE9F0470546B0B00A26A74FDFF8A08268
:10216000DFF8A0921DAC002338681A46214605F01E
:102170009FFD002848D11D9B434500F22781B3F104
:10218000805F3FD903F17043013B202B3AD8DFE851
:1021900013F021003E00500068007C008B009D0081
:1021A000AE00BF00D100E800390039003900390025
:1021B0003900390039003900390039003900390057
:1021C0003900390039003900390039003900390047
:1021D0003900FA000DF1900A2846CDF800A094E8E5
:1021E0000E00FFF741FB68B12C6827ABD4F800C0A4
:1021F00093E807008DE807009AE80E00DCF808A0D5
:102200002046D047013EADD130B0BDE8F0870DF19A
:10221000100A2846CDF800A094E80E00FFF7EAFB6C
:102220000028EFD028680368DB689AE80600984722
:10223000E8E70DF1A80A2846CDF800A094E80E00C2
:10224000FFF78CFB0028DDD02C6830ABD4F800C041
:1022500013E907008DE807009AE80E00DCF810A0EB
:10226000CEE714AB2846009394E80E00FFF74AFC33
:102270000028C7D028689DED140A0368DDED150A13
:102280005B699DED161A9847BCE70DF1180A2846C0
:10229000CDF800A094E80E00FFF79EFC0028B1D016
:1022A000286803689B69C0E708AB2846009394E858
:1022B0000E00FFF7C5FC0028A4D028689DED080A91
:1022C0000368DDED090ADB6998479BE70AAB2846FE
:1022D000009394E80E00FFF7FFFC002892D02868D6
:1022E0009DED0A0A0368DDED0B0A1B6AECE70CABF7
:1022F0002846009394E80E00FFF73AFD002881D0AD
:1023000028689DED0C0A0368DDED0D0A5B6ADBE7CA
:102310000EAB2846009394E80E00FFF775FD0028E9
:102320003FF470AF28689DED0E0A0368DDED0F0ADB
:102330009B6AC9E720AB2846009394E80E00FFF79C
:10234000AFFD00283FF45EAF28689DED200A0368CA
:10235000DDED210ADB6A9DED221ADDED231A984797
:1023600050E710AB2846009394E80E00FFF70EFEEE
:1023700000283FF447AF28689DED100A0368DDEDA3
:10238000110A1B6BA0E70DF15C0A2846CDF800A0EE
:1023900094E80E00FFF73EFE00283FF433AF2868B4
:1023A0000368DC6B9AE80E00A0472BE70DF1680A82
:1023B0002846CDF800A094E80E00FFF79DFE002807
:1023C0003FF420AF286803681C6CEBE74B45EDD069
:1023D0000A4A93427FF416AF0DF1480A2846CDF819
:1023E00000A094E80E00FFF75BFB00283FF40AAF63
:1023F000286803685B6C18E7FC180324430000108E
:102400002100001040000010704700F59873086824
:10241000496803C37047704701F088BC10B5044693
:102420004FF4AE712CF01CF9204610BD10B50446D7
:10243000D0F85801FFF78CFE2046BDE8104019F097
:10244000F7BD10B50446D0F8400158B10368DB6809
:10245000984738B1D4F8400103689B689847002337
:10246000C4F8403110BD000010B5044601F02AFC4C
:10247000014B2046236010BDC4F6030800207047BE
:1024800081807047C18070470181704741817047EA
:102490007047704770477047704710B4C48803682E
:1024A000121B84885B6D091B12B25DF8044B09B2E4
:1024B00018474FF6FF7383814FF0FF3303621368B1
:1024C000C3611060704770477047704700207047C5
:1024D0008B88838001207047704701767047818226
:1024E000C2827047704730B585B0036804460181E9
:1024F0006D460146D3F884303C342846984795E829
:10250000070084E8070005B030BD30B585B003682A
:10251000044641816D460146D3F884303C34284658
:10252000984795E8070084E8070005B030BD002211
:10253000028042808280C280704780F836107047E7
:10254000036870B504461B6B154698472368204600
:1025500029465B6EBDE87040184700207047806CCC
:102560007047806C7047C06C704770477047704709
:1025700010B5044608212CF073F8204610BD10B5A4
:10258000044650212CF06CF8204610BD10B50446CE
:102590004C212CF065F8204610BD0000034B10B50F
:1025A0000446036017F06EFE204610BDD0F8030805
:1025B000064B10B50446036017F064FE45F67871CB
:1025C00020462CF04DF8204610BD00BFD0F803087F
:1025D00090F8252012B103685B691847704708B569
:1025E000FFF7F6FF08BD90F825201AB190F82420D7
:1025F00002B1186070470000036870B55E6B044656
:10260000114B8DB21B682BB9104B6C21104A11482D
:1026100033F09EFD1049828D0988914203D80F4BFB
:102620006D210B4AF3E713F812200D4B1B6853F88A
:10263000220003681B6B9847291A3346204609B2CB
:10264000BDE87040184700BF642B032461D903081C
:10265000A3D90308DED90308582B032423DA03087F
:102660005C2B0324036870B504461B6B1546984722
:102670002368204629465B6BBDE87040184770B55B
:1026800004461D46BDF91060FFF7ECFF236829469C
:1026900020469B6B9847236831462046DB6BBDE89C
:1026A000704018470022C0E90122C0E90322C0E9B6
:1026B0000522C0E907224FF480728284014A026039
:1026C000704700BF18F7030838B504460D462622A8
:1026D000002136F0A3F82046FFF7E4FF064B204622
:1026E000294623602B88E384FF2384F8283016F0E2
:1026F000A0FE204638BD00BFB40A0408002370B510
:10270000124E05468380124B0360336893F85C20B9
:102710000AB1186D00B9986803681B6B9847336855
:10272000B0FA80F4186D640930B103681B6B9847E8
:10273000002808BF44F001042CB9064B2C21064A9E
:10274000064833F005FD284670BD00BF042B032466
:1027500080F7030861DA0308BFDA0308F8DA030830
:1027600010B50446FFF7CAFF4FF6FF732046A3815A
:102770000023A37384F82030C4E90433C4E906338A
:10278000024B23602433A36010BD00BFB0040408D3
:1027900000224FF0FF318260C0E90021704710B580
:1027A0000446FFF7F5FF204610BD000010B50446B3
:1027B0000021262236F032F82046FFF773FF094B3E
:1027C0004FF47F0204F13C002360074BA3624FF6F5
:1027D000FF73A3850023C4E90C322387FFF7D8FFDA
:1027E000204610BDD4080408A0F7030810B504461D
:1027F000FFF7DCFF024B204623600023A36410BDDB
:10280000B0F703082DE9F04F044600264FF6FF7796
:1028100004F16C0A04F50E7804F2044904F6582B0E
:102820002DED048BB3B0B0EE008A1BF05BF8DF4BEC
:102830002246E66331462FAD42F8403B29922622DC
:10284000299835F0EBFF2998FFF72CFFD84B50461D
:10285000A6662364FF239FEDD79A84F8663016F0AE
:1028600021FC04F50373DFEDD48A18462A93FFF7A1
:1028700077FF404616F016FC04F5767318462B9346
:10288000FFF76EFF484616F00DFC04F2A4531846FD
:102890002C93FFF765FF04F5BA6318461893FFF70A
:1028A000A5FF04F21C6318461993FFF79FFF04F578
:1028B000CD6318461A93FFF799FF04F2B4631846E4
:1028C000039315F0FDFA04F5F4631846049315F02C
:1028D000F7FA04F68C031846059316F0E3FB04F6AA
:1028E0002C2318462D93FFF73BFF584615F0E8FAC6
:1028F00004F6443318461B93FFF778FF04F5396359
:102900002946ADF8BC7018461C93FFF7DDFE04F6AF
:10291000BC332946ADF8BC7018461D93FFF7D4FEB2
:1029200004F6E83318461693FFF740FFA34BC4F8AC
:10293000306CC4F8E83B04F63843C4F8346C1846ED
:102940001793FFF733FF9D4BC4F8806CC4F8383CF5
:1029500004F68843C4F8846C18461293FFF746FFC8
:1029600004F6D44318461393FFF740FF04F552636F
:1029700018461E93FFF73AFF04F66C5318461F9350
:10298000FFF734FF04F6B85318462093FFF72EFFE5
:1029900004F604632946ADF8BC7018462193FFF78E
:1029A00093FE04F563632946ADF8BC701846229384
:1029B000FFF78AFE04F65C6318461493FFF716FFD0
:1029C00004F6A86318461593FFF710FF04F6F463A6
:1029D00018462393FFF70AFF04F5746318462493FF
:1029E000FFF704FF04F68C7318462593FFF7FEFEED
:1029F00004F6D87318462693FFF7F8FE04F58153C2
:102A00002946ADF8BC70043318460793FFF75CFE07
:102A100004F58253103318460893FFF7E7FE04F5D8
:102A200084531C3318460993FFF7E0FE04F58753DF
:102A30002946ADF8BC70083318460A93FFF744FEE8
:102A400004F588532946ADF8BC70143318460B932F
:102A5000FFF73AFE04F58A532946ADF8BC701846D4
:102A60002793FFF731FE04F58B532946ADF8BC7070
:102A70000C3318460C93FFF727FE04F58C532946B8
:102A8000ADF8BC70183318460D93FFF71DFE04F522
:102A90008E532946ADF8BC70043318460E93FFF7E9
:102AA00013FE04F58F53103318461193FFF77EFE83
:102AB00004F580531A460693404BC2F8F03104F5F2
:102AC0009253C2E98E6618462893FFF78FFE04F5ED
:102AD00094532946ADF8BC700C3318460F93FFF79A
:102AE000F3FD04F595532946ADF8BC701833271D46
:102AF00018461093FFF7E8FD04F5A3504FF49641F4
:102B0000183017F0B5FB4FF4487332463146299818
:102B100000934FF4A063FFF7B2FD4FF07F43299974
:102B20003846A36612F09DFE0C2350462946ADF8A8
:102B3000BC3012F029FE4FF4A8735046F8227821D9
:102B40000093FFF79CFDA8225046114616F086FB25
:102B5000504679226FF0860116F0F6FB3346962236
:102B600050463146009612F0B7FC5046314616F0FA
:102B7000A1FB5046124912F0E7FC1322682350468D
:102B80001B2116F057FB5046012116F0DCFA504687
:102B9000012116F0DBFA5046012116F0DAFA0D2376
:102BA00029462A98ADF8BC300CE000BFD0F80308E5
:102BB0006409040800007A440000724240F80308E7
:102BC0007FDC010814F09CF9504616F0D8FA2A9BD5
:102BD0008362504616F0D3FA4FF48953436350464C
:102BE00016F0CDFA4FF488530364504616F0C7FA36
:102BF000B42114F027FA4FF4A873324650460093DC
:102C0000314616F081FA514638464FF0F00A12F07C
:102C100028FE022340462946ADF8BC3012F0B4FD30
:102C2000534640464FF494723146CDF800A0FFF76A
:102C300026FD78224046114616F010FB40463246EB
:102C40006FF0B30116F080FB3346642240463146F4
:102C5000009612F041FC4046314616F02BFB4046F0
:102C6000E24912F071FC0722432340461B2116F073
:102C7000E1FA4046012116F066FA4046012116F0BD
:102C800065FA4046012116F064FA032329462B9881
:102C9000ADF8BC3014F034F9404616F070FA2B9BB6
:102CA0008362404616F06BFA4FF489534363404603
:102CB00016F065FA4FF488530364404616F05FFA45
:102CC000B42114F0BFF95346324640463146CDF8A0
:102CD00000A016F019FA4046012116F03DFA4146CF
:102CE00038464FF01E0812F0BCFD0923484629461D
:102CF000ADF8BC3012F048FD534648464FF494728C
:102D00004FF4A871CDF800A0FFF7B9FC782248462F
:102D1000114616F0A3FA48463246B42116F014FBC9
:102D20003346642248463146009612F0D5FB4846A9
:102D3000314616F0BFFA4846AC4912F005FC0722AE
:102D4000432348461B2116F075FA4846012116F028
:102D5000FAF94846012116F0F9F94846012116F022
:102D6000F8F94FF00A0329462C98ADF8BC3014F05E
:102D7000C7F8484616F003FA2C9B8362484616F0C3
:102D8000FEF94FF489534363484616F0F8F94FF4BF
:102D90008B530364484616F0F2F9B42114F052F94B
:102DA0005346324648463146CDF800A016F0ACF9FD
:102DB0004946384604F2A46912F053FD08220A215C
:102DC00040F2031318984FF0220ACDF80080FFF765
:102DD00056FC4FF0FF332846A4F80466C4F80036CA
:102DE000FFF7D6FC04F20C6395E8070083E80700C0
:102DF000069B29461898A3F8E46204F59753043318
:102E0000C4F818367A4B2F931323ADF8C03016F060
:102E1000ABF81899384612F024FDF5230A212E222A
:102E20001998CDF800804FF00108FFF728FC4FF00B
:102E3000FF322846A4F85066C4F84C26FFF7A8FCD9
:102E400004F5CB6395E8070083E8070004F5975382
:102E5000069A294619981833A2F8F862C4F864361D
:102E6000634B2F931223ADF8C03016F07DF81999FB
:102E7000384612F0F6FC1823D42140F24D221A985D
:102E800000939923FFF7FBFB4FF0FF322846A4F88D
:102E90009C66C4F89826FFF77BFC95E8070089E854
:102EA000070084F8A1862846FFF772FC04F59853C2
:102EB00095E807000C3389E80700069A29461A9816
:102EC000A2F80C63C4F8B036494BDFF840912F9359
:102ED0001123ADF8C03016F047F81A99384612F0B1
:102EE000C0FC4A2240F28B210398FFF7BBFB294626
:102EF0000398ADF8BCA015F0EBF93E4B039AC4F86B
:102F0000BC363D4B104682ED0C8AD36215F084F836
:102F1000B7EE000A039815F0ECF9039A104682ED1B
:102F2000169A15F079F8039A1046C2F84890C2ED47
:102F3000118A82ED139A15F06FF8039A1046C2F8C1
:102F40005490C2ED148A15F067F89FED2C1A03987F
:102F5000F0EE410AB0EE410A15F0C3F90399384684
:102F600084F8DD6612F07DFC4A2240F2BD310498FF
:102F7000FFF778FB29460498ADF8BCA015F0A8F936
:102F80001F4B049AC4F8A8371E4B104682ED0C8ADA
:102F9000D36215F041F8B7EE000A049815F0A9F9CC
:102FA000049A9FED198A104682ED169A15F034F8AE
:102FB000049A1046C2F8489082ED118A82ED139A65
:102FC00015F02AF8049A1046C2F8549082ED148A3B
:102FD0004FF0B80915F020F89FED081A0498F0EEAC
:102FE000410AB0EE410A15F07CF911E07FDC0108DE
:102FF000A0F7030879007C000000A4410000000055
:1030000089007C000000E441000089420000784211
:103010000499384684F8C96712F023FC0423294632
:103020000598ADF8BC3012F0AFFB4B4640F25112A0
:1030300040F2E5310598CDF80090FFF720FB5C22C7
:103040000598114616F00AF94FF4B4726FF0B30107
:10305000059816F079F933466422314605980096B2
:1030600012F03AFA3146059816F024F9804905988D
:1030700012F06AFA082235231B21059816F0DAF8B7
:103080004146059816F05FF84146059816F05EF83F
:103090004146059816F05DF8052329462D98ADF8B0
:1030A000BC3013F02DFF059816F069F82D9ADFF863
:1030B000E0818262059816F062F84FF4486343633A
:1030C000059816F05CF84FF41C630364059816F03D
:1030D00056F8B42113F0B6FF4B46324631460598F8
:1030E000CDF8009016F010F805993846DFF8A49155
:1030F00012F0B7FB3C224FF446715846FFF7B2FA84
:10310000212329465846ADF8BC3015F0E1F84FF0C0
:1031100098135846C4F8603A564BCBF82C30CBF88D
:10312000303014F079FFB7EE000A584615F0E1F898
:1031300058468BED169A14F06FFF5846CBF8448032
:10314000CBF848808BED139A14F066FF5846CBF805
:103150005080CBF8548014F05FFF9FED471A58461B
:10316000F0EE410AB0EE410A15F0BBF85946384678
:1031700084F8816A12F075FB29234FF483714FF4B0
:1031800001721B9800933423FFF779FA4FF0FF3256
:103190002846A4F8786BC4F8742BFFF7F9FA04F505
:1031A000386395E8070083E8070004F59853069A0A
:1031B00029461B981833A2F81863C4F88C3B2F4B90
:1031C0002F931623ADF8C03015F0CEFE1B9938466C
:1031D00012F047FB40F24B2240F29A211C98FFF775
:1031E00041FA29461C98ADF8BCA016F022F91C99AA
:1031F000384612F036FB40F24B224FF478711D989E
:10320000FFF730FA29461D98ADF8BCA016F011F969
:103210001D99384612F025FBCB2240F20621169864
:10322000FFF720FA4FF0FF332846A4F81C6CC4F8CF
:10323000183C04F5985AFFF7ABFA04F624430AF158
:103240001C0A95E8070083E80700D9F800302BB97D
:103250000B4B60210B4A0C4832F07AFFDFF83880C4
:10326000B8F80030152B19D8084B6121054AF2E750
:103270007FDC01080000C04000000000A0F7030848
:1032800061D9030858DB0308DED9030823DA0308F1
:1032900000009842642B0324582B0324DFF894B3D6
:1032A0001521DBF8000000F0C7FFDE4A03460A21C3
:1032B00050461CF0C2F8C4F830ACD9F8003004F520
:1032C000995A0AF1100A002BC2D0B8F80030142B1A
:1032D000CAD91421DBF8000000F0AEFFD14A034642
:1032E0000A2150461CF0A9F81698C4F834AC04F52D
:1032F0009A5A15F019FECC4B294616982F93102395
:103300000AF1040AADF8C03015F02EFE16993846C1
:1033100012F0A7FA40F2E531CB221798FFF7A2F995
:103320004FF0FF322846A4F86C6CC4F8682CFFF705
:103330002FFA04F6744395E8070083E80700D9F8EC
:103340000030002B84D0B8F80030152B8CD9152113
:10335000DBF8000000F070FFB24A03460A21504635
:103360001CF06BF8C4F880ACD9F8003004F59A5A18
:103370000AF1180A002B3FF46BAFB8F80030142B99
:103380007FF672AF1421DBF8000000F055FFA54A6C
:1033900003460A2150461CF050F81798C4F884AC34
:1033A00015F0C2FDA04B294617982F930F23ADF8B7
:1033B000C03015F0D9FD1799384612F052FA40F294
:1033C000D32240F28D311298FFF74CF94FF0FF33C2
:1033D0002846A4F8BC6CC4F8B83CFFF7D9F904F649
:1033E000C44395E8070004F59B5583E80700D9F826
:1033F00000300C35002B3FF42BAFB8F80030152B04
:103400007FF632AF1521DBF8000000F015FF854A8A
:1034100003460A212846DFF810921CF00EF8129895
:10342000C4F8D05C2FAD15F07FFD0E23294612980D
:10343000ADF8C0305E464FF000084FF0FF3BCDF8CE
:10344000BC9015F091FD1299384612F00AFA40F23C
:10345000D32240F242211398FFF704F92846C4F81A
:1034600004BD04F59C5AA4F8088DFFF791F904F502
:10347000516395E8070083E807006C4B1B68002B3D
:103480003FF4E6AE6A4B1B88152B7FF6EDAE152197
:10349000306800F0D1FE634A03460A21504604F525
:1034A00080561BF0CAFF1398C4F81CAD4FF00A0AEF
:1034B00015F03AFD0D2329461398ADF8C030CDF82C
:1034C000BC9015F051FD1399384612F0CAF9182333
:1034D000242240F23A311E9800935523FFF7CFF88B
:1034E0002846C4F850BDA4F8548DFFF751F904F6EE
:1034F0005C5395E8070083E8070003F5C763A6F867
:10350000948329461E98C4F8683D0C23CDF8BC90DE
:10351000ADF8C03015F028FD1E99384612F0A1F91B
:10352000182324224FF426711F9800935523FFF788
:10353000A6F82846C4F89CBDA4F8A08DFFF728F98A
:1035400004F6A85395E8070083E8070004F59D53A7
:10355000A6F8A48329461F980433CDF8BC90C4F87C
:10356000B43D4FF00B03ADF8C03015F0FDFC1F99D2
:10357000384612F076F91822552340F2DE312098B1
:1035800000922422FFF77BF82846C4F8E8BDA4F88F
:10359000EC8DFFF7FDF804F6F45395E8070083E897
:1035A000070004F59D53294620981433A6F8B483E8
:1035B000ADF8C0A0C4F8003ECDF8BC9015F0D4FC26
:1035C0002099384612F04DF940F2811221984FF4BB
:1035D000E471FFF747F829462198ADF8BC8015F053
:1035E00028FF2199384612F03CF940F281122298C6
:1035F0003A21FFF737F84FF00B0329462298ADF830
:10360000BC3015F016FF2299384612F02AF95146BF
:1036100055221498FFF726F82846C4F88CBEA4F863
:10362000908E09E035D90308A0F70308642B032422
:10363000582B0324602B0324FFF7AAF804F69863A1
:1036400095E8070083E8070004F59E531498A6F850
:10365000C4830433C4F8A43E15F066FC092329464C
:103660001498ADF8C030CDF8BC9015F07DFC1499DD
:10367000384612F0F6F8514678221598FEF7F2FF18
:103680002846C4F8D8BE4FF01F0AA4F8DC8EFFF716
:103690007FF804F6E46395E8070083E8070004F583
:1036A0009E531598A6F8D8831833C4F8F03E15F049
:1036B0003BFC082329461598ADF8C030CDF8BC90E6
:1036C00015F052FC1599384612F0CBF815234FF43B
:1036D000C77240F21A41239800934E23FEF7CFFFA2
:1036E000E54B2846A4F8288FC4F8243FFFF750F88C
:1036F00004F5736395E8070083E8070004F59F531A
:10370000A6F8EC83294623980C33CDF8BC90C4F876
:103710003C3F4FF00703ADF8C03015F025FC23996E
:10372000384612F09EF8C323072240F26D11249808
:10373000CDF800A0FEF7A3FF2846C4F870BFA4F898
:10374000748FFFF725F804F67C7395E8070083E88B
:10375000070004F59F53A6F8F483294624981433F0
:10376000CDF8BC90C4F8883F0623ADF8C03015F002
:10377000FBFB2499384612F074F81E232E2240F2E7
:103780006D1125980093C323FEF779FF2846C4F8EE
:10379000BCBFA4F8C08FFEF7FBFF04F6C87395E822
:1037A000070083E8070004F5A053A6F8048429461F
:1037B00025980433CDF8BC90C4F8D43F0523ADF868
:1037C000C03015F0D1FB2599384612F04AF840F286
:1037D00031135522FF212698CDF800A04FF0200A82
:1037E000FEF74DFF2846C6F808B0A6F80C80FEF795
:1037F000CFFF06F1140395E8070083E8070004F5FE
:10380000A053294626981433A6F81484CDF8BC900A
:1038100033620423ADF8C03015F0A6FB2699384674
:1038200012F01FF840F29B2241460798FEF71AFF5C
:10383000102329460798ADF8BC3015F0FAFD07991A
:10384000384612F00EF899234FF4A772D421089845
:10385000CDF800A0FEF713FF2846C6F880B0A6F802
:103860008480FEF795FF06F18C0395E8070083E856
:10387000070004F5A153294608980433A6F82484C8
:10388000CDF8BC90C6F898300323ADF8C03015F0E1
:103890006BFB0899384611F0E4FF2D2340F26E22AD
:1038A00040F2FB2109980093D323FEF7E8FE284657
:1038B000C6F8CCB0A6F8D080FEF76AFF06F1D803B0
:1038C00095E8070083E8070004F5A1532946099805
:1038D0001433A6F83484CDF8BC90C6F8E430022343
:1038E000ADF8C03015F040FB0999384611F0B9FF2A
:1038F0000A9840F20F123021FEF7B4FE4FF0150285
:1039000029460A98ADF8BC2015F093FD0A9938466F
:1039100011F0A7FF40F20F120B984FF4E471FEF77D
:10392000A1FE29460B98ADF8BCA015F082FD0B99BD
:10393000384611F096FF414627984FF40672FEF77D
:1039400091FE4FF0180229462798ADF8BC2015F0DB
:1039500070FD2799384611F084FF40F29B220C98A5
:103960009221FEF77FFE1D2329460C98ADF8BC304E
:1039700015F05FFD0C99384611F073FF40F29B2261
:103980000D9840F23111FEF76DFE132329460D9874
:10399000ADF8BC3015F04DFD0D99384611F061FFC2
:1039A00097220E98E421FEF75DFE0F2329460E981C
:1039B000ADF8BC3015F03DFD0E99384611F051FFC1
:1039C000362340F23B224FF4C7711198009340F226
:1039D0000713FEF754FE2846C6F820B2A6F8248244
:1039E000FEF7D6FE06F50B7395E8070083E807009F
:1039F00004F5A253294611980833A6F84884CDF857
:103A0000BC90C6F8383204F5A2531833C6F83C32DD
:103A10000123ADF8C03015F0A7FA1199384611F01E
:103A200020FF282340F2F52240F2422128980093FB
:103A300040F23623FEF723FE2846C6F870B2A6F8F9
:103A40007482FEF7A5FE06F51F7395E8070083E86C
:103A5000070004F5A353294628980833A6F868847C
:103A6000CDF8BC90C6F88832ADF8C08015F07CFA6D
:103A70002899384602E000BFF7F7FFFF11F0F1FE8A
:103A8000ED220F984FF43C71FEF7ECFD4FF0070369
:103A900029460F98ADF8BC3015F0CBFC0F9938468D
:103AA00011F0DFFE40F29722109840F2BB11FEF7B2
:103AB000D9FD1A2329461098ADF8BC3015F0B9FC91
:103AC0003846109986F8DD8211F0CBFE204633B0DF
:103AD000BDEC048BBDE8F08F7047704770474160C4
:103AE000704770477047012303727047704710B4E6
:103AF00041680346C2689B68541001EB6200D2071C
:103B000048BF0A595DF8044B48BFD35818470346CD
:103B1000406830B19A681AB9D86800F0010070475F
:103B20000120704710B504460C212AF099FD20466B
:103B300010BD10B5044610212AF092FD204610BD9C
:103B400010B504464FF4AE712AF08AFD204610BD30
:103B500010B518F0CBF90368BDE81040DB6B1847CF
:103B60002DE9F14FD0E9556A0746B06803681B6A32
:103B7000984745F68B73984205D8444BA321444A95
:103B8000444832F0E5FA706803681B6A98470F28CA
:103B900003D8414BA4213E4AF2E7F06803681B6A50
:103BA00098470B2803D83D4BA521394AE8E7DFF8B1
:103BB000F49018F09BF9043018F0D8F9D9F8000007
:103BC00010B10368DB689847D9F8000010B10368AA
:103BD0001B689847DFF8D080D8F8000010B1036860
:103BE0005B699847D7F83C0110B103685B68984758
:103BF000D8F8000010B103681B689847D7F83C015B
:103C000010B103689B689847F06800214FF0000BE3
:103C100003685B6A9847224B0446C0F804B080F8FA
:103C200008B059460360B06803685B6A9847054668
:103C3000FDF73EFB7068594603685B6A9847064685
:103C40002946FDF709FB331DC7F83C612846C9F832
:103C50000040C8F80050CAF800302B68C6F808A029
:103C6000DB68EE639847336830461B689847214607
:103C7000284619F0D2FF236820461B69984723681D
:103C800020465B6901B0BDE8F04F1847A3DB03088D
:103C900031DC030803DD030848DD0308EBDD03081E
:103CA00070F903084C2B0324502B0324044B1B688E
:103CB00093F85C200AB1186D00B99868704700BF8E
:103CC000042B0324F8B5174604460E4618F024FAD0
:103CD000124B00251C602946114B2360114BC4E98F
:103CE0005135114B1868C4E953550368C4E94F5561
:103CF0009B68C4E955769847284600F061FAFFF7BB
:103D0000D5FF22F0DCFFFFF7D1FF23F053F8FFF7D8
:103D1000CDFF23F05BF82046F8BD00BF542B0324F1
:103D20001CF9030804F90308042B0324064BC0F80C
:103D30004801C0F84C310023C0F8503100F5A2739F
:103D4000C0F84031704700BF613B000813B5002444
:103D500051B1036801AA01948DF803409C680DF1EC
:103D60000303A04702B010BD0846FBE7C0897047B7
:103D7000008A7047C088704780887047807A00F05A
:103D80007F007047807AC0097047002070470000AC
:103D90009FED010A704700BF00000000406A7047B5
:103DA000806A704770470B888A889BB2D20A10B528
:103DB0004C88C16943EA044351F82200184410BDFD
:103DC00010B50446BAB1107B68B1537BD27A1B029E
:103DD00003F4E0631A43236A03EB82031A888A42DE
:103DE00002D193F9020010BD05D80138043380B226
:103DF0000028F3D1F7E70020F5E710B504462C21A1
:103E00002AF02EFC204610BD30B58BB00446BDF81C
:103E100060500895BDF85C5007959DF85050069588
:103E20009DF84C5005959DF8485004959DF84450D8
:103E300003959DF8405002959DF83C500195BDF8C2
:103E40003850009519F0B4FA064B20462360159BB4
:103E5000E361169B2362199B63621A9BA3620BB0FA
:103E600030BD00BF94F903087047000030B5164D0F
:103E70008FB02C68BFF35B8F14F0010421D128466A
:103E80002AF0F0FBE8B13F23082210490993104BB8
:103E900010480893104B0A9407930123049401944B
:103EA000CDE905430423CDE902430A23CDE90B44C0
:103EB0000093FFF7A9FF094832F06AF928462AF073
:103EC000EDFB04480FB030BDDC810024306C0408E9
:103ED00014880408E081002410880408693E000862
:103EE0007047000030B5174D8FB02C68BFF35B8F63
:103EF00014F0010422D128462AF0B4FBF0B13F238C
:103F0000282211490993114B11480893114B0A9427
:103F10000793012304940194CDE905430423CDE9DB
:103F200002431A23CDE90B4400931F23FFF76CFFD4
:103F3000094832F02DF928462AF0B0FB04480FB0AA
:103F400030BD00BF0C820024A06C04081087040858
:103F5000108200240C890408E13E0008704700002C
:103F600030B5174D8FB02C68BFF35B8F14F0010490
:103F700022D128462AF076FBF0B13F2325221149B1
:103F80000993114B11480893114B0A94079301238D
:103F900004940194CDE905430423CDE90243282389
:103FA000CDE90B4400933023FFF72EFF094832F090
:103FB000EFF828462AF072FB04480FB030BD00BF6E
:103FC0003C820024E8810408A88704084082002479
:103FD000108904085D3F00087047000030B5174D98
:103FE0008FB02C68BFF35B8F14F0010422D12846F8
:103FF0002AF038FBF0B13F23392211490993114BC4
:1040000011480893114B0A940793012304940194D7
:10401000CDE905330423CDE902431423CDE90B4454
:1040200000931823FFF7F0FE094832F0B1F8284654
:104030002AF034FB04480FB030BD00BF6C8200246E
:10404000F083040818880408708200241489040886
:10405000D93F0008704708B5052914D8DFE801F0FA
:10406000030B070B0F0F00F01FF8006808BD00F0EE
:104070001BF88068FAE700F017F84068F6E700F0F0
:1040800013F8C068F2E70020F0E710B504460421F9
:104090002AF0E6FA204610BD0048704708FA0308E7
:1040A0002420704717207047004870479C820024E6
:1040B00010B5074CFFF716FF2060FFF751FF606057
:1040C000FFF7D4FEA060FFF789FFE06010BD00BFDE
:1040D0009C82002400207047002070470EB403B576
:1040E00003AB002153F8042B019318F091FF02B0A9
:1040F0005DF804EB03B070470CB407B504AB53F89C
:10410000042B019318F084FF03B05DF804EB02B0B8
:1041100070470000436C10B5044673B3038F2BB98E
:10412000184BC521184A194832F012F8C38E00EB1B
:1041300043035B8C0BB31AF0B6FA238F012B03D821
:10414000134BCB21134AEEE7E28E40F63F10531C8F
:104150009BB2092B194688BFA3F10A0104EB410168
:10416000498C814209D10A2B04EB420228BF00236B
:10417000508C04EB4303588451842046BDE8104022
:104180001AF095B98EDE030897DE030842DF0308B4
:104190008ADF030898DF03081AF051B910B586B01A
:1041A00002AC84E806001A460AAB21460593019347
:1041B000099B0093089B17F00DFA06B010BD000094
:1041C00038B518BB124B13481C681349B4B12268A8
:1041D00022440260626822440A60A26814440F4BC1
:1041E00000221A80FFF760FF0546FFF75BFF0C4BCC
:1041F0001C600C4B1D600C4B188007E00B4B0360E0
:104200000B4B0B600B4B1C68002CE8D138BD00BF7A
:10421000B8820024B0820024AC820024B48200243E
:10422000642B03245C2B0324582B032418890408D3
:10423000C88A0408D8FC0308044B1B6853F8210003
:10424000034B1B6803EB4000704700BFAC820024A7
:10425000B0820024012380F87C1080F87D30704704
:10426000704700207047000081640039024B18BF7E
:1042700001211970704700BFF72A032470470020FE
:104280007047C36B0BB10846184770474FF6FF7075
:104290007047406803689B69184770477047000083
:1042A000034B902283F85A2383F85823704700BFAA
:1042B00000E100E0094A0A49D3680A48C3F30A0347
:1042C000013B9BB20B801169C1F30A0101390180E6
:1042D0001364536B43F001035363704700100050A5
:1042E000BE820024BC820024014BD3F8AC0070478E
:1042F00000100050024B0122C3F8AC105A62704704
:10430000001000500163C0E90D217047704700EBB9
:104310008100114640680368DB68184780F83C104C
:104320007047000038B5044611F08DFD23689D6E7E
:1043300017F0DCFD01462046A8472368094A4FF0E4
:104340005041D3F88C5020460023A8476368064AA2
:104350005364064B5A60064A1A639A634FF4162256
:104360005A6338BD00E02ED008830024C0820024A8
:1043700000C05DD011F04EBD38B504460D46406C0E
:104380004FF0FF3103F047FB606C03F067FB242321
:1043900003FB0545002385F8283094F828300BB935
:1043A000236BA36338BD11F0FEBC11F07CBE10B5C9
:1043B000044612F00FFB23682046D3F8BC30BDE85A
:1043C0001040184710B5044611F02EFE60680368CF
:1043D000BDE810401B69184710B5044648212AF073
:1043E0003FF9204610BD000090F838100D4B10B575
:1043F00090F87C401A788C4209D03AB90A490B4AA5
:1044000008881488108001220C801A7010BD002AC0
:10441000FCD0064A0449148808880C8010800022C9
:10442000F3E700BFF62A0324FE2A0324002B03240B
:10443000124A5369DB0370B51ED50023C2F88430DD
:10444000BFF34F8FD2F8803043F6E074C3F3C90056
:10445000C3F34E335B0103EA0406014646EA817565
:104460000139C2F87452F9D2203B13F1200FF2D176
:10447000BFF34F8FBFF36F8F70BD00BF00ED00E043
:1044800008B5094B1B888B4203D8084B1B88934205
:1044900005D9074BA521074A074831F059FE074BBC
:1044A0001980074B1A8008BD002B0324FE2A032421
:1044B0006AE00308CDE0030810E10308FC2A0324A6
:1044C000FA2A032408B531B1044B4FF4B871044AF9
:1044D000044831F03DFE90F8290008BD53E103087F
:1044E00067E10308F1E2030810B531B1064B4FF460
:1044F000B571064A064831F02BFE40681146036844
:10450000BDE810401B6B184753E1030832E3030872
:10451000F1E2030808B529B1034B7921034A0448A5
:1045200031F016FEC06808BD53E10308E0E403085B
:10453000F1E2030810B5044629B1194BA221194A2A
:10454000194831F005FE052A15D8DFE802F00311FD
:1045500015171C22406803681B69984758B101234E
:1045600084F8293084F82C300023C4E9043302E0B5
:10457000002380F8293010BD0362F5E703620123B0
:1045800080F82A30F0E7002380F829300123036205
:10459000F1E7003B18BF012380F82D30EBE700BFA7
:1045A00053E1030895E60308F1E2030810B50C4651
:1045B00011461A462CB1064B9021064A064831F0A6
:1045C000C7FDC46040680368BDE810409B68184799
:1045D00053E1030869E80308F1E2030808B529B1CB
:1045E000054B8221054A064831F0B2FDC0E90411AD
:1045F000C0E9063208BD00BF53E1030844EA0308DE
:10460000F1E2030890F83D3010B5044653B14FF085
:10461000FF31406C03F0FFF9002384F83D300123A3
:1046200084F83E3010BD00002DE9F0410D460446EF
:10463000194635B9154B40F20131154A154831F08C
:1046400087FDC0E91052003A0368134E18BF0122DB
:10465000D3F8903032709847E569A5B12B681F6890
:10466000337873B1236820465B6B9847236C834291
:1046700007D1616C094B28461A883B46BDE8F041DA
:104680001847216CF6E7BDE8F08100BF00EC030895
:1046900038EC030810E10308F82A0324FC2A032459
:1046A00010B50446104629B1134BD021134A1448C3
:1046B00031F04EFD94F8293033B1124B1B6893F85A
:1046C0006F2063691344636194F82B300BB90120A8
:1046D00010BDA368036303685B699847002394F8DF
:1046E0002C0084F82B300028F1D194F82D30002BC9
:1046F000EED184F82900EBE753E1030886EC0308C8
:10470000F1E20308042B032470B51A4C054611F09E
:104710008DFB94F8293013B994F82A30ABB1E169D4
:10472000D4E90532534322694A4393420DD394F8A6
:104730003C0038B19B1AB3FBF1F2994298BF02F1E9
:10474000FF326262012384F82E300123206C84F84A
:104750003D3003F018FA94F83E302BB1606C03F052
:104760007DF9002384F83E3068680368BDE8704036
:104770001B691847C0820024034690F87E0018B1D8
:10478000586803681B68184770470000084B4FF0D3
:104790008062C3F88820BFF34F8FBFF36F8F4FF055
:1047A0008072C3F88820BFF34F8FBFF36F8F7047BD
:1047B00000E100E0034B4FF080629A604FF080729E
:1047C0009A60704700E100E0034690F8280070B559
:1047D000C8B901229D6BD8609A624FF4807205F5CA
:1047E000162418619A8558619861D86118625862D8
:1047F00083F82E00D3E90C26324494420AD90B4B9D
:1048000052210B4A03E00B4B40F2C5110A4A0B48F8
:1048100031F09EFC9D609C634FF4207381F834005E
:10482000CB864FF4F07308630B8770BDDEEF03088F
:1048300019F0030827EE030857EE0308F1E2030816
:1048400038B5184C23685BB3174B184A1B6C11889A
:104850008B4216D1164B0025198805F0DBF823682A
:1048600093F86E2083F88050013283F86E2000F0B8
:1048700067FB206812F0AEF82846BDE8384001F02A
:10488000C6B905F0C7F82468236820461B6A984714
:104890000123002084F88030BDE8384001F0B8B929
:1048A00038BD00BF042B032400100050BE8200243A
:1048B000BC8200242DE9F743044601264FF4A0678B
:1048C0004FF0FF31206C03F032F94FF0FF31606C94
:1048D00003F0A1F894F82E3043B36568D4F8208033
:1048E0002B6884F82B60B8F1000F23D05B6A414637
:1048F00028469847002323622B684FF420720097C4
:104900002846D3F814804FF4F073A168C047236998
:1049100084F82C0001332361F0B12B6828469B6A90
:10492000984701380023E06084F82E30606C03F073
:1049300095F8C5E7626A002ADED02846D3E90993D4
:104940009847616A01442846C8472369626AC4F8E7
:10495000248013442361CFE70120E3E7014808B531
:10496000FFF7A8FFC082002438B51448002500F0E6
:10497000BBFC134C134B2A462946012023604FF4FD
:104980008073A563A387A38584F83E5084F82E50D6
:10499000C4E90C55C4E91055C4E90155C4E90355EF
:1049A000C4E90555C4E90755C4E9095503F075F88C
:1049B0002064284602F0FAFF606438BD08830024B2
:1049C000C0820024E4FC030803685B6C18470120E4
:1049D000704740F2EF307047104B07B5D3F8D42042
:1049E00005215A2042F01002C3F8D420D3F8D42075
:1049F00002F010020192019ADA6F42F01002DA67B7
:104A0000DA6F22F01002DA67002204F0E7F85A2089
:104A100003B05DF804EB04F013B900BF0044025882
:104A200010B504464FF0FF31D0F8A40D02F0F3FFAB
:104A3000606803681B68984778B9637A6BB1237A1A
:104A40005BB984F8A03D204623685B6A9847D4F898
:104A5000A40DBDE8104003F001B80B490B4A0B68E8
:104A60001B01D35C012BF2D1207A0028EFD1A07A70
:104A70000028ECD1086884F8A03D02EB00102372F6
:104A800001F03AF8E3E700BF6CF300240C000024C7
:104A9000054B4FF080620360044BC3F88820BFF3DE
:104AA0004F8FBFF36F8F704728FD030800E100E0D0
:104AB00010B5044640F6A851FFF7EAFF204629F05A
:104AC000CFFD204610BD000008B50A2809D8DFE850
:104AD00000F006100E080808081010101000022040
:104AE00008BD054B8D21054A054831F031FB0020FA
:104AF000F6E70120F4E700BFBCF10308D7F1030893
:104B000022F2030838B50C46887FFFF7DDFF124B11
:104B1000A58AE28A586342EA054221695A64628B97
:104B2000D963521B1A642568082D0ED19A611A6147
:104B300058620A4A207F42EA0062DA61E2681A6239
:104B4000074A5961D9601A6038BD0022D8611A61DC
:104B5000E2689A63034AF6E7001000520900010078
:104B6000012302000123030008B50B280BD8DFE85E
:104B700000F00612100A0A0A0A08080808080220AB
:104B800008BD0520FCE7054B6C21054A054831F0BE
:104B9000DFFA0020F4E70120F2E700BFBCF10308D0
:104BA0004DF2030822F203082DE9F04191F81D802F
:104BB0000C464046FFF7D8FFA77F05463846FFF76B
:104BC000D3FF06463846FFF77FFFA18A628B434B2F
:104BD000521A1A649A61228B521A1A61E28A586335
:104BE00042EA014221695A646268D963DA60206846
:104BF000802828D0227F0FD8202866D0402864D073
:104C000004281AD045EA0265344BB84545F400350E
:104C1000DD6160D0324A44E0B0F5807F04D0B0F569
:104C2000007FEFD12F4800E02F4840EA0262DA61AE
:104C3000E2681A625E62596132E045EA026242F459
:104C40000032DA61F6E7A068021DDA62227F45EAE7
:104C5000026545F40035DD615E625961017841B15C
:104C6000012921D0214B40F21711214A214831F06E
:104C70006FFADA69418822F47F42013922F010028A
:104C800042EA01220121DA61144BDA6942F0200282
:104C9000DA61DA699206FCD410229A600029B9D050
:104CA000154A1A60BDE8F081B2F1FF01DA69408867
:104CB00022F47F4218BF0121013822F0100242EA9B
:104CC000002242F01002DA61DEE745EA0262034B9D
:104CD00042F40032B5E742F20132E2E7001000523E
:104CE00001230100090002000A00020097F20308F4
:104CF000B1F2030822F203080123020090F8A03D5C
:104D000010B50446D3B903689B6A984719491A4AF3
:104D10000B681B01D35C012B2AD11848006838BBF3
:104D2000207A28BBA07A18BB086884F8A03D2372BB
:104D300002EB0010BDE8104000F0DEBE037A43B184
:104D4000002303720B4B18680B4B03EB001000F0B1
:104D500013FF606803681B68984748B9637A3BB1E2
:104D6000236884F8A00D20465B6ABDE81040184710
:104D700010BD00BF6CF300240C00002468F3002475
:104D8000094B5A6891070ED51A6892050BD51A6817
:104D900022F400721A6002229A60044B1B68586861
:104DA00003685B691847704700100052042B032406
:104DB00070B504460E4B0C3000262546602260601C
:104DC0002672667245F8203B294611F05BFF04F518
:104DD0005A63EE6024359D42FBD184F8A06D00201B
:104DE000C4F8A46D02F0E2FDC4F8A40D204670BD25
:104DF00028FD0308034B1A68D207FCD423229A60CB
:104E0000704700BF001000520B4A5369DB0311D5F5
:104E100000290FDD00F01F031944BFF34F8F014439
:104E2000C2F8680220300B1A002BF9DCBFF34F8F59
:104E3000BFF36F8F704700BF00ED00E030B50F4C3F
:104E40002568ED07FCD423251204FF2BA56042F052
:104E500001024FF0020565636264E063E16008D01F
:104E60001B0643F00213E361054B6562606123603A
:104E700030BD044BE3610123F9E700BF001000528D
:104E800001000200020002FF30B50B4C2568ED075F
:104E9000FCD4232512041B06A56042F00102022562
:104EA00043F4003365636264E063E160E361034BF4
:104EB00065626061236030BD001000520100020095
:104EC0000121002208B5084602F0E7FD0A4B1860F0
:104ED00028B90A4B28210A4A0A4831F039F9002238
:104EE0000421012002F078FE074B186018B9074B27
:104EF0002C21034AF0E708BD54830024EFF2030895
:104F000038F3030867F303085083002494F303087D
:104F1000024B4FF0FF31186802F009BE54830024A1
:104F2000014B186802F02FBE54830024024B00216D
:104F3000186802F0FCBD00BF54830024FFF7F0BFE7
:104F40000023034803491A46006802F080BE00BFF0
:104F5000508300240400002413B50023074C01A94A
:104F60001A46206802F0A4FE4FF0FF33002201A988
:104F7000206802F09DFE02B010BD00BF50830024E7
:104F8000012070470C2070470C2303FB0100083000
:104F900070470C2303FB0100083070470120704765
:104FA00045F68C70704745F68C7303FB01000830A2
:104FB000704745F68C7303FB0100083070470120F1
:104FC00070471020704700EB01100830704700EB6D
:104FD0000110083070470846FEF7A8BE034B10B515
:104FE0000446036010F060FA204610BDE0FD03089F
:104FF00010B50446FFF7F2FF1421204629F030FBDC
:10500000204610BD034B10B50446036010F04CFA67
:10501000204610BDACFD030810B50446FFF7F2FFB3
:1050200045F69471204629F01BFB204610BD000078
:10503000034B10B50446036010F036FA204610BD4D
:1050400078FD030810B50446FFF7F2FF182120464B
:1050500029F006FB204610BD094B10B5044603603D
:1050600000F5BF404030FFF7B9FF04F12C00FFF717
:10507000C9FF04F11400FFF7DBFF204610BD00BF9D
:1050800014FE030808B50248FFF7E6FF08BD00BF9D
:105090002092002410B50446FFF7DEFF46F23411DB
:1050A000204629F0DDFA204610BD00002DE9F3412D
:1050B000FEF7F2FF00240546FEF7F2FF2346014605
:1050C0002246284600941AF0C1FC264B264A204668
:1050D000264D1A60FFF774F825481AF01DFC2B685E
:1050E000BFF35B8FDB0736D4284629F0BBFA90B3B9
:1050F000204C214F214B04F1140007F1180604F154
:105100002C0823606060C4F80880E760266110F016
:10511000CDF91B4B4046636110F0C8F9194B384676
:10512000E36210F0C3F904F5A043174A03F6D47004
:10513000C3F8C02FFCF795FB224607F11401304657
:10514000FDF792F93046FEF7F1FD104831F020F8F6
:10515000284629F0A3FA0E4802B0BDE8F04100F05D
:1051600030BD00BF602B0324E08300241C92002488
:105170000800002420920024E0F1002414FE03081B
:1051800078FD0308ACFD0308E0FD03088550000826
:105190005883002470470000014810F068BE00BF2B
:1051A0005883002470B5254E254B264C3046264D9D
:1051B0002360FFF7FDFD28461FF0D0FE234B0022A1
:1051C0004FF4807122481A639A8683F85C209A66AD
:1051D00083F874209A67DC60C3E913121D49C3E9A0
:1051E0001B121D49C3E91F011C491D48C3F8841047
:1051F0001C49C3E90422C3E90622C3E90822C3E922
:105200000A22C3E90F22C3E91122C3E91522C3E927
:105210001822C3E901650B604FF4A06183F83820C0
:105220000180114801804FF44871104801801048F6
:10523000018010490A70104A1A6070BD7084002401
:1052400058FF030818920024E483002458830024A4
:1052500000000101010000010004C8004200140028
:10526000002B0324042B0324FC2A0324FE2A0324FA
:10527000FA2A0324F62A03246CFE03080148FFF7E8
:1052800007BC00BF708400244069704790F840005C
:105290007047036B23B9C06A003818BF01207047FC
:1052A00001207047806870477047043010B50C4685
:1052B0000FC884E80F0010BD7047000008B5034A0E
:1052C0004FF4E571024B034830F042FFD6F3030878
:1052D00095DE030831F4030810B50446482129F08F
:1052E000BFF9204610BD000000220E4B10B511463C
:1052F00004460360C26380F84020C0E90522C0E98B
:105300000722C0E90922C0E90B22C0E90D22C0E949
:105310000322C0E90122012002F0BFFB024B18600A
:10532000204610BD28FE030870F3002410B40C467C
:1053300011461A46036B3BB1C36B406BE41A204421
:105340005DF8044B33F024BBC06AF8E7036B10B57B
:1053500073B1C36B426BC91A5318525C98785C786E
:10536000000440EA04201043DB7840EA036010BDEB
:10537000C26A5318525C59789878000440EA0120B8
:10538000F1E7036B43B1C36BC91A436B5A18585CFE
:10539000527840EA02207047C36A5A18585C537822
:1053A00040EA03207047000070B50446006B0D46CC
:1053B0001646D8B1A36B934208D209230D4AA12106
:1053C0000D4884F840300D4B30F0C2FE0368DB68B6
:1053D0009847206B3246616B03681B69984710B988
:1053E0000D2384F84030606BE56370BDE06A0844CB
:1053F000FBE700BF7BF4030831F4030868F40308FB
:105400002DE9F843436904462BB9224BE721224A90
:10541000224830F09DFE08228169FFF7C5FFA1698F
:1054200043F2300646F2643704312046FFF78EFF20
:10543000A3691844A36A00F108029A4206D3012323
:1054400000206361236AA361BDE8F883636900F10A
:10545000090108222046013321F001016361A161A5
:10546000FFF7A2FFD4F8189020464946FFF789FFBE
:1054700009F1020180462046FFF783FF09F104018C
:1054800005462046FFF762FFB045D1D1BD42CFD1DE
:105490000120D9E7BDF4030806F5030831F4030839
:1054A0000129036838BF0121DB6A70B50D46044647
:1054B0009847A84204D223682046DB6A98470546ED
:1054C0006B1EE6691022204606EB031606F1080162
:1054D000FFF76AFF06F110012046FFF737FF236A46
:1054E000043B0344C4E9055370BD00000021482279
:1054F0002DE9F0410446816180F84010FFF754FF28
:10550000A6690423634A31462046FFF70FFF48B1DE
:105510000323614A40F22F1184F840305F4B60480A
:1055200030F016FE06F1080104235E4A2046A16110
:10553000FFF7FCFE38B10423574A40F2371184F8D4
:105540004030594BEBE706F10C010423574A204643
:10555000A161FFF7EBFE074638B105234E4A4FF431
:105560009F7184F84030524BD9E706F11001204674
:10557000FFF7ECFE054620B94E4B4FF4A271464AA8
:10558000CDE706F1140804234B4A20464146FFF7B5
:10559000CDFE002849D0062384F840300423474A32
:1055A00006F118012046FFF7C1FE00283FD007236F
:1055B00084F840304544424F0C2220462946FFF7EC
:1055C000F3FE05F1080604233A4620463146FFF76C
:1055D000ADFE94F84030002848D0002B48D1A36A93
:1055E000AB4249D805F10C0304352046A361294696
:1055F000FFF7ACFE3044294660622046FFF7A6FE66
:105600000644042220463146FFF7CEFE04232D4AED
:1056100031462046FFF78AFE002838D10123E66193
:105620006361A3692362BDE8F0810127B6E7002F1B
:10563000C0D006F120012046FFF788FE4FF47A73B0
:1056400006F13001B0FBF3F060602046FFF77EFE0C
:1056500006F14001A0602046FFF778FE06F1440104
:10566000E0602046FFF772FE2061A3E7002BB9D06F
:105670000A2384F84030D6E7291D2046FFF766FE4E
:1056800085190C2220462946FFF78EFE99E70B2349
:10569000EFE700BF39F5030857F503083EF50308A7
:1056A00031F4030884F5030889F50308A1F503081C
:1056B000A6F50308BCF50308C8F50308CDF50308F3
:1056C000D2F50308D7F50308C0E90A2100220263D6
:1056D000FFF70CBF10B5002304460846E3620B68D1
:1056E00021639B689847A0622046BDE81040FFF701
:1056F000FDBE000037B5134B0024134D1C60134B47
:105700001C60134B2C601C60124B1960124B1A600A
:10571000124B1C60124B2A684FF4C0751C701C742D
:10572000C3E90244C3E9064403EB02130D4AD268FD
:105730006A4300924FF450425B680AF037FA204601
:1057400003B030BD8CF300247CF300246CF3002400
:105750009CF3002494F3002498F3002474F30024B1
:105760000C00002454F300244B68012B15D1CB68A6
:105770001A071EBF23F00F031033CB608B68180786
:105780001EBF23F00F0310338B60CB688A681B09A0
:10579000120953430E4A13607047022B0ED1CB6897
:1057A0001A0703D023F00F031033CB608B685A071E
:1057B0001EBF23F0070308338B607047002BFCD11A
:1057C000CB685807F2D023F007030833EDE700BF9A
:1057D00084F300240B4A13680B4430B413600A4A64
:1057E000126893420CD2094CD21A2568B2F5504F78
:1057F000294428BF4FF45042216030BC0AF038BA27
:1058000030BC70479CF3002498F3002494F30024E8
:10581000F8B5204C0121204D064623681F4F1B017F
:10582000E954236805EB03139A601D4B196822683D
:1058300005EB0212D1601A68F9680A441A602368FD
:10584000013323602368012B01D9002323602368DF
:105850001B01EB5C33B1022130460AF0DBF9114B3E
:1058600001221A6022683046FB6805EB02154FF4EE
:10587000C07269685A430AF0FEF90B4B1B681A7A2A
:105880003AB99B7A2BB9094B1868BDE8F84002F089
:105890007AB9F8BD7CF300240C00002454F30024F2
:1058A00074F300248CF3002480F3002470F30024AC
:1058B00072B6FEE7014B01221A60704790F3002494
:1058C00038B5164D04462B6813B1154B1B681BBB2E
:1058D000144B1868037A63B9134B144A1B681B01F5
:1058E000D35C012B05D10E4B1B6813B903681B69F0
:1058F00098470F4A1368012B0CD10E4B0B491B68BC
:105900001B01CB5C33B92B6823B9022120461360FD
:105910000AF0DDFB022038BD0120FCE790F30024F3
:1059200068F3002480F300246CF300240C000024AE
:105930008CF300247CF3002470B50546002A3BD08C
:10594000002B39D01D4802240461EC6826074FF46F
:10595000A06618BF24F00F04466018BF103404601E
:105960002409C4602C6914F00F0418BFC4F110049A
:1059700084600698124C400820601248124C036064
:105980001248FFF7B7FE6A6C114B104D1A6028469B
:10599000FFF796FF20602368022B05D10D4B4FF0D7
:1059A000FF31186802F0C3F82368012BEFD1002300
:1059B000094A1360094A136070BD00BF54F3002404
:1059C00078F30024A0F3002488F30024E41A0324CD
:1059D00080F3002470F3002490F3002468F3002483
:1059E0002DE9F04F9946436985B004460F4690462D
:1059F0002BB9294BB321294A294830F0A9FB0822A9
:105A00008169FFF7D1FCA66920463146FFF7B9FC52
:105A1000B11C83462046FFF7B4FC311D8246204668
:105A2000FFF794FC06F10801A36A05460A189A429A
:105A300026D243F230039B4517D146F264339A4590
:105A400013D190B10246A1612046FFF7ADFC0E9B39
:105A500001462A462046CDF80080CDE901933B4619
:105A6000FFF76AFF636901336361A3692B4405B9DA
:105A700008330133626A23F001039342A36109D121
:105A8000012301206361236AA36180F0010005B056
:105A9000BDE8F08F0020F8E7BDF40308DCF503084B
:105AA00031F40308F8B50446816916460822FFF769
:105AB0007BFCA7692046391DFFF748FC07F1080168
:105AC000024605462046FFF76FFC01466EB12A46A6
:105AD000074C084D33460748FFF70CFE2846FFF7F2
:105AE000EFFE20602368002BF8D00120F8BD00BF36
:105AF00088F30024E41A0324D0F80CC017494FEAB5
