:020000040800F2
:100000000000082481580108793A01087B3A010868
:100010007D3A01087F3A0108813A0108000000009A
:100020000000000000000000000000004184000803
:10003000833A010800000000D1840008657C0008B4
:10004000D1580108D1580108D1580108D1580108E8
:10005000D1580108D1580108D1580108D1580108D8
:10006000D1580108853A0108D1580108D158010832
:10007000D1580108D1580108D1580108D1580108B8
:10008000D1580108D1580108D15801088D3A01080A
:10009000993A0108A53A0108A93A0108D15801087E
:1000A000D1580108D1580108D1580108D158010888
:1000B000AD3A0108D1580108D1580108D1580108BA
:1000C000D1580108D1580108D1580108D158010868
:1000D000D1580108D1580108D1580108D158010858
:1000E000D1580108D158010800000000D15801087A
:1000F000D1580108D1580108D1580108D158010838
:10010000D1580108F93A0108D1580108D15801081D
:10011000D1580108D1580108D1580108D158010817
:10012000D1580108D1580108D1580108D158010807
:10013000D1580108D1580108D1580108D1580108F7
:10014000D1580108D158010800000000000000004B
:10015000D1580108D1580108D1580108D1580108D7
:10016000D1580108D1580108D1580108D1580108C7
:10017000D1580108B93A0108D1580108D1580108ED
:10018000D1580108D1580108D1580108D1580108A7
:10019000D1580108D1580108D1580108D158010897
:1001A000C53A0108D1580108B5510008D1580108D5
:1001B000D1580108D1580108D1580108D158010877
:1001C000D1580108D1580108D1580108D158010867
:1001D000D1580108D1580108D1580108D158010857
:1001E000D1580108D1580108D1580108D158010847
:1001F000D1580108D1580108D1580108D158010837
:10020000D1580108D1580108D1580108D158010826
:10021000D1580108D1580108D1580108D158010816
:10022000D1580108D13A0108DD3A0108D158010836
:10023000D1580108D1580108D1580108D1580108F6
:10024000D1580108D1580108D1580108D1580108E6
:10025000D1580108D1580108D1580108D1580108D6
:10026000D1580108D1580108D1580108D1580108C6
:10027000D1580108D1580108D1580108D1580108B6
:10028000D1580108D1580108D158010800000000D8
:08029000D1580108D158010802
:1002C00002780B78012A28BF9A4240F0D8806DE965
:1002D000044540EA0104CDE902676FF0000C4FEAE3
:1002E00044721AB380EA010414F0070F6BD100F0D6
:1002F000070420F0070004F0030521F007014FEA8E
:10030000C505F0E8042314F0040FF1E804670CFAC3
:1003100005F462EA040266EA04060BD063EA040309
:10032000624667EA0407664604E000BFF0E804237B
:10033000F1E8046782FA4CF582EA0604A4FA8CF428
:100340006CBB83FA4CF583EA0705A5FA8CF595B9E1
:1003500050E9022351E9026782FA4CF582EA060469
:10036000A4FA8CF483FA4CF583EA0705A5FA8CF518
:100370002543DBD09CB92DBAB5FA85F424F00704E7
:1003800027FA04F1DDE9026723FA04F303F0FF0022
:1003900001F0FF01FDE80445A0EB0100704724BA1D
:1003A000B4FA84F424F0070426FA04F1DDE90267C4
:1003B00022FA04F202F0FF0001F0FF01FDE804451B
:1003C000A0EB0100704714F0030F3CD110F00304C0
:1003D00028D150F8082B51F8083B82FA4CF582EAF4
:1003E0000305A5FA8CF55DB950F8042C51F8043CCE
:1003F00082FA4CF582EA0305A5FA8CF5002DE8D0C7
:100400002DBAB5FA85F424F0070423FA04F122FA90
:1004100004F202F0FF0001F0FF01FDE80445A0EB4B
:10042000010070474FEAC40420F0030050F8082B85
:1004300021F0030151F8083B0CFA04F462EA0402CB
:1004400063EA0403C9E710F003041DD0A1EB040123
:1004500020F00300E40750F8042B06D012D28B786A
:100460005FFAA2F4E41A06D12BB1CB785FFAB2F4AA
:10047000E41A00D133B920465DF8104B7047A2EB67
:100480000300704701F1040150F8042BCC0721F060
:10049000030151F8043B48D824D222F07F4482FA69
:1004A0004CF594EA1325A5FA8CF50AD165B951F8F3
:1004B000043B84EA0204B4EB036F0ED150F8042B22
:1004C000EBE74FEA132355E035F07F454DD108782F
:1004D000FDE80445C0F1000070474FEA126203F0E6
:1004E000FF0347E002EA1C4482FA4CF594EA134504
:1004F000A5FA8CF50AD165B951F8043B84EA0204E7
:10050000B4EB034F0CD150F8042BEBE74FEA134345
:1005100030E015EA1C4528D10B884FEA124229E049
:100520004FEA124203EA1C4324E002F0FF0482FA7D
:100530004CF594EA1365A5FA8CF50AD165B951F822
:10054000043B84EA0204B4EB032F09D150F8042BD6
:10055000EBE74FEA13630DE015F0FF0F05D10B68D1
:100560004FEA122223F07F4304E04FF00000FDE841
:100570000445704712BA1BBA82FA4CF482EA0304AB
:10058000A4FA8CF5B5FA85F402FA04F203FA04F33E
:100590004FEA1260FDE80445A0EB1360704700BF0E
:1005A00001F0FF01102A2BDB10F0070F08D010F824
:1005B000013B013A8B422DD010F0070F42B3F6D128
:1005C000F0B441EA012141EA014122F007047FF041
:1005D00000070023F0E80256083C85EA010586EA98
:1005E000010685FA47F5A3FA87F586FA47F6A5FAD4
:1005F00087F68EB9EED1F0BC01F0FF0102F00702E0
:1006000032B110F8013B013A83EA010313B1F8D18A
:100610000020704701387047002D06BF354603386B
:10062000073815F0010F07D1013015F4807F02BFA4
:10063000013015F4C03F0130F0BC0138704700BFF5
:10064000844641EA000313F003036DD1403A41D3DD
:1006500051F8043B40F8043B51F8043B40F8043B9C
:1006600051F8043B40F8043B51F8043B40F8043B8C
:1006700051F8043B40F8043B51F8043B40F8043B7C
:1006800051F8043B40F8043B51F8043B40F8043B6C
:1006900051F8043B40F8043B51F8043B40F8043B5C
:1006A00051F8043B40F8043B51F8043B40F8043B4C
:1006B00051F8043B40F8043B51F8043B40F8043B3C
:1006C00051F8043B40F8043B51F8043B40F8043B2C
:1006D000403ABDD2303211D351F8043B40F8043BCC
:1006E00051F8043B40F8043B51F8043B40F8043B0C
:1006F00051F8043B40F8043B103AEDD20C3205D3DC
:1007000051F8043B40F8043B043AF9D2043208D0D3
:10071000D2071CBF11F8013B00F8013B01D30B8845
:1007200003806046704700BF082A13D38B078DD023
:1007300010F003038AD0C3F10403D21ADB071CBFF5
:1007400011F8013B00F8013B80D331F8023B20F85F
:10075000023B7BE7043AD9D3013A11F8013B00F898
:10076000013BF9D20B7803704B7843708B78837020
:10077000604670470000000000000000000000001C
:1007800030B490F800F020F007016FF0000C10F08A
:10079000070491F820F040F048804FF000046FF01B
:1007A0000700D1E9002391F840F000F1080082FA37
:1007B0004CF2A4FA8CF283FA4CF3A2FA8CF34BBB02
:1007C000D1E9022382FA4CF200F10800A4FA8CF27B
:1007D00083FA4CF3A2FA8CF3E3B9D1E9042382FA49
:1007E0004CF200F10800A4FA8CF283FA4CF3A2FA5E
:1007F0008CF37BB9D1E9062301F1200182FA4CF296
:1008000000F10800A4FA8CF283FA4CF3A2FA8CF3FC
:10081000002BC6D0002A04BF04301A4612BAB2FA1E
:1008200082F200EBD20030BC7047D1E9002304F023
:100830000305C4F100004FEAC50514F0040F91F858
:1008400040F00CFA05F562EA05021CBF63EA0503F5
:1008500062464FF00004AAE781F0004102E000BFC9
:1008600083F0004330B54FEA41044FEA430594EA70
:10087000050F08BF90EA020F1FBF54EA000C55EAAB
:10088000020C7FEA645C7FEA655C00F0E2804FEA7C
:100890005454D4EB5555B8BF6D420CDD2C4480EA5E
:1008A000020281EA030382EA000083EA010180EA8E
:1008B000020281EA0303362D88BF30BD11F0004FDC
:1008C0004FEA01314FF4801C4CEA113102D0404212
:1008D00061EB410113F0004F4FEA03334CEA13334D
:1008E00002D0524263EB430394EA050F00F0A78065
:1008F000A4F10104D5F1200E0DDB02FA0EFC22FA60
:1009000005F2801841F1000103FA0EF2801843FA53
:1009100005F359410EE0A5F120050EF1200E012A44
:1009200003FA0EFC28BF4CF0020C43FA05F3C01882
:1009300051EBE37101F0004507D54FF0000EDCF1FB
:10094000000C7EEB00006EEB0101B1F5801F1BD3A4
:10095000B1F5001F0CD349085FEA30004FEA3C0CA8
:1009600004F101044FEA445212F5800F80F09A809E
:10097000BCF1004F08BF5FEA500C50F1000041EBA2
:10098000045141EA050130BD5FEA4C0C404141EBA6
:100990000101013C28BFB1F5801FE9D291F0000FA1
:1009A00004BF01460020B1FA81F308BF2033A3F150
:1009B0000B03B3F120020CDA0C3208DD02F1140C47
:1009C000C2F10C0201FA0CF021FA02F10CE002F182
:1009D0001402D8BFC2F1200C01FA02F120FA0CFC7B
:1009E000DCBF41EA0C019040E41AA2BF01EB0451C4
:1009F000294330BD6FEA04041F3C1CDA0C340EDCC2
:100A000004F11404C4F1200220FA04F001FA02F304
:100A100040EA030021FA04F345EA030130BDC4F1C2
:100A20000C04C4F1200220FA02F001FA04F340EAB7
:100A30000300294630BD21FA04F0294630BD94F068
:100A4000000F83F4801306BF81F480110134013D4F
:100A50004EE77FEA645C18BF7FEA655C29D094EAC0
:100A6000050F08BF90EA020F05D054EA000C04BF3E
:100A70001946104630BD91EA030F1EBF0021002029
:100A800030BD5FEA545C05D14000494128BF41F0C8
:100A9000004130BD14F580043CBF01F5801130BD2C
:100AA00001F0004545F0FE4141F470014FF00000B7
:100AB00030BD7FEA645C1ABF194610467FEA655C68
:100AC0001CBF0B46024650EA013406BF52EA03350A
:100AD00091EA030F41F4002130BD00BF90F0000FF8
:100AE00004BF0021704730B54FF4806404F1320434
:100AF0004FF000054FF0000150E700BF90F0000FED
:100B000004BF0021704730B54FF4806404F1320413
:100B100010F0004548BF40424FF000013EE700BFE3
:100B200042004FEAE2014FEA31014FEA02701FBF73
:100B300012F07F4393F07F4F81F06051704732F0A5
:100B40007F4208BF704793F07F4F04BF41F40021FC
:100B5000704730B54FF4607401F0004521F000415A
:100B60001CE700BF50EA010208BF704730B54FF0E4
:100B700000050AE050EA010208BF704730B511F0E5
:100B8000004502D5404261EB41014FF4806404F11D
:100B900032045FEA915C3FF4D8AE4FF003025FEAA3
:100BA000DC0C18BF03325FEADC0C18BF033202EB27
:100BB000DC02C2F1200300FA03FC20FA02F001FA81
:100BC00003FE40EA0E0021FA02F11444BDE600BF24
:100BD00080F0004002E000BF81F0004142001FBFF2
:100BE0005FEA410392EA030F7FEA226C7FEA236CFB
:100BF0006AD04FEA1262D2EB1363C1BFD2184140F0
:100C000048404140B8BF5B42192B88BF704710F085
:100C1000004F40F4000020F07F4018BF404211F028
:100C2000004F41F4000121F07F4118BF494292EA90
:100C3000030F3FD0A2F1010241FA03FC10EB0C00BC
:100C4000C3F1200301FA03F100F0004302D5494249
:100C500060EB4000B0F5000F13D3B0F1807F06D3F6
:100C600040084FEA310102F10102FE2A51D2B1F1EE
:100C7000004F40EBC25008BF20F0010040EA0300E3
:100C80007047490040EB0000013A28BFB0F5000F63
:100C9000EDD2B0FA80FCACF1080CB2EB0C0200FA19
:100CA0000CF0AABF00EBC25052421843BCBFD04068
:100CB0001843704792F0000F81F4000106BF80F4E2
:100CC00000000132013BB5E74FEA41037FEA226CA5
:100CD00018BF7FEA236C21D092EA030F04D092F070
:100CE000000F08BF0846704790EA010F1CBF0020A4
:100CF000704712F07F4F04D1400028BF40F0004001
:100D0000704712F100723CBF00F50000704700F020
:100D1000004343F0FE4040F4000070477FEA226247
:100D200016BF08467FEA23630146420206BF5FEA18
:100D3000412390EA010F40F4800070474FF0000318
:100D400004E000BF10F0004348BF40425FEA000CDF
:100D500008BF704743F0964301464FF000001CE087
:100D600050EA010208BF70474FF000030AE000BFDD
:100D700050EA010208BF704711F0004302D540421B
:100D800061EB41015FEA010C02BF8446014600208D
:100D900043F0B64308BFA3F18053A3F50003BCFAA8
:100DA0008CF2083AA3EBC25310DB01FA02FC634455
:100DB00000FA02FCC2F12002BCF1004F20FA02F25C
:100DC00043EB020008BF20F00100704702F120024F
:100DD00001FA02FCC2F1200250EA4C0021FA02F2B0
:100DE00043EB020008BF20EADC70704753B94AB9F0
:100DF000002908BF00281CBF4FF0FF314FF0FF3023
:100E000000F0E2B8ADF1080C6DE904CE3BF064FEF1
:100E1000DDF804E0DDE9022304B0704700F134019D
:100E200091E838009C46A6464CF8045D90E8FF0F18
:100E3000E54600BD90EC210B704700BF80EC210B14
:100E4000704700BF90EC200B704700BF80EC200B78
:100E5000704700BFD0EC200B704700BFC0EC200BE8
:100E6000704700BFF0EC0201F0EC0211F0EC02213F
:100E7000F0EC0231F0EC0241F0EC0251F0EC0261D6
:100E8000F0EC0271F0EC0281F0EC0291F0EC02A1C6
:100E9000F0EC02B1F0EC02C1F0EC02D1F0EC02E1B6
:100EA000F0EC02F1704700BFE0EC0201E0EC02114F
:100EB000E0EC0221E0EC0231E0EC0241E0EC025116
:100EC000E0EC0261E0EC0271E0EC0281E0EC029106
:100ED000E0EC02A1E0EC02B1E0EC02C1E0EC02D1F6
:100EE000E0EC02E1E0EC02F1704700BFB0FC0181F0
:100EF000B0FC0191B0FC01A1B0FC01B1704700BF92
:100F0000A0FC0181A0FC0191A0FC01A1A0FC01B109
:100F1000704700BFEC4600B52DE900502DE9FF1FDA
:100F20004FF000032DE90C0001A93CF08FF8DDF82B
:100F300040E012B0704700BFEC4600B52DE900500C
:100F40002DE9FF1F4FF000032DE90C0001A93CF033
:100F5000B9F8DDF840E012B0704700BFEC4600B5CC
:100F60002DE900502DE9FF1F4FF000032DE90C0083
:100F700001A93CF0C9F8DDF840E012B0704700BFAD
:100F8000EC4600B52DE900502DE9FF1F4FF000039E
:100F90002DE90C0001AB3CF08DF8DDF840E012B01B
:100FA000704700BFEC4600B52DE900502DE9FF1F4A
:100FB0004FF000032DE90C0001AA3CF005F9DDF823
:100FC00040E012B0704700BF704700BF0348044BB9
:100FD000834202D0034B03B118477047C007002477
:100FE000C0070024000000000548064B1B1AD90F5B
:100FF00001EBA301491002D0034B03B1184770471E
:10100000C0070024C00700240000000010B5064CF3
:10101000237843B9FFF7DAFF044B13B10448AFF369
:1010200000800123237010BDC08100240000000057
:1010300044DC030808B5054B1BB105490548AFF36F
:101040000080BDE80840FFF7CFBF00BF00000000F0
:10105000C481002444DC030870470438704770479B
:1010600010B5044610212DF033FD204610BDA0F12F
:101070000400F5E784B030B585B0054609AC84E8D6
:101080000E000CAB93E807008DE8070094E80E0013
:10109000E86800F08DFA05B0BDE8304004B0704754
:1010A000A0F10400FFF7E6BF82B0C0686B4683E89A
:1010B000060093E8060002B000F0DCB8A0F10400DE
:1010C000FFF7F2BF84B013B505AC84E80E00BDF89D
:1010D0002030ADF80030C06894E80E0000F04CFB02
:1010E00002B0BDE8104004B07047A0F10400FFF763
:1010F000E9BF82B0C0686B4683E8060093E806004B
:1011000002B000F073B9A0F10400FFF7F2BF82B0A3
:10111000C0686B4683E8060093E8060002B000F062
:101120009DB9A0F10400FFF7F2BF84B030B585B0DF
:10113000054609AC84E80E000CAB93E807008DE887
:10114000070094E80E00E86800F0A8F905B0BDE8D3
:10115000304004B07047A0F10400FFF7E6BF84B050
:1011600013B505AC84E80E00BDF82030ADF80030B2
:10117000C06894E80E0000F079FB02B0BDE81040B2
:1011800004B07047A0F10400FFF7E9BF10B485B0C8
:10119000C06801AC84E80E0094E80E0005B05DF86C
:1011A000044B00F0CBB9A0F10400FFF7EFBF84B00F
:1011B00037B507AC054684E80E00DDE90A018DE885
:1011C000030094E80E00E86800F0EEFB03B0BDE811
:1011D000304004B07047A0F10400FFF7E8BF000002
:1011E0000022C1608260024A02603C324260704765
:1011F000F4DC03087047704770470000034B10B5DC
:101200000446036001F09CFA204610BDCCFA0308A6
:1012100010B50446FFF7F2FF46F2BC1120462DF050
:1012200057FC204610BD0268B0EE401AD0ED0E0A01
:10123000D26F90ED0D0A104710B5044601F0C2FBC5
:101240000A4B002100222046236004F5C043C3F866
:10125000AC11C3F8B0110649C3F8A821C3F8B41102
:10126000A3F8B82183F8BA2110BD00BFCCFA030857
:1012700000009D4282B002AB03E9060002B0704755
:1012800038B5044601F045FA534D502304F5A650F5
:10129000524A022114301EF008FB04F644301CF0C0
:1012A00017FA00232A460A2104F5A5501EF0FDFA7C
:1012B00004F5BA601CF00CFA04F5A55000232A4688
:1012C0000A2114301EF0F1FA04F21C601CF000FA3E
:1012D00004F5AB5000232A46082118301EF0E5FA29
:1012E00004F557601CF0F4F904F5AE5000232A46CB
:1012F000042110301EF0D9FA04F644701CF0E8F90D
:1013000004F5A6510622364808311EF0FEFC04F50D
:10131000CD601CF0DDF904F5A65000232A460A2111
:1013200018301EF0C2FA04F5A75000232A460A21FD
:101330000C301EF0BAFA04F6E8301CF0C9F904F5D6
:10134000AA5000232A460A2110301EF0AEFA04F5F6
:10135000AB5000232A460A2104301EF0A6FA04F5F9
:1013600052601CF0B5F900232A460A2104F5A85062
:101370001EF09BFA04F5A85000232A460A211430D7
:101380001EF093FA04F638401CF0A2F904F5AF50B1
:1013900000232A46082118301EF087FA04F58250EF
:1013A00014301CF095F904F5B0500E4B0A210E4A8A
:1013B00008301EF07AFA04F585501CF089F904F51E
:1013C000C042002304F58054A2F8B83182F8BA3143
:1013D00084F8B53238BD00BF5FDD03085CDD03086B
:1013E00062DD030866DD03086BDD030837B50446DC
:1013F000194D02AB00F5A65003E906001830BDF800
:1014000002302A460A211EF050FA04F5A750BDF812
:1014100000302A460A210C301EF047FA04F6E83064
:101420001CF056F904F5AA50BDF806302A460A21E8
:1014300010301EF03AFA04F5AB50BDF804302A46DD
:101440000A2104301EF031FA04F5526003B0BDE801
:1014500030401CF03DB900BF5FDD030837B50E4DCD
:1014600002AB044600F5A85003E906002A46BDF881
:1014700002300A211EF019FA04F5A850BDF8003018
:101480002A460A2114301EF010FA04F6384003B040
:10149000BDE830401CF01CB95FDD030884B037B5EF
:1014A000044607A8244D80E80E0004F5AD5013460D
:1014B0000A212A461C301EF0F8F904F5AD50079BAE
:1014C0002A460A2108301EF0F0F904F6AC601CF040
:1014D000FFF804F6F8601CF0FBF89DED097A04F5BE
:1014E000B0502A46B7EEC77A08211C308DED007B3C
:1014F0001EF0DBF99DED0A7A04F5B1502A46B7EEED
:10150000C77A08210C308DED007B1EF0CEF904F572
:101510008F5014301CF0DCF80B9B2A460A2104F58E
:10152000A5501EF0C2F904F5BA6003B0BDE8304022
:1015300004B01CF0CDB800BF5FDD030830B52DED61
:10154000028B87B0044601A804F16C0580E80E0008
:101550009DED028A2846FDEEC87A17EE901A18F023
:10156000E1F828461CF0B4F804F5AF5005AB0E4A7C
:10157000082118308DED058A1EF0BEFB04F582505F
:1015800014301CF0A5F804F5A550019B0A21074A68
:1015900014301EF08AF904F21C6007B0BDEC028B17
:1015A000BDE830401CF094B86EDD030874DD03081C
:1015B00084B070B504460D462DED048B82B004F264
:1015C00004460BA8DDED0F9A9DED109A80E80E0001
:1015D000304618F0A7F830461CF07AF804F5B450FD
:1015E0002B465D4A05211C301EF05FF904F5A25020
:1015F00004F50E7514301CF06BF80C99284618F0A1
:1016000091F828461CF064F89DF83430032B00F262
:101610009980DFE803F09A0291940122502304F5A7
:10162000805104F5A65081F8B52214304B4A0221AE
:101630001EF03BF904F644301CF04AF804F59450CF
:1016400010301CF045F80E9B04F5A6510622012B24
:1016500001F108017CD0022B7CD041481EF055FBE3
:10166000DFED408A04F5CD6004F658251CF030F813
:1016700004F5AB5029EEA88A01AB3B4A082118308B
:10168000CDED019A1EF038FB04F557601CF020F8F0
:1016900069EE288AB0EE480A2846FFF7C4FD2846BE
:1016A00004F2B46504F5F4661CF012F8B0EE680AB2
:1016B0002846FFF7B8FDB0EE680A3046FFF7B3FDE5
:1016C00028461CF005F830461CF002F8082104F505
:1016D000AC5001AB244A08448DED019A1EF00CFB7E
:1016E00004F6BC501BF0F4FF04F5AC5001AB1E4AED
:1016F000082118308DED019A1EF0FEFA04F60860FC
:101700001BF0E6FF38EE688ADFED187A01A928465B
:10171000B0EEC88AB4EEE78AF1EE10FA4CBF2B2384
:101720002C23ADF8043017F00BF802B0BDEC048B9D
:10173000BDE8704004B07047002244236FE70022E8
:1017400052236CE700222D2369E700224E2366E72F
:10175000074883E7074881E75FDD03085CDD03088E
:1017600062DD03082EFA8E3C83DD03080AD7233C92
:1017700078DD03087EDD030884B037B5054607A889
:1017800080E80E009DF81E2005F5C04305F58E5437
:10179000511E08344A424A4183F8BA219DF81F205D
:1017A000032A22D8DFE802F02102070A0122A3F867
:1017B000B821142307E04FF48072F8E740F20112D9
:1017C000A3F8B8211323204601A9ADF8043018F07E
:1017D00068F8204605F59F541BF07AFF9DF81C30F1
:1017E0000BB1012B03D0272302E00022DFE72623E1
:1017F00001A92046ADF8043018F053F8204605F54D
:1018000085541BF065FF9DF81D3005F5B0510A2287
:10181000022B01F108011BD0032B1BD0012B14BF9D
:101820000D480E481EF071FA20461BF051FF05F5D9
:10183000AE50BDF824300821094A18301EF035F8A2
:1018400005F5796003B0BDE8304004B01BF040BF3F
:101850000448E7E70448E5E766DD030888DD030898
:101860005FDD03088CDD030894DD030884B0F7B561
:10187000044609A880E80E0004F5B25004F59A5514
:101880009DF824300A21474A0C309DF82A709DF8B3
:101890002B601EF00AF89DF826300A21414A04F513
:1018A000B3501EF002F828461BF012FF04F5B350A7
:1018B0009DF825300A213B4A14301DF0F6FF04F54F
:1018C000B4509DF827300A21364A08301DF0EDFF4C
:1018D00028461BF0FDFE04F581559DF8283008359B
:1018E000002B53D01F23284601A9ADF8043017F070
:1018F000D8FF284604F58B551BF0EAFE1035002F63
:101900004BD02423284601A9ADF8043017F0C9FFB5
:10191000284604F58C551BF0DBFE1C35002E3ED00E
:101920001B2301A92846ADF8043017F0BAFF28465A
:101930001BF0CEFE04F5B150BDF82C300821194A39
:101940001C301DF0B2FF04F5925004301BF0C0FEB5
:1019500004F5A950BDF82E300A21124A08301DF0B6
:10196000A4FF04F688401BF0B3FE04F5A950BDF8AF
:1019700030300A210B4A1C301DF097FF04F6D4408A
:1019800003B0BDE8F04004B01BF0A2BE9DF82930C2
:101990000BB11A23A7E71523A5E72523B2E71C23DC
:1019A000BFE700BF5FDD030884B073B5044607A836
:1019B0000A9E04F5955580E80E009DF81C301C35F4
:1019C000032B1CD8DFE803F01B021719102328464D
:1019D00001A9ADF8043017F064FF284604F59755C7
:1019E0001BF076FE9DF81D300835032B26D8DFE866
:1019F00003F025080D0F0E23E9E70D23E7E70F237A
:101A0000E5E7072301A9ADF8043006E00523F9E76F
:101A100004230DEB0301ADF80430284617F041FF15
:101A200028461BF055FE04F598559DF81E301435D8
:101A3000032B38D8DFE803F0370433350623E1E71A
:101A4000192301A92846ADF8043017F02AFF2846CB
:101A500004F68C051BF03CFE3146284617F062FE6A
:101A600004F5AE503346114A042110301DF01DFF1D
:101A700004F644701BF02CFE28461BF029FE0821BA
:101A800004F5AF500B9B094A08441DF00EFF04F605
:101A9000DC7002B0BDE8704004B01BF019BE182322
:101AA000CFE71623CDE71723CBE700BF5FDD0308A1
:101AB000F7B500F5C0473C2300F587560446D7F834
:101AC000A8510C36013595FBF3F2C7F8A85103FB7A
:101AD000125597F8B8314BB11D2D01A93046D4BF2E
:101AE0001D231E23ADF8043017F0DBFE304604F54D
:101AF00088561BF0EDFD97F8B93118364BB11D2D06
:101B000001A93046D4BF28232923ADF8043017F0AB
:101B1000C8FE304604F58A541BF0DAFD97F8BA3156
:101B200004344BB11D2D01A92046D4BF202321230D
:101B3000ADF8043017F0B5FE204603B0BDE8F04024
:101B40001BF0C6BD0022C0F88820704730B52DEDCF
:101B5000028B85B09FED398ADFED398A04A80A9C93
:101B600000E90E00082200210DEB020010F0B4F88D
:101B7000236808228342114618BF20600DEB020043
:101B800014BF0125002510F0A7F863680322102177
:101B9000834218BF606002A818BF012510F09CF8AE
:101BA000237AC0B203221621834218BF207202A8F2
:101BB00018BF012510F090F8E3681022202183421D
:101BC00018BFE06002A818BF012510F085F8FFF7E4
:101BD000C7F8B0EE487A07EE900A102202A830212A
:101BE000A7EEA87AD4ED047A77EEC77AF0EEE77A1A
:101BF000F4EEE87AF1EE10FAC4BF84ED047A012520
:101C000010F06AF8FFF7ACF8F0EE487A07EE100A29
:101C1000E7EE287A94ED057A37EE677AB0EEC77A68
:101C2000B4EEE87AF1EE10FAC4BF0125C4ED057AEE
:101C3000284605B0BDEC028B30BD00BF000061C47A
:101C4000CDCCCC3D30B585B004A8089C00E90E0091
:101C5000012202A8002110F03FF82378032201217D
:101C6000834218BF207002A814BF0125002510F080
:101C700033F8637801220421834218BF607002A800
:101C800018BF012510F028F8A3780322052183420C
:101C900018BFA07002A818BF012510F01DF8E37846
:101CA00001220A21834218BFE07002A818BF012553
:101CB00010F012F8237901220C21834218BF207101
:101CC00002A818BF012510F007F863790C22122131
:101CD000834218BF607102A818BF01250FF0FCFFF6
:101CE000238980B210221E21834218BF208102A8BE
:101CF00018BF01250FF0F0FF638980B21022302158
:101D0000834218BF608102A818BF01250FF0E4FFCD
:101D1000A38980B283421CBF0125A081284605B05B
:101D200030BD000030B52DED028B85B09FED268AC9
:101D3000DFED268A04A80A9C00E90E00202202A8F2
:101D400000210FF0C9FFFFF70BF8B0EE487A07EE5D
:101D5000900A202202A8A7EEA87AD4ED007A1146B4
:101D6000F8EE677A77EEC77AF0EEE77AF4EEE87A83
:101D7000F1EE10FAC5BFBCEEC77A0125002584ED4F
:101D8000007A0FF0A9FFFEF7EBFFF0EE487A07EEBE
:101D9000100AE7EE287A94ED017AB8EE477A37EE2A
:101DA000677AB0EEC77AB4EEE87AF1EE10FAC4BF03
:101DB0000125FCEEE77A2846C8BFC4ED017A05B0DC
:101DC000BDEC028B30BD00BF0000FAC30AD7233C34
:101DD00030B585B004A8089C00E90E00202202A8B6
:101DE00000210FF079FF23680C222021834218BFC5
:101DF000206002A814BF012500250FF06DFFFEF73B
:101E0000AFFF9FED156A07EE900A94ED017ADFEDC2
:101E1000136A022267EE867A02A83021F5EE407A34
:101E2000F1EE10FA46FEA76A37EE667AB0EEC77A90
:101E3000B4EEC67AF1EE10FAC4BFC4ED017A012502
:101E40000FF04AFF237AC0B283421CBF01252072E3
:101E5000284605B030BD00BFCDCCCC3D0000000011
:101E600030B585B0002504A8089C00E90E000522C5
:101E700002A800210FF030FF237805228D4208BF11
:101E80008342114618BF207002A818BF01250FF029
:101E900023FF63780522002908BF83424FF00A011F
:101EA00018BF607002A818BF01250FF015FFA378B6
:101EB0000522002908BF83424FF00F0118BFA07010
:101EC00002A818BF01250FF007FFE37801220029BF
:101ED00008BF83424FF0140118BFE07002A818BF7A
:101EE00001250FF0F9FE23790122002908BF834262
:101EF0004FF0150118BF207102A818BF01250FF07F
:101F0000EBFE63790122002908BF83424FF01601DE
:101F100018BF607102A818BF01250FF0DDFEA3797C
:101F20000122002908BF83424FF0170118BFA0719A
:101F300002A818BF01250FF0CFFEE3790C2200297B
:101F400008BF83424FF0180118BFE07102A818BF04
:101F500001250FF0C1FE194B0C22C018238961F135
:101F60000001002908BF83424FF0240118BF2081DF
:101F700002A818BF01250FF0AFFE104B0C22C018AD
:101F8000638961F10001002908BF83424FF03001ED
:101F900018BF608102A818BF01250FF09DFE074BF6
:101FA000C018A38961F10001002908BF83421CBF4A
:101FB0000125A081284605B030BD00BF3CF6FFFFDB
:101FC00030B585B0002404A8089D00E90E00102259
:101FD00002A800210FF080FE214B2A881B1802A8BE
:101FE00061F100018C4208BF9A424FF0100218BF05
:101FF0006B80114618BF01240FF06EFE184B6A88E3
:102000001B1802A861F10001002908BF9A424FF095
:1020100010024FF020011CBF6B8001240FF05CFE0A
:102020000F4BAA881B1802A861F10001002908BF04
:102030009A424FF010024FF030011CBFAB800124D8
:102040000FF04AFE064BEA881B1861F100010029D7
:1020500008BF9A421CBF0124EB80204605B030BD6A
:1020600078ECFFFF30B585B004A8089C00E90E00AD
:10207000102202A800210FF02FFE2F4B22881818E3
:102080004FF0000361F100010029BCBF184619465A
:102090008B4208BF82424FF0100218BF20801146C9
:1020A00002A814BF012500250FF016FE224B6288FE
:1020B00018184FF0000361F100010029BCBF184659
:1020C00019468B4208BF82424FF010024FF02001A8
:1020D00018BF608002A818BF01250FF0FDFD174B47
:1020E000A28818184FF0000361F100010029BCBF5D
:1020F000184619468B4208BF82424FF010024FF03B
:10210000300118BFA08002A818BF01250FF0E4FD20
:10211000094BE28818184FF0000361F10001002913
:10212000BCBF184619468B4208BF82421CBF01251E
:10213000E080284605B030BD78ECFFFF3CF6FFFF9D
:1021400030B52DED028B85B0DFED508A04A80A9CD6
:1021500000E90E00082200210DEB02000FF0BCFD8B
:10216000FEF7FEFDD4ED007A07EE100A0822F8EE25
:10217000677A27EE287A0DEB0200114677EEC77AD0
:10218000F0EEE77AF4EEE87AF1EE10FAC5BFBCEEB5
:10219000C77A0125002584ED007A0FF09DFDFEF73A
:1021A000DFFDD4ED017A07EE100A0A22F8EE677A15
:1021B00002A827EE287A102177EEC77AF0EEE77AA8
:1021C000F4EEE87AF1EE10FAC2BFBCEEC77A012550
:1021D00084ED017A0FF080FDFEF7C2FD07EE100AD4
:1021E000D4ED027A0A2227EE287A02A81A2177EE85
:1021F000C77AF0EEE77AF4EEE87AF1EE10FAC4BFAF
:1022000084ED027A01250FF067FDFEF7A9FD08EEC7
:10221000100AD4ED037A0A2228EE288A02A8242183
:1022200077EEC87AF0EEE77AF4EEE87AF1EE10FA9B
:10223000C4BF84ED038A01250FF04EFDD4ED047A6E
:102240000A2202A8F8EE677A2E21F4EE487AF1EE1F
:1022500010FA1FBFFCEEC87A012517EE903A2361F1
:102260000FF03AFDD4ED057AF8EE677AF4EE487A8D
:10227000F1EE10FA1CBF0125BCEEC88A284618BF33
:1022800084ED058A05B0BDEC028B30BD0AD7233C36
:1022900030B585B0002504A8089C00E90E00032293
:1022A00002A800210FF018FD237803228D4208BFF9
:1022B0008342114618BF207002A818BF01250FF0F5
:1022C0000BFD63780322002908BF83424FF006010B
:1022D00018BF207002A818BF01250FF0FDFCA378DD
:1022E0000322002908BF83424FF0090118BFA070E4
:1022F00002A818BF01250FF0EFFCE37803220029A4
:1023000008BF83424FF0090118BFE07002A818BF50
:1023100001250FF0E1FC23790A22002908BF83423E
:102320004FF00C0118BF207102A818BF01250FF053
:10233000D3FC1438E3884FF00A0261F10001002950
:1023400008BF83424FF01A0118BFE08002A818BFEF
:1023500001250FF0C1FC1438A3684FF0080261F1A9
:102360000001002908BF83424FF0280118BFA06078
:102370000DEB020018BF01250FF0AEFCE368082248
:10238000002908BF83424FF0300118BFE0600DEB19
:10239000020018BF01250FF09FFC2369002908BF28
:1023A00083421CBF01252061284605B030BD0000D6
:1023B0002DE9F04788B004460A27DFF8E88105AD2B
:1023C000DFF8E49100232946D8F800001A4605F00A
:1023D00089FE78BB059B4B4500F2CA80B3F1805F54
:1023E00026D903F17043013B102B21D8DFE803F01D
:1023F0000925374E617420208F20202020202020A6
:10240000A6000094204695E80E00FFF79FFB78B1E8
:10241000D4F8886004F10C03D6F800C093E80700F4
:102420008DE807003046DCF808A094E80E00D0479D
:10243000013FC7D108B0BDE8F08704F11806204677
:10244000009695E80E00FFF76DFC0028F0D0D4F858
:102450008800036896E80600DB689847E8E704F11F
:1024600020062046009695E80E00FFF7EBFB0028BB
:10247000DED0D4F88800A38DD0F800C0ADF80030CD
:1024800096E80E00DCF81060B047D1E704F14A038B
:102490002046009395E80E00FFF792FD0028C7D074
:1024A000D4F88800D4F84A100368D4F84E205B6949
:1024B000D3E704F152032046009395E80E00FFF79E
:1024C000D1FD0028B4D0D4F88800D4F852100368A5
:1024D000D4F856209B69C0E704F15C0620460096BC
:1024E00095E80E00FFF72CFE0028A1D0D4F888C094
:1024F00004F16803DCF800E093E807008DE80700CA
:10250000604696E80E00DEF81C60B04790E704F1E4
:102510003C062046009695E80E00FFF7A1FC002837
:1025200086D0D4F88800B4F84830D0F800C0ADF8B0
:10253000003096E80E00DCF82060A5E704F1740690
:102540002046009695E80E00FFF7A2FE00283FF413
:102550006FAFD4F888C0D4E92001DCF800E08DE842
:102560000300604696E80E00DEF82460B0475FE79F
:102570000B4A93427FF45CAF04F13006204600968C
:1025800095E80E00FFF724FC00283FF451AFD4F883
:1025900088000368D3F828A096E80E00D04747E7E4
:1025A00023000010B41B032411000010704700F535
:1025B00098730868496803C37047704701F0CEBD3F
:1025C00010B504464FF4AE712CF082FA204610BDCF
:1025D00010B50446D0F85801FFF7EAFE2046BDE8E2
:1025E000104019F05DBF10B50446D0F8400158B155
:1025F0000368DB68984738B1D4F8400103689B68EA
:1026000098470023C4F8403110BD000010B50446BF
:1026100001F070FD014B2046236010BD00FB030854
:102620000020704781807047C180704701817047EA
:10263000418170477047704770477047704710B4CA
:10264000C4880368121B84885B6D091B12B25DF895
:10265000044B09B218474FF6FF7383814FF0FF33E5
:1026600003621368C361106070477047704770471A
:10267000002070478B888380012070477047017667
:1026800070478182C2827047704730B585B0036859
:10269000044601816D460146D3F884303C34284617
:1026A000984795E8070084E8070005B030BD30B5CD
:1026B00085B00368044641816D460146D3F88430F5
:1026C0003C342846984795E8070084E8070005B0A1
:1026D00030BD0022028042808280C280704780F834
:1026E00036107047036870B504461B6B1546984753
:1026F0002368204629465B6EBDE8704018470020DD
:102700007047806C7047806C7047C06C7047704732
:102710007047704710B5044608212CF0D9F92046BF
:1027200010BD10B5044650212CF0D2F9204610BD42
:1027300010B504464C212CF0CBF9204610BD00000A
:10274000034B10B50446036017F0D4FF204610BDBC
:102750000CFD0308064B10B50446036017F0CAFFD2
:1027600046F2A81120462CF0B3F9204610BD00BF58
:102770000CFD030890F8252012B103685B69184727
:10278000704708B5FFF7F6FF08BD90F825201AB18D
:1027900090F8242002B1186070470000036870B5FB
:1027A0005E6B0446114B8DB21B682BB9104B6C212C
:1027B000104A114833F004FF1049828D0988914274
:1027C00003D80F4B6D210B4AF3E713F812200D4B82
:1027D0001B6853F8220003681B6B9847291A33467D
:1027E000204609B2BDE87040184700BF042E0324FC
:1027F0009DDD0308DFDD03081ADE0308F82D03243E
:102800005FDE0308FC2D0324036870B504461B6BD0
:10281000154698472368204629465B6BBDE8704003
:10282000184770B504461D46BDF91060FFF7ECFF70
:102830002368294620469B6B9847236831462046EB
:10284000DB6BBDE8704018470022C0E90122C0E9F7
:102850000322C0E90522C0E907224FF48072828476
:10286000014A0260704700BF54FB030838B50446B4
:102870000D462622002136F009FA2046FFF7E4FF34
:10288000064B2046294623602B88E384FF2384F8E7
:10289000283017F006F8204638BD00BFA40F040802
:1028A000002370B5124E05468380124B03603368D7
:1028B00093F85C200AB1186D00B9986803681B6B27
:1028C00098473368B0FA80F4186D640930B1036832
:1028D0001B6B9847002808BF44F001042CB9064B35
:1028E0002C21064A064833F06BFE284670BD00BF17
:1028F000A42D0324BCFB03089DDE0308FBDE0308B4
:1029000034DF030810B50446FFF7CAFF4FF6FF7324
:102910002046A3810023A37384F82030C4E9043344
:10292000C4E90633024B23602433A36010BD00BF0B
:10293000A009040800224FF0FF318260C0E90021A5
:10294000704710B50446FFF7F5FF204610BD0000A4
:1029500010B504460021262236F098F92046FFF7EC
:1029600073FF094B4FF47F0204F13C002360074BD7
:10297000A3624FF6FF73A3850023C4E90C322387BB
:10298000FFF7D8FF204610BDC40D0408DCFB030888
:1029900010B50446FFF7DCFF024B204623600023FE
:1029A000A36410BDECFB030810B50446FFF7D0FF8D
:1029B000034B204623600023C4E9123310BD00BF3F
:1029C0007CFC03082DE9F04F044600274FF6FF7604
:1029D00004F16C0A04F50E7804F2044904F6582B4D
:1029E0002DED028BBDB09FEDDF8A1BF0B3F9DE4BFE
:1029F0002246E763394639AD42F8403B2F92262202
:102A00002F9836F043F92F98FFF71EFFD74B50460B
:102A1000A7662364FF23DFEDD68A84F8663016F0BC
:102A200079FD04F5037318463093FFF76BFF4046BA
:102A300016F070FD04F5767318463193FFF762FFC8
:102A4000484616F067FD04F2A45318463293FFF788
:102A500059FF04F5BA6318461E93FFF799FF04F275
:102A60001C6318461F93FFF793FF04F5CD631846C8
:102A70002093FFF78DFF04F2B4631846039315F01B
:102A800057FC04F5F4631846049315F051FC04F662
:102A90008C031846059316F03DFD04F62C231846CA
:102AA0003393FFF72FFF584615F042FC04F64433EA
:102AB00018462193FFF76CFF04F539632946ADF8FA
:102AC000E46018462293FFF7D1FE04F6BC33294692
:102AD000ADF8E46018462393FFF7C8FE04F6E83328
:102AE00018461793FFF760FF04F63843184618930B
:102AF000FFF75AFF04F6884318461993FFF748FF7B
:102B000004F6D44318461A93FFF742FF04F55263C4
:102B100018461B93FFF748FF04F5576318462493A4
:102B2000FFF736FF04F6BC5318462593FFF730FF36
:102B300004F6086318462693FFF72AFF04F6546349
:102B40002946ADF8E46018462793FFF78FFE04F599
:102B500068632946ADF8E46018462893FFF786FEBF
:102B600004F6AC6318461C93FFF712FF04F6F863F3
:102B700018461D93FFF70CFF04F64473184629937B
:102B8000FFF706FF04F5796318462A93FFF700FF65
:102B900004F6DC7318462B93FFF7FAFE04F5815315
:102BA0002946ADF8E460083318460793FFF75EFE48
:102BB00004F58253143318460893FFF7E9FE04F531
:102BC000855318462C93FFF7E3FE04F587532946F7
:102BD000ADF8E4600C3318460993FFF747FE04F59F
:102BE00088532946ADF8E460183318460A93FFF776
:102BF0003DFE04F58A532946ADF8E46004331846D7
:102C00000B93FFF733FE04F58B532946ADF8E460D0
:102C1000103318460C93FFF729FE04F58C53294610
:102C2000ADF8E4601C3318460D93FFF71FFE04F562
:102C30008E532946ADF8E460083318460E93FFF72B
:102C400015FE04F58F53143318460F93FFF7ACFEAF
:102C500004F59253043318461093FFF799FE04F5D8
:102C600094532946ADF8E460103318461193FFF7EA
:102C7000FDFD04F595532946ADF8E4601C33184674
:102C80001293FFF7F3FD04F597532946ADF8E4607E
:102C9000083318461393FFF7E9FD04F598532946C6
:102CA000ADF8E460143318461493FFF7DFFD04F524
:102CB0009A5318462D93FFF777FE04F59C53103373
:102CC00018461593FFF770FE04F59F532946ADF89B
:102CD000E46018462E93FFF7C9FD04F5A053261DA6
:102CE0000C3318460693FFF733FE04F5A253143352
:102CF00018461693FFF74CFE04F5B5504FF4964175
:102D0000063017F0EDFC4FF448733A4639462F98D9
:102D100000934FF4A063FFF784FD4FF07F432F999A
:102D20003046A36612F0D5FF112350462946ADF870
:102D3000E43012F061FF4FF4A8735046E922782185
:102D40000093FFF76EFDA8225046114616F0BEFC18
:102D5000504679226FF0860116F02EFD3B469622F2
:102D6000504607E000007A440CFD0308540E0408A6
:102D7000000072423946009712F0E6FD504639468F
:102D800016F0D0FC5046E54912F016FE13226823D7
:102D90005046232116F086FC5046012116F00BFC0C
:102DA0005046012116F00AFC5046012116F009FC9C
:102DB000122329463098ADF8E43014F0D9FA504681
:102DC00016F015FC309B8362504616F010FC4FF451
:102DD00089534363504616F00AFC4FF4885303644A
:102DE000504616F004FCB42114F064FB4FF4A873B1
:102DF0003A4650460093394616F0BEFB51463046DF
:102E00004FF0F00A12F065FF022340462946ADF864
:102E1000E43012F0F1FE5346404640F219123946B2
:102E2000CDF800A0FFF7FDFC78224046114616F0D1
:102E30004DFC40463A466FF0B30116F0BDFC3B46F0
:102E4000642240463946009712F07EFD40463946DE
:102E500016F068FC4046B14912F0AEFD072243234C
:102E60004046232116F01EFC4046012116F0A3FB2C
:102E70004046012116F0A2FB4046012116F0A1FBBD
:102E8000032329463198ADF8E43014F071FA404636
:102E900016F0ADFB319B8362404616F0A8FB4FF461
:102EA00089534363404616F0A2FB4FF488530364F2
:102EB000404616F09CFBB42114F0FCFA53463A4607
:102EC00040463946CDF800A016F056FB4046012199
:102ED00016F07AFB414630464FF0010812F0F9FE39
:102EE0004FF00A0348462946ADF8E43012F084FE5C
:102EF0005346484640F219124FF4A871CDF800A08D
:102F0000FFF78FFC78224846114616F0DFFB484653
:102F10003A46B42116F050FC3B46642248463946F6
:102F2000009712F011FD4846394616F0FBFB484663
:102F30007A4912F041FD072243234846232116F027
:102F4000B1FB4846012116F036FB4846012116F038
:102F500035FB4846012116F034FB0B2329463298F5
:102F6000ADF8E43014F004FA484616F040FB329B0A
:102F70008362484616F03BFB4FF48953436348464F
:102F800016F035FB4FF48B530364484616F02FFBC5
:102F9000B42114F08FFA53463A4648463946CDF8E4
:102FA00000A016F0E9FA4946304604F2A46912F08E
:102FB00090FE262308220A211E984FF0804A009393
:102FC0004FF4A373FFF72DFC4FF0FF332846A4F80E
:102FD0000476C4F80036FFF7ADFC04F20C6395E804
:102FE000070083E8070004F5805329461E98A3F8DC
:102FF000A0742F9304F5A553C4F81836484B3993A1
:103000001723ADF8E83016F0E7F91E99304612F0B4
:1030100060FE1E230A212E221F9800934FF4AD73E9
:10302000FFF7FFFB4FF0FF322846A4F85076C4F8B4
:103030004C26FFF77FFC04F5CB6395E8070083E897
:10304000070004F5A5532F9A29461F981433A2F8B8
:10305000B474C4F86436324B39931623ADF8E830B3
:1030600016F0BAF91F99304612F033FE1822992350
:1030700014212098009240F25622FFF7D2FB4FF025
:10308000FF322846A4F89C76C4F89826FFF752FC35
:1030900095E8070089E8070084F8A1862846FFF72D
:1030A00049FC04F5A65395E80700083389E80700B2
:1030B0002F9A29462098A2F8C874C4F8B036184B45
:1030C000DFF8689039931523ADF8E83016F084F9ED
:1030D0002099304612F0FDFD4A2240F28B210398E0
:1030E000FFF792FB4FF02B0229460398ADF8E4203E
:1030F00015F026FB0B4B039AC4F8BC360A4B10465E
:10310000C2F830A0D36215F0BFF9B7EE000A0398F9
:1031100015F027FB039A10460CE000BFEFE0010812
:10312000DCFB030879007C000000A4410000784229
:103130000000000082ED168A15F0A6F9039A1046E9
:10314000C2F84890C2ED118A82ED138A15F09CF9FD
:10315000039A1046C2F85490C2ED148A15F094F9FF
:103160001FED0D1A0398F0EE410AB0EE410A15F07A
:10317000F0FA0399304684F8DD7612F0AAFD4A226F
:1031800040F2BD310498FFF73FFB4FF02B02294678
:103190000498ADF8E42015F0D3FAB44B049AC4F8BF
:1031A000A837B34B1046C2F830A0D36215F06CF9C3
:1031B000B7EE000A049815F0D4FA049ADFF8D4A206
:1031C000104682ED168A15F05FF9049A1046C2F88F
:1031D00044A0C2F8489082ED138A15F055F9049A7C
:1031E0001046C2F850A0C2F854904FF0080A15F0EB
:1031F0004BF99FEDA01A04984FF0B809F0EE410A80
:10320000B0EE410A15F0A5FA0499304684F8C97762
:1032100012F05FFD29460598ADF8E4A012F0ECFC31
:103220004B4640F241124FF481610598CDF8009071
:10323000FFF7F7FA5C220598114616F047FA792253
:103240006FF07701059816F0B7FA3B4664223946CD
:103250000598009712F078FB3946059816F062FA47
:103260008549059812F0A8FB52463523232105987D
:1032700004F5A65A16F016FA414605980AF1180AFE
:1032800016F099F94146059816F098F941460598C7
:1032900016F097F9092329463398ADF8E43014F075
:1032A00067F8059816F0A3F9339ADFF8EC8182628B
:1032B000059816F09CF94FF448634363059816F09F
:1032C00096F94FF41C630364059816F090F9B42145
:1032D00014F0F0F84B463A4639460598CDF8009080
:1032E00016F04AF905993046DFF8B09112F0F1FC7A
:1032F0003C224FF446715846FFF786FA2A232946A6
:103300005846ADF8E43015F01BFA4FF098135846C4
:10331000C4F8603A594BCBF82C30CBF8303015F06C
:10332000B3F8B7EE000A584615F01BFA58468BED75
:10333000168A15F0A9F85846CBF84480CBF8488097
:103340008BED138A15F0A0F85846CBF85080CBF8D7
:10335000548015F099F89FED471A5846F0EE410A4F
:10336000B0EE410A15F0F5F95946304684F8817AF5
:1033700012F0AFFC292340F2F5124FF4837121982B
:1033800000933423FFF74DFA4FF0FF312846A4F89D
:10339000787BC4F8741BFFF7CDFA04F5386395E821
:1033A000070083E8070004F5A6532F9A29462198C1
:1033B0001433A2F8D474C4F88C3B314B39931A23DC
:1033C000ADF8E83016F008F82199304612F081FC8B
:1033D00040F24B2240F29A212298FFF715FA4FF063
:1033E0002B02294622989046ADF8E42016F059FAAF
:1033F0002299304612F06DFC40F24B224FF4787166
:103400002398FFF701FA29462398ADF8E48016F0D7
:1034100048FA2399304612F05CFCCB2240F242215C
:103420001798FFF7F1F94FF0FF332846A4F81C7CFA
:10343000C4F8183CFFF77EFA04F6244395E8070029
:1034400083E80700D9F800302BB90E4B60210E4AF3
:103450000E4833F0B5F8DFF84880B8F80030192B83
:1034600020D80B4B6121084AF2E700BF89007C009D
:103470000000E44100000000EFE001080000C0404F
:10348000DCFB03089DDD030894DF03081ADE030854
:103490005FDE03080000894200009842042E0324E6
:1034A000F82D0324DFF88CB31921DBF8000001F0BC
:1034B000DDF8DD4A03460A2150461CF0F6F9C4F84F
:1034C00030ACD9F8003004F5A75A0AF10C0A002BE9
:1034D000BBD0B8F80030182BC3D91821DBF8000096
:1034E00001F0C4F8D04A03460A2150461CF0DDF929
:1034F0001798C4F834AC04F5A85A15F04DFFCB4B1F
:103500002946179839931423ADF8E83015F064FF75
:103510001799304612F0DDFB40F2EB2140F2BF225A
:103520001898FFF771F94FF0FF322846A4F86C7C29
:10353000C4F8682CFFF7FEF904F6744395E8070019
:1035400083E80700D9F80030002B3FF47EAFB8F8CD
:103550000030192B85D91921DBF8000001F086F81D
:10356000B14A03460A2150461CF09FF9D9F80030B1
:10357000C4F880AC0AF1140A002B3FF466AFB8F827
:103580000030182B7FF66DAF1821DBF8000001F03A
:103590006DF8A54A03460A2150461CF086F9189892
:1035A000C4F884AC15F0F8FEA04B2946189839935E
:1035B0000423ADF8E83015F00FFF1899304612F0EB
:1035C00088FB4FF4827240F242211998FFF71CF9F0
:1035D0004FF0FF332846A4F8BC7CC4F8B83CFFF792
:1035E000A9F904F6C44395E8070004F5A95583E852
:1035F0000700D9F800300835002B3FF426AFB8F8A3
:103600000030192B7FF62DAF1921DBF8000001F0F7
:103610002DF8854A03460A212846DFF810B21CF02F
:1036200044F91998C4F8D05C39AD15F0B5FE4FF0E7
:10363000060229461998ADF8E8204FF0FF3A002716
:10364000CDF8E4B015F0C8FE19993046DFF8E891DE
:1036500012F03FFB4FF482724FF46C711A98FFF72F
:10366000D3F82846C4F804AD04F5A958A4F8087D99
:10367000FFF760F904F5516308F11C0895E80700AD
:1036800083E80700D9F80030002B3FF4DEAE684A2B
:103690001388192B7FF6E5AE664B1921186800F0E8
:1036A000E5FF614A03460A2140461CF0FEF81A98DD
:1036B000C4F81C8D04F5AA5815F06EFE05232946A2
:1036C0001A98ADF8E83008F11008CDF8E4B015F01C
:1036D00083FE1A99304612F0FCFACB224FF46C713B
:1036E0001B98FFF791F82846C4F850ADA4F8547D14
:1036F000FFF720F904F65C5395E8070083E807001C
:10370000D9F80030002B3FF4A0AE494A1388192B9A
:103710007FF6A7AE474B1921186800F0A7FF424A71
:1037200003460A2140461CF0C0F8C4F8688DD9F859
:10373000003004F5AB5808F10408002B3FF485AEC7
:103740003B4A1388182B7FF68CAE3A4B18214FF06A
:103750001809186800F08AFF334A03460A214046D8
:103760001CF0A3F81B98C4F86C8D04F5805815F074
:1037700013FE132329461B98ADF8E830CDF8E4B0CA
:1037800015F02AFE1B99304612F0A3FA5523242285
:1037900040F23A312498CDF80090FFF742F82846DD
:1037A000C4F8A0ADA4F8A47DFFF7C4F804F6AC53A8
:1037B00095E8070083E8070004F5AB53A8F878758F
:1037C000294624984B44CDF8E4B0C4F8B83D122300
:1037D000ADF8E83015F000FE2499304612F079FA81
:1037E000552324224FF426712598CDF80090FFF739
:1037F00018F82846C4F8ECADA4F8F07DFFF79AF865
:1038000004F6F85395E8070083E8070004F5AC5385
:10381000A8F88875294625980833CDF8E4B0C4F88F
:10382000043E11230AE000BF6BDD0308DCFB030844
:10383000F82D0324002E0324042E0324ADF8E830D1
:1038400015F0CAFD2599304612F043FA552324227B
:1038500040F2DE312698CDF80090FEF7E2FF2846D0
:10386000C4F838AEA4F83C7EFFF764F804F644636D
:1038700095E8070083E8070004F5AC53A8F89875AD
:10388000294626984B44CDF8E4B04FF00C09C4F813
:10389000503E1023ADF8E83015F09EFD26993046D5
:1038A00012F017FA4FF4B97227984FF4E471FEF74B
:1038B000ABFF29462798ADF8E47015F0F2FF279981
:1038C000304612F006FA4FF4B97228983A21FEF702
:1038D0009BFF29462898ADF8E49015F0E2FF28995F
:1038E000304612F0F6F955220A211C98FEF78CFF9B
:1038F0002846C4F8DCAEA4F8E07EFFF71BF804F617
:10390000E86395E8070083E8070004F5AD531C98C9
:10391000A8F8A8750833C4F8F43E15F03DFD4FF043
:103920000F0329461C98ADF8E830CDF8E4B015F047
:1039300053FD1C99304612F0CCF978220A211D98CB
:10394000FEF762FF2846C4F828AFA4F82C7FFEF7E4
:10395000F1FF04F6347395E8070083E8070004F5E7
:10396000AD531D98A8F8BC751C33C4F8403F15F042
:1039700013FD0E2329461D98ADF8E830CDF8E4B0CC
:1039800015F02AFD1D99304612F0A3F915214FF4C8
:10399000BF72299800914E2340F23D41FEF741FF4E
:1039A000E34B2846A4F8787FC4F8743FFEF7C2FFC3
:1039B00004F5786395E8070083E8070004F5AE5343
:1039C000A8F8D075294629981033CDF8E4B0C4F88A
:1039D0008C3F0D23ADF8E83015F0FEFC29993046F8
:1039E00012F077F91F234A4640F295112A98009366
:1039F000C323FEF716FF2846C4F8C0AFA4F8C47F5F
:103A0000FEF798FF04F6CC7395E8070083E80700FB
:103A100004F5AE5329462A981833A8F8D875ADF89E
:103A2000E8904FF01E09C4F8D83FCDF8E4B015F087
:103A3000D3FC2A99304612F04CF9C323332240F2CA
:103A400095112B98CDF80090FEF7EBFE2846C8F8AC
:103A50000CA0A8F81070FEF76DFF08F1180395E8A8
:103A6000070083E8070004F5AF5329462B98083375
:103A7000A8F8E875CDF8E4B0C8F824300B23ADF809
:103A8000E83015F0A9FC2B99304612F022F940F2EB
:103A90009B2239460798FEF7B7FE4FF015010798AD
:103AA000ADF8E410294615F0FCFE0799304612F0F7
:103AB00010F9202340F23F12D42108980093992353
:103AC000FEF7AFFE2846C8F884A0A8F88870FEF775
:103AD00031FF08F1900395E8070083E8070004F53B
:103AE000AF53294608981833A8F8F875CDF8E4B014
:103AF000C8F89C300A23ADF8E83015F06DFC089941
:103B0000304612F0E6F82D2340F26E2240F2FB21FF
:103B10002C980093D323FEF784FE2846C8F8D0A043
:103B2000A8F8D470FEF706FF08F1DC0395E807005B
:103B300083E8070004F5B05329462C980833A8F809
:103B40000876CDF8E4B0C8F8E8300923ADF8E830DD
:103B500015F042FC2C99304612F0BBF84FF48072FD
:103B600009983021FEF750FE29460998ADF8E490F7
:103B700015F097FE0999304612F0ABF84FF48072B9
:103B80000A984FF4E471FEF73FFE292329460A986C
:103B9000ADF8E43015F085FE0A99304612F099F838
:103BA0004FF412720B9840F25B41FEF72DFE212379
:103BB00029460B98ADF8E43015F073FE0B993046AA
:103BC00012F087F840F29B220C989221FEF71CFE1F
:103BD000252329460C98ADF8E43015F062FE0C99C7
:103BE000304612F076F840F29B220D9840F23111E7
:103BF000FEF70AFE1C2329460D98ADF8E43015F0B7
:103C000050FE0D99304612F064F888220E98E42197
:103C1000FEF7FAFD142329460E98ADF8E43015F0AE
:103C200040FE0E99304612F054F8362340F25122ED
:103C3000B7210F98009340F20713FEF7F2FD2846D4
:103C4000C8F824A2A8F82872FEF774FE08F50C73D1
:103C500095E8070083E8070004F5B05329460F985C
:103C60001C33A8F81C76CDF8E4B0C8F83C3204F553
:103C7000B1530C33C8F840320823ADF8E83015F0E2
:103C8000ABFB0F99304612F024F82B2340F2F522BB
:103C900040F29A21109800934FF4C973FEF7C1FDCA
:103CA0002846C8F874A2A8F87872FEF743FE04F517
:103CB000945395E8070083E8070004F5B1532946BB
:103CC00010981C33A8F83C76CDF8E4B0C8F88C32D4
:103CD0000723ADF8E83015F07FFB1099304611F05E
:103CE000F8FF40F29B2211984FF4E771FEF78CFD2C
:103CF000222329461198ADF8E43015F0D2FD119930
:103D0000304611F0E6FF40F24F1212984FF4167150
:103D1000FEF77AFD4FF00F0329461298ADF8E43014
:103D200015F0BFFD1299304611F0D3FF02E000BF3D
:103D3000F7F7FFFF139840F283124FF41671FEF766
:103D400063FD4FF0060229461398ADF8E42015F004
:103D5000A8FD1399304611F0BCFF4FF4D9721498A6
:103D60004FF41671FEF750FD172329461498ADF84D
:103D7000E43015F096FD1499304611F0AAFF2F2378
:103D80004FF490724FF430712D9800934FF4A37359
:103D9000FEF747FD2846C8F870A3A8F87473FEF72D
:103DA000C9FD08F55F7395E8070083E8070004F58F
:103DB000B25329462D980C33A8F84C76CDF8E4B0D0
:103DC000C8F8883304F5B353C8F88C330323ADF82F
:103DD000E83015F001FB2D99304611F07AFF3023C1
:103DE00040F2152240F2C221159800934FF4A373BC
:103DF000FEF717FD2846C8F8C0A3A8F8C473FEF75D
:103E000099FD08F5737395E8070083E8070004F54A
:103E1000B353294615981433A8F87476CDF8E4B056
:103E2000C8F8D83304F5B4530833C8F8DC33022398
:103E3000ADF8E83015F0D0FA1599304611F049FF89
:103E40004FF4BE722E9840F22231FEF7DDFC27239C
:103E500029462E98ADF8E43015F023FD2E99304612
:103E600011F037FF40F2F912069840F20A41FEF7CE
:103E7000CBFC34A80699C8F83CA4A8F8407414F008
:103E8000E5FF069B34A83C3307C883E807000123FD
:103E900029460698ADF8E830CDF8E4B015F09CFA64
:103EA0000699304611F015FFF92340F22A224FF40B
:103EB000C7711698CDF80090FEF7B3FC2846C8F8F5
:103EC00084A4A8F88874FEF735FD08F5926395E898
:103ED000070083E8070004F5B453294616981C33FD
:103EE000A8F89C76CDF8E4B0C8F89C34ADF8E8703A
:103EF00015F072FA3046169911F0EBFE20463DB0EF
:103F0000BDEC028BBDE8F08F704770477047416091
:103F1000704770477047012303727047704710B4B1
:103F200041680346C2689B68541001EB6200D207E7
:103F300048BF0A595DF8044B48BFD3581847034699
:103F4000406830B19A681AB9D86800F0010070472B
:103F50000120704710B504460C212AF0B9FD204617
:103F600010BD10B5044610212AF0B2FD204610BD48
:103F700010B504464FF4AE712AF0AAFD204610BDDC
:103F800010B518F0EBF90368BDE81040DB6B18477B
:103F90002DE9F14FD0E9556A0746B06803681B6AFE
:103FA000984746F2BB13984205D8444BA321444A94
:103FB000444832F005FB706803681B6A98470F2875
:103FC00003D8414BA4213E4AF2E7F06803681B6A1C
:103FD00098470B2803D83D4BA521394AE8E7DFF87D
:103FE000F49018F0BBF9043018F0F8F9D9F8000093
:103FF00010B10368DB689847D9F8000010B1036876
:104000001B689847DFF8D080D8F8000010B103682B
:104010005B699847D7F83C0110B103685B68984723
:10402000D8F8000010B103681B689847D7F83C0126
:1040300010B103689B689847F06800214FF0000BAF
:1040400003685B6A9847224B0446C0F804B080F8C6
:1040500008B059460360B06803685B6A9847054634
:10406000FDF7EAF87068594603685B6A98470646A8
:104070002946FDF7B5F8331DC7F83C612846CAF854
:1040800088302B68C6F808A0DB68C9F80040C8F87B
:104090000050EE639847336830461B6898472146C6
:1040A000284619F0F2FF236820461B6998472368C9
:1040B00020465B6901B0BDE8F04F1847DFDF030819
:1040C0006DE003083FE1030884E1030827E20308E9
:1040D000ACFD0308EC2D0324F02D0324044B1B68D6
:1040E00093F85C200AB1186D00B99868704700BF5A
:1040F000A42D0324F8B5174604460E4618F044FADA
:10410000124B00251C602946114B2360114BC4E95A
:104110005135114B1868C4E953550368C4E94F552C
:104120009B68C4E955769847284600F063FAFFF784
:10413000D5FF22F0FCFFFFF7D1FF23F073F8FFF764
:10414000CDFF23F07BF82046F8BD00BFF42D0324FB
:1041500058FD030840FD0308A42D0324064BC0F8B6
:104160004801C0F84C310023C0F8503100F5A2736B
:10417000C0F84031704700BF913F000813B50024DC
:1041800051B1036801AA01948DF803409C680DF1B8
:104190000303A04702B010BD0846FBE7C089704783
:1041A000008A7047C088704780887047807A00F026
:1041B0007F007047807AC009704700207047000078
:1041C0009FED010A704700BF00000000406A704781
:1041D000806A704770470B888A889BB2D20A10B5F4
:1041E0004C88C16943EA044351F82200184410BDC9
:1041F00010B50446BAB1107B68B1537BD27A1B026A
:1042000003F4E0631A43236A03EB82031A888A42A9
:1042100002D193F9020010BD05D80138043380B2F1
:104220000028F3D1F7E70020F5E710B504462C216C
:104230002AF04EFC204610BD30B58BB00446BDF8C8
:1042400060500895BDF85C5007959DF85050069554
:104250009DF84C5005959DF8485004959DF84450A4
:1042600003959DF8405002959DF83C500195BDF88E
:104270003850009519F0D4FA064B20462360159B60
:10428000E361169B2362199B63621A9BA3620BB0C6
:1042900030BD00BFD0FD03087047000030B5164D9B
:1042A0008FB02C68BFF35B8F14F0010421D1284636
:1042B0002AF010FCE8B13F23082210490993104B63
:1042C00010480893104B0A94079301230494019417
:1042D000CDE905430423CDE902430A23CDE90B448C
:1042E0000093FFF7A9FF094832F08AF928462AF01F
:1042F0000DFC04480FB030BDDC810024747104084B
:10430000D4940408E0810024D09404089942000861
:104310007047000030B5174D8FB02C68BFF35B8F2E
:1043200014F0010422D128462AF0D4FBF0B13F2337
:10433000312211490993114B11480893114B0A94EA
:104340000793012304940194CDE905430423CDE9A7
:1043500002431A23CDE90B4400931F23FFF76CFFA0
:10436000094832F04DF928462AF0D0FB04480FB036
:1043700030BD00BF0C820024E47104086893040877
:1043800010820024CC9504081143000870470000F7
:1043900030B5174D8FB02C68BFF35B8F14F001045C
:1043A00022D128462AF096FBF0B13F23252211495D
:1043B0000993114B11480893114B0A940793012359
:1043C00004940194CDE905430423CDE90243282355
:1043D000CDE90B4400933023FFF72EFF094832F05C
:1043E0000FF928462AF092FB04480FB030BD00BFF9
:1043F0003C820024348E040868940408408200241F
:10440000D09504088D4300087047000030B5174D63
:104410008FB02C68BFF35B8F14F0010422D12846C3
:104420002AF058FBF0B13F233A2211490993114B6E
:1044300011480893114B0A940793012304940194A3
:10444000CDE905330423CDE902431423CDE90B4420
:1044500000931823FFF7F0FE094832F0D1F8284600
:104460002AF054FB04480FB030BD00BF6C8200241A
:104470003C900408D894040870820024D495040861
:1044800009440008704708B5062915D8DFE801F08F
:10449000100804080C0C100000F020F8806808BD1B
:1044A00000F01CF84068FAE700F018F8C068F6E77A
:1044B00000F014F80068F2E70020F0E710B50446B9
:1044C00004212AF005FB204610BD0000004870477B
:1044D00044FE03082D2070471B207047004870479A
:1044E0009C82002410B5074CFFF714FF2060FFF7F3
:1044F0004FFF6060FFF7D2FEA060FFF787FFE0602C
:1045000010BD00BF9C82002400207047002070472F
:104510000EB403B503AB002153F8042B019318F03C
:10452000AFFF02B05DF804EB03B070470CB407B501
:1045300004AB53F8042B019318F0A2FF03B05DF80D
:1045400004EB02B070470000436C10B5044673B32F
:10455000038F2BB9184BC521184A194832F030F88F
:10456000C38E00EB43035B8C0BB31AF0D4FA238F9A
:10457000012B03D8134BCB21134AEEE7E28E40F612
:104580003F10531C9BB2092B194688BFA3F10A01A7
:1045900004EB4101498C814209D10A2B04EB420210
:1045A00028BF0023508C04EB4303588451842046D9
:1045B000BDE810401AF0B3B9CAE20308D3E2030819
:1045C0007EE30308C6E30308D4E303081AF06FB9D7
:1045D00010B586B002AC84E806001A460AAB214644
:1045E00005930193099B0093089B17F02BFA06B0E3
:1045F00010BD000038B518BB124B13481C68134996
:10460000B4B1226822440260626822440A60A2684F
:1046100014440F4B00221A80FFF760FF0546FFF796
:104620005BFF0C4B1C600C4B1D600C4B188007E0B3
:104630000B4B03600B4B0B600B4B1C68002CE8D141
:1046400038BD00BFB8820024B0820024AC820024B0
:10465000B4820024042E0324FC2D0324F82D03240B
:10466000D89504088C980408C8010408044B1B68FA
:1046700053F82100034B1B6803EB4000704700BF59
:10468000AC820024B0820024012380F87C1080F8E2
:104690007D3070477047002070470000816400390A
:1046A000024B18BF01211970704700BF972D0324DA
:1046B000704700207047C36B0BB10846184770471E
:1046C0004FF6FF707047406803689B691847704752
:1046D00070470000034B902283F85A2383F8582335
:1046E000704700BF00E100E0094A0A49D3680A4860
:1046F000C3F30A03013B9BB20B801169C1F30A01AA
:10470000013901801364536B43F001035363704715
:1047100000100050BE820024BC820024014BD3F85C
:10472000AC00704700100050024B0122C3F8AC10DF
:104730005A627047001000500163C0E90D217047B4
:10474000704700EB8100114640680368DB6818473A
:1047500080F83C107047000038B5044611F0ABFDFE
:1047600023689D6E17F0FAFD01462046A84723688E
:10477000094A4FF05041D3F88C5020460023A847F7
:104780006368064A5364064B5A60064A1A639A6382
:104790004FF416225A6338BD00E02ED0088300245F
:1047A000C082002400C05DD011F06CBD38B5044655
:1047B0000D46406C4FF0FF3103F047FB606C03F097
:1047C00067FB242303FB0545002385F8283094F874
:1047D00028300BB9236BA36338BD11F01CBD11F059
:1047E0009ABE10B5044612F02DFB23682046D3F87C
:1047F000BC30BDE81040184710B5044611F04CFE1F
:1048000060680368BDE810401B69184710B504468E
:1048100048212AF05DF9204610BD000090F83810BC
:104820000D4B10B590F87C401A788C4209D03AB9FB
:104830000A490B4A08881488108001220C801A70DB
:1048400010BD002AFCD0064A0449148808880C8050
:1048500010800022F3E700BF962D03249E2D032431
:10486000A02D0324124A5369DB0370B51ED5002323
:10487000C2F88430BFF34F8FD2F8803043F6E07433
:10488000C3F3C900C3F34E335B0103EA04060146D8
:1048900046EA81750139C2F87452F9D2203B13F10E
:1048A000200FF2D1BFF34F8FBFF36F8F70BD00BFEA
:1048B00000ED00E008B5094B1B888B4203D8084B7C
:1048C0001B88934205D9074BA521074A074831F0B9
:1048D00077FE074B1980074B1A8008BDA02D0324D3
:1048E0009E2D0324A6E4030809E503084CE503080C
:1048F0009C2D03249A2D032408B531B1044B4FF4A9
:10490000B871044A044831F05BFE90F8290008BDF4
:104910008FE50308A3E503082DE7030810B531B1BF
:10492000064B4FF4B571064A064831F049FE40681F
:1049300011460368BDE810401B6B18478FE503085C
:104940006EE703082DE7030808B529B1034B792169
:10495000034A044831F034FEC06808BD8FE50308FF
:104960001CE903082DE7030810B5044629B1194BCB
:10497000A221194A194831F023FE052A15D8DFE88B
:1049800002F0031115171C22406803681B69984741
:1049900058B1012384F8293084F82C300023C4E96D
:1049A000043302E0002380F8293010BD0362F5E7EC
:1049B0000362012380F82A30F0E7002380F82930D1
:1049C00001230362F1E7003B18BF012380F82D307B
:1049D000EBE700BF8FE50308D1EA03082DE70308E2
:1049E00010B50C4611461A462CB1064B9021064ACA
:1049F000064831F0E5FDC46040680368BDE810403A
:104A00009B6818478FE50308A5EC03082DE703080A
:104A100008B529B1054B8221054A064831F0D0FD81
:104A2000C0E90411C0E9063208BD00BF8FE50308E4
:104A300080EE03082DE7030890F83D3010B50446DA
:104A400053B14FF0FF31406C03F0FFF9002384F8BD
:104A50003D30012384F83E3010BD00002DE9F041C7
:104A60000D460446194635B9154B40F20131154A39
:104A7000154831F0A5FDC0E91052003A0368134E05
:104A800018BF0122D3F8903032709847E569A5B17C
:104A90002B681F68337873B1236820465B6B984797
:104AA000236C834207D1616C094B28461A883B4628
:104AB000BDE8F0411847216CF6E7BDE8F08100BF82
:104AC0003CF0030874F003084CE50308982D032418
:104AD0009C2D032410B50446104629B1134BD02158
:104AE000134A144831F06CFD94F8293033B1124B5D
:104AF0001B6893F86F2063691344636194F82B304B
:104B00000BB9012010BDA368036303685B69984774
:104B1000002394F82C0084F82B300028F1D194F86D
:104B20002D30002BEED184F82900EBE78FE5030848
:104B3000C2F003082DE70308A42D032470B51A4C16
:104B4000054611F0ABFB94F8293013B994F82A30DC
:104B5000ABB1E169D4E90532534322694A43934238
:104B60000DD394F83C0038B19B1AB3FBF1F2994293
:104B700098BF02F1FF326262012384F82E300123D4
:104B8000206C84F83D3003F018FA94F83E302BB1D5
:104B9000606C03F07DF9002384F83E306868036898
:104BA000BDE870401B691847C0820024034690F896
:104BB0007E0018B1586803681B68184770470000EA
:104BC000084B4FF08062C3F88820BFF34F8FBFF3CC
:104BD0006F8F4FF08072C3F88820BFF34F8FBFF301
:104BE0006F8F704700E100E0034B4FF080629A60E6
:104BF0004FF080729A60704700E100E0034690F841
:104C0000280070B5C8B901229D6BD8609A624FF434
:104C1000807205F5162418619A8558619861D861EB
:104C20001862586283F82E00D3E90C26324494426D
:104C30000AD90B4B52210B4A03E00B4B40F2C51132
:104C40000A4A0B4831F0BCFC9D609C634FF4207312
:104C500081F83400CB864FF4F07308630B8770BD86
:104C60001AF4030855F4030863F2030893F20308E7
:104C70002DE7030838B5184C23685BB3174B184A67
:104C80001B6C11888B4216D1164B0025198805F034
:104C9000D9F8236893F86E2083F88050013283F8A6
:104CA0006E2000F067FB206812F0CCF82846BDE8C3
:104CB000384001F0C6B905F0C5F8246823682046DD
:104CC0001B6A98470123002084F88030BDE83840F3
:104CD00001F0B8B938BD00BFA42D03240010005066
:104CE000BE820024BC8200242DE9F743044601263D
:104CF0004FF4A0674FF0FF31206C03F032F94FF012
:104D0000FF31606C03F0A1F894F82E3043B365686E
:104D1000D4F820802B6884F82B60B8F1000F23D0E2
:104D20005B6A414628469847002323622B684FF46C
:104D3000207200972846D3F814804FF4F073A168CE
:104D4000C047236984F82C0001332361F0B12B683C
:104D500028469B6A984701380023E06084F82E308B
:104D6000606C03F095F8C5E7626A002ADED0284639
:104D7000D3E909939847616A01442846C8472369E3
:104D8000626AC4F8248013442361CFE70120E3E77B
:104D9000014808B5FFF7A8FFC082002438B51448C1
:104DA000002500F0BBFC134C134B2A46294601207A
:104DB00023604FF48073A563A387A38584F83E50D6
:104DC00084F82E50C4E90C55C4E91055C4E90155C6
:104DD000C4E90355C4E90555C4E90755C4E90955B3
:104DE00003F075F82064284602F0FAFF606438BDCD
:104DF00008830024C0820024D401040803685B6C8B
:104E000018470120704740F2EF307047104B07B54C
:104E1000D3F8D42005215A2042F01002C3F8D42040
:104E2000D3F8D42002F010020192019ADA6F42F016
:104E30001002DA67DA6F22F01002DA67002204F05B
:104E4000E5F85A2003B05DF804EB04F011B900BF97
:104E50000044025810B504464FF0FF31D0F8A40DBD
:104E600002F0F3FF606803681B68984778B9637ABB
:104E70006BB1237A5BB984F8A03D204623685B6A56
:104E80009847D4F8A40DBDE8104003F001B80B49D1
:104E90000B4A0B681B01D35C012BF2D1207A00284E
:104EA000EFD1A07A0028ECD1086884F8A03D02EB8D
:104EB0000010237201F03AF8E3E700BF24F6002463
:104EC0000C000024054B4FF080620360044BC3F8D4
:104ED0008820BFF34F8FBFF36F8F7047180204080D
:104EE00000E100E010B5044640F6A851FFF7EAFFE4
:104EF000204629F0EDFD204610BD000008B50A2827
:104F000009D8DFE800F006100E0808080810101095
:104F10001000022008BD054B8D21054A054831F0DF
:104F20004FFB0020F6E70120F4E700BFF8F5030887
:104F300013F603085EF6030838B50C46887FFFF7C2
:104F4000DDFF124BA58AE28A586342EA05422169D5
:104F50005A64628BD963521B1A642568082D0ED1DE
:104F60009A611A6158620A4A207F42EA0062DA6155
:104F7000E2681A62074A5961D9601A6038BD002296
:104F8000D8611A61E2689A63034AF6E7001000529A
:104F900009000100012302000123030008B50B28CA
:104FA0000BD8DFE800F00612100A0A0A0A080808FF
:104FB0000808022008BD0520FCE7054B6C21054AC6
:104FC000054831F0FDFA0020F4E70120F2E700BFC8
:104FD000F8F5030889F603085EF603082DE9F041A9
:104FE00091F81D800C464046FFF7D8FFA77F054685
:104FF0003846FFF7D3FF06463846FFF77FFFA18A02
:10500000628B434B521A1A649A61228B521A1A61AC
:10501000E28A586342EA014221695A646268D963AC
:10502000DA602068802828D0227F0FD8202866D018
:10503000402864D004281AD045EA0265344BB845AC
:1050400045F40035DD6160D0324A44E0B0F5807F40
:1050500004D0B0F5007FEFD12F4800E02F4840EAA0
:105060000262DA61E2681A625E62596132E045EA20
:10507000026242F40032DA61F6E7A068021DDA62E9
:10508000227F45EA026545F40035DD615E625961C3
:10509000017841B1012921D0214B40F21711214A59
:1050A000214831F08DFADA69418822F47F420139D2
:1050B00022F0100242EA01220121DA61144BDA697E
:1050C00042F02002DA61DA699206FCD410229A607A
:1050D0000029B9D0154A1A60BDE8F081B2F1FF018C
:1050E000DA69408822F47F4218BF0121013822F09A
:1050F000100242EA002242F01002DA61DEE745EADD
:105100000262034B42F40032B5E742F20132E2E7B9
:105110000010005201230100090002000A000200F1
:10512000D3F60308EDF603085EF603080123020038
:1051300090F8A03D10B50446D3B903689B6A984720
:1051400019491A4A0B681B01D35C012B2AD1184854
:10515000006838BB207A28BBA07A18BB086884F89E
:10516000A03D237202EB0010BDE8104000F0DEBE4F
:10517000037A43B1002303720B4B18680B4B03EB0C
:10518000001000F013FF606803681B68984748B977
:10519000637A3BB1236884F8A00D20465B6ABDE8C2
:1051A0001040184710BD00BF24F600240C00002456
:1051B00020F60024094B5A6891070ED51A6892050B
:1051C0000BD51A6822F400721A6002229A60044B0E
:1051D0001B68586803685B691847704700100052E5
:1051E000A42D032470B504460E4B0C300026254632
:1051F000602260602672667245F8203B294611F0F5
:1052000079FF04F55A63EE6024359D42FBD184F8A2
:10521000A06D0020C4F8A46D02F0E2FDC4F8A40D56
:10522000204670BD18020408034B1A68D207FCD44C
:1052300023229A60704700BF001000520B4A536946
:10524000DB0311D500290FDD00F01F031944BFF364
:105250004F8F0144C2F8680220300B1A002BF9DC92
:10526000BFF34F8FBFF36F8F704700BF00ED00E0BB
:1052700030B50F4C2568ED07FCD423251204FF2B15
:10528000A56042F001024FF0020565636264E063CD
:10529000E16008D01B0643F00213E361054B656231
:1052A0006061236030BD044BE3610123F9E700BF77
:1052B0000010005201000200020002FF30B50B4C4A
:1052C0002568ED07FCD4232512041B06A56042F0D7
:1052D0000102022543F4003365636264E063E16028
:1052E000E361034B65626061236030BD00100052D2
:1052F000010002000121002208B5084602F0E7FD86
:105300000A4B186028B90A4B28210A4A0A4831F08A
:1053100057F900220421012002F078FE074B1860A3
:1053200018B9074B2C21034AF0E708BD5483002429
:105330002BF7030874F70308A3F70308508300242E
:10534000D0F70308024B4FF0FF31186802F009BE96
:1053500054830024014B186802F02FBE54830024AC
:10536000024B0021186802F0FCBD00BF54830024EA
:10537000FFF7F0BF0023034803491A46006802F014
:1053800080BE00BF508300240400002413B5002316
:10539000074C01A91A46206802F0A4FE4FF0FF3323
:1053A000002201A9206802F09DFE02B010BD00BFDE
:1053B00050830024012070470C2070470C2303FB0E
:1053C0000100083070470C2303FB010008307047D0
:1053D0000120704746F2BC10704746F2BC1303FB35
:1053E00001000830704746F2BC1303FB010008308F
:1053F0007047012070471020704700EB0110083003
:10540000704700EB0110083070470846FEF7A6BE53
:10541000034B10B50446036010F07EFA204610BD21
:10542000D002040810B50446FFF7F2FF142120460D
:1054300029F04EFB204610BD034B10B50446036017
:1054400010F06AFA204610BD9C02040810B504460C
:10545000FFF7F2FF46F2C411204629F039FB20463F
:1054600010BD0000034B10B50446036010F054FA61
:10547000204610BD6802040810B50446FFF7F2FF8D
:105480001821204629F024FB204610BD094B10B5F9
:105490000446036000F5C3407030FFF7B9FF04F124
:1054A0002C00FFF7C9FF04F11400FFF7DBFF2046D3
:1054B00010BD00BF0403040808B50248FFF7E6FF6B
:1054C00008BD00BF2092002410B50446FFF7DEFFA0
:1054D00046F2EC31204629F0FBFA204610BD0000D0
:1054E0002DE9F341FEF7F2FF00240546FEF7F2FF37
:1054F000234601462246284600941AF0DFFC264B3C
:10550000264A2046264D1A60FFF774F825481AF0FF
:105510003BFC2B68BFF35B8FDB0736D4284629F0B2
:10552000D9FA90B3204C214F214B04F1140007F11C
:10553000A00604F12C0823606060C4F80880E760CE
:10554000266110F0EBF91B4B4046636110F0E6F961
:10555000194B3846E36210F0E1F904F5C043174AED
:1055600003F50170C3F8F021FCF7ECFA224607F1CD
:1055700014013046FDF74AF83046FEF7EFFD1048BB
:1055800031F03EF8284629F0C1FA0E4802B0BDE8D5
:10559000F04100F030BD00BF002E0324E083002462
:1055A0001C920024080000242092002410F40024FF
:1055B00004030408680204089C020408D0020408DA
:1055C000B95400085883002470470000014810F0C7
:1055D00086BE00BF5883002470B5254E254B264C4F
:1055E0003046264D2360FFF7FDFD28461FF0EEFEF6
:1055F000234B00224FF4807122481A639A8683F865
:105600005C209A6683F874209A67DC60C3E9131201
:105610001D49C3E91B121D49C3E91F011C491D484F
:10562000C3F884101C49C3E90422C3E90622C3E974
:105630000822C3E90A22C3E90F22C3E91122C3E900
:105640001522C3E91822C3E901650B604FF4A0617C
:1056500083F838200180114801804FF448711048C8
:1056600001801048018010490A70104A1A6070BD0C
:10567000708400244804040818920024E483002461
:105680005883002400000101010000010004C8004B
:1056900042001400A02D0324A42D03249C2D0324D8
:1056A0009E2D03249A2D0324962D03245C030408C5
:1056B0000148FFF707BC00BF7084002440697047B1
:1056C00090F840007047036B23B9C06A003818BFD8
:1056D0000120704701207047806870477047043090
:1056E00010B50C460FC884E80F0010BD70470000CD
:1056F00008B5034A4FF4E571024B034830F060FFF0
:1057000012F80308D1E203086DF8030810B5044647
:10571000482129F0DDF9204610BD000000220E4B83
:1057200010B5114604460360C26380F84020C0E90A
:105730000522C0E90722C0E90922C0E90B22C0E91D
:105740000D22C0E90322C0E90122012002F0BFFBC3
:10575000024B1860204610BD1803040828F60024E8
:1057600010B40C4611461A46036B3BB1C36B406B39
:10577000E41A20445DF8044B33F042BBC06AF8E7FA
:10578000036B10B573B1C36B426BC91A5318525CEB
:1057900098785C78000440EA04201043DB7840EA03
:1057A000036010BDC26A5318525C5978987800049F
:1057B00040EA0120F1E7036B43B1C36BC91A436BA5
:1057C0005A18585C527840EA02207047C36A5A1847
:1057D000585C537840EA03207047000070B50446D7
:1057E000006B0D461646D8B1A36B934208D209232D
:1057F0000D4AA1210D4884F840300D4B30F0E0FEF9
:105800000368DB689847206B3246616B03681B694D
:10581000984710B90D2384F84030606BE56370BD84
:10582000E06A0844FBE700BFB7F803086DF8030817
:10583000A4F803082DE9F843436904462BB9224B29
:10584000E721224A224830F0BBFE08228169FFF797
:10585000C5FFA16943F2300646F2643704312046A1
:10586000FFF78EFFA3691844A36A00F108029A4269
:1058700006D3012300206361236AA361BDE8F88396
:10588000636900F1090108222046013321F001017A
:105890006361A161FFF7A2FFD4F818902046494642
:1058A000FFF789FF09F1020180462046FFF783FFD9
:1058B00009F1040105462046FFF762FFB045D1D14A
:1058C000BD42CFD10120D9E7F9F8030842F9030816
:1058D0006DF803080129036838BF0121DB6A70B540
:1058E0000D4604469847A84204D223682046DB6A46
:1058F000984705466B1EE6691022204606EB031604
:1059000006F10801FFF76AFF06F110012046FFF7D4
:1059100037FF236A043B0344C4E9055370BD00000C
:10592000002148222DE9F0410446816180F84010B1
:10593000FFF754FFA6690423634A31462046FFF768
:105940000FFF48B10323614A40F22F1184F8403021
:105950005F4B604830F034FE06F1080104235E4AD4
:105960002046A161FFF7FCFE38B10423574A40F2FC
:10597000371184F84030594BEBE706F10C01042352
:10598000574A2046A161FFF7EBFE074638B10523D1
:105990004E4A4FF49F7184F84030524BD9E706F1DC
:1059A00010012046FFF7ECFE054620B94E4B4FF4A0
:1059B000A271464ACDE706F1140804234B4A20465B
:1059C0004146FFF7CDFE002849D0062384F8403039
:1059D0000423474A06F118012046FFF7C1FE0028BC
:1059E0003FD0072384F840304544424F0C222046E4
:1059F0002946FFF7F3FE05F1080604233A46204640
:105A00003146FFF7ADFE94F84030002848D0002B17
:105A100048D1A36AAB4249D805F10C0304352046AE
:105A2000A3612946FFF7ACFE304429466062204658
:105A3000FFF7A6FE0644042220463146FFF7CEFEBD
:105A400004232D4A31462046FFF78AFE002838D12C
:105A50000123E6616361A3692362BDE8F081012748
:105A6000B6E7002FC0D006F120012046FFF788FEE0
:105A70004FF47A7306F13001B0FBF3F0606020461A
:105A8000FFF77EFE06F14001A0602046FFF778FE9A
:105A900006F14401E0602046FFF772FE2061A3E7B3
:105AA000002BB9D00A2384F84030D6E7291D2046C0
:105AB000FFF766FE85190C2220462946FFF78EFE69
:105AC00099E70B23EFE700BF75F9030893F9030883
:105AD0007AF903086DF80308C0F90308C5F903084B
:105AE000DDF90308E2F90308F8F9030804FA0308EA
:105AF00009FA03080EFA030813FA0308C0E90A2199
