:020000040800F2
:100000000000082451510108493301084B3301080D
:100010004D3301084F33010851330108000000003F
:100020000000000000000000000000001177000840
:100030005333010800000000A1770008256F000875
:10004000A1510108A1510108A1510108A1510108C4
:10005000A1510108A1510108A1510108A1510108B4
:10006000A151010855330108A1510108A15101080E
:10007000A1510108A1510108A1510108A151010894
:10008000A1510108A1510108A15101085D330108E6
:10009000693301087533010879330108A15101085A
:1000A000A1510108A1510108A1510108A151010864
:1000B0007D330108A1510108A1510108A151010896
:1000C000A1510108A1510108A1510108A151010844
:1000D000A1510108A1510108A1510108A151010834
:1000E000A1510108A151010800000000A15101081F
:1000F000A1510108A1510108A1510108A151010814
:10010000A1510108C9330108A1510108A1510108F9
:10011000A1510108A1510108A1510108A1510108F3
:10012000A1510108A1510108A1510108A1510108E3
:10013000A1510108A1510108A1510108A1510108D3
:10014000A1510108A15101080000000000000000B9
:10015000A1510108A1510108A1510108A1510108B3
:10016000A1510108A1510108A1510108A1510108A3
:10017000A151010889330108A1510108A1510108C9
:10018000A1510108A1510108A1510108A151010883
:10019000A1510108A1510108A1510108A151010873
:1001A00095330108A151010839440008A151010803
:1001B000A1510108A1510108A1510108A151010853
:1001C000A1510108A1510108A1510108A151010843
:1001D000A1510108A1510108A1510108A151010833
:1001E000A1510108A1510108A1510108A151010823
:1001F000A1510108A1510108A1510108A151010813
:10020000A1510108A1510108A1510108A151010802
:10021000A1510108A1510108A1510108A1510108F2
:10022000A1510108A1330108AD330108A151010812
:10023000A1510108A1510108A1510108A1510108D2
:10024000A1510108A1510108A1510108A1510108C2
:10025000A1510108A1510108A1510108A1510108B2
:10026000A1510108A1510108A1510108A1510108A2
:10027000A1510108A1510108A1510108A151010892
:10028000A1510108A1510108A1510108000000007D
:08029000A1510108A151010870
:1002C00002780B78012A28BF9A4240F0D8806DE965
:1002D000044540EA0104CDE902676FF0000C4FEAE3
:1002E00044721AB380EA010414F0070F6BD100F0D6
:1002F000070420F0070004F0030521F007014FEA8E
:10030000C505F0E8042314F0040FF1E804670CFAC3
:1003100005F462EA040266EA04060BD063EA040309
:10032000624667EA0407664604E000BFF0E804237B
:10033000F1E8046782FA4CF582EA0604A4FA8CF428
:100340006CBB83FA4CF583EA0705A5FA8CF595B9E1
:1003500050E9022351E9026782FA4CF582EA060469
:10036000A4FA8CF483FA4CF583EA0705A5FA8CF518
:100370002543DBD09CB92DBAB5FA85F424F00704E7
:1003800027FA04F1DDE9026723FA04F303F0FF0022
:1003900001F0FF01FDE80445A0EB0100704724BA1D
:1003A000B4FA84F424F0070426FA04F1DDE90267C4
:1003B00022FA04F202F0FF0001F0FF01FDE804451B
:1003C000A0EB0100704714F0030F3CD110F00304C0
:1003D00028D150F8082B51F8083B82FA4CF582EAF4
:1003E0000305A5FA8CF55DB950F8042C51F8043CCE
:1003F00082FA4CF582EA0305A5FA8CF5002DE8D0C7
:100400002DBAB5FA85F424F0070423FA04F122FA90
:1004100004F202F0FF0001F0FF01FDE80445A0EB4B
:10042000010070474FEAC40420F0030050F8082B85
:1004300021F0030151F8083B0CFA04F462EA0402CB
:1004400063EA0403C9E710F003041DD0A1EB040123
:1004500020F00300E40750F8042B06D012D28B786A
:100460005FFAA2F4E41A06D12BB1CB785FFAB2F4AA
:10047000E41A00D133B920465DF8104B7047A2EB67
:100480000300704701F1040150F8042BCC0721F060
:10049000030151F8043B48D824D222F07F4482FA69
:1004A0004CF594EA1325A5FA8CF50AD165B951F8F3
:1004B000043B84EA0204B4EB036F0ED150F8042B22
:1004C000EBE74FEA132355E035F07F454DD108782F
:1004D000FDE80445C0F1000070474FEA126203F0E6
:1004E000FF0347E002EA1C4482FA4CF594EA134504
:1004F000A5FA8CF50AD165B951F8043B84EA0204E7
:10050000B4EB034F0CD150F8042BEBE74FEA134345
:1005100030E015EA1C4528D10B884FEA124229E049
:100520004FEA124203EA1C4324E002F0FF0482FA7D
:100530004CF594EA1365A5FA8CF50AD165B951F822
:10054000043B84EA0204B4EB032F09D150F8042BD6
:10055000EBE74FEA13630DE015F0FF0F05D10B68D1
:100560004FEA122223F07F4304E04FF00000FDE841
:100570000445704712BA1BBA82FA4CF482EA0304AB
:10058000A4FA8CF5B5FA85F402FA04F203FA04F33E
:100590004FEA1260FDE80445A0EB1360704700BF0E
:1005A00001F0FF01102A2BDB10F0070F08D010F824
:1005B000013B013A8B422DD010F0070F42B3F6D128
:1005C000F0B441EA012141EA014122F007047FF041
:1005D00000070023F0E80256083C85EA010586EA98
:1005E000010685FA47F5A3FA87F586FA47F6A5FAD4
:1005F00087F68EB9EED1F0BC01F0FF0102F00702E0
:1006000032B110F8013B013A83EA010313B1F8D18A
:100610000020704701387047002D06BF354603386B
:10062000073815F0010F07D1013015F4807F02BFA4
:10063000013015F4C03F0130F0BC0138704700BFF5
:10064000844641EA000313F003036DD1403A41D3DD
:1006500051F8043B40F8043B51F8043B40F8043B9C
:1006600051F8043B40F8043B51F8043B40F8043B8C
:1006700051F8043B40F8043B51F8043B40F8043B7C
:1006800051F8043B40F8043B51F8043B40F8043B6C
:1006900051F8043B40F8043B51F8043B40F8043B5C
:1006A00051F8043B40F8043B51F8043B40F8043B4C
:1006B00051F8043B40F8043B51F8043B40F8043B3C
:1006C00051F8043B40F8043B51F8043B40F8043B2C
:1006D000403ABDD2303211D351F8043B40F8043BCC
:1006E00051F8043B40F8043B51F8043B40F8043B0C
:1006F00051F8043B40F8043B103AEDD20C3205D3DC
:1007000051F8043B40F8043B043AF9D2043208D0D3
:10071000D2071CBF11F8013B00F8013B01D30B8845
:1007200003806046704700BF082A13D38B078DD023
:1007300010F003038AD0C3F10403D21ADB071CBFF5
:1007400011F8013B00F8013B80D331F8023B20F85F
:10075000023B7BE7043AD9D3013A11F8013B00F898
:10076000013BF9D20B7803704B7843708B78837020
:10077000604670470000000000000000000000001C
:1007800030B490F800F020F007016FF0000C10F08A
:10079000070491F820F040F048804FF000046FF01B
:1007A0000700D1E9002391F840F000F1080082FA37
:1007B0004CF2A4FA8CF283FA4CF3A2FA8CF34BBB02
:1007C000D1E9022382FA4CF200F10800A4FA8CF27B
:1007D00083FA4CF3A2FA8CF3E3B9D1E9042382FA49
:1007E0004CF200F10800A4FA8CF283FA4CF3A2FA5E
:1007F0008CF37BB9D1E9062301F1200182FA4CF296
:1008000000F10800A4FA8CF283FA4CF3A2FA8CF3FC
:10081000002BC6D0002A04BF04301A4612BAB2FA1E
:1008200082F200EBD20030BC7047D1E9002304F023
:100830000305C4F100004FEAC50514F0040F91F858
:1008400040F00CFA05F562EA05021CBF63EA0503F5
:1008500062464FF00004AAE781F0004102E000BFC9
:1008600083F0004330B54FEA41044FEA430594EA70
:10087000050F08BF90EA020F1FBF54EA000C55EAAB
:10088000020C7FEA645C7FEA655C00F0E2804FEA7C
:100890005454D4EB5555B8BF6D420CDD2C4480EA5E
:1008A000020281EA030382EA000083EA010180EA8E
:1008B000020281EA0303362D88BF30BD11F0004FDC
:1008C0004FEA01314FF4801C4CEA113102D0404212
:1008D00061EB410113F0004F4FEA03334CEA13334D
:1008E00002D0524263EB430394EA050F00F0A78065
:1008F000A4F10104D5F1200E0DDB02FA0EFC22FA60
:1009000005F2801841F1000103FA0EF2801843FA53
:1009100005F359410EE0A5F120050EF1200E012A44
:1009200003FA0EFC28BF4CF0020C43FA05F3C01882
:1009300051EBE37101F0004507D54FF0000EDCF1FB
:10094000000C7EEB00006EEB0101B1F5801F1BD3A4
:10095000B1F5001F0CD349085FEA30004FEA3C0CA8
:1009600004F101044FEA445212F5800F80F09A809E
:10097000BCF1004F08BF5FEA500C50F1000041EBA2
:10098000045141EA050130BD5FEA4C0C404141EBA6
:100990000101013C28BFB1F5801FE9D291F0000FA1
:1009A00004BF01460020B1FA81F308BF2033A3F150
:1009B0000B03B3F120020CDA0C3208DD02F1140C47
:1009C000C2F10C0201FA0CF021FA02F10CE002F182
:1009D0001402D8BFC2F1200C01FA02F120FA0CFC7B
:1009E000DCBF41EA0C019040E41AA2BF01EB0451C4
:1009F000294330BD6FEA04041F3C1CDA0C340EDCC2
:100A000004F11404C4F1200220FA04F001FA02F304
:100A100040EA030021FA04F345EA030130BDC4F1C2
:100A20000C04C4F1200220FA02F001FA04F340EAB7
:100A30000300294630BD21FA04F0294630BD94F068
:100A4000000F83F4801306BF81F480110134013D4F
:100A50004EE77FEA645C18BF7FEA655C29D094EAC0
:100A6000050F08BF90EA020F05D054EA000C04BF3E
:100A70001946104630BD91EA030F1EBF0021002029
:100A800030BD5FEA545C05D14000494128BF41F0C8
:100A9000004130BD14F580043CBF01F5801130BD2C
:100AA00001F0004545F0FE4141F470014FF00000B7
:100AB00030BD7FEA645C1ABF194610467FEA655C68
:100AC0001CBF0B46024650EA013406BF52EA03350A
:100AD00091EA030F41F4002130BD00BF90F0000FF8
:100AE00004BF0021704730B54FF4806404F1320434
:100AF0004FF000054FF0000150E700BF90F0000FED
:100B000004BF0021704730B54FF4806404F1320413
:100B100010F0004548BF40424FF000013EE700BFE3
:100B200042004FEAE2014FEA31014FEA02701FBF73
:100B300012F07F4393F07F4F81F06051704732F0A5
:100B40007F4208BF704793F07F4F04BF41F40021FC
:100B5000704730B54FF4607401F0004521F000415A
:100B60001CE700BF50EA010208BF704730B54FF0E4
:100B700000050AE050EA010208BF704730B511F0E5
:100B8000004502D5404261EB41014FF4806404F11D
:100B900032045FEA915C3FF4D8AE4FF003025FEAA3
:100BA000DC0C18BF03325FEADC0C18BF033202EB27
:100BB000DC02C2F1200300FA03FC20FA02F001FA81
:100BC00003FE40EA0E0021FA02F11444BDE600BF24
:100BD00080F0004002E000BF81F0004142001FBFF2
:100BE0005FEA410392EA030F7FEA226C7FEA236CFB
:100BF0006AD04FEA1262D2EB1363C1BFD2184140F0
:100C000048404140B8BF5B42192B88BF704710F085
:100C1000004F40F4000020F07F4018BF404211F028
:100C2000004F41F4000121F07F4118BF494292EA90
:100C3000030F3FD0A2F1010241FA03FC10EB0C00BC
:100C4000C3F1200301FA03F100F0004302D5494249
:100C500060EB4000B0F5000F13D3B0F1807F06D3F6
:100C600040084FEA310102F10102FE2A51D2B1F1EE
:100C7000004F40EBC25008BF20F0010040EA0300E3
:100C80007047490040EB0000013A28BFB0F5000F63
:100C9000EDD2B0FA80FCACF1080CB2EB0C0200FA19
:100CA0000CF0AABF00EBC25052421843BCBFD04068
:100CB0001843704792F0000F81F4000106BF80F4E2
:100CC00000000132013BB5E74FEA41037FEA226CA5
:100CD00018BF7FEA236C21D092EA030F04D092F070
:100CE000000F08BF0846704790EA010F1CBF0020A4
:100CF000704712F07F4F04D1400028BF40F0004001
:100D0000704712F100723CBF00F50000704700F020
:100D1000004343F0FE4040F4000070477FEA226247
:100D200016BF08467FEA23630146420206BF5FEA18
:100D3000412390EA010F40F4800070474FF0000318
:100D400004E000BF10F0004348BF40425FEA000CDF
:100D500008BF704743F0964301464FF000001CE087
:100D600050EA010208BF70474FF000030AE000BFDD
:100D700050EA010208BF704711F0004302D540421B
:100D800061EB41015FEA010C02BF8446014600208D
:100D900043F0B64308BFA3F18053A3F50003BCFAA8
:100DA0008CF2083AA3EBC25310DB01FA02FC634455
:100DB00000FA02FCC2F12002BCF1004F20FA02F25C
:100DC00043EB020008BF20F00100704702F120024F
:100DD00001FA02FCC2F1200250EA4C0021FA02F2B0
:100DE00043EB020008BF20EADC70704753B94AB9F0
:100DF000002908BF00281CBF4FF0FF314FF0FF3023
:100E000000F0E2B8ADF1080C6DE904CE3BF0CCFA8D
:100E1000DDF804E0DDE9022304B0704700F134019D
:100E200091E838009C46A6464CF8045D90E8FF0F18
:100E3000E54600BD90EC210B704700BF80EC210B14
:100E4000704700BF90EC200B704700BF80EC200B78
:100E5000704700BFD0EC200B704700BFC0EC200BE8
:100E6000704700BFF0EC0201F0EC0211F0EC02213F
:100E7000F0EC0231F0EC0241F0EC0251F0EC0261D6
:100E8000F0EC0271F0EC0281F0EC0291F0EC02A1C6
:100E9000F0EC02B1F0EC02C1F0EC02D1F0EC02E1B6
:100EA000F0EC02F1704700BFE0EC0201E0EC02114F
:100EB000E0EC0221E0EC0231E0EC0241E0EC025116
:100EC000E0EC0261E0EC0271E0EC0281E0EC029106
:100ED000E0EC02A1E0EC02B1E0EC02C1E0EC02D1F6
:100EE000E0EC02E1E0EC02F1704700BFB0FC0181F0
:100EF000B0FC0191B0FC01A1B0FC01B1704700BF92
:100F0000A0FC0181A0FC0191A0FC01A1A0FC01B109
:100F1000704700BFEC4600B52DE900502DE9FF1FDA
:100F20004FF000032DE90C0001A93BF0F7FCDDF8C0
:100F300040E012B0704700BFEC4600B52DE900500C
:100F40002DE9FF1F4FF000032DE90C0001A93BF034
:100F500021FDDDF840E012B0704700BFEC4600B55F
:100F60002DE900502DE9FF1F4FF000032DE90C0083
:100F700001A93BF031FDDDF840E012B0704700BF41
:100F8000EC4600B52DE900502DE9FF1F4FF000039E
:100F90002DE90C0001AB3BF0F5FCDDF840E012B0B0
:100FA000704700BFEC4600B52DE900502DE9FF1F4A
:100FB0004FF000032DE90C0001AA3BF06DFDDDF8B8
:100FC00040E012B0704700BF704700BF0348044BB9
:100FD000834202D0034B03B118477047C007002477
:100FE000C0070024000000000548064B1B1AD90F5B
:100FF00001EBA301491002D0034B03B1184770471E
:10100000C0070024C00700240000000010B5064CF3
:10101000237843B9FFF7DAFF044B13B10448AFF369
:1010200000800123237010BDC08100240000000057
:1010300014D5030808B5054B1BB105490548AFF3A6
:101040000080BDE80840FFF7CFBF00BF00000000F0
:10105000C481002414D503087047043870477047D2
:1010600082B002AB03E9060002B0704782B002B062
:10107000704782B002B0704782B002B0704782B051
:1010800002B0704784B004B0704782B002B07047BD
:1010900084B001A804B080E80E00704784B001A8B5
:1010A00004B080E80E00704784B004A800E90E0088
:1010B00004B0704784B004A800E90E0004B0704783
:1010C00082B002AB03E9060002B0704710B50446D7
:1010D00010212DF065F9204610BDA0F10400F5E7C0
:1010E00084B010B5044603A880E80E00E0689DF8BF
:1010F00010209DF80C1000F0A3FA9DF81410E06881
:1011000000F0D2F99DF81810E06800F075FA9DED36
:10111000087ADDED077ABCEEC77AE068FCEEE77A84
:1011200017EE103ABDE810409AB217EE903A04B0AC
:1011300099B200F0D3B9A0F10400FFF7D1BF84B099
:1011400010B5044603A880E80E00E0689DF80C1076
:1011500000F09CFA9DF81010E06800F025FA9DF868
:101160001410E06800F0BAF89DF81810E068BDE8C7
:10117000104004B000F09DBAA0F10400FFF7DFBFFB
:10118000BCEEC00A84B00021C06810EE103A9AB2DA
:1011900004B000F069B9A0F10400FFF7F1BF13B586
:1011A00002AB0446C06803E90600DDED017A0022C7
:1011B000FCEEE77A17EE903A99B200F055F99DF8F7
:1011C0000010E06802B0BDE8104000F049BAA0F19C
:1011D0000400FFF7E4BF82B002AB03E9060002B0EF
:1011E000704782B002B0704782B002B0704782B0E0
:1011F00002B0704782B002B0704784B004B070474C
:1012000082B002B0704784B001A804B080E80E003C
:10121000704784B001A804B080E80E00704784B025
:1012200004A800E90E0004B0704784B004A800E9E7
:101230000E0004B0704782B002AB03E9060002B0B2
:10124000704700000022C1608260024A026058328A
:1012500042607047C4D5030870477047704700006C
:10126000034B10B50446036000F018FD204610BD86
:10127000CCF3030810B50446FFF7F2FF45F66071A2
:1012800020462DF08DF8204610BD0268B0EE401AC1
:10129000D0ED0E0AD26F90ED0D0A104710B504463E
:1012A00000F030FE0B4B00220021236004F5A04328
:1012B00003F57560C3F84C2F016003F654700160AC
:1012C00003F65871044808602046A3F85C2F83F8A1
:1012D0005E2F10BDCCF3030800009D424B1E00F5AD
:1012E000A0405942594180F85E1F704738B5044606
:1012F00000F0BDFC5023564A04F597500221554D8D
:101300000C301DF03AFF04F644301BF049FE04F5A2
:10131000955064232A460A2118301DF02EFF04F54B
:10132000BA601BF03DFE04F596504B4B2A460A214D
:101330000C301DF022FF04F21C601BF031FE08216E
:1013400004F59B50B4232A4608441DF016FF04F50B
:1013500052601BF025FE00232A46042104F59E500E
:101360001DF00BFF04F6F4601BF01AFE04F5975114
:1013700006223A481EF031F904F5CD601BF010FE4C
:1013800004F5975042F210732A460A2110301DF0DE
:10139000F4FE04F5985042F210732A460A210430F4
:1013A0001DF0EBFE04F6E8301BF0FAFD04F5985052
:1013B00042F210732A460A2118301DF0DEFE04F5B1
:1013C000995042F210732A460A210C301DF0D5FEC6
:1013D00004F638401BF0E4FD42F210732A460A215D
:1013E00004F59A501DF0C9FE04F59A5042F21073AC
:1013F0002A460A2114301DF0C0FE04F688401BF076
:10140000CFFD04F6D4401BF0CBFD04F59F50002324
:101410002A46082118301DF0B0FE04F58250103025
:101420001BF0BEFD04F5A0500D4B0A210D4A0830FB
:101430001DF0A3FE04F5845004F5A0441C301BF0FD
:10144000AFFD0023A4F85C3F84F85E3F38BD00BFC9
:1014500064D6030867D603087EC912006AD603085B
:1014600070D6030875D6030870B504460D460D4EB8
:10147000082100F59E501346324608441DF07DFEBB
:1014800004F574601BF08CFD04F59E502B4632462B
:10149000082118301DF071FE04F68C70BDE8704014
:1014A0001BF07EBD67D6030803290A4A10B598BF12
:1014B000094B044600F597508CBF2D235B5C02213D
:1014C0000C301DF05AFE04F64430BDE810401BF00D
:1014D00067BD00BF64D60308C0F3030807EE901A87
:1014E0009FED2F7A0821F0B52DED028BF8EEE78AFB
:1014F00083B0F8EE677A04462A4D00F59B5068EEFB
:10150000878A01AB084404F6582608EE102A2A46BA
:10151000CDED017A1EF058F804F5526004F2B4677C
:101520001BF03EFDB0EE680A3046FFF7AEFE3046D7
:1015300004F5F4661BF034FDB0EE680A3846FFF798
:10154000A4FEB0EE680A3046FFF79FFE38461BF057
:1015500027FD30461BF024FDB8EE488A04F59B5069
:1015600001AB2A46082118308DED018A1EF02CF8B7
:1015700004F66C501BF014FD082104F59C5001ABDF
:101580002A468DED018A08441EF01EF804F6B85074
:1015900003B0BDEC028BBDE8F0401BF001BD00BF05
:1015A0002EFA8E3C78D603080B46022900F5A0518E
:1015B0004FF00A0210B500F5845401F1080104F15E
:1015C0001C040CD0032B0CD0012B14BF0648074879
:1015D0001EF003F82046BDE810401BF0E1BC0448B3
:1015E000F6E70448F4E700BF70D603087DD6030889
:1015F00081D6030889D60308012910B504460ED008
:10160000022911D0A9B900F59751062209481DF009
:10161000E4FF04F5CD60BDE810401BF0C1BC00F54F
:10162000975106220448F2E700F597510622034835
:10163000EDE710BD92D603086AD6030896D60308D4
:1016400038B504460D4600F50E70114617F0D2FC71
:10165000294604F20440BDE8384017F0CBBC000036
:1016600038B504460D4600F68C0017F0C3FC2B4637
:1016700004F59E50044A04211DF07FFD04F6F46039
:10168000BDE838401BF08CBC67D6030807B521B114
:1016900001290CD003B05DF804FB062300F594503B
:1016A00001A9ADF804300C3017F063FDF2E7072311
:1016B000F4E700F5A04313B503291FD8DFE801F0D4
:1016C0001E02070A0122A3F85C2F02B010BD4FF4DE
:1016D0008072F8E740F2011200F58E54A3F85C2FF7
:1016E00004340E23204601A9ADF8043017F041FD63
:1016F000204602B0BDE810401BF052BC002200F5AD
:101700008E54A3F85C2F04340F23EBE7F7B500F5F4
:10171000A0473C2300F587560446D7F84C5F0836AF
:10172000013595FBF3F2C7F84C5F03FB125597F8B0
:101730005C3F4BB11D2D01A93046D4BF14231523A6
:10174000ADF8043017F015FD304604F588561BF04F
:1017500027FC97F85D3F14364BB11D2D01A930468B
:10176000D4BF1F232023ADF8043017F002FD30460C
:1017700004F58A541BF014FC97F85E3F4BB11D2D05
:1017800001A92046D4BF17231823ADF8043017F061
:10179000F0FC204603B0BDE8F0401BF001BC002285
:1017A0000260704782B010B52DED028B04A904468B
:1017B00005A89FED208ADFED208A81E80C00082231
:1017C00000210FF0F1FB0822206005A811460FF060
:1017D000EBFB03226060102105A80FF0E5FB03225C
:1017E000A060162105A80FF0DFFB1022E060202189
:1017F00005A80FF0D9FBFFF7B3FAF0EE487A07EE31
:10180000100A102205A83021E7EE287AC4ED047AE8
:101810000FF0CAFBFFF7A4FA07EE900A2046A7EEE6
:10182000A88A84ED058ABDEC028BBDE8104002B0A9
:10183000704700BF000061C4CDCCCC3D82B010B574
:1018400002A9044603A881E80C00012200210FF040
:10185000ABFB03222060012103A80FF0A5FB0122AE
:101860006060042103A80FF09FFB0322A060052104
:1018700003A80FF099FB0122E0600A2103A80FF0F2
:1018800093FB0C21206101220DEB01000FF08CFB7A
:1018900060612046BDE8104002B070472DE9F04F6E
:1018A000CFB0044612AF32A838AD0FF0F5FD384680
:1018B00014AE0FF003FE28460FF010FE22A80FF022
:1018C0001FFE30460FF02AFE16A80FF037FE18A8AC
:1018D0000FF044FE1AA80FF051FE1CA80FF05EFE98
:1018E0000DF1F80B2EA80DF58C7A0FF067FE1EA8EF
:1018F0000FF072FE0DF1940958460DF1A0080FF09B
:101900007BFE50460FF08AFE48460FF099FE404697
:101910000FF0A4FE20A80FF0AFFE2068036897E840
:101920000600DB689847D4F800C03BABDCF80070D9
:1019300093E807008DE8070060463F6995E80E00D0
:10194000B84720689DED241A41AF03689DED220A37
:10195000DDED230A5B6998472068036896E8060076
:101960009B696E46984720689DED160A0368DDED79
:10197000170ADB69984720689DED180A0368DDEDBA
:10198000190A1B6A984720689DED1A0A0368DDED65
:101990001B0A5B6A984720689DED1C0A0368DDED11
:1019A0001D0A9B6A984720689DED301A0368DDED9B
:1019B000311ADB6A9DED2E0ADDED2F0A984720686B
:1019C0009DED1E0A0368DDED1F0A1B6B9847D4F8D6
:1019D00000C00FCFDCF800E00FC63B686046336004
:1019E000DEF834709BE80E00B84749AFD4F800E049
:1019F000EC460FCFDEF800B0ACE80F003B68704655
:101A00002BAF3360DBF838609AE80E00B0472068EF
:101A1000DFF8E8A00368DE6B99E80E00B0472068A5
:101A2000DFF8DC9003681E6C98E80E00B047206871
:101A300020AADFF8D080036806CA5B6C9847D8F804
:101A4000000005F0E8FC0646002E02DA4FB0BDE8C3
:101A5000F08F00233946D8F800001A4605F0ABFC99
:101A600020B92B9B4B4503D0534525D0013EEBE7D6
:101A70002D9B21460CA8009397E80C00FFF792FEDF
:101A80000DF1300C0DF1C80EBCE80F00AEE80F00F0
:101A900035AB9CE80300D4F800C08EE80300DCF806
:101AA00000E093E8070032AB8DE807000ECBDEF8CC
:101AB00008B06046D847D9E72D9B214606A8009379
:101AC00097E80C00FFF7BAFE0DF1180CAE46BCE823
:101AD0000F00AEE80F003BAB9CE80300D4F800C059
:101AE0008EE80300DCF800E093E807008DE80700CB
:101AF00095E80E00DEF810B0DBE700BF0300001031
:101B000001000010B8190324704700F598730868A5
:101B1000496803C37047704701F064BC10B50446C0
:101B20004FF4AE712CF03CFC204610BD10B50446BD
:101B3000D0F85801FFF7B2FE2046BDE810401AF079
:101B400017B910B50446D0F8400158B10368DB68F6
:101B5000984738B1D4F8400103689B689847002340
:101B6000C4F8403110BD000010B5044601F006FC79
:101B7000014B2046236010BD00F40308002070478D
:101B800081807047C18070470181704741817047F3
:101B90007047704770477047704710B4C488036837
:101BA000121B84885B6D091B12B25DF8044B09B2ED
:101BB00018474FF6FF7383814FF0FF3303621368BA
:101BC000C3611060704770477047704700207047CE
:101BD0008B8883800120704770470176704781822F
:101BE000C2827047704730B585B0036804460181F2
:101BF0006D460146D3F884303C342846984795E832
:101C0000070084E8070005B030BD30B585B0036833
:101C1000044641816D460146D3F884303C34284661
:101C2000984795E8070084E8070005B030BD00221A
:101C3000028042808280C280704780F836107047F0
:101C4000036870B504461B6B154698472368204609
:101C500029465B6EBDE87040184700207047806CD5
:101C60007047806C7047C06C704770477047704712
:101C700010B5044608212CF093FB204610BD10B58A
:101C8000044650212CF08CFB204610BD10B50446B4
:101C90004C212CF085FB204610BD0000034B10B5F5
:101CA0000446036018F08EF9204610BD0CF60308B8
:101CB000064B10B50446036018F084F945F64C71E4
:101CC00020462CF06DFB204610BD00BF0CF603082B
:101CD00090F8252012B103685B691847704708B572
:101CE000FFF7F6FF08BD90F825201AB190F82420E0
:101CF00002B1186070470000036870B55E6B04465F
:101D0000114B8DB21B682BB9104B6C21104A114836
:101D100034F0BEF81049828D0988914203D80F4BE8
:101D20006D210B4AF3E713F812200D4B1B6853F893
:101D3000220003681B6B9847291A3346204609B2D4
:101D4000BDE87040184700BF042C03249BD603084D
:101D5000DDD6030818D70308F82B03245DD7030842
:101D6000FC2B0324036870B504461B6B154698478B
:101D70002368204629465B6BBDE87040184770B564
:101D800004461D46BDF91060FFF7ECFF23682946A5
:101D900020469B6B9847236831462046DB6BBDE8A5
:101DA000704018470022C0E90122C0E90322C0E9BF
:101DB0000522C0E907224FF480728284014A026042
:101DC000704700BF54F4030838B504460D46262278
:101DD000002136F0C3FB2046FFF7E4FF064B204608
:101DE000294623602B88E384FF2384F8283017F0EA
:101DF000C0F9204638BD00BFF0070408002370B5C5
:101E0000124E05468380124B0360336893F85C20C2
:101E10000AB1186D00B9986803681B6B984733685E
:101E2000B0FA80F4186D640930B103681B6B9847F1
:101E3000002808BF44F001042CB9064B2C21064AA7
:101E4000064834F025F8284670BD00BFA42B0324B3
:101E5000BCF403089BD70308F9D7030832D803085A
:101E600010B50446FFF7CAFF4FF6FF732046A38163
:101E70000023A37384F82030C4E90433C4E9063393
:101E8000024B23602433A36010BD00BFEC010408A3
:101E900000224FF0FF318260C0E90021704710B589
:101EA0000446FFF7F5FF204610BD000010B50446BC
:101EB0000021262236F052FB2046FFF773FF094B24
:101EC0004FF47F0204F13C002360074BA3624FF6FE
:101ED000FF73A3850023C4E90C322387FFF7D8FFE3
:101EE000204610BD10060408DCF4030810B50446B3
:101EF000FFF7DCFF024B204623600023A36410BDE4
:101F0000ECF403082DE9F04F044600264FF6FF7766
:101F100004F16C0A04F50E7804F2044904F6582B17
:101F20002DED048BB1B0B0EE008A1BF07BFBDF4BD4
:101F30002246E66331462DAD42F8403B27922622E9
:101F4000279836F00BFB2798FFF72CFFD84B50460D
:101F5000A6662364FF239FEDD79A84F8663016F0B7
:101F600041FF04F50373DFEDD48A18462893FFF789
:101F700077FF404616F036FF04F57673184629932E
:101F8000FFF76EFF484616F02DFF04F2A4531846E3
:101F90002A93FFF765FF04F5BA6318461993FFF714
:101FA000A5FF04F21C6318461A93FFF79FFF04F580
:101FB000CD6318461B93FFF799FF04F2B4631846EC
:101FC000029315F01DFE04F5F4631846039315F013
:101FD00017FE04F68C031846049316F003FF04F66C
:101FE0002C2318462B93FFF73BFF584615F008FEAD
:101FF00004F6443318461C93FFF778FF04F5396361
:102000002946ADF8B47018461D93FFF7DDFE04F6BF
:10201000BC332946ADF8B47018461E93FFF7D4FEC2
:1020200004F6E83318461793FFF740FFA34BC4F8B4
:10203000306CC4F8E83B04F63843C4F8346C1846F6
:102040001893FFF733FF9D4BC4F8806CC4F8383CFD
:1020500004F68843C4F8846C18461093FFF746FFD3
:1020600004F6D44318461193FFF740FF04F552637A
:1020700018461F93FFF73AFF04F66C531846209357
:10208000FFF734FF04F6B85318462193FFF72EFFED
:1020900004F604632946ADF8B47018462293FFF79E
:1020A00093FE04F563632946ADF8B4701846239394
:1020B000FFF78AFE04F65C6318461293FFF716FFDB
:1020C00004F6A86318461393FFF710FF04F6F463B1
:1020D00018462493FFF70AFF04F574631846149317
:1020E000FFF704FF04F68C7318461593FFF7FEFE06
:1020F00004F6D87318461693FFF7F8FE04F58153DB
:102100002946ADF8B470043318460693FFF75CFE19
:1021100004F58253103318460793FFF7E7FE04F5E2
:1021200084531C3318460893FFF7E0FE04F58753E9
:102130002946ADF8B470083318460993FFF744FEFA
:1021400004F588532946ADF8B470143318460A9341
:10215000FFF73AFE04F58A532946ADF8B4701846E5
:102160002593FFF731FE04F58B532946ADF8B47083
:102170000C3318460B93FFF727FE04F58C532946C2
:10218000ADF8B470183318460C93FFF71DFE04F534
:102190008E532946ADF8B470043318460D93FFF7FB
:1021A00013FE04F58F53103318460F93FFF77EFE8E
:1021B00004F580531A460593404BC2F8F03104F5FC
:1021C0009253C2E98E6618462693FFF78FFE04F5F8
:1021D00094532946ADF8B4700C33271D18460E935E
:1021E000FFF7F2FD04F5A2504FF496410C3017F0C2
:1021F000DFFE4FF4487332463146279800934FF480
:10220000A063FFF7BCFD4FF07F4327993846A366D4
:1022100013F0C7F90C2350462946ADF8B43013F03B
:1022200053F94FF4A8735046F82278210093FFF732
:10223000A6FDA8225046114616F0B0FE504679225F
:102240006FF0860116F020FF334696225046314645
:10225000009612F0E1FF5046314616F0CBFE504694
:10226000174913F011F81322682350461B2116F06A
:1022700081FE5046012116F006FE5046012116F05F
:1022800005FE5046012116F004FE0D23294628982C
:10229000ADF8B43014F0D4FC504616F010FE289B74
:1022A0008362504616F00BFE0CE000BF0CF60308EC
:1022B000A006040800007A44000072427CF503087E
:1022C000BFD901084FF489534363504616F0F7FD18
:1022D0004FF488530364504616F0F1FDB42114F016
:1022E00051FD4FF4A873324650460093314616F024
:1022F000ABFD514638464FF0F00A13F052F9022375
:1023000040462946ADF8B43013F0DEF85346404657
:102310004FF494723146CDF800A0FFF730FD7822DB
:102320004046114616F03AFE404632466FF0B30181
:1023300016F0AAFE3346642240463146009612F05B
:102340006BFF4046314616F055FE4046E24912F01A
:102350009BFF0722432340461B2116F00BFE4046FD
:10236000012116F090FD4046012116F08FFD4046F8
:10237000012116F08EFD032329462998ADF8B430CB
:1023800014F05EFC404616F09AFD299B836240469D
:1023900016F095FD4FF489534363404616F08FFDC8
:1023A0004FF488530364404616F089FDB42114F0BD
:1023B000E9FC5346324640463146CDF800A016F0BF
:1023C00043FD4046012116F067FD414638464FF077
:1023D0001E0813F0E6F8092348462946ADF8B43044
:1023E00013F072F8534648464FF494724FF4A871B4
:1023F000CDF800A0FFF7C3FC78224846114616F03E
:10240000CDFD48463246B42116F03EFE33466422E6
:1024100048463146009612F0FFFE4846314616F017
:10242000E9FD4846AC4912F02FFF072243234846F6
:102430001B2116F09FFD4846012116F024FD484659
:10244000012116F023FD4846012116F022FD4FF030
:102450000A0329462A98ADF8B43014F0F1FB484637
:1024600016F02DFD2A9B8362484616F028FD4FF496
:1024700089534363484616F022FD4FF48B5303649F
:10248000484616F01CFDB42114F07CFC534632463D
:1024900048463146CDF800A016F0D6FC49463846ED
:1024A00004F2A46913F07DF808220A2140F2031314
:1024B00019984FF0220ACDF80080FFF760FC4FF02A
:1024C000FF332846A4F80466C4F80036FFF7E0FCA2
:1024D00004F20C6395E8070083E80700059B294692
:1024E0001998A3F8B86204F595531833C4F8183650
:1024F0007A4B2D931523ADF8B83016F0D5FB19990A
:10250000384613F04EF8F5230A212E221A98CDF8FA
:1025100000804FF00108FFF732FC4FF0FF322846F1
:10252000A4F85066C4F84C26FFF7B2FC04F5CB6360
:1025300095E8070083E8070004F59653059A2946B5
:102540001A980C33A2F8CC62C4F86436634B2D930E
:102550001423ADF8B83016F0A7FB1A99384613F0DB
:1025600020F81823D42140F24D221B980093992380
:10257000FFF705FC4FF0FF322846A4F89C66C4F82C
:102580009826FFF785FC95E8070089E8070084F89E
:10259000A1862846FFF77CFC04F5975395E80700D1
:1025A00089E80700059A29461B98A2F8E062C4F85A
:1025B000B0364A4BDFF840912D931623ADF8B83072
:1025C00016F072FB1B99384612F0EBFF4A2240F2DC
:1025D0008B210298FFF7C6FB29460298ADF8B4A0FC
:1025E00015F016FD3E4B029AC4F8BC363D4B104622
:1025F00082ED0C8AD36215F0AFFBB7EE000A0298A9
:1026000015F017FD029A104682ED169A15F0A4FBFC
:10261000029A1046C2F84890C2ED118A82ED139AD0
:1026200015F09AFB029A1046C2F85490C2ED148A33
:1026300015F092FB9FED2C1A0298F0EE410AB0EED5
:10264000410A15F0EEFC0299384684F8DD6612F076
:10265000A8FF4A2240F2BD310398FFF783FB2946C9
:102660000398ADF8B4A015F0D3FC204B039AC4F83E
:10267000A8371F4B104682ED0C8AD36215F06CFB15
:10268000B7EE000A039815F0D4FC039A9FED198A5F
:10269000104682ED169A15F05FFB039A1046C2F8B9
:1026A000489082ED118A82ED139A15F055FB039A3A
:1026B0001046C2F8549082ED148A4FF0B80915F014
:1026C0004BFB9FED091A0398F0EE410AB0EE410A68
:1026D00015F0A7FC12E000BFBFD90108DCF4030825
:1026E00079007C000000A4410000000089007C000B
:1026F0000000E44100008942000078420399384616
:1027000084F8C96712F04DFF042329460498ADF8F8
:10271000B43012F0D9FE4B4640F2511240F2E5318E
:102720000498CDF80090FFF72AFB5C22049811462C
:1027300016F034FC4FF4B4726FF0B301049816F045
:10274000A3FC3346642231460498009612F064FDDF
:102750003146049816F04EFC8049049812F094FD1E
:10276000082235231B21049816F004FC41460498E6
:1027700016F089FB4146049816F088FB4146049800
:1027800016F087FB052329462B98ADF8B43014F0DA
:1027900057FA049816F093FB2B9ADFF8E0818262D7
:1027A000049816F08CFB4FF448634363049816F0CA
:1027B00086FB4FF41C630364049816F080FBB4217D
:1027C00014F0E0FA4B46324631460498CDF80090BA
:1027D00016F03AFB04993846DFF8A49112F0E1FEB6
:1027E0003C224FF446715846FFF7BCFA2123294694
:1027F0005846ADF8B43015F00BFC4FF0981358461E
:10280000C4F8603A564BCBF82C30CBF8303015F08A
:10281000A3FAB7EE000A584615F00BFC58468BEDAC
:10282000169A15F099FA5846CBF84480CBF84880B0
:102830008BED139A15F090FA5846CBF85080CBF8F0
:10284000548015F089FA9FED471A5846F0EE410A78
:10285000B0EE410A15F0E5FB5946384684F8816A26
:1028600012F09FFE29234FF483714FF401721C98DC
:1028700000933423FFF783FA4FF0FF322846A4F881
:10288000786BC4F8742BFFF703FB04F5386395E805
:10289000070083E8070004F59753059A29461C981A
:1028A0000C33A2F8EC62C4F88C3B2F4B2D9313230E
:1028B000ADF8B83016F0F8F91C99384612F071FEF0
:1028C00040F24B2240F29A211D98FFF74BFA29461D
:1028D0001D98ADF8B4A016F04CFC1D99384612F0C6
:1028E00060FE40F24B224FF478711E98FFF73AFADF
:1028F00029461E98ADF8B4A016F03BFC1E99384648
:1029000012F04FFECB2240F206211798FFF72AFA69
:102910004FF0FF332846A4F81C6CC4F8183C04F5AB
:10292000975AFFF7B5FA04F624430AF1100A95E81E
:10293000070083E80700D9F800302BB90B4B602162
:102940000B4A0C4833F0A4FADFF83880B8F80030AE
:10295000112B19D8084B6121054AF2E7BFD90108AC
:102960000000C04000000000DCF403089BD6030810
:1029700092D8030818D703085DD7030800009842CF
:10298000042C0324F82B0324DFF894B31121DBF883
:10299000000000F0ADFFDE4A03460A2150461CF05D
:1029A000ECFBC4F830ACD9F8003004F5985A0AF1C1
:1029B000040A002BC2D0B8F80030102BCAD910215D
:1029C000DBF8000000F094FFD14A03460A2150468C
:1029D0001CF0D3FB1798C4F834AC04F5985A16F0E1
:1029E00043F9CC4B294617982D9312230AF1180A64
:1029F000ADF8B83016F058F91799384612F0D1FDF5
:102A000040F2E531CB221898FFF7ACF94FF0FF32D6
:102A10002846A4F86C6CC4F8682CFFF739FA04F661
:102A2000744395E8070083E80700D9F80030002BCD
:102A300084D0B8F80030112B8CD91121DBF80000BC
:102A400000F056FFB24A03460A2150461CF095FB9F
:102A5000C4F880ACD9F8003004F5995A0AF10C0A90
:102A6000002B3FF46BAFB8F80030102B7FF672AF3D
:102A70001021DBF8000000F03BFFA54A03460A21C5
:102A800050461CF07AFB1898C4F884AC16F0ECF8A9
:102A9000A04B294618982D930F23ADF8B83016F0A7
:102AA00003F91899384612F07CFD40F2D32240F227
:102AB0008D311098FFF756F94FF0FF332846A4F8F0
:102AC000BC6CC4F8B83CFFF7E3F904F6C44395E8DE
:102AD000070083E80700D9F8003004F59A55002B69
:102AE0003FF42CAFB8F80030112B7FF633AF112133
:102AF000DBF8000000F0FCFE854A03460A21284668
:102B0000DFF810921CF039FB1098C4F8D05C2DADA2
:102B100016F0AAF80E2329461098ADF8B8304FF0F9
:102B2000FF3A4FF00008CDF8B49016F0BDF81099B8
:102B300038465E4612F035FD40F2D32240F2422183
:102B40001198FFF70FF92846C4F804AD04F59A5B15
:102B5000A4F8088DFFF79CF904F551630BF1140BF1
:102B600095E8070083E807006B4B1B68002B3FF4D8
:102B7000E5AE6A4B1B88112B7FF6ECAE1121306855
:102B800000F0B6FE624A03460A21584604F5805614
:102B90001CF0F3FA1198C4F81CBD4FF00B0B16F0A3
:102BA00063F80D2329461198ADF8B830CDF8B490EC
:102BB00016F07AF81199384612F0F3FC1823242203
:102BC00040F23A311F9800935523FFF7D8F8284672
:102BD000C4F850ADA4F8548DFFF75AF904F65C53CD
:102BE00095E8070083E8070004F59B53A6F868837F
:102BF00029461F980833CDF8B490C4F8683D0C23DB
:102C0000ADF8B83016F050F81F99384612F0C9FCEC
:102C1000182324224FF42671209800935523FFF7A0
:102C2000AEF82846C4F89CADA4F8A08DFFF730F9A3
:102C300004F6A85395E8070083E8070004F59B53C2
:102C4000A6F87883294620981833CDF8B490C4F8B4
:102C5000B43D0923ADF8B83016F026F8209938466F
:102C600012F09FFC1823242240F2DE3121980093B9
:102C70005523FFF784F82846C4F8E8ADA4F8EC8D96
:102C8000FFF706F904F6F45395E8070083E8070018
:102C900004F59C53A6F88883294621980833CDF87B
:102CA000B490C4F8003E0823ADF8B83015F0FCFF2E
:102CB0002199384612F075FC40F2811222984FF4A7
:102CC000E471FFF74FF829462298ADF8B48016F06A
:102CD00050FA2299384612F064FC40F2811223988F
:102CE0003A21FFF73FF829462398ADF8B4B016F023
:102CF00040FA2399384612F054FC55220A211298C2
:102D0000FFF730F82846C4F88CAEA4F8908E09E09E
:102D100075D60308DCF40308042C0324F82B0324E1
:102D2000002C0324FFF7B4F804F6986395E8070035
:102D300083E8070004F59C531298A6F8988318338B
:102D4000C4F8A43E15F090FF29461298ADF8B8B02B
:102D50004FF0070BCDF8B49015F0A6FF1299384646
:102D600012F01FFC78220A211398FEF7FBFF284679
:102D7000C4F8D8AEA4F8DC8EFFF78AF804F6E46352
:102D800095E8070083E8070004F59D531398A6F81B
:102D9000AC830C33C4F8F03E15F066FF0A232946D5
:102DA0001398ADF8B830CDF8B49015F07DFF1399B5
:102DB000384612F0F6FB15234FF4C77240F21A4161
:102DC000249800934E23FEF7DAFFE44B2846A4F83C
:102DD000288FC4F8243FFFF75BF804F5736395E888
:102DE000070083E8070004F59E5329462498A6F8B7
:102DF000C083C4F83C3FCDF8B490ADF8B8B015F03E
:102E000053FF2499384612F0CCFB5A464FF4C77151
:102E10001498FEF7A7FF2846C4F870AFA4F8748F83
:102E2000FFF736F804F67C7395E8070083E807009F
:102E300004F59E531498A6F8C8830833C4F8883F55
:102E400015F012FF062329461498ADF8B830CDF8D6
:102E5000B49015F029FF1499384612F0A2FB2E22E7
:102E60004FF4C7711598FEF77DFF2846C4F8BCAF34
:102E7000A4F8C08FFFF70CF804F6C87395E80700B4
:102E800083E8070004F59E531598A6F8D8831833F5
:102E9000C4F8D43F15F0E8FE052329461598ADF88F
:102EA000B830CDF8B49015F0FFFE1599384612F001
:102EB00078FB55224FF490711698FEF753FF284681
:102EC000C6F808A0A6F80C80FEF7E2FF06F114038E
:102ED00095E8070083E8070004F59F531698A6F8C5
:102EE000E8830833336215F0BFFE042329461698A1
:102EF000ADF8B830CDF8B49015F0D6FE1699384636
:102F000012F04FFB40F29B2241460698FEF72AFF43
:102F1000102329460698ADF8B43016F02AF9069920
:102F2000384612F03EFB20234FF4A772D4210798B5
:102F300000939923FEF723FF2846C6F880A0A6F841
:102F40008480FEF7A5FF06F18C0395E8070083E86F
:102F5000070004F59F53294607981833A6F8F8830D
:102F6000CDF8B490C6F898300323ADF8B83015F01A
:102F70009BFE0799384612F014FB2D2340F26E2277
:102F80004FF4417108980093D323FEF7F8FE2846CA
:102F9000C6F8CCA0A6F8D080FEF77AFF06F1D803D9
:102FA00095E8070083E8070004F5A0532946089830
:102FB0000833A6F80884CDF8B490C6F8E4300223AC
:102FC000ADF8B83015F070FE0899384612F0E9FAFD
:102FD00040F20F1209983021FEF7C4FE4FF015039E
:102FE00029460998ADF8B43016F0C3F80999384667
:102FF00012F0D7FA40F20F120A984FF4E471FEF77C
:10300000B1FE4FF0200329460A98ADF8B43016F00F
:10301000B0F80A99384612F0C4FA4FF406724146E5
:103020002598FEF79FFE4FF0180329462598ADF826
:10303000B43016F09EF82599384612F0B2FA40F2F4
:103040009B220B989221FEF78DFE1D2329460B989B
:10305000ADF8B43016F08DF80B99384612F0A1FA9D
:1030600040F29B220C9840F23111FEF77BFE1323B5
:1030700029460C98ADF8B43016F07BF80C99384618
:1030800012F08FFA97220D98E421FEF76BFE0F23C2
:1030900029460D98ADF8B43016F06BF80D99384606
:1030A00012F07FFA362340F23B224FF4C7710F989B
:1030B000009340F20713FEF762FE2846C6F820A2EE
:1030C000A6F82482FEF7E4FE06F50B7395E80700E8
:1030D00083E8070004F5A05329460F981C33A6F88F
:1030E0001C84CDF8B490C6F8383204F5A1530C33E3
:1030F000C6F83C320123ADF8B83015F0D5FD0F9974
:10310000384612F04EFA282340F2F52240F24221CE
:103110002698009340F23623FEF731FE2846C6F883
:1031200070A2A6F87482FEF7B3FE06F51F7395E849
:10313000070083E8070004F5A153294626981C33AD
:10314000A6F83C84CDF8B490C6F88832ADF8B880C3
:1031500015F0AAFD2699384602E000BFF7F7FFFFF9
:1031600012F01FFAED220E984FF43C71FEF7FAFDB3
:1031700029460E98ADF8B4B015F0FBFF38460E990D
:1031800012F00FFA204631B0BDEC048BBDE8F08F91
:103190007047704770474160704770477047012320
:1031A00003727047704710B441680346C2689B6859
:1031B000541001EB6200D20748BF0A595DF8044B76
:1031C00048BFD35818470346406830B19A681AB9C7
:1031D000D86800F0010070470120704710B5044620
:1031E0000C212BF0DDF8204610BD10B5044610214F
:1031F0002BF0D6F8204610BD10B504464FF4AE7142
:103200002BF0CEF8204610BD10B518F00FFD036866
:10321000BDE81040DB6B18472DE9F14FD0E9556A46
:103220000746B06803681B6A984745F65F73984283
:1032300005D8444BA321444A444832F029FE706823
:1032400003681B6A98470F2803D8414BA4213E4AC4
:10325000F2E7F06803681B6A98470B2803D83D4BD8
:10326000A521394AE8E7DFF8F49018F0DFFC0430D4
:1032700018F01CFDD9F8000010B10368DB6898470E
:10328000D9F8000010B103681B689847DFF8D080B8
:10329000D8F8000010B103685B699847D7F83C0183
:1032A00010B103685B689847D8F8000010B1036854
:1032B0001B689847D7F83C0110B103689B68984792
:1032C000F06800214FF0000B03685B6A9847224BBF
:1032D0000446C0F804B080F808B059460360B068EE
:1032E00003685B6A98470546FDF7D8FF7068594642
:1032F00003685B6A984706462946FDF7A3FF331D1E
:10330000C7F83C612846C9F80040C8F80050CAF820
:1033100000302B68C6F808A0DB68EE639847336876
:1033200030461B689847214628461AF016FB23684A
:1033300020461B699847236820465B6901B0BDE8B9
:10334000F04F1847DDD803086BD903083DDA0308AE
:1033500082DA030825DB0308ACF60308EC2B032410
:10336000F02B0324044B1B6893F85C200AB1186D02
:1033700000B99868704700BFA42B0324F8B517461E
:1033800004460E4618F068FD124B00251C602946C5
:10339000114B2360114BC4E95135114B1868C4E936
:1033A00053550368C4E94F559B68C4E9557698475F
:1033B000284600F061FAFFF7D5FF23F020FBFFF766
:1033C000D1FF23F097FBFFF7CDFF23F09FFB2046B3
:1033D000F8BD00BFF42B032458F6030840F6030899
:1033E000A42B0324064BC0F84801C0F84C3100233D
:1033F000C0F8503100F5A273C0F84031704700BFEB
:103400001932000813B5002451B1036801AA0194D0
:103410008DF803409C680DF10303A04702B010BD76
:103420000846FBE7C0897047008A7047C08870472C
:1034300080887047807A00F07F007047807AC009EA
:1034400070470020704700009FED010A704700BFE1
:1034500000000000406A7047806A704770470B8820
:103460008A889BB2D20A10B54C88C16943EA0443EA
:1034700051F82200184410BD10B50446BAB1107BB3
:1034800068B1537BD27A1B0203F4E0631A43236AC8
:1034900003EB82031A888A4202D193F9020010BD1D
:1034A00005D80138043380B20028F3D1F7E70020B3
:1034B000F5E710B504462C212AF072FF204610BD16
:1034C00030B58BB00446BDF860500895BDF85C502F
:1034D00007959DF8505006959DF84C5005959DF820
:1034E000485004959DF8445003959DF8405002952E
:1034F0009DF83C500195BDF83850009519F0F8FD45
:10350000064B20462360159BE361169B2362199BA3
:1035100063621A9BA3620BB030BD00BFD0F60308F4
:103520007047000030B5164D8FB02C68BFF35B8F2D
:1035300014F0010421D128462AF034FFE8B13F23DA
:10354000082210490993104B10480893104B0A9415
:103550000793012304940194CDE905430423CDE9A5
:1035600002430A23CDE90B440093FFF7A9FF094862
:1035700032F0AEFC28462AF031FF04480FB030BDCF
:10358000DC8100247069040854850408E08100246B
:1035900050850408213500087047000030B5174DEC
:1035A0008FB02C68BFF35B8F14F0010422D1284642
:1035B0002AF0F8FEF0B13F23282211490993114B5C
:1035C00011480893114B0A94079301230494019422
:1035D000CDE905430423CDE902431A23CDE90B4489
:1035E00000931F23FFF76CFF094832F071FC284657
:1035F0002AF0F4FE04480FB030BD00BF0C82002456
:10360000E069040850840408108200244C860408F1
:10361000993500087047000030B5174D8FB02C6801
:10362000BFF35B8F14F0010422D128462AF0BAFEC2
:10363000F0B13F23252211490993114B11480893FA
:10364000114B0A940793012304940194CDE9054397
:103650000423CDE902432823CDE90B440093302312
:10366000FFF72EFF094832F033FC28462AF0B6FE59
:1036700004480FB030BD00BF3C820024287F0408FE
:10368000E8840408408200245086040815360008A7
:103690007047000030B5174D8FB02C68BFF35B8FBB
:1036A00014F0010422D128462AF07CFEF0B13F2319
:1036B000392211490993114B11480893114B0A946F
:1036C0000793012304940194CDE905330423CDE944
:1036D00002431423CDE90B4400931823FFF7F0FEB7
:1036E000094832F0F5FB28462AF078FE04480FB06E
:1036F00030BD00BF6C820024308104085885040866
:10370000708200245486040891360008704708B57A
:10371000052914D8DFE801F0030B070B0F0F00F0A9
:103720001FF8006808BD00F01BF88068FAE700F099
:1037300017F84068F6E700F013F8C068F2E70020D9
:10374000F0E710B5044604212AF02AFE204610BDF9
:103750000048704744F7030824207047172070473B
:10376000004870479C82002410B5074CFFF716FFF5
:103770002060FFF751FF6060FFF7D4FEA060FFF705
:1037800089FFE06010BD00BF9C82002400207047CC
:10379000002070470EB403B503AB002153F8042B8F
:1037A000019319F0D5FA02B05DF804EB03B070474D
:1037B0000CB407B504AB53F8042B019319F0C8FA05
:1037C00003B05DF804EB02B070470000436C10B525
:1037D000044673B3038F2BB9184BC521184A1948F7
:1037E00032F056FBC38E00EB43035B8C0BB31AF035
:1037F000FAFD238F012B03D8134BCB21134AEEE79D
:10380000E28E40F63F10531C9BB2092B194688BF2D
:10381000A3F10A0104EB4101498C814209D10A2B31
:1038200004EB420228BF0023508C04EB430358846E
:1038300051842046BDE810401AF0D9BCC8DB03080B
:10384000D1DB03087CDC0308C4DC0308D2DC0308FA
:103850001AF095BC10B586B002AC84E806001A4692
:103860000AAB214605930193099B0093089B17F02F
:1038700051FD06B010BD000038B518BB124B1348FF
:103880001C681349B4B12268224402606268224471
:103890000A60A26814440F4B00221A80FFF760FFF1
:1038A0000546FFF75BFF0C4B1C600C4B1D600C4B7F
:1038B000188007E00B4B03600B4B0B600B4B1C6835
:1038C000002CE8D138BD00BFB8820024B0820024AB
:1038D000AC820024B4820024042C0324FC2B032497
:1038E000F82B0324588604080888040814FA0308EF
:1038F000044B1B6853F82100034B1B6803EB40008B
:10390000704700BFAC820024B0820024012380F8FD
:103910007C1080F87D3070477047002070470000B1
:1039200081640039024B18BF01211970704700BF34
:10393000972B0324704700207047C36B0BB10846D8
:10394000184770474FF6FF707047406803689B69DF
:103950001847704770470000034B902283F85A23A2
:1039600083F85823704700BF00E100E0094A0A4984
:10397000D3680A48C3F30A03013B9BB20B80116969
:10398000C1F30A01013901801364536B43F0010351
:103990005363704700100050BE820024BC82002494
:1039A000014BD3F8AC00704700100050024B0122CD
:1039B000C3F8AC105A627047001000500163C0E9B0
:1039C0000D217047704700EB810011464068036885
:1039D000DB68184780F83C107047000038B5044693
:1039E00012F0D1F823689D6E18F020F901462046A8
:1039F000A8472368094A4FF05041D3F88C5020461D
:103A00000023A8476368064A5364064B5A60064A77
:103A10001A639A634FF416225A6338BD00E02ED021
:103A200008830024C082002400C05DD012F092B848
:103A300038B504460D46406C4FF0FF3103F065FB8E
:103A4000606C03F085FB242303FB0545002385F808
:103A5000283094F828300BB9236BA36338BD12F0DB
:103A600042B812F0C0B910B5044612F053FE2368F4
:103A70002046D3F8BC30BDE81040184710B50446C6
:103A800012F072F960680368BDE810401B691847BE
:103A900010B5044648212AF083FC204610BD0000E2
:103AA00090F838100D4B10B590F87C401A788C4285
:103AB00009D03AB90A490B4A0888148810800122B3
:103AC0000C801A7010BD002AFCD0064A04491488E4
:103AD00008880C8010800022F3E700BF962B032497
:103AE0009E2B0324A02B0324124A5369DB0370B5D9
:103AF0001ED50023C2F88430BFF34F8FD2F8803038
:103B000043F6E074C3F3C900C3F34E335B0103EA29
:103B10000406014646EA81750139C2F87452F9D2A9
:103B2000203B13F1200FF2D1BFF34F8FBFF36F8F04
:103B300070BD00BF00ED00E008B5094B1B888B424B
:103B400003D8084B1B88934205D9074BA521074A88
:103B5000074832F09DF9074B1980074B1A8008BDC2
:103B6000A02B03249E2B0324A4DD030807DE0308F7
:103B70004ADE03089C2B03249A2B032408B531B199
:103B8000044B4FF4B871044A044832F081F990F8BC
:103B9000290008BD8DDE0308A1DE03082BE0030821
:103BA00010B531B1064B4FF4B571064A064832F0F4
:103BB0006FF9406811460368BDE810401B6B184759
:103BC0008DDE03086CE003082BE0030808B529B17B
:103BD000034B7921034A044832F05AF9C06808BD02
:103BE0008DDE03081AE203082BE0030810B5044633
:103BF00029B1194BA221194A194832F049F9052A6D
:103C000015D8DFE802F0031115171C22406803687D
:103C10001B69984758B1012384F8293084F82C3067
:103C20000023C4E9043302E0002380F8293010BDEA
:103C30000362F5E70362012380F82A30F0E70023EE
:103C400080F8293001230362F1E7003B18BF01230C
:103C500080F82D30EBE700BF8DDE0308CFE30308CB
:103C60002BE0030810B50C4611461A462CB1064B42
:103C70009021064A064832F00BF9C4604068036898
:103C8000BDE810409B6818478DDE0308A3E50308D4
:103C90002BE0030808B529B1054B8221054A0648E7
:103CA00032F0F6F8C0E90411C0E9063208BD00BFE1
:103CB0008DDE03087EE703082BE0030890F83D3013
:103CC00010B5044653B14FF0FF31406C03F01DFABC
:103CD000002384F83D30012384F83E3010BD0000FD
:103CE0002DE9F0410D460446194635B9154B40F211
:103CF0000131154A154832F0CBF8C0E91052003AAC
:103D00000368134E18BF0122D3F8903032709847E1
:103D1000E569A5B12B681F68337873B12368204625
:103D20005B6B9847236C834207D1616C094B284633
:103D30001A883B46BDE8F0411847216CF6E7BDE81C
:103D4000F08100BF3AE9030872E903084ADE03087C
:103D5000982B03249C2B032410B50446104629B14C
:103D6000134BD021134A144832F092F894F82930BA
:103D700033B1124B1B6893F86F206369134463617E
:103D800094F82B300BB9012010BDA36803630368BE
:103D90005B699847002394F82C0084F82B300028A6
:103DA000F1D194F82D30002BEED184F82900EBE707
:103DB0008DDE0308C0E903082BE00308A42B0324CD
:103DC00070B51A4C054611F0D1FE94F8293013B99C
:103DD00094F82A30ABB1E169D4E905325343226942
:103DE0004A4393420DD394F83C0038B19B1AB3FB7D
:103DF000F1F2994298BF02F1FF326262012384F826
:103E00002E300123206C84F83D3003F036FA94F80C
:103E10003E302BB1606C03F09BF9002384F83E30F8
:103E200068680368BDE870401B691847C0820024B9
:103E3000034690F87E0018B1586803681B6818475D
:103E400070470000084B4FF08062C3F88820BFF332
:103E50004F8FBFF36F8F4FF08072C3F88820BFF38E
:103E60004F8FBFF36F8F704700E100E0034B4FF0BF
:103E700080629A604FF080729A60704700E100E0C3
:103E8000034690F8280070B5C8B901229D6BD86030
:103E90009A624FF4807205F5162418619A8558616C
:103EA0009861D8611862586283F82E00D3E90C2615
:103EB000324494420AD90B4B52210B4A03E00B4B7C
:103EC00040F2C5110A4A0B4831F0E2FF9D609C6345
:103ED0004FF4207381F83400CB864FF4F0730863FD
:103EE0000B8770BD18ED030853ED030861EB030861
:103EF00091EB03082BE0030838B5184C23685BB33B
:103F0000174B184A1B6C11888B4216D1164B002593
:103F1000198805F0FFF8236893F86E2083F8805025
:103F2000013283F86E2000F067FB206812F0F2FB8C
:103F30002846BDE8384001F0C4B905F0EBF8246824
:103F4000236820461B6A98470123002084F88030AC
:103F5000BDE8384001F0B6B938BD00BFA42B03243A
:103F600000100050BE820024BC8200242DE9F743DB
:103F7000044601264FF4A0674FF0FF31206C03F098
:103F800050F94FF0FF31606C03F0BFF894F82E3019
:103F900043B36568D4F820802B6884F82B60B8F1AF
:103FA000000F23D05B6A41462846984700232362CE
:103FB0002B684FF4207200972846D3F814804FF4F2
:103FC000F073A168C047236984F82C000133236192
:103FD000F0B12B6828469B6A984701380023E060BF
:103FE00084F82E30606C03F0B3F8C5E7626A002AEB
:103FF000DED02846D3E909939847616A01442846F0
:10400000C8472369626AC4F8248013442361CFE758
:104010000120E3E7014808B5FFF7A8FFC0820024AC
:1040200038B51448002500F0B9FC134C134B2A4650
:104030002946012023604FF48073A563A387A385DD
:1040400084F83E5084F82E50C4E90C55C4E910554C
:10405000C4E90155C4E90355C4E90555C4E9075548
:10406000C4E9095503F093F82064284603F018F8D2
:10407000606438BD08830024C082002420FA03084D
:1040800003685B6C18470120704740F2EF307047BF
:10409000104B07B5D3F8D42005215A2042F0100266
:1040A000C3F8D420D3F8D42002F010020192019A70
:1040B000DA6F42F01002DA67DA6F22F01002DA6784
:1040C000002204F00BF95A2003B05DF804EB04F071
:1040D00037B900BF0044025810B504464FF0FF3115
:1040E000D0F8A40D03F011F8606803681B689847C6
:1040F00078B9637A6BB1237A5BB984F8A03D204626
:1041000023685B6A9847D4F8A40DBDE8104003F01B
:104110001FB80B490B4A0B681B01D35C012BF2D172
:10412000207A0028EFD1A07A0028ECD1086884F822
:10413000A03D02EB0010237201F038F8E3E700BF66
:1041400040F300240C000024054B4FF08062036014
:10415000044BC3F88820BFF34F8FBFF36F8F7047B6
:1041600064FA030800E100E010B5044640F6A851E7
:10417000FFF7EAFF20462AF013F9204610BD0000A1
:1041800008B50A2809D8DFE800F006100E0808086C
:10419000081010101000022008BD054B8D21054AA3
:1041A000054831F075FE0020F6E70120F4E700BF76
:1041B000F6EE030811EF03085CEF030838B50C4670
:1041C000887FFFF7DDFF124BA58AE28A586342EA37
:1041D000054221695A64628BD963521B1A642568AF
:1041E000082D0ED19A611A6158620A4A207F42EA6C
:1041F0000062DA61E2681A62074A5961D9601A609E
:1042000038BD0022D8611A61E2689A63034AF6E772
:1042100000100052090001000123020001230300E5
:1042200008B50B280BD8DFE800F00612100A0A0ABE
:104230000A0808080808022008BD0520FCE7054B0D
:104240006C21054A054831F023FE0020F4E70120E7
:10425000F2E700BFF6EE030887EF03085CEF030800
:104260002DE9F04191F81D800C464046FFF7D8FF3C
:10427000A77F05463846FFF7D3FF06463846FFF7C7
:104280007FFFA18A628B434B521A1A649A61228B78
:10429000521A1A61E28A586342EA014221695A6459
:1042A0006268D963DA602068802828D0227F0FD81E
:1042B000202866D0402864D004281AD045EA026538
:1042C000344BB84545F40035DD6160D0324A44E0F6
:1042D000B0F5807F04D0B0F5007FEFD12F4800E02B
:1042E0002F4840EA0262DA61E2681A625E6259614E
:1042F00032E045EA026242F40032DA61F6E7A06891
:10430000021DDA62227F45EA026545F40035DD616F
:104310005E625961017841B1012921D0214B40F2FF
:104320001711214A214831F0B3FDDA69418822F49E
:104330007F42013922F0100242EA01220121DA61B2
:10434000144BDA6942F02002DA61DA699206FCD491
:1043500010229A600029B9D0154A1A60BDE8F08190
:10436000B2F1FF01DA69408822F47F4218BF0121CF
:10437000013822F0100242EA002242F01002DA6113
:10438000DEE745EA0262034B42F40032B5E742F24F
:104390000132E2E70010005201230100090002008F
:1043A0000A000200D1EF0308EBEF03085CEF0308FB
:1043B0000123020090F8A03D10B50446D3B903686C
:1043C0009B6A984719491A4A0B681B01D35C012B59
:1043D0002AD11848006838BB207A28BBA07A18BBBD
:1043E000086884F8A03D237202EB0010BDE810407D
:1043F00000F0DCBE037A43B1002303720B4B186854
:104400000B4B03EB001000F011FF606803681B68A2
:10441000984748B9637A3BB1236884F8A00D2046D9
:104420005B6ABDE81040184710BD00BF40F3002490
:104430000C0000243CF30024094B5A6891070ED568
:104440001A6892050BD51A6822F400721A600222CB
:104450009A60044B1B68586803685B69184770478B
:1044600000100052A42B032470B504460E4B0C30F0
:1044700000262546602260602672667245F8203B61
:10448000294612F09FFA04F55A63EE6024359D42E6
:10449000FBD184F8A06D0020C4F8A46D02F000FEEA
:1044A000C4F8A40D204670BD64FA0308034B1A68D3
:1044B000D207FCD423229A60704700BF001000523C
:1044C0000B4A5369DB0311D500290FDD00F01F03F0
:1044D0001944BFF34F8F0144C2F8680220300B1A11
:1044E000002BF9DCBFF34F8FBFF36F8F704700BF16
:1044F00000ED00E030B50F4C2568ED07FCD4232516
:104500001204FF2BA56042F001024FF00205656323
:104510006264E063E16008D01B0643F00213E361CC
:10452000054B65626061236030BD044BE36101238C
:10453000F9E700BF0010005201000200020002FF74
:1045400030B50B4C2568ED07FCD4232512041B065F
:10455000A56042F00102022543F400336563626402
:10456000E063E160E361034B65626061236030BD3D
:1045700000100052010002000121002208B5084687
:1045800002F005FE0A4B186028B90A4B28210A4A96
:104590000A4831F07DFC00220421012002F09FFE38
:1045A000074B186018B9074B2C21034AF0E708BDE8
:1045B0005483002429F0030872F00308A1F00308D3
:1045C00050830024CEF00308024B4FF0FF311868EF
:1045D00002F027BE54830024014B186802F04DBE40
:1045E00054830024024B0021186802F01ABE00BF59
:1045F00054830024FFF7F0BF0023034803491A4601
:10460000006802F0A7BE00BF50830024040000240D
:1046100013B50023074C01A91A46206802F0CBFE0F
:104620004FF0FF33002201A9206802F0C4FE02B05F
:1046300010BD00BF50830024012070470C2070473C
:104640000C2303FB0100083070470C2303FB01001F
:10465000083070470120704745F66070704745F696
:10466000607303FB01000830704745F6607303FB7D
:10467000010008307047012070471020704700EBA0
:1046800001100830704700EB0110083070470846F1
:10469000FEF7A8BE034B10B50446036010F0A4FD5E
:1046A000204610BD1CFB030810B50446FFF7F2FFBF
:1046B0001421204629F074FE204610BD034B10B58E
:1046C0000446036010F090FD204610BDE8FA030890
:1046D00010B50446FFF7F2FF45F66871204629F051
:1046E0005FFE204610BD0000034B10B5044603607A
:1046F00010F07AFD204610BDB4FA030810B5044648
:10470000FFF7F2FF1821204629F04AFE204610BD8F
:10471000094B10B50446036000F5BF401430FFF7A5
:10472000B9FF04F12C00FFF7C9FF04F11400FFF7F3
:10473000DBFF204610BD00BF50FB030808B5024850
:10474000FFF7E6FF08BD00BF2092002410B5044625
:10475000FFF7DEFF46F20811204629F021FE204631
:1047600010BD00002DE9F341FEF7F2FF00240546DD
:10477000FEF7F2FF234601462246284600941BF02E
:1047800005F8264B264A2046264D1A60FFF774F896
:1047900025481AF061FF2B68BFF35B8FDB0737D426
:1047A000284629F0FFFD98B3204C214B04F114005A
:1047B00004F12C08236000F5BF476060C4F808804E
:1047C00007F11806E760266110F010FD194B40460E
:1047D000636110F00BFD184B3846E36210F006FDE4
:1047E00004F5A043154A03F6A870C3F8942FFCF70C
:1047F000D6FF224607F114013046FDF7B5F93046E1
:10480000FEF7F0FD0E4831F063FB284629F0E6FD87
:104810000C4802B0BDE8F04100F02DBD002C03248F
:10482000E08300241C92002408000024209200242D
:1048300050FB0308B4FA0308E8FA03081CFB03085A
:104840003D4700085883002470470000014811F0DC
:10485000AEB900BF5883002470B5254E254B264CB9
:104860003046264D2360FFF7FFFD284620F016FA5C
:10487000234B00224FF4807122481A639A8683F8F2
:104880005C209A6683F874209A67DC60C3E913128F
:104890001D49C3E91B121D49C3E91F011C491D48DD
:1048A000C3F884101C49C3E90422C3E90622C3E902
:1048B0000822C3E90A22C3E90F22C3E91122C3E98E
:1048C0001522C3E91822C3E901650B604FF4A0610A
:1048D00083F838200180114801804FF44871104856
:1048E00001801048018010490A70104A1A6070BD9A
:1048F0007084002494FC030818920024E4830024AC
:104900005883002400000101010000010004C800D8
:1049100042001400A02B0324A42B03249C2B03246B
:104920009E2B03249A2B0324962B0324A8FB030815
:104930000148FFF709BC00BF70840024406970473C
:1049400090F840007047036B23B9C06A003818BF65
:10495000012070470120704780687047704704301D
:1049600010B50C460FC884E80F0010BD704700005A
:1049700008B5034A4FF4E571024B034831F088FA59
:1049800010F10308CFDB03086BF1030810B50446F0
:10499000482129F005FD204610BD000000220E4BE5
:1049A00010B5114604460360C26380F84020C0E998
:1049B0000522C0E90722C0E90922C0E90B22C0E9AB
:1049C0000D22C0E90322C0E90122012002F0DFFB31
:1049D000024B1860204610BD64FB030844F300241A
:1049E00010B40C4611461A46036B3BB1C36B406BC7
:1049F000E41A20445DF8044B33F06ABEC06AF8E75D
:104A0000036B10B573B1C36B426BC91A5318525C78
:104A100098785C78000440EA04201043DB7840EA90
:104A2000036010BDC26A5318525C5978987800042C
:104A300040EA0120F1E7036B43B1C36BC91A436B32
:104A40005A18585C527840EA02207047C36A5A18D4
:104A5000585C537840EA03207047000070B5044664
:104A6000006B0D461646D8B1A36B934208D20923BA
:104A70000D4AA1210D4884F840300D4B31F008FA61
:104A80000368DB689847206B3246616B03681B69DB
:104A9000984710B90D2384F84030606BE56370BD12
:104AA000E06A0844FBE700BFB5F103086BF10308B7
:104AB000A2F103082DE9F843436904462BB9224BC0
:104AC000E721224A224831F0E3F908228169FFF701
:104AD000C5FFA16943F2300646F26437043120462F
:104AE000FFF78EFFA3691844A36A00F108029A42F7
:104AF00006D3012300206361236AA361BDE8F88324
:104B0000636900F1090108222046013321F0010107
:104B10006361A161FFF7A2FFD4F8189020464946CF
:104B2000FFF789FF09F1020180462046FFF783FF66
:104B300009F1040105462046FFF762FFB045D1D1D7
:104B4000BD42CFD10120D9E7F7F1030840F20308B5
:104B50006BF103080129036838BF0121DB6A70B5D6
:104B60000D4604469847A84204D223682046DB6AD3
:104B7000984705466B1EE6691022204606EB031691
:104B800006F10801FFF76AFF06F110012046FFF762
:104B900037FF236A043B0344C4E9055370BD00009A
:104BA000002148222DE9F0410446816180F840103F
:104BB000FFF754FFA6690423634A31462046FFF7F6
:104BC0000FFF48B10323614A40F22F1184F84030AF
:104BD0005F4B604831F05CF906F1080104235E4A3E
:104BE0002046A161FFF7FCFE38B10423574A40F28A
:104BF000371184F84030594BEBE706F10C010423E0
:104C0000574A2046A161FFF7EBFE074638B105235E
:104C10004E4A4FF49F7184F84030524BD9E706F169
:104C200010012046FFF7ECFE054620B94E4B4FF42D
:104C3000A271464ACDE706F1140804234B4A2046E8
:104C40004146FFF7CDFE002849D0062384F84030C6
:104C50000423474A06F118012046FFF7C1FE002849
:104C60003FD0072384F840304544424F0C22204671
:104C70002946FFF7F3FE05F1080604233A462046CD
:104C80003146FFF7ADFE94F84030002848D0002BA5
:104C900048D1A36AAB4249D805F10C03043520463C
:104CA000A3612946FFF7ACFE3044294660622046E6
:104CB000FFF7A6FE0644042220463146FFF7CEFE4B
:104CC00004232D4A31462046FFF78AFE002838D1BA
:104CD0000123E6616361A3692362BDE8F0810127D6
:104CE000B6E7002FC0D006F120012046FFF788FE6E
:104CF0004FF47A7306F13001B0FBF3F060602046A8
:104D0000FFF77EFE06F14001A0602046FFF778FE27
:104D100006F14401E0602046FFF772FE2061A3E740
:104D2000002BB9D00A2384F84030D6E7291D20464D
:104D3000FFF766FE85190C2220462946FFF78EFEF6
:104D400099E70B23EFE700BF73F2030891F2030822
:104D500078F203086BF10308BEF20308C3F20308FC
:104D6000DBF20308E0F20308F6F2030802F303089B
:104D700007F303080CF3030811F30308C0E90A2141
:104D800000220263FFF70CBF10B50023044608465B
:104D9000E3620B6821639B689847A0622046BDE8E8
:104DA0001040FFF7FDBE000037B5134B0024134D34
:104DB0001C60134B1C60134B2C601C60124B196061
:104DC000124B1A60124B1C60124B2A684FF4C075CC
:104DD0001C701C74C3E90244C3E9064403EB0213CC
:104DE0000D4AD2686A4300924FF450425B680AF061
:104DF0005DFA204603B030BD60F3002450F3002478
:104E000040F3002470F3002468F300246CF30024C2
:104E100048F300240C00002428F300244B68012BE5
:104E200015D1CB681A071EBF23F00F031033CB60D8
:104E30008B6818071EBF23F00F0310338B60CB68FD
:104E40008A681B09120953430E4A13607047022BEC
:104E50000ED1CB681A0703D023F00F031033CB60B9
:104E60008B685A071EBF23F0070308338B60704717
:104E7000002BFCD1CB685807F2D023F0070308338E
:104E8000EDE700BF58F300240B4A13680B4430B41D
:104E900013600A4A126893420CD2094CD21A256850
:104EA000B2F5504F294428BF4FF45042216030BC26
:104EB0000AF05EBA30BC704770F300246CF3002433
:104EC00068F30024F8B5204C0121204D06462368E4
:104ED0001F4F1B01E954236805EB03139A601D4B18
:104EE0001968226805EB0212D1601A68F9680A4451
:104EF0001A602368013323602368012B01D9002342
:104F0000236023681B01EB5C33B1022130460AF0B9
:104F100001FA114B01221A6022683046FB6805EB4A
:104F200002154FF4C07269685A430AF024FA0B4B19
:104F30001B681A7A3AB99B7A2BB9094B1868BDE8F5
:104F4000F84002F09AB9F8BD50F300240C00002498
:104F500028F3002448F3002460F3002454F30024D1
:104F600044F3002472B6FEE7014B01221A60704739
:104F700064F3002438B5164D04462B6813B1154B65
:104F80001B681BBB144B1868037A63B9134B144A94
:104F90001B681B01D35C012B05D10E4B1B6813B999
:104FA00003681B6998470F4A1368012B0CD10E4BFD
:104FB0000B491B681B01CB5C33B92B6823B9022159
:104FC000204613600AF003FC022038BD0120FCE7F4
:104FD00064F300243CF3002454F3002440F3002441
:104FE0000C00002460F3002450F3002470B5054643
:104FF000002A3BD0002B39D01D4802240461EC6804
:1050000026074FF4A06618BF24F00F04466018BFAF
:10501000103404602409C4602C6914F00F0418BF14
:10502000C4F1100484600698124C400820601248B5
:10503000124C03601248FFF7B7FE6A6C114B104D1B
:105040001A602846FFF796FF20602368022B05D1DF
:105050000D4B4FF0FF31186802F0E3F82368012B85
:10506000EFD10023094A1360094A136070BD00BFE5
:1050700028F300244CF3002474F300245CF3002490
:10508000A01B032454F3002444F3002464F30024FD
:105090003CF300242DE9F04F9946436985B004465E
:1050A0000F4690462BB9294BB321294A294830F0A5
:1050B000EFFE08228169FFF7D1FCA6692046314640
:1050C000FFF7B9FCB11C83462046FFF7B4FC311D45
:1050D00082462046FFF794FC06F10801A36A0546C4
:1050E0000A189A4226D243F230039B4517D146F262
:1050F00064339A4513D190B10246A1612046FFF76F
:10510000ADFC0E9B01462A462046CDF80080CDE935
:1051100001933B46FFF76AFF636901336361A3694B
:105120002B4405B908330133626A23F0010393422B
:10513000A36109D1012301206361236AA36180F087
:10514000010005B0BDE8F08F0020F8E7F7F1030893
:1051500016F303086BF10308F8B504468169164697
:105160000822FFF77BFCA7692046391DFFF748FCA2
:1051700007F10801024605462046FFF76FFC01468D
:105180006EB12A46074C084D33460748FFF70CFE20
:105190002846FFF7EFFE20602368002BF8D001209F
:1051A000F8BD00BF5CF30024A01B0324D0F80CC0A2
:1051B00017494FEA0C120B68B2FBF3F24B68F0B5DB
:1051C0005A430224134B144D12015C63CF682D68BF
:1051D0003E01ED1B3C05AC4515D38968C1F11001BA
:1051E000214359640D4909680A44DA630C4A12687C
:1051F000921B1A6400221A610A4ADA614268DA6074
:10520000094A1A60F0BD44F010045C64EAE700BF8C
:1052100028F300240010005258F3002474F30024F3
:105220004CF300240B0009FF012301000C4B00226A
:10523000027019688260013119601968012900D96A
:105240001A60084B084A1B68D2689B1AC2689A42C7
:1052500002D3064B01221A60054B186802F00DB804
:1052600040F3002458F3002428F300243CF30024E6
:1052700044F30024704710B50446FEF7AFFB022349
:1052800084F86C3010BDFEF78BBBFEF78FBBFEF7CA
:10529000E6BBFEF7E6BBFEF75FBBFEF7E7BDFEF73A
:1052A000D1BDFEF763BBFEF7C1BBFEF789BD10F0B1
:1052B00014BC10B50446882129F072F8204610BDB0
:1052C00070477047704770477047000010B5124C28
:1052D00001228021204603F0E9FA642002F0AAFBB3
:1052E00000228021204603F0E1FA642002F0A2FBB4
:1052F00001228021204603F0D9FA4FF47A7002F09F
:1053000099FB09200022072102F0E8FF0920BDE8EF
:10531000104003F015B800BF0018025870B588B0EF
:1053200010260D46144604AB32460021184633F0D1
:1053300015F91A4A117811B9002008B070BD002182
:10534000012311706422009082211548CDE9016289
:10535000324603F045FC0028EED19DF911309DF84E
:105360001120002BE8DA9DF810000128E4D102F0AA
:105370003F029DF812309DF8131043EA0223094AB8
:1053800001F03F01084E13609DF8142042EA01220B
:1053900032602B6033682360CFE700BF80F30024C6
:1053A000741A03247CF3002478F3002410B5044617
:1053B000042128F0F5FF204610BD0000082802D186
:1053C000014B01221A70704780F30024704708B522
:1053D000FFF73AFABDE80840FFF7C4B9FFF736BA5D
:1053E00000F108034FF0FF3243600361C0E902237C
:1053F00000230360704700230361704743689A6885
:105400004B608A60516099600368086101330360F2
:10541000704730B50C68631C0AD103695A684A604A
:1054200091608B605960036808610133036030BD8F
:1054300000F10802134652681568A542FAD9EDE753
:105440000369D0E901128A6051605968814208BF3E
:105450005A60002202611A68013A1A60186870479F
:1054600010B5044602F066F9A46B02F083F9B4FAB1
:1054700084F0400910BD70B51646026C0446856B79
:1054800042B906689EB9806801F0CAFAA660013583
:10549000A56370BD6EB94068FBF7D2F86368226CF3
:1054A0001344A2689342636024BF236863600020B2
:1054B000EDE7C068FBF7C4F8226CE36851429B1A21
:1054C00022689342E3603EBFA3685B18E360022E4C
:1054D000EDD10DB1013DEAE72846D8E7034608467D
:1054E0001A6C10B462B1DC68996814448C42DC60B8
:1054F0005DF8044B24BF1968D960D968FBF7A0B8E0
:105500005DF8044B704770B5044602F013F994F847
:10551000455004F124066DB2002D01DD636AB3B974
:10552000FF2304F1100684F8453002F023F902F05D
:1055300001F994F844506DB2002D01DD23697BB967
:10554000FF2384F84430BDE8704002F013B93046C0
:1055500001F082F908B101F009FA013D6DB2DBE713
:10556000304601F079F908B101F000FA013D6DB261
:10557000E2E738B50D46044640B94FF0500383F3D7
:105580001188BFF36F8FBFF34F8FFEE702F0D2F8A1
:105590002268D4E90F3162604B43D0185B1AA060D7
:1055A0001A440020FF23E260A06384F8443084F8AA
:1055B0004530A5B9236973B104F1100001F04CF92D
:1055C00048B14FF0E0234FF08052C3F8042DBFF3F1
:1055D0004F8FBFF36F8F02F0CDF8012038BD04F17B
:1055E0001000FFF7FDFE04F12400FFF7F9FEF2E7DB
:1055F00037B50D461C4640B94FF0500383F3118870
:10560000BFF36F8FBFF34F8FFEE743B94FF05003E7
:1056100083F31188BFF36F8FBFF34F8FFEE74AB15B
:1056200091B94FF0500383F31188BFF36F8FBFF32D
:105630004F8FFEE741B14FF0500383F31188BFF362
:105640006F8FBFF34F8FFEE750230193019B502BC9
:1056500008D04FF0500383F31188BFF36F8FBFF36F
:105660004F8FFEE70121002D08BF2246019B84F8E1
:1056700046102260C4E90F052046FFF77AFF9DF827
:105680001830204684F84C3003B030BDF8B50D46D4
:105690001746064640B94FF0500383F31188BFF315
:1056A0006F8FBFF34F8FFEE74843503001F00AFF82
:1056B000044670B1002380F8463065B100F1500314
:1056C000012120462360C4E90F65FFF752FF84F8EB
:1056D0004C702046F8BD0346F2E713B513460C465E
:1056E00040B94FF0500383F31188BFF36F8FBFF3BE
:1056F0004F8FFEE7884208D24FF0500383F31188A2
:10570000BFF36F8FBFF34F8FFEE70222009200229C
:105710001146FFF76DFF00B1846302B010BD10B5F4
:105720000C4640B94FF0500383F31188BFF36F8FDD
:10573000BFF34F8FFEE7884208D24FF0500383F348
:105740001188BFF36F8FBFF34F8FFEE70222002156
:10575000FFF79CFF00B1846310BD2DE9FF410F46A8
:105760001E460446019240B94FF0500383F311885E
:10577000BFF36F8FBFF34F8FFEE751B9036C43B197
:105780004FF0500383F31188BFF36F8FBFF34F8F38
:10579000FEE7022E0BD1E36B012B08D04FF0500334
:1057A00083F31188BFF36F8FBFF34F8FFEE701F0D4
:1057B000E9F8054620B300254FF0000801F0BAFFD4
:1057C000A26BE36B9A4227D2324639462046FFF756
:1057D00052FE636A1BB104F1240001F03DF848B1A8
:1057E0004FF0E0234FF08052C3F8042DBFF34F8FEA
:1057F000BFF36F8F01F0BEFF012004B0BDE8F08160
:10580000019B002BD8D04FF0500383F31188BFF3D6
:105810006F8FBFF34F8FFEE7022ED5D0019B1BB9D0
:1058200001F0A8FF0020E8E715B902A801F056F83A
:1058300001F0A0FF00F096FD01F07CFF94F84430E9
:10584000FF2B01D184F8448094F84530FF2B01D11F
:1058500084F8458001F08EFF01A902A801F04AF802
:1058600038BB01F067FFA26BE36B9A420ED101F0E7
:1058700081FF019904F1100000F0B6FF2046FFF708
:1058800042FE00F01BFE48B1012597E701F072FFD0
:105890002046FFF738FE00F011FEF5E74FF0E02359
:1058A0004FF08052C3F8042DBFF34F8FBFF36F8FBB
:1058B000EAE72046FFF727FE00F000FEB2E70022ED
:1058C0000B4613B5114600900120FFF791FE0446E8
:1058D00038B100231A46194683600360C360FFF79E
:1058E0003CFF204602B010BD38B5044640B94FF029
:1058F000500383F31188BFF36F8FBFF34F8FFEE721
:10590000856801F039F885420BD1E368013BE3601B
:105910000BB1012038BD1A4619462046FFF71DFF7E
:10592000F7E70020F6E770B50646502001F0CAFD03
:10593000044698B100250121006080F84650C0E976
:105940000F15FFF716FE2B462A462946204684F8F7
:105950004C60A5602560E560FFF7FFFE204670BD46
:105960002DE9F843894617461E46044640B94FF0D4
:10597000500383F31188BFF36F8FBFF34F8FFEE7A0
:1059800051B9036C43B14FF0500383F31188BFF357
:105990006F8FBFF34F8FFEE7022E0BD1E36B012B0E
:1059A00008D04FF0500383F31188BFF36F8FBFF31C
:1059B0004F8FFEE701F0D0FFEFF311884FF0500357
:1059C00083F31188BFF36F8FBFF34F8FA26BE36B2D
:1059D0009A4201D3022E1ED194F8455032464946D0
:1059E00020466DB2A36BFFF746FD6B1C0ED1636AB8
:1059F0003BB104F1240000F02FFF10B10FB10123DF
:105A00003B60012088F31188BDE8F88301356DB251
:105A100084F84550F5E70020F4E770B50D460446DC
:105A200040B94FF0500383F31188BFF36F8FBFF37A
:105A30004F8FFEE7036C43B14FF0500383F311889F
:105A4000BFF36F8FBFF34F8FFEE7036853B98368CF
:105A500043B14FF0500383F31188BFF36F8FBFF34F
:105A60004F8FFEE701F078FFEFF311864FF0500300
:105A700083F31188BFF36F8FBFF34F8FA26BE36B7C
:105A8000934219D994F845100132FF294BB2A26311
:105A90000DD1636A3BB104F1240000F0DDFE10B1CA
:105AA0000DB101232B60012086F3118870BD0133F5
:105AB0005BB284F84530F6E70020F5E72DE9FF41B9
:105AC0000E460446019240B94FF0500383F311880B
:105AD000BFF36F8FBFF34F8FFEE751B9036C43B134
:105AE0004FF0500383F31188BFF36F8FBFF34F8FD5
:105AF000FEE700F047FF054618B300254FF0000809
