:020000040800F2
:10000000000008248D520108853401088734010856
:10001000893401088B3401088D3401080000000088
:10002000000000000000000000000000317900081E
:100030008F34010800000000C179000855710008E4
:10004000DD520108DD520108DD520108DD520108D0
:10005000DD520108DD520108DD520108DD520108C0
:10006000DD52010891340108DD520108DD5201081A
:10007000DD520108DD520108DD520108DD520108A0
:10008000DD520108DD520108DD52010899340108F2
:10009000A5340108B1340108B5340108DD52010866
:1000A000DD520108DD520108DD520108DD52010870
:1000B000B9340108DD520108DD520108DD520108A2
:1000C000DD520108DD520108DD520108DD52010850
:1000D000DD520108DD520108DD520108DD52010840
:1000E000DD520108DD52010800000000DD52010868
:1000F000DD520108DD520108DD520108DD52010820
:10010000DD52010805350108DD520108DD52010804
:10011000DD520108DD520108DD520108DD520108FF
:10012000DD520108DD520108DD520108DD520108EF
:10013000DD520108DD520108DD520108DD520108DF
:10014000DD520108DD52010800000000000000003F
:10015000DD520108DD520108DD520108DD520108BF
:10016000DD520108DD520108DD520108DD520108AF
:10017000DD520108C5340108DD520108DD520108D5
:10018000DD520108DD520108DD520108DD5201088F
:10019000DD520108DD520108DD520108DD5201087F
:1001A000D1340108DD520108A5460008DD520108DE
:1001B000DD520108DD520108DD520108DD5201085F
:1001C000DD520108DD520108DD520108DD5201084F
:1001D000DD520108DD520108DD520108DD5201083F
:1001E000DD520108DD520108DD520108DD5201082F
:1001F000DD520108DD520108DD520108DD5201081F
:10020000DD520108DD520108DD520108DD5201080E
:10021000DD520108DD520108DD520108DD520108FE
:10022000DD520108DD340108E9340108DD5201081E
:10023000DD520108DD520108DD520108DD520108DE
:10024000DD520108DD520108DD520108DD520108CE
:10025000DD520108DD520108DD520108DD520108BE
:10026000DD520108DD520108DD520108DD520108AE
:10027000DD520108DD520108DD520108DD5201089E
:10028000DD520108DD520108DD52010800000000C6
:08029000DD520108DD520108F6
:1002C00002780B78012A28BF9A4240F0D8806DE965
:1002D000044540EA0104CDE902676FF0000C4FEAE3
:1002E00044721AB380EA010414F0070F6BD100F0D6
:1002F000070420F0070004F0030521F007014FEA8E
:10030000C505F0E8042314F0040FF1E804670CFAC3
:1003100005F462EA040266EA04060BD063EA040309
:10032000624667EA0407664604E000BFF0E804237B
:10033000F1E8046782FA4CF582EA0604A4FA8CF428
:100340006CBB83FA4CF583EA0705A5FA8CF595B9E1
:1003500050E9022351E9026782FA4CF582EA060469
:10036000A4FA8CF483FA4CF583EA0705A5FA8CF518
:100370002543DBD09CB92DBAB5FA85F424F00704E7
:1003800027FA04F1DDE9026723FA04F303F0FF0022
:1003900001F0FF01FDE80445A0EB0100704724BA1D
:1003A000B4FA84F424F0070426FA04F1DDE90267C4
:1003B00022FA04F202F0FF0001F0FF01FDE804451B
:1003C000A0EB0100704714F0030F3CD110F00304C0
:1003D00028D150F8082B51F8083B82FA4CF582EAF4
:1003E0000305A5FA8CF55DB950F8042C51F8043CCE
:1003F00082FA4CF582EA0305A5FA8CF5002DE8D0C7
:100400002DBAB5FA85F424F0070423FA04F122FA90
:1004100004F202F0FF0001F0FF01FDE80445A0EB4B
:10042000010070474FEAC40420F0030050F8082B85
:1004300021F0030151F8083B0CFA04F462EA0402CB
:1004400063EA0403C9E710F003041DD0A1EB040123
:1004500020F00300E40750F8042B06D012D28B786A
:100460005FFAA2F4E41A06D12BB1CB785FFAB2F4AA
:10047000E41A00D133B920465DF8104B7047A2EB67
:100480000300704701F1040150F8042BCC0721F060
:10049000030151F8043B48D824D222F07F4482FA69
:1004A0004CF594EA1325A5FA8CF50AD165B951F8F3
:1004B000043B84EA0204B4EB036F0ED150F8042B22
:1004C000EBE74FEA132355E035F07F454DD108782F
:1004D000FDE80445C0F1000070474FEA126203F0E6
:1004E000FF0347E002EA1C4482FA4CF594EA134504
:1004F000A5FA8CF50AD165B951F8043B84EA0204E7
:10050000B4EB034F0CD150F8042BEBE74FEA134345
:1005100030E015EA1C4528D10B884FEA124229E049
:100520004FEA124203EA1C4324E002F0FF0482FA7D
:100530004CF594EA1365A5FA8CF50AD165B951F822
:10054000043B84EA0204B4EB032F09D150F8042BD6
:10055000EBE74FEA13630DE015F0FF0F05D10B68D1
:100560004FEA122223F07F4304E04FF00000FDE841
:100570000445704712BA1BBA82FA4CF482EA0304AB
:10058000A4FA8CF5B5FA85F402FA04F203FA04F33E
:100590004FEA1260FDE80445A0EB1360704700BF0E
:1005A00001F0FF01102A2BDB10F0070F08D010F824
:1005B000013B013A8B422DD010F0070F42B3F6D128
:1005C000F0B441EA012141EA014122F007047FF041
:1005D00000070023F0E80256083C85EA010586EA98
:1005E000010685FA47F5A3FA87F586FA47F6A5FAD4
:1005F00087F68EB9EED1F0BC01F0FF0102F00702E0
:1006000032B110F8013B013A83EA010313B1F8D18A
:100610000020704701387047002D06BF354603386B
:10062000073815F0010F07D1013015F4807F02BFA4
:10063000013015F4C03F0130F0BC0138704700BFF5
:10064000844641EA000313F003036DD1403A41D3DD
:1006500051F8043B40F8043B51F8043B40F8043B9C
:1006600051F8043B40F8043B51F8043B40F8043B8C
:1006700051F8043B40F8043B51F8043B40F8043B7C
:1006800051F8043B40F8043B51F8043B40F8043B6C
:1006900051F8043B40F8043B51F8043B40F8043B5C
:1006A00051F8043B40F8043B51F8043B40F8043B4C
:1006B00051F8043B40F8043B51F8043B40F8043B3C
:1006C00051F8043B40F8043B51F8043B40F8043B2C
:1006D000403ABDD2303211D351F8043B40F8043BCC
:1006E00051F8043B40F8043B51F8043B40F8043B0C
:1006F00051F8043B40F8043B103AEDD20C3205D3DC
:1007000051F8043B40F8043B043AF9D2043208D0D3
:10071000D2071CBF11F8013B00F8013B01D30B8845
:1007200003806046704700BF082A13D38B078DD023
:1007300010F003038AD0C3F10403D21ADB071CBFF5
:1007400011F8013B00F8013B80D331F8023B20F85F
:10075000023B7BE7043AD9D3013A11F8013B00F898
:10076000013BF9D20B7803704B7843708B78837020
:10077000604670470000000000000000000000001C
:1007800030B490F800F020F007016FF0000C10F08A
:10079000070491F820F040F048804FF000046FF01B
:1007A0000700D1E9002391F840F000F1080082FA37
:1007B0004CF2A4FA8CF283FA4CF3A2FA8CF34BBB02
:1007C000D1E9022382FA4CF200F10800A4FA8CF27B
:1007D00083FA4CF3A2FA8CF3E3B9D1E9042382FA49
:1007E0004CF200F10800A4FA8CF283FA4CF3A2FA5E
:1007F0008CF37BB9D1E9062301F1200182FA4CF296
:1008000000F10800A4FA8CF283FA4CF3A2FA8CF3FC
:10081000002BC6D0002A04BF04301A4612BAB2FA1E
:1008200082F200EBD20030BC7047D1E9002304F023
:100830000305C4F100004FEAC50514F0040F91F858
:1008400040F00CFA05F562EA05021CBF63EA0503F5
:1008500062464FF00004AAE781F0004102E000BFC9
:1008600083F0004330B54FEA41044FEA430594EA70
:10087000050F08BF90EA020F1FBF54EA000C55EAAB
:10088000020C7FEA645C7FEA655C00F0E2804FEA7C
:100890005454D4EB5555B8BF6D420CDD2C4480EA5E
:1008A000020281EA030382EA000083EA010180EA8E
:1008B000020281EA0303362D88BF30BD11F0004FDC
:1008C0004FEA01314FF4801C4CEA113102D0404212
:1008D00061EB410113F0004F4FEA03334CEA13334D
:1008E00002D0524263EB430394EA050F00F0A78065
:1008F000A4F10104D5F1200E0DDB02FA0EFC22FA60
:1009000005F2801841F1000103FA0EF2801843FA53
:1009100005F359410EE0A5F120050EF1200E012A44
:1009200003FA0EFC28BF4CF0020C43FA05F3C01882
:1009300051EBE37101F0004507D54FF0000EDCF1FB
:10094000000C7EEB00006EEB0101B1F5801F1BD3A4
:10095000B1F5001F0CD349085FEA30004FEA3C0CA8
:1009600004F101044FEA445212F5800F80F09A809E
:10097000BCF1004F08BF5FEA500C50F1000041EBA2
:10098000045141EA050130BD5FEA4C0C404141EBA6
:100990000101013C28BFB1F5801FE9D291F0000FA1
:1009A00004BF01460020B1FA81F308BF2033A3F150
:1009B0000B03B3F120020CDA0C3208DD02F1140C47
:1009C000C2F10C0201FA0CF021FA02F10CE002F182
:1009D0001402D8BFC2F1200C01FA02F120FA0CFC7B
:1009E000DCBF41EA0C019040E41AA2BF01EB0451C4
:1009F000294330BD6FEA04041F3C1CDA0C340EDCC2
:100A000004F11404C4F1200220FA04F001FA02F304
:100A100040EA030021FA04F345EA030130BDC4F1C2
:100A20000C04C4F1200220FA02F001FA04F340EAB7
:100A30000300294630BD21FA04F0294630BD94F068
:100A4000000F83F4801306BF81F480110134013D4F
:100A50004EE77FEA645C18BF7FEA655C29D094EAC0
:100A6000050F08BF90EA020F05D054EA000C04BF3E
:100A70001946104630BD91EA030F1EBF0021002029
:100A800030BD5FEA545C05D14000494128BF41F0C8
:100A9000004130BD14F580043CBF01F5801130BD2C
:100AA00001F0004545F0FE4141F470014FF00000B7
:100AB00030BD7FEA645C1ABF194610467FEA655C68
:100AC0001CBF0B46024650EA013406BF52EA03350A
:100AD00091EA030F41F4002130BD00BF90F0000FF8
:100AE00004BF0021704730B54FF4806404F1320434
:100AF0004FF000054FF0000150E700BF90F0000FED
:100B000004BF0021704730B54FF4806404F1320413
:100B100010F0004548BF40424FF000013EE700BFE3
:100B200042004FEAE2014FEA31014FEA02701FBF73
:100B300012F07F4393F07F4F81F06051704732F0A5
:100B40007F4208BF704793F07F4F04BF41F40021FC
:100B5000704730B54FF4607401F0004521F000415A
:100B60001CE700BF50EA010208BF704730B54FF0E4
:100B700000050AE050EA010208BF704730B511F0E5
:100B8000004502D5404261EB41014FF4806404F11D
:100B900032045FEA915C3FF4D8AE4FF003025FEAA3
:100BA000DC0C18BF03325FEADC0C18BF033202EB27
:100BB000DC02C2F1200300FA03FC20FA02F001FA81
:100BC00003FE40EA0E0021FA02F11444BDE600BF24
:100BD00080F0004002E000BF81F0004142001FBFF2
:100BE0005FEA410392EA030F7FEA226C7FEA236CFB
:100BF0006AD04FEA1262D2EB1363C1BFD2184140F0
:100C000048404140B8BF5B42192B88BF704710F085
:100C1000004F40F4000020F07F4018BF404211F028
:100C2000004F41F4000121F07F4118BF494292EA90
:100C3000030F3FD0A2F1010241FA03FC10EB0C00BC
:100C4000C3F1200301FA03F100F0004302D5494249
:100C500060EB4000B0F5000F13D3B0F1807F06D3F6
:100C600040084FEA310102F10102FE2A51D2B1F1EE
:100C7000004F40EBC25008BF20F0010040EA0300E3
:100C80007047490040EB0000013A28BFB0F5000F63
:100C9000EDD2B0FA80FCACF1080CB2EB0C0200FA19
:100CA0000CF0AABF00EBC25052421843BCBFD04068
:100CB0001843704792F0000F81F4000106BF80F4E2
:100CC00000000132013BB5E74FEA41037FEA226CA5
:100CD00018BF7FEA236C21D092EA030F04D092F070
:100CE000000F08BF0846704790EA010F1CBF0020A4
:100CF000704712F07F4F04D1400028BF40F0004001
:100D0000704712F100723CBF00F50000704700F020
:100D1000004343F0FE4040F4000070477FEA226247
:100D200016BF08467FEA23630146420206BF5FEA18
:100D3000412390EA010F40F4800070474FF0000318
:100D400004E000BF10F0004348BF40425FEA000CDF
:100D500008BF704743F0964301464FF000001CE087
:100D600050EA010208BF70474FF000030AE000BFDD
:100D700050EA010208BF704711F0004302D540421B
:100D800061EB41015FEA010C02BF8446014600208D
:100D900043F0B64308BFA3F18053A3F50003BCFAA8
:100DA0008CF2083AA3EBC25310DB01FA02FC634455
:100DB00000FA02FCC2F12002BCF1004F20FA02F25C
:100DC00043EB020008BF20F00100704702F120024F
:100DD00001FA02FCC2F1200250EA4C0021FA02F2B0
:100DE00043EB020008BF20EADC70704753B94AB9F0
:100DF000002908BF00281CBF4FF0FF314FF0FF3023
:100E000000F0E2B8ADF1080C6DE904CE3CF064FAF4
:100E1000DDF804E0DDE9022304B0704700F134019D
:100E200091E838009C46A6464CF8045D90E8FF0F18
:100E3000E54600BD90EC210B704700BF80EC210B14
:100E4000704700BF90EC200B704700BF80EC200B78
:100E5000704700BFD0EC200B704700BFC0EC200BE8
:100E6000704700BFF0EC0201F0EC0211F0EC02213F
:100E7000F0EC0231F0EC0241F0EC0251F0EC0261D6
:100E8000F0EC0271F0EC0281F0EC0291F0EC02A1C6
:100E9000F0EC02B1F0EC02C1F0EC02D1F0EC02E1B6
:100EA000F0EC02F1704700BFE0EC0201E0EC02114F
:100EB000E0EC0221E0EC0231E0EC0241E0EC025116
:100EC000E0EC0261E0EC0271E0EC0281E0EC029106
:100ED000E0EC02A1E0EC02B1E0EC02C1E0EC02D1F6
:100EE000E0EC02E1E0EC02F1704700BFB0FC0181F0
:100EF000B0FC0191B0FC01A1B0FC01B1704700BF92
:100F0000A0FC0181A0FC0191A0FC01A1A0FC01B109
:100F1000704700BFEC4600B52DE900502DE9FF1FDA
:100F20004FF000032DE90C0001A93CF08FFCDDF827
:100F300040E012B0704700BFEC4600B52DE900500C
:100F40002DE9FF1F4FF000032DE90C0001A93CF033
:100F5000B9FCDDF840E012B0704700BFEC4600B5C8
:100F60002DE900502DE9FF1F4FF000032DE90C0083
:100F700001A93CF0C9FCDDF840E012B0704700BFA9
:100F8000EC4600B52DE900502DE9FF1F4FF000039E
:100F90002DE90C0001AB3CF08DFCDDF840E012B017
:100FA000704700BFEC4600B52DE900502DE9FF1F4A
:100FB0004FF000032DE90C0001AA3CF005FDDDF81F
:100FC00040E012B0704700BF704700BF0348044BB9
:100FD000834202D0034B03B118477047C007002477
:100FE000C0070024000000000548064B1B1AD90F5B
:100FF00001EBA301491002D0034B03B1184770471E
:10100000C0070024C00700240000000010B5064CF3
:10101000237843B9FFF7DAFF044B13B10448AFF369
:1010200000800123237010BDC08100240000000057
:1010300044E4030808B5054B1BB105490548AFF367
:101040000080BDE80840FFF7CFBF00BF00000000F0
:10105000C481002444E40308704704387047704793
:1010600082B002B0704782B002B0704782B002B066
:10107000704782B002B0704784B004B0704782B04D
:1010800002B0704784B001A804B080E80E00704739
:1010900084B001A804B080E80E00704784B004A8B2
:1010A00000E90E0004B0704784B004A800E90E0007
:1010B00004B0704710B5044610212EF009F92046FF
:1010C00010BDA0F10400F5E784B010B5044603A8F4
:1010D00080E80E00E0689DF810209DF80C1000F0EC
:1010E000C3FA9DF81410E06800F0F2F99DF81810AA
:1010F000E06800F091FA9DED087ADDED077ABCEE2C
:10110000C77AE068FCEEE77A17EE103ABDE81040C7
:101110009AB217EE903A04B099B200F0F1B9A0F18A
:101120000400FFF7D1BF82B0C06802AB03E906003C
:10113000114602B000F0BAB9A0F10400FFF7F3BF06
:1011400084B010B5044603A880E80E00E0689DF85E
:101150000C1000F0D7FA9DF81010E06800F036FA95
:101160009DF81410E06800F0B9F89DF81810E068D8
:10117000BDE8104004B000F0D8BAA0F10400FFF7B9
:10118000DFBFBCEEC00A84B00021C06810EE103A88
:101190009AB204B000F068B9A0F10400FFF7F1BF03
:1011A00013B502AB0446C06803E90600DDED017A21
:1011B0000022FCEEE77A17EE903A99B200F054F96B
:1011C0009DF80010E06802B0BDE8104000F05CBA85
:1011D000A0F10400FFF7E4BF82B0C06802AB03E9EE
:1011E00006009DED010A02B000F066BAA0F104000D
:1011F000FFF7F2BF82B002B0704782B002B0704712
:1012000082B002B0704782B002B0704784B004B0C0
:10121000704782B002B0704784B001A804B080E883
:101220000E00704784B001A804B080E80E0070473B
:1012300084B004A800E90E0004B0704784B004A88C
:1012400000E90E0004B070470022C1608260024ACB
:101250000260583242607047F4E4030870477047F8
:1012600070470000034B10B50446036002F0AAF873
:10127000204610BD0403040810B50446FFF7F2FF32
:1012800046F2681120462EF023F8204610BD026871
:10129000B0EE401AD0ED0E0AD26F90ED0D0A104755
:1012A00010B5044600F0ACFE0A4B00210022204697
:1012B000236004F5C043C3F85811C3F85C11064914
:1012C000C3F85421C3F86011A3F8642183F86621A0
:1012D00010BD00BF0403040800009D424B1E00F532
:1012E000C0405942594180F86611704738B50446EC
:1012F00000F045FD5023564A022104F5A7501EF088
:10130000D4FE04F66840534D1CF072FD04F5A55060
:1013100064232A460A210C301EF0C7FE04F2F46052
:101320001CF066FD4C4B2A460A2104F5A6501EF01F
:10133000BCFE04F5E8601CF05BFD04F5AA50B42384
:101340002A4608211C301EF0B0FE04F644601CF052
:101350004FFD04F5AD5000232A46042114301EF041
:10136000A4FE04F5805018301CF042FD04F5A6518F
:1013700006223A4814311FF0C8F804F28C701CF0B1
:1013800037FD04F5A75042F210732A460A210430B3
:101390001EF08BFE04F5A75042F210732A460A2174
:1013A00018301EF082FE04F60C501CF021FD04F5EE
:1013B000A85042F210732A460A210C301EF075FE26
:1013C00042F210732A460A2104F5A9501EF06DFE60
:1013D00004F65C501CF00CFD04F5A95042F21073A9
:1013E0002A460A2114301EF060FE04F5AA5042F28B
:1013F00010732A460A2108301EF057FE04F6AC503E
:101400001CF0F6FC04F6F8501CF0F2FC04F5AF50AA
:1014100000232A4608210C301EF047FE04F58B50AD
:1014200014301CF0E5FC04F5AF500D4B0A210D4AB9
:101430001C301EF03AFE04F58E501CF0D9FC04F569
:10144000C0440023A4F8643184F8663138BD00BF7D
:1014500094E5030897E503087EC912009AE503089E
:10146000A0E50308A5E5030870B504460E4E00F597
:10147000AD5013460D46324608211C301EF015FEB5
:1014800004F5835004301CF0B3FC04F5AE502B4639
:10149000324608210C301EF008FE04F58550BDE8E8
:1014A000704010301CF0A4BC97E5030810B504464A
:1014B0000B46064A0A2100F5B2501EF0F6FD04F56F
:1014C000A350BDE810401CF093BC00BF97E5030893
:1014D0000329094A94BF094B2D2310B5044698BF30
:1014E0005B5C00F5A75002211EF0DFFD04F66840AA
:1014F000BDE810401CF07CBC94E50308F60204082B
:1015000007EE901A9FED2F7A0821F0B52DED028B92
:10151000F8EEE78A83B0F8EE677A04462A4D00F5C4
:10152000AA5068EE878A01AB04F67C3608EE102AD2
:101530001C302A46CDED017A1EF0DEFF04F6446031
:1015400004F5FB671CF054FCB0EE680A3046FFF768
:101550009EFE304604F6C4061CF04AFCB0EE680A53
:101560003846FFF794FEB0EE680A3046FFF78FFE6C
:1015700038461CF03DFC30461CF03AFCB8EE488A78
:1015800004F5AB5001AB2A4608210C308DED018AE1
:101590001EF0B2FF04F569601CF02AFC04F5AB50A4
:1015A00001AB2A4608211C308DED018A1EF0A4FFF4
:1015B00004F6DC6003B0BDEC028BBDE8F0401CF02B
:1015C00017BC00BF2EFA8E3CA8E503080B46022983
:1015D00000F5AF514FF00A0210B501F11C0100F502
:1015E0008E540CD0032B0CD0012B14BF0648074897
:1015F0001EF08BFF2046BDE810401CF0F9BB0448EC
:10160000F6E70448F4E700BFA0E50308ADE50308EA
:10161000B1E50308B9E50308012910B504460FD068
:10162000022913D0C1B900F5A65106220B48143186
:101630001EF06BFF04F28C70BDE810401CF0D8BBAC
:1016400000F5A651062206481431F1E700F5A6512F
:10165000062204481431EBE710BD00BFC2E50308C1
:101660009AE50308C6E5030838B504460D4600F5BB
:101670005770114618F0F0FB294604F5A560BDE847
:10168000384018F0E9BB000038B5044600F51B608F
:101690000D4618F0E1FB04F5AD50064A2B46042137
:1016A00014301EF002FD04F58050BDE838401830BB
:1016B0001CF09EBB97E50308FDEEC07A10B504460A
:1016C00017EE901A00F5C8702DED028B82B0B0EEC7
:1016D000408A18F0C1FB04F5AF5001AB084A08215D
:1016E0000C308DED018A1EF007FF04F58B5014308D
:1016F00002B0BDEC028BBDE810401CF079BB00BF0E
:10170000CBE5030807B521B101290CD003B05DF882
:1017100004FB082300F59D5001A9ADF804301030FA
:1017200018F059FCF2E70923F4E700F5C04313B5BC
:1017300003291FD8DFE801F01E02070A0122A3F8DF
:10174000642102B010BD4FF48072F8E740F201123C
:1017500000F59754A3F8642108341023204601A90A
:10176000ADF8043018F037FC204602B0BDE8104058
:101770001CF03EBB002200F59754A3F86421083406
:101780001123EBE7F7B500F5C0473C2300F5905671
:101790000446D7F854510C36013595FBF3F2C7F8DF
:1017A000545103FB125597F864314BB11D2D01A91B
:1017B0003046D4BF16231723ADF8043018F00BFCC5
:1017C000304604F591561CF013FB97F86531183636
:1017D0004BB11D2D01A93046D4BF21232223ADF8E2
:1017E000043018F0F8FB304604F593541CF000FB6D
:1017F00097F8663104344BB11D2D01A92046D4BFA2
:1018000019231A23ADF8043018F0E5FB204603B085
:10181000BDE8F0401CF0ECBA002202607047000006
:1018200082B010B52DED028B04A9044605A89FEDEA
:10183000208ADFED208A81E80C00082200210FF0C9
:10184000C3FC0822206005A811460FF0BDFC03224E
:101850006060102105A80FF0B7FC0322A0601621DC
:1018600005A80FF0B1FC1022E060202105A80FF0C0
:10187000ABFCFFF775FAF0EE487A07EE100A10227B
:1018800005A83021E7EE287AC4ED047A0FF09CFC1D
:10189000FFF766FA07EE900A2046A7EEA88A84EDC5
:1018A000058ABDEC028BBDE8104002B0704700BF56
:1018B000000061C4CDCCCC3D82B010B502A9044675
:1018C00003A881E80C00012200210FF07DFC032217
:1018D0002060012103A80FF077FC01226060042141
:1018E00003A80FF071FC0322A060052103A80FF0EC
:1018F0006BFC0122E0600A2103A80FF065FC0C21BB
:10190000206101220DEB01000FF05EFC60612046BA
:10191000BDE8104002B0704782B010B52DED028BCB
:1019200004A904469FED168A05A8DFED168A81E812
:101930000C00202200210FF047FCFFF711FAF0EE17
:10194000487A07EE100A202205A8E7EE287A114609
:10195000FCEEE77AC4ED007A0FF036FCFFF700FAF0
:1019600007EE900A2046A7EEA88ABCEEC88A84ED4E
:10197000018ABDEC028BBDE8104002B0704700BF89
:101980000000FAC30AD7233C82B010B502A904466E
:1019900003A881E80C00202200210FF015FC0C2286
:1019A000206020210DEB02000FF00EFCFFF7D8F9AC
:1019B0009FED067A07EE900A204667EE877AC4ED1F
:1019C000017ABDE8104002B0704700BFCDCCCC3DDD
:1019D0002DE9F04FC5B004460AAD18A80FF02EFE51
:1019E0000DF1D00B28460DF1F00A0FF035FE0CA8D2
:1019F0000FF042FE0EA80FF04FFE10A80FF05CFE95
:101A000012A80FF069FE24A80FF076FE14A80FF0BC
:101A100081FE0DF16C0958460DF178080FF08AFE31
:101A200050460FF099FE16AE484637AF0FF0A6FEAF
:101A300040460FF0B1FE30460FF0BCFE20689DED31
:101A40001A1A03689DED180ADDED190A5B699847BB
:101A50002068036895E806009B696D4698472068F2
:101A60009DED0C0A0368DDED0D0ADB6998472068DF
:101A70009DED0E0A0368DDED0F0A1B6A984720688A
:101A80009DED100A0368DDED110A5B6A9847206836
:101A90009DED120A0368DDED130A9B6A98472068E2
:101AA0009DED261A0368DDED271ADB6A9DED240AF9
:101AB000DDED250A984720689DED140A0368DDEDE9
:101AC000150A1B6B9847D4F800C00FCFDCF800E074
:101AD0000FC53B6860462B60DEF834709BE80E0053
:101AE000B8473FAFD4F800E0EC460FCFDEF800B0C7
:101AF000ACE80F003B6870462B60DBF838509AE882
:101B00000E00A84720680368DD6B99E80E00A8471F
:101B10002068DFF8FC9003681D6C98E80E00A84769
:101B20002068DFF8F080036896E806005B6C984751
:101B300021AD09E0219B4B4550D011D8324A934248
:101B400024D00132934239D000232946D8F800002E
:101B50001A4605F03FFD0028ECD045B0BDE8F08FF7
:101B60002A4A9342F0D1239B06AF21463846009380
:101B700095E80C00FFF708FF97E8030086E80300EC
:101B80002068036896E806005B6C25E028AF239B7D
:101B900021463846009395E80C00FFF741FE256882
:101BA0002BABD5F800C093E807008DE8070097E855
:101BB0000E00DCF808702846B847B9E7239B08AF49
:101BC00021463846009395E80C00FFF7A5FE2068F3
:101BD000036897E80600DB689847A9E72EAF239BC8
:101BE00021463846009395E80C00FFF765FE25680E
:101BF00031ABD5F800C093E807008DE8070097E8FF
:101C00000E00DCF81070D6E7010000104300001051
:101C100003000010C01B0324704700F59873086888
:101C2000496803C37047704701F012BD10B5044600
:101C30004FF4AE712DF04CFB204610BD10B504469C
:101C4000D0F85801FFF7C4FE2046BDE810401AF056
:101C5000B7BF10B50446D0F8400158B10368DB683F
:101C6000984738B1D4F8400103689B68984700232F
:101C7000C4F8403110BD000010B5044601F0B4FCBA
:101C8000014B2046236010BD380304080020704734
:101C900081807047C18070470181704741817047E2
:101CA0007047704770477047704710B4C488036826
:101CB000121B84885B6D091B12B25DF8044B09B2DC
:101CC00018474FF6FF7383814FF0FF3303621368A9
:101CD000C3611060704770477047704700207047BD
:101CE0008B8883800120704770470176704781821E
:101CF000C2827047704730B585B0036804460181E1
:101D00006D460146D3F884303C342846984795E820
:101D1000070084E8070005B030BD30B585B0036822
:101D2000044641816D460146D3F884303C34284650
:101D3000984795E8070084E8070005B030BD002209
:101D4000028042808280C280704780F836107047DF
:101D5000036870B504461B6B1546984723682046F8
:101D600029465B6EBDE87040184700207047806CC4
:101D70007047806C7047C06C704770477047704701
:101D800010B5044608212DF0A3FA204610BD10B569
:101D9000044650212DF09CFA204610BD10B5044693
:101DA0004C212DF095FA204610BD90F8252012B157
:101DB00003685B691847704708B5FFF7F6FF08BD71
:101DC00090F825201AB190F8242002B118607047CD
:101DD000036870B55E6B0446114B8DB21B682BB95E
:101DE000104B6C21104A114834F0EAFF1049828DE3
:101DF0000988914203D80F4B6D210B4AF3E713F882
:101E000012200D4B1B6853F8220003681B6B984788
:101E1000291A3346204609B2BDE87040184700BF72
:101E2000242E0324D1E5030813E603084EE6030835
:101E3000182E032493E603081C2E0324036870B5B0
:101E400004461B6B154698472368204629465B6B62
:101E5000BDE87040184770B504461D46BDF91060D6
:101E6000FFF7ECFF2368294620469B6B98472368C1
:101E700031462046DB6BBDE8704018474FF4807157
:101E800000228184054982620160C0E90122C0E923
:101E90000322C0E90522C0E9072270478C1004081C
:101EA0000022C0E90122C0E90322C0E90522C0E9FD
:101EB00007224FF480728284014A0260704700BF9B
:101EC0008C03040838B504460D462622002137F05D
:101ED000DDFA2046FFF7E4FF064B20462946236043
:101EE0002B88E384FF2384F8283018F074F8204608
:101EF00038BD00BFC0190408002370B5124E054656
:101F00008380124B0360336893F85C200AB1186D2C
:101F100000B9986803681B6B98473368B0FA80F47F
:101F2000186D640930B103681B6B9847002808BF1F
:101F300044F001042CB9064B2C21064A064834F023
:101F40003FFF284670BD00BFC42D0324F4030408DE
:101F5000D1E603082FE7030868E7030810B5044635
:101F6000FFF7CAFF4FF6FF732046A3810023A37338
:101F700084F82030C4E90433C4E90633024B2360FB
:101F80002433A36010BD00BF3813040800224FF0B3
:101F9000FF318260C0E90021704710B50446FFF7A9
:101FA000F5FF204610BD000010B504460021262292
:101FB00037F06CFA2046FFF773FF094B4FF47F02AE
:101FC00004F13C002360074BA3624FF6FF73A38527
:101FD0000023C4E90C322387FFF7D8FF204610BD49
:101FE0005C1704081404040810B50446FFF7DCFF6E
:101FF000024B204623600023A36410BD2404040880
:102000002DE9F04F044600264FF6FF7A04F5B27B27
:1020100004F5C87904F5577704F5A5682DED028B12
:10202000B9B0B0EE008A1CF025FADC4B2246E6631C
:10203000314635AD42F8403B2E9226222E9837F09D
:1020400025FA2E98FFF72CFFD54BA6662364FF23B5
:10205000DFEDD48A84F8663004F16C0318460793E8
:1020600013F0E6FE5846FFF709FF484617F0ECFD6F
:1020700004F54C7318462F93FFF770FF384617F09E
:10208000E3FD04F2FC4318463093FFF767FF404638
:1020900017F0DAFD04F5D96318463193FFF75EFFB8
:1020A00004F2F46318462193FFF79EFF04F5E863FA
:1020B00018462293FFF798FF04F28C731846239377
:1020C000FFF792FF04F5FB631846039316F000FB3D
:1020D00004F6C4031846049316F0FAFA04F51B63D9
:1020E0001846059317F0B0FD04F535631846329392
:1020F000FFF734FF04F67C331846069316F0E8FA2F
:1021000004F6684318462493FFF76EFF04F6B443C1
:102110002946ADF8D4A018462593FFF7D3FE04F561
:102120004E632946ADF8D4A018462693FFF7CAFEA1
:1021300004F60C5318461F93FFF736FF9A4BC4F86A
:10214000546DC4F80C3D04F65C53C4F8586D184641
:102150002093FFF729FF944BC4F8A46DC4F85C3DAD
:1021600004F6AC53C4F8A86D18461993FFF73CFF6A
:1021700004F6F85318461A93FFF736FF04F6446343
:1021800018462793FFF730FF04F569631846289334
:10219000FFF72AFF04F6DC6318462993FFF724FFB4
:1021A00004F628732946ADF8D4A018462A93FFF701
:1021B00089FE04F654732946ADF8D4A018462B9333
:1021C000FFF780FE04F5786318461B93FFF70CFFBA
:1021D00004F6CC7318461C93FFF706FF04F58053F2
:1021E000183318460C93FFF7FFFE04F583530433AE
:1021F00018460893FFF7F8FE04F585531033184688
:102200000993FFF7F1FE04F587531C3318460A9330
:10221000FFF7EAFE04F58A532946ADF8D4A0083347
:1022200018460D93FFF74EFE04F58B5314331846F2
:102230000E93FFF7D9FE04F58E5318462C93FFF743
:10224000D3FE04F590532946ADF8D4A00C331846BC
:102250000F93FFF737FE04F591532946ADF8D4A04C
:10226000183318461093FFF72DFE04F593532946B3
:10227000ADF8D4A0043318461193FFF723FE04F5FC
:1022800094532946ADF8D4A0103318461293FFF7A3
:1022900019FE04F595532946ADF8D4A01C33184611
:1022A0001393FFF70FFE04F597532946ADF8D4A01A
:1022B000083318461493FFF705FE04F598531433BA
:1022C00018461893FFF770FE04F580531A460B93D7
:1022D000354BC2F8143304F59B530433C2E9D76677
:1022E00018461593FFF780FE04F59D532946ADF877
:1022F000D4A010334FF4A87A18461693FFF7E2FDE6
:1023000004F59E531C3318461D93FFF7B7FD04F5E3
:10231000A053083318461E93FFF7B0FD04F5A153F0
:10232000143318461793FFF7A9FD04F5A353184675
:102330002D93FFF759FE04F5B2504FF49641143037
:1023400018F05EFD4FF44873324631462E980093E4
:102350004FF4A063FFF77FFD4FF07F432E99A366F4
:10236000231D1846339313F0BAF9324631460798C5
:10237000FFF764FD04232A4634A9ADF8D0300523C5
:102380000798ADF8D43013F0F0FD40F2FD224FF481
:102390001671079813F09FFC322107E044050408EA
:1023A000EC17040800007242B4040408079813F004
:1023B00028FC3221079813F08CFCE84B484629464C
:1023C000C4F86C310E23ADF8D43013F01BF953462A
:1023D0004846F8227821CDF800A0FFF73CFDA8225E
:1023E0004846114617F00CFD484679226FF08601E9
:1023F00017F07CFD3346962248463146009612F08F
:10240000A9FF4846314617F027FD4846D44912F047
:10241000D9FF1322682348461D2117F0DDFC4846EA
:10242000012117F062FC4846012117F061FC484683
:10243000012117F060FC0F2329462F98ADF8D43006
:1024400015F066F9484617F06CFC2F9B83624846EE
:1024500017F067FC4FF489534363484617F061FC5B
:102460004FF488530364484617F05BFCB42115F021
:10247000F1F95346324648463146CDF800A017F0F0
:1024800015FC494658464FF0F00913F028F902238D
:1024900038462946ADF8D43013F0B4F84B463846E8
:1024A0004FF494723146CDF80090FFF7D4FC7822B7
:1024B0003846114617F0A4FC384632466FF0B30197
:1024C00017F014FD3346642238463146009612F068
:1024D00041FF3846314617F0BFFC3846A04912F09C
:1024E00071FF0722432338461D2117F075FC38463B
:1024F000012117F0FAFB3846012117F0F9FB3846A5
:10250000012117F0F8FB032329463098ADF8D430A9
:1025100015F0FEF8384617F004FC309B836238460D
:1025200017F0FFFB4FF489534363384617F0F9FB6C
:102530004FF488530364384617F0F3FBB42115F0C9
:1025400089F94B46324638463146CDF8009017F0AF
:10255000ADFB3846012117F0D1FB394658461E27FE
:1025600013F0BDF80B2340462946ADF8D43013F0E4
:1025700049F84B46514640464FF49472CDF80090CE
:10258000FFF769FC78224046DFF8DCA1114617F01E
:1025900037FC40463246B42117F0A8FC334664228B
:1025A00040463146009612F0D5FE4046314617F0BF
:1025B00053FC40466A4912F005FF07224323404678
:1025C0001D2117F009FC4046012117F08EFB404603
:1025D000012117F08DFB4046012117F08CFB0C23E5
:1025E00029463198ADF8D43015F092F8404617F0EE
:1025F00098FB319B8362404617F093FB4FF489535D
:102600004363404617F08DFB4FF48B530364404601
:1026100017F087FBB42115F01DF94B4632464046B2
:102620003146CDF8009017F041FB4146584604F57D
:10263000F96813F054F808220A2140F20313219894
:102640004FF024090097FFF706FC4FF0FF332846B0
:10265000A4F82867C4F82437FFF798FC04F5E6636C
:1026600095E8070083E807000B9B29462198A3F80B
:10267000AC6404F5A5530C33C4F83C37394B35939F
:102680001423ADF8D83017F077F82199584613F095
:1026900026F8F5230A212E22229800970127FFF71A
:1026A000DAFB4FF0FF322846A4F87467C4F87027AD
:1026B000FFF76CFC04F27C7395E8070083E80700E1
:1026C0000B9A04F5A65329462298A2F8C064C4F8D0
:1026D0008837244B35931323ADF8D83017F04CF8D6
:1026E0002299584612F0FBFF1823D42140F24D22C4
:1026F000239800939923FFF7AEFB4FF0FF32284653
:10270000A4F8C067C4F8BC27FFF740FC95E80700B1
:1027100088E8070084F8C5772846FFF737FC04F5FA
:10272000A65395E80700143388E807000B9A29465A
:102730002398A2F8D464C4F8D4370A4BDFF82C806D
:1027400035931223ADF8D83017F016F82399584670
:1027500012F0C5FF4A2240F28B2109E00005200358
:10276000EDE801081404040800007A4400007842EF
:102770000398FFF763FB29460398ADF8D49016F051
:10278000AFF9D14B039AC4F8E037D04B104682ED35
:102790000C8AD36216F048F8B7EE000A039816F0D8
:1027A000B0F9039A1046C2F858A016F03DF8039A03
:1027B0001046C2F84880C2F84CA0C2ED118A16F04B
:1027C00033F8039A1046C2F85480C2ED148A16F00A
:1027D0002BF89FEDBF1A0398F0EE410AB0EE410AC4
:1027E00016F087F90399584684F8016812F077FFCC
:1027F0004A2240F2BD310498FFF720FB2946049895
:10280000ADF8D49016F06CF9B24B049AC4F8CC38F9
:10281000B14B104682ED0C8AD36216F005F8B7EE84
:10282000000A049816F06DF9049A9FEDAC8A1046E0
:10283000C2F858A015F0F8FF049A1046C2F8488074
:10284000C2F84CA082ED118A15F0EEFF049A1046F2
:10285000C2F8548082ED148A4FF0B80815F0E4FFF6
:102860009FED9B1A0498F0EE410AB0EE410A16F073
:1028700040F90499584684F8ED6812F030FF0623B9
:1028800029460598ADF8D43012F0BCFE434640F21C
:10289000511240F2E5310598CDF80080FFF7DBFAE0
:1028A0005C220598114617F0ABFA4FF4B4726FF042
:1028B000B301059817F01AFB334664223146059898
:1028C000009612F047FD3146059817F0C5FA844985
:1028D000059812F077FD082235231D21059817F081
:1028E0007BFA3946059817F000FA3946059817F033
:1028F000FFF93946059817F0FEF907232946329863
:10290000ADF8D43014F004FF059817F00AFA329AA3
:10291000744F8262059817F004FA4FF448634363DA
:10292000059817F0FEF94FF41C630364059817F03F
:10293000F8F9B42114F08EFF43463246314605982B
:10294000CDF8008017F0B2F905995846DFF8B48148
:1029500012F0C5FE3C224FF446710698FFF76EFA5E
:10296000232329460698ADF8D43016F0B9F84FF075
:102970009813069AC4F8843B10465B4BD3621363EA
:1029800015F052FFB7EE000A069816F0BAF8069A4C
:102990001046C2F858A015F047FF069A1046C2F834
:1029A0004CA0576404F5A75A976415F03DFF069AAA
:1029B0000AF1040A10461765576515F035FF9FEDBB
:1029C000441A0698F0EE410AB0EE410A16F091F86A
:1029D0000699584684F8A56B12F081FE29234FF41E
:1029E00083714FF40172249800933423FFF733FA74
:1029F0004FF0FF322846A4F89C6CC4F8982CFFF7DF
:102A0000C5FA04F6A44395E8070083E807000B9A8B
:102A100004F5A75329462498A2F8E064C4F8B03C12
:102A2000324B35931723ADF8D83016F0A5FE249914
:102A3000584612F054FE40F24B2240F29A2125985B
:102A4000FFF7FCF929462598ADF8D49017F0C3FAA2
:102A50002599584612F043FE40F24B224FF478710C
:102A60002698FFF7EBF929462698ADF8D49017F091
:102A7000B2FA2699584612F032FECB2240F20621D5
:102A80001F98FFF7DBF94FF0FF332846A4F8406D9D
:102A9000C4F83C3DFFF77AFA04F6485395E807007E
:102AA00083E80700D8F800302BB9114B6021114A98
:102AB000114834F085F9114F3B88162B24D8104B60
:102AC00061210C4AF4E700BF79007C000000A441BA
:102AD0000000000089007C000000E4410000894201
:102AE000EDE80108000098420000C040140404080A
:102AF000D1E50308C8E703084EE60308182E0324AF
:102B000093E60308242E0324DFF898931621D9F8BE
:102B1000000001F023F8DF4A03460A2150461DF069
:102B2000C4FAC4F854ADD8F8003004F5A75A0AF135
:102B3000180A002BB9D03B88152BC0D91521D9F81C
:102B4000000001F00BF8D34A03460A2150461DF05D
:102B5000ACFA1F98C4F858AD04F5A85A16F0ECFD6D
:102B6000CD4B29461F98359311230AF10C0AADF875
:102B7000D83016F001FE1F99584612F0B0FD40F211
:102B8000E531CB222098FFF759F94FF0FF32284664
:102B9000A4F8906DC4F88C2DFFF7F8F904F698535B
:102BA00095E8070083E80700D8F80030002B3FF4D1
:102BB0007CAF3B88162B82D91621D9F8000000F093
:102BC000CDFFB44A03460A2150461DF06EFAD8F8EC
:102BD0000030C4F8A4AD04F5A95A002B3FF465AF4A
:102BE0003B88152B7FF66BAF1521D9F8000000F05C
:102BF000B5FFA84A03460A2150461DF056FA209810
:102C0000C4F8A8AD16F098FDA34B2946209835933B
:102C10001023ADF8D83016F0AFFD2099584612F0C9
:102C20005EFD40F2D32240F28D311998FFF706F98C
:102C30004FF0FF332846A4F8E06DC4F8DC3DFFF701
:102C4000A5F904F6E85395E80700554683E8070020
:102C5000D8F800301435002B3FF427AF3B88162BF3
:102C60007FF62DAF1621D9F8000000F077FF894AD2
:102C700003460A212846DFF820821DF016FA19982B
:102C8000C4F8F45D35AD16F057FD0F2329461998A9
:102C9000ADF8D830CA4600274FF0FF39CDF8D480C0
:102CA00016F06AFD1999584612F019FD40F2D32228
:102CB00040F242211A98FFF7C1F82846C4F8289E2E
:102CC00004F5AA56A4F82C7EFFF760F904F63463E5
:102CD000083695E8070083E80700704B1B68002B57
:102CE0003FF4E3AE6E4B1B88162B7FF6E8AE162141
:102CF000DAF8000000F032FF664A03460A21304647
:102D00004FF0180A1DF0D1F91A98C4F8406E04F576
:102D1000805616F011FD0E2329461A98ADF8D830CA
:102D2000CDF8D48016F028FD1A99584612F0D7FC39
:102D30005523242240F23A312798CDF800A0FFF71E
:102D40008AF82846C4F8749EA4F8787EFFF71EF926
:102D500004F5686395E8070083E8070004F5AA53C3
:102D6000A6F85C75294627981C33CDF8D480C4F8A2
:102D70008C3E4FF00D03ADF8D83016F0FDFC2799CE
:102D8000584612F0ACFC552324224FF426712898A3
:102D9000CDF800A0FFF75FF82846C4F8C09EA4F85D
:102DA000C47EFFF7F3F804F6CC6395E8070083E8E8
:102DB000070004F5AB53A6F86C75294628980C3328
:102DC000CDF8D480C4F8D83E0C23ADF8D83016F036
:102DD000D3FC2899584612F082FC5523242240F255
:102DE000DE312998CDF800A04FF00A0AFFF733F83A
:102DF0002846C4F80C9FA4F8107FFFF7C7F804F624
:102E0000187395E8070083E8070004F5AB53A6F8AC
:102E10007C75294629981C33CDF8D480C4F8243F0A
:102E20000B23ADF8D83016F0A7FC2999584612F0BC
:102E300056FC40F281122A984FF4E471FEF7FEFF2F
:102E400029462A98ADF8D47017F0C5F82A99584643
:102E500012F045FC40F281122B983A21FEF7EEFF6A
:102E60004FF00D0329462B98ADF8D43017F0B3F886
:102E70002B99584612F033FC55220A211B98FEF775
:102E8000DDFF2846C4F8B09FA4F8B47FFFF77EF8B2
:102E90000AE000BFA5E5030814040408242E032457
:102EA000182E0324202E032404F6BC7395E8070093
:102EB00083E8070004F5AC531B98A6F88C750C3317
:102EC000C4F8C83F16F038FC29461B98ADF8D8A0C6
:102ED000CDF8D48016F050FC1B99584612F0FFFB39
:102EE0005146B24678221C98FEF7A8FFC4F8FC9F12
:102EF00028462AF8087BFFF749F804F5AD5395E812
:102F000007008AE8070073614FF0090A1C98A6F8C9
:102F1000A07516F011FC29461C98ADF8D8A0CDF884
:102F2000D48016F029FC1C99584612F0D8FB1523C2
:102F30004FF4C77240F21A410C9800934E23FEF7EB
:102F40008AFFE34B2846A6F84C70B364FFF71EF8DF
:102F500006F1540395E8070083E8070004F5AD5334
:102F600029460C981433A6F8B475CDF8D48033668E
:102F70000823ADF8D83016F0FFFB0C99584612F034
:102F8000AEFB07224FF4C7710898FEF757FF28469B
:102F9000C6F89490A6F89870FEF7F8FF04F58553EC
:102FA00095E8070083E8070004F5AD530898A6F8F4
:102FB000BC751C33C6F8AC3016F0BEFB072329469F
:102FC0000898ADF8D830CDF8D48016F0D5FB089924
:102FD000584612F084FB2E224FF4C7710998FEF771
:102FE0002DFF2846C6F8E090A6F8E470FEF7CEFF65
:102FF00006F1EC0395E8070083E8070004F5AE53FB
:103000000998A6F8CC750C33C6F8F83016F094FB86
:10301000062329460998ADF8D830CDF8D48016F0AB
:10302000ABFB0999584612F05AFB55224FF49071A8
:103030000A98FEF703FF2846C6F82C91A6F83071CF
:10304000FEF7A4FF06F59C7395E8070083E80700E8
:1030500004F5AE530A98A6F8DC751C33C6F8443163
:1030600016F06AFB052329460A98ADF8D830CDF84A
:10307000D48016F081FB0A99584612F030FB40F2DA
:103080009B2239460D98FEF7D9FE122329460D984A
:10309000ADF8D43016F09FFF0D99584612F01FFB83
:1030A00020234FF4A772D4210E9800939923FEF7A2
:1030B000D2FE2846C6F8A491A6F8A871FEF766FFCE
:1030C00006F5D87395E8070083E8070004F5AF53C9
:1030D00029460E980C33A6F8EC75CDF8D480C6F8C6
:1030E000BC310423ADF8D83016F046FB0E99584693
:1030F00012F0F5FA2D2340F26E224FF441712C9814
:103100000093D323FEF7A7FE2846C6F8F091A6F851
:10311000F471FEF73BFF06F5FE7395E8070083E8C0
:10312000070004F5AF5329462C981C33A6F8FC750C
:10313000CDF8D480C6F808320323ADF8D83016F0A5
:103140001BFB2C99584612F0CAFA40F20F120F9846
:103150003021FEF773FE172329460F98ADF8D430BF
:1031600016F039FF0F99584612F0B9FA40F20F12D3
:1031700010984FF4E471FEF761FE2223294610985F
:10318000ADF8D43016F027FF1099584612F0A7FA80
:103190004FF4067239461198FEF750FE1A2329465D
:1031A0001198ADF8D43016F016FF1199584612F068
:1031B00096FA40F29B2212989221FEF73FFE1F23BF
:1031C00029461298ADF8D43016F005FF12995846EA
:1031D00012F085FA40F29B22139840F23111FEF76B
:1031E0002DFE4FF0150329461398ADF8D43016F094
:1031F000F2FE1399584612F072FA97221498E421BD
:10320000FEF71CFE112329461498ADF8D43016F0B1
:10321000E2FE1499584612F062FA362340F23B223D
:103220004FF4C7711898009340F20713FEF713FE8E
:103230002846C6F84493A6F84873FEF7A7FE06F59D
:10324000547395E8070083E8070004F5B053294656
:1032500018981033A6F81076CDF8D480C6F85C33F1
:1032600004F5B153C6F860330223ADF8D83016F038
:1032700083FA1899584612F032FA282340F2F522C0
:1032800040F242211598009340F23623FEF7E3FD09
:103290002846C6F89493A6F89873FEF777FE04F5CF
:1032A0009D5395E8070083E8070004F5B1532946CC
:1032B00015981033A6F83076CDF8D480C6F8AC3324
:1032C0000123ADF8D83016F057FA1599584601E0A9
:1032D000F7F7FFFF12F003FAED2216984FF43C7156
:1032E000FEF7ACFD29461698ADF8D4A016F073FE93
:1032F00040F21D3A1699584612F0F1F959460798CE
:1033000012F0A4FE3A464FF4A06339461D98CDF85A
:1033100000A0FEF7A0FD1D99079812F097FE4FF44C
:1033200048733A4639461E9800934FF4A063FEF75F
:1033300092FD1E99079812F089FE3A463946179871
:103340004FF4A063CDF800A0FEF785FD35234FF4C0
:10335000BB724FF4BA712D98009340F21B23FEF715
:103360007AFD2846C6F89094A6F89474FEF70EFEEF
:1033700006F29C4395E8070083E8070004F5B25382
:1033800029462D98C6F8A834A6F84076CDF8D48002
:10339000ADF8D87016F0F0F92D99179812F09FF942
:1033A0001799079812F052FE3946079812F03FFE1F
:1033B000201D079912F093F9204639B0BDEC028B1D
:1033C000BDE8F08F38B50546054B044645F86C3B23
:1033D00017F020FD284612F01DFC204638BD00BF26
:1033E0004405040810B50446FFF7ECFF46F25411FB
:1033F00020462BF06DFF204610BD70477047704788
:1034000041607047704770470123037270477047EF
:1034100010B441680346C2689B68541001EB620017
:10342000D20748BF0A595DF8044B48BFD358184724
:103430000346406830B19A681AB9D86800F00100B4
:1034400070470120704710B504460C212BF040FF57
:10345000204610BD10B5044610212BF039FF204640
:1034600010BD10B504464FF4AE712BF031FF20466D
:1034700010BD10B519F002FB0368BDE81040DB6B0E
:10348000184700002DE9F14FD0E9556A0746B068AA
:1034900003681B6A984746F26713984205D8444B65
:1034A000A321444A444833F08BFC706803681B6ACC
:1034B00098470F2803D8414BA4213E4AF2E7F06811
:1034C00003681B6A98470B2803D83D4BA521394A4E
:1034D000E8E7DFF8F49019F0D1FA043019F00EFBA8
:1034E000D9F8000010B10368DB689847D9F80000EC
:1034F00010B103681B689847DFF8D080D8F8000047
:1035000010B103685B699847D7F83C0110B10368B4
:103510005B689847D8F8000010B103681B689847AB
:10352000D7F83C0110B103689B689847F068002108
:103530004FF0000B03685B6A9847224B0446C0F8C3
:1035400004B080F808B059460360B06803685B6A4D
:1035500098470546FDF7A4FE7068594603685B6A04
:10356000984706462946FDF76FFE331DC7F83C61B4
:103570002846C9F80040C8F80050CAF800302B6847
:10358000C6F808A0DB68EE639847336830461B68CE
:103590009847214628461BF008F9236820461B69F6
:1035A0009847236820465B6901B0BDE8F04F184793
:1035B00013E80308A1E8030873E90308B8E903085E
:1035C0005BEA0308E40504080C2E0324102E0324F0
:1035D000044B1B6893F85C200AB1186D00B9986819
:1035E000704700BFC42D0324F8B5174604460E46A5
:1035F00019F05AFB124B00251C602946114B236021
:10360000114BC4E95135114B1868C4E9535503688F
:10361000C4E94F559B68C4E955769847284600F0A1
:1036200061FAFFF7D5FF24F082F9FFF7D1FF24F00C
:10363000F9F9FFF7CDFF24F001FA2046F8BD00BFED
:10364000142E03249005040878050408C42D0324CF
:10365000064BC0F84801C0F84C310023C0F8503187
:1036600000F5A273C0F84031704700BF85340008F0
:1036700013B5002451B1036801AA01948DF80340E9
:103680009C680DF10303A04702B010BD0846FBE79C
:10369000C0897047008A7047C0887047808870472B
:1036A000807A00F07F007047807AC0097047002060
:1036B000704700009FED010A704700BF0000000046
:1036C000406A7047806A704770470B888A889BB24F
:1036D000D20A10B54C88C16943EA044351F822006C
:1036E000184410BD10B50446BAB1107B68B1537BC5
:1036F000D27A1B0203F4E0631A43236A03EB8203CA
:103700001A888A4202D193F9020010BD05D8013807
:10371000043380B20028F3D1F7E70020F5E710B5B5
:1037200004462C212BF0D4FD204610BD30B58BB0C3
:103730000446BDF860500895BDF85C5007959DF8AB
:10374000505006959DF84C5005959DF848500495AD
:103750009DF8445003959DF8405002959DF83C50CB
:103760000195BDF8385000951AF0EAFB064B20464B
:103770002360159BE361169B2362199B63621A9B6E
:10378000A3620BB030BD00BF0806040870470000FC
:1037900030B5164D8FB02C68BFF35B8F14F0010469
:1037A00021D128462BF096FDE8B13F23082210498D
:1037B0000993104B10480893104B0A940793012368
:1037C00004940194CDE905430423CDE902430A237F
:1037D000CDE90B440093FFF7A9FF094833F010FB34
:1037E00028462BF093FD04480FB030BDDC81002447
:1037F000F8800408AC9D0408E0810024A89D04081A
:103800008D3700087047000030B5174D8FB02C6819
:10381000BFF35B8F14F0010422D128462BF05AFD30
:10382000F0B13F23282211490993114B1148089305
:10383000114B0A940793012304940194CDE90543A5
:103840000423CDE902431A23CDE90B4400931F233F
:10385000FFF76CFF094833F0D3FA28462BF056FDEA
:1038600004480FB030BD00BF0C82002468810408FA
:10387000389C040810820024A49E0408053800081F
:103880007047000030B5174D8FB02C68BFF35B8FC9
:1038900014F0010422D128462BF01CFDF0B13F2387
:1038A0002C2211490993114B11480893114B0A948A
:1038B0000793012304940194CDE905430423CDE942
:1038C00002432823CDE90B4400933023FFF72EFF5A
:1038D000094833F095FA28462BF018FD04480FB03C
:1038E00030BD00BF3C820024B0960408D09C040880
:1038F00040820024A89E0408813800087047000018
:1039000030B5174D8FB02C68BFF35B8F14F00104F6
:1039100022D128462BF0DEFCF0B13F233922114999
:103920000993114B11480893114B0A9407930123F3
:1039300004940194CDE905330423CDE90243142313
:10394000CDE90B4400931823FFF7F0FE094833F04C
:1039500057FA28462BF0DAFC04480FB030BD00BF00
:103960006C82002418990408B09D04087082002419
:10397000AC9E0408FD380008704708B5052914D826
:10398000DFE801F0030B070B0F0F00F01FF80068D2
:1039900008BD00F01BF88068FAE700F017F84068EF
:1039A000F6E700F013F8C068F2E70020F0E710B582
:1039B000044604212BF08CFC204610BD00487047C3
:1039C0007C0604082620704718207047004870477E
:1039D0009C82002410B5074CFFF716FF2060FFF70C
:1039E00051FF6060FFF7D4FEA060FFF789FFE06041
:1039F00010BD00BF9C82002400207047002070474B
:103A00000EB403B503AB002153F8042B01931AF055
:103A1000C7F802B05DF804EB03B070470CB407B50B
:103A200004AB53F8042B01931AF0BAF803B05DF815
:103A300004EB02B070470000436C10B5044673B34A
:103A4000038F2BB9184BC521184A194833F0B8F920
:103A5000C38E00EB43035B8C0BB31BF05CFC238F2A
:103A6000012B03D8134BCB21134AEEE7E28E40F62D
:103A70003F10531C9BB2092B194688BFA3F10A01C2
:103A800004EB4101498C814209D10A2B04EB42022B
:103A900028BF0023508C04EB4303588451842046F4
:103AA000BDE810401BF03BBBFEEA030807EB030830
:103AB000B2EB0308FAEB030808EC03081BF0F7BAB3
:103AC00010B586B002AC84E806001A460AAB21465F
:103AD00005930193099B0093089B18F043FB06B0E4
:103AE00010BD000038B518BB124B13481C681349B1
:103AF000B4B1226822440260626822440A60A2686B
:103B000014440F4B00221A80FFF760FF0546FFF7B1
:103B10005BFF0C4B1C600C4B1D600C4B188007E0CE
:103B20000B4B03600B4B0B600B4B1C68002CE8D15C
:103B300038BD00BFB8820024B0820024AC820024CB
:103B4000B4820024242E03241C2E0324182E0324C4
:103B5000B09E040884A0040874090408044B1B6880
:103B600053F82100034B1B6803EB4000704700BF74
:103B7000AC820024B0820024012380F87C1080F8FD
:103B80007D30704770470020704700008164003925
:103B9000024B18BF01211970704700BFB72D0324D5
:103BA000704700207047C36B0BB108461847704739
:103BB0004FF6FF707047406803689B69184770476D
:103BC00070470000034B902283F85A2383F8582350
:103BD000704700BF00E100E0094A0A49D3680A487B
:103BE000C3F30A03013B9BB20B801169C1F30A01C5
:103BF000013901801364536B43F001035363704731
:103C000000100050BE820024BC820024014BD3F877
:103C1000AC00704700100050024B0122C3F8AC10FA
:103C20005A627047001000500163C0E90D217047CF
:103C3000704700EB8100114640680368DB68184755
:103C400080F83C107047000038B5044612F003FDC0
:103C500023689D6E18F012FF01462046A84723688E
:103C6000094A4FF05041D3F88C5020460023A84712
:103C70006368064A5364064B5A60064A1A639A639D
:103C80004FF416225A6338BD00E02ED0088300247A
:103C9000C082002400C05DD012F0C4BC38B5044618
:103CA0000D46406C4FF0FF3103F047FB606C03F0B2
:103CB00067FB242303FB0545002385F8283094F88F
:103CC00028300BB9236BA36338BD12F074BC12F01B
:103CD000F2BD10B5044613F085FA23682046D3F8E8
:103CE000BC30BDE81040184710B5044612F0A4FDE2
:103CF00060680368BDE810401B69184710B50446AA
:103D000048212BF0E5FA204610BD000090F838104D
:103D10000D4B10B590F87C401A788C4209D03AB916
:103D20000A490B4A08881488108001220C801A70F6
:103D300010BD002AFCD0064A0449148808880C806B
:103D400010800022F3E700BFB62D0324BE2D03240C
:103D5000C02D0324124A5369DB0370B51ED500231E
:103D6000C2F88430BFF34F8FD2F8803043F6E0744E
:103D7000C3F3C900C3F34E335B0103EA04060146F3
:103D800046EA81750139C2F87452F9D2203B13F129
:103D9000200FF2D1BFF34F8FBFF36F8F70BD00BF05
:103DA00000ED00E008B5094B1B888B4203D8084B97
:103DB0001B88934205D9074BA521074A074832F0D3
:103DC000FFFF074B1980074B1A8008BDC02D032445
:103DD000BE2D0324DAEC03083DED030880ED030853
:103DE000BC2D0324BA2D032408B531B1044B4FF484
:103DF000B871044A044832F0E3FF90F8290008BD86
:103E0000C3ED0308D7ED030861EF030810B531B126
:103E1000064B4FF4B571064A064832F0D1FF4068B0
:103E200011460368BDE810401B6B1847C3ED03083B
:103E3000A2EF030861EF030808B529B1034B79210C
:103E4000034A044832F0BCFFC06808BDC3ED030854
:103E500050F1030861EF030810B5044629B1194B6E
:103E6000A221194A194832F0ABFF052A15D8DFE81C
:103E700002F0031115171C22406803681B6998475C
:103E800058B1012384F8293084F82C300023C4E988
:103E9000043302E0002380F8293010BD0362F5E707
:103EA0000362012380F82A30F0E7002380F82930EC
:103EB00001230362F1E7003B18BF012380F82D3096
:103EC000EBE700BFC3ED030805F3030861EF030848
:103ED00010B50C4611461A462CB1064B9021064AE5
:103EE000064832F06DFFC46040680368BDE81040CA
:103EF0009B681847C3ED0308D9F4030861EF030872
:103F000008B529B1054B8221054A064832F058FF11
:103F1000C0E90411C0E9063208BD00BFC3ED0308C3
:103F2000B4F6030861EF030890F83D3010B504467D
:103F300053B14FF0FF31406C03F0FFF9002384F8D8
:103F40003D30012384F83E3010BD00002DE9F041E2
:103F50000D460446194635B9154B40F20131154A54
:103F6000154832F02DFFC0E91052003A0368134E95
:103F700018BF0122D3F8903032709847E569A5B197
:103F80002B681F68337873B1236820465B6B9847B2
:103F9000236C834207D1616C094B28461A883B4643
:103FA000BDE8F0411847216CF6E7BDE8F08100BF9D
:103FB00070F80308A8F8030880ED0308B82D03245F
:103FC000BC2D032410B50446104629B1134BD02153
:103FD000134A144832F0F4FE94F8293033B1124BEE
:103FE0001B6893F86F2063691344636194F82B3066
:103FF0000BB9012010BDA368036303685B69984790
:10400000002394F82C0084F82B300028F1D194F888
:104010002D30002BEED184F82900EBE7C3ED030827
:10402000F6F8030861EF0308C42D032470B51A4C99
:10403000054612F003FB94F8293013B994F82A309E
:10404000ABB1E169D4E90532534322694A43934253
:104050000DD394F83C0038B19B1AB3FBF1F29942AE
:1040600098BF02F1FF326262012384F82E300123EF
:10407000206C84F83D3003F018FA94F83E302BB1F0
:10408000606C03F07DF9002384F83E3068680368B3
:10409000BDE870401B691847C0820024034690F8B1
:1040A0007E0018B1586803681B6818477047000005
:1040B000084B4FF08062C3F88820BFF34F8FBFF3E7
:1040C0006F8F4FF08072C3F88820BFF34F8FBFF31C
:1040D0006F8F704700E100E0034B4FF080629A6001
:1040E0004FF080729A60704700E100E0034690F85C
:1040F000280070B5C8B901229D6BD8609A624FF450
:10410000807205F5162418619A8558619861D86106
:104110001862586283F82E00D3E90C263244944288
:104120000AD90B4B52210B4A03E00B4B40F2C5114D
:104130000A4A0B4832F044FE9D609C634FF42073A2
:1041400081F83400CB864FF4F07308630B8770BDA1
:104150004EFC030889FC030897FA0308C7FA030812
:1041600061EF030838B5184C23685BB3174B184A46
:104170001B6C11888B4216D1164B0025198805F04F
:10418000D9F8236893F86E2083F88050013283F8C1
:104190006E2000F067FB206813F024F82846BDE885
:1041A000384001F0C6B905F0C5F8246823682046F8
:1041B0001B6A98470123002084F88030BDE838400E
:1041C00001F0B8B938BD00BFC42D03240010005061
:1041D000BE820024BC8200242DE9F7430446012658
:1041E0004FF4A0674FF0FF31206C03F032F94FF02D
:1041F000FF31606C03F0A1F894F82E3043B365688A
:10420000D4F820802B6884F82B60B8F1000F23D0FD
:104210005B6A414628469847002323622B684FF487
:10422000207200972846D3F814804FF4F073A168E9
:10423000C047236984F82C0001332361F0B12B6857
:1042400028469B6A984701380023E06084F82E30A6
:10425000606C03F095F8C5E7626A002ADED0284654
:10426000D3E909939847616A01442846C8472369FE
:10427000626AC4F8248013442361CFE70120E3E796
:10428000014808B5FFF7A8FFC082002438B51448DC
:10429000002500F0BBFC134C134B2A462946012095
:1042A00023604FF48073A563A387A38584F83E50F1
:1042B00084F82E50C4E90C55C4E91055C4E90155E1
:1042C000C4E90355C4E90555C4E90755C4E90955CE
:1042D00003F075F82064284602F0FAFF606438BDE8
:1042E00008830024C08200248009040803685B6CF2
:1042F00018470120704740F2EF307047104B07B568
:10430000D3F8D42005215A2042F01002C3F8D4205B
:10431000D3F8D42002F010020192019ADA6F42F031
:104320001002DA67DA6F22F01002DA67002204F076
:10433000E5F85A2003B05DF804EB04F011B900BFB2
:104340000044025810B504464FF0FF31D0F8A40DD8
:1043500002F0F3FF606803681B68984778B9637AD6
:104360006BB1237A5BB984F8A03D204623685B6A71
:104370009847D4F8A40DBDE8104003F001B80B49EC
:104380000B4A0B681B01D35C012BF2D1207A002869
:10439000EFD1A07A0028ECD1086884F8A03D02EBA8
:1043A0000010237201F03AF8E3E700BF48F500245B
:1043B0000C000024054B4FF080620360044BC3F8EF
:1043C0008820BFF34F8FBFF36F8F7047C409040875
:1043D00000E100E010B5044640F6A851FFF7EAFFFF
:1043E00020462AF075FF204610BD000008B50A28B7
:1043F00009D8DFE800F006100E08080808101010B1
:104400001000022008BD054B8D21054A054832F0F9
:10441000D7FC0020F6E70120F4E700BF2CFE0308DC
:1044200047FE030892FE030838B50C46887FFFF765
:10443000DDFF124BA58AE28A586342EA05422169F0
:104440005A64628BD963521B1A642568082D0ED1F9
:104450009A611A6158620A4A207F42EA0062DA6170
:10446000E2681A62074A5961D9601A6038BD0022B1
:10447000D8611A61E2689A63034AF6E700100052B5
:1044800009000100012302000123030008B50B28E5
:104490000BD8DFE800F00612100A0A0A0A0808081A
:1044A0000808022008BD0520FCE7054B6C21054AE1
:1044B000054832F085FC0020F4E70120F2E700BF58
:1044C0002CFE0308BDFE030892FE03082DE9F0410F
:1044D00091F81D800C464046FFF7D8FFA77F0546A0
:1044E0003846FFF7D3FF06463846FFF77FFFA18A1D
:1044F000628B434B521A1A649A61228B521A1A61C8
:10450000E28A586342EA014221695A646268D963C7
:10451000DA602068802828D0227F0FD8202866D033
:10452000402864D004281AD045EA0265344BB845C7
:1045300045F40035DD6160D0324A44E0B0F5807F5B
:1045400004D0B0F5007FEFD12F4800E02F4840EABB
:104550000262DA61E2681A625E62596132E045EA3B
:10456000026242F40032DA61F6E7A068021DDA6204
:10457000227F45EA026545F40035DD615E625961DE
:10458000017841B1012921D0214B40F21711214A74
:10459000214832F015FCDA69418822F47F42013962
:1045A00022F0100242EA01220121DA61144BDA6999
:1045B00042F02002DA61DA699206FCD410229A6095
:1045C0000029B9D0154A1A60BDE8F081B2F1FF01A7
:1045D000DA69408822F47F4218BF0121013822F0B5
:1045E000100242EA002242F01002DA61DEE745EAF8
:1045F0000262034B42F40032B5E742F20132E2E7D5
:104600000010005201230100090002000A0002000C
:1046100007FF030821FF030892FE0308012302009D
:1046200090F8A03D10B50446D3B903689B6A98473B
:1046300019491A4A0B681B01D35C012B2AD118486F
:10464000006838BB207A28BBA07A18BB086884F8B9
:10465000A03D237202EB0010BDE8104000F0DEBE6A
:10466000037A43B1002303720B4B18680B4B03EB27
:10467000001000F013FF606803681B68984748B992
:10468000637A3BB1236884F8A00D20465B6ABDE8DD
:104690001040184710BD00BF48F500240C0000244E
:1046A00044F50024094B5A6891070ED51A68920503
:1046B0000BD51A6822F400721A6002229A60044B29
:1046C0001B68586803685B69184770470010005200
:1046D000C42D032470B504460E4B0C30002625462D
:1046E000602260602672667245F8203B294612F00F
:1046F000D1FE04F55A63EE6024359D42FBD184F867
:10470000A06D0020C4F8A46D02F0E2FDC4F8A40D71
:10471000204670BDC4090408034B1A68D207FCD4B4
:1047200023229A60704700BF001000520B4A536961
:10473000DB0311D500290FDD00F01F031944BFF37F
:104740004F8F0144C2F8680220300B1A002BF9DCAD
:10475000BFF34F8FBFF36F8F704700BF00ED00E0D6
:1047600030B50F4C2568ED07FCD423251204FF2B30
:10477000A56042F001024FF0020565636264E063E8
:10478000E16008D01B0643F00213E361054B65624C
:104790006061236030BD044BE3610123F9E700BF92
:1047A0000010005201000200020002FF30B50B4C65
:1047B0002568ED07FCD4232512041B06A56042F0F2
:1047C0000102022543F4003365636264E063E16043
:1047D000E361034B65626061236030BD00100052ED
:1047E000010002000121002208B5084602F0E7FDA1
:1047F0000A4B186028B90A4B28210A4A0A4832F0A5
:10480000DFFA00220421012002F078FE074B186035
:1048100018B9074B2C21034AF0E708BD5483002444
:104820005FFF0308A8FF0308D7FF03085083002495
:1048300004000408024B4FF0FF31186802F009BE73
:1048400054830024014B186802F02FBE54830024C7
:10485000024B0021186802F0FCBD00BF5483002405
:10486000FFF7F0BF0023034803491A46006802F02F
:1048700080BE00BF508300240400002413B5002331
:10488000074C01A91A46206802F0A4FE4FF0FF333E
:10489000002201A9206802F09DFE02B010BD00BFF9
:1048A00050830024012070470C2070470C2303FB29
:1048B0000100083070470C2303FB010008307047EB
:1048C0000120704746F26810704746F2681303FBF8
:1048D00001000830704746F2681303FB01000830FE
:1048E0007047012070471020704700EB011008301E
:1048F000704700EB0110083070470846FEF7A8BE6D
:10490000034B10B50446036010F00CFD204610BDAB
:104910007C0A040810B50446FFF7F2FF1421204674
:104920002AF0D6FC204610BD034B10B504460360A8
:1049300010F0F8FC204610BD480A040810B50446E3
:10494000FFF7F2FF46F2701120462AF0C1FC204624
:1049500010BD0000034B10B50446036010F0E2FCEC
:10496000204610BD140A040810B50446FFF7F2FFF4
:10497000182120462AF0ACFC204610BD094B10B58A
:104980000446036000F5C3401C30FFF7B9FF04F193
:104990002C00FFF7C9FF04F11400FFF7DBFF2046EE
:1049A00010BD00BFB00A040808B50248FFF7E6FFD3
:1049B00008BD00BF2092002410B50446FFF7DEFFBB
:1049C00046F2103120462AF083FC204610BD00003C
:1049D0002DE9F341FEF7F2FF00240546FEF7F2FF52
:1049E000234601462246284600941BF067FE264BCC
:1049F000264A2046264D1A60FFF774F825481BF01A
:104A0000C3FD2B68BFF35B8FDB0736D428462AF043
:104A100061FC90B3204C214F214B04F1140007F1AD
:104A2000180604F12C0823606060C4F80880E76071
:104A3000266110F079FC1B4B4046636110F074FC5A
:104A4000194B3846E36210F06FFC04F5C043174A77
:104A500003F5D870C3F89C21FCF7DEFE224607F16F
:104A600014013046FDF708F93046FEF7F1FD104815
:104A700032F0C6F928462AF049FC0E4802B0BDE8DB
:104A8000F04100F030BD00BF202E0324E08300245D
:104A90001C9200240800002420920024BCF300246F
:104AA000B00A0408140A0408480A04087C0A040826
:104AB000A94900085883002470470000014811F0FC
:104AC000DEBD00BF5883002470B5254E254B264C13
:104AD0003046264D2360FFF7FDFD284621F076F88D
:104AE000234B00224FF4807122481A639A8683F880
:104AF0005C209A6683F874209A67DC60C3E913121D
:104B00001D49C3E91B121D49C3E91F011C491D486A
:104B1000C3F884101C49C3E90422C3E90622C3E98F
:104B20000822C3E90A22C3E90F22C3E91122C3E91B
:104B30001522C3E91822C3E901650B604FF4A06197
:104B400083F838200180114801804FF448711048E3
:104B500001801048018010490A70104A1A6070BD27
:104B600070840024F40B040818920024E4830024C9
:104B70005883002400000101010000010004C80066
:104B800042001400C02D0324C42D0324BC2D032493
:104B9000BE2D0324BA2D0324B62D0324080B0408CC
:104BA0000148FFF707BC00BF7084002440697047CC
:104BB00090F840007047036B23B9C06A003818BFF3
:104BC00001207047012070478068704770470430AB
:104BD00010B50C460FC884E80F0010BD70470000E8
:104BE00008B5034A4FF4E571024B034832F0E8F888
:104BF0004600040805EB0308A100040810B50446AC
:104C000048212AF065FB204610BD000000220E4B13
:104C100010B5114604460360C26380F84020C0E925
:104C20000522C0E90722C0E90922C0E90B22C0E938
:104C30000D22C0E90322C0E90122012002F0BFFBDE
:104C4000024B1860204610BDC40A04084CF500242D
:104C500010B40C4611461A46036B3BB1C36B406B54
:104C6000E41A20445DF8044B34F0CABCC06AF8E78B
:104C7000036B10B573B1C36B426BC91A5318525C06
:104C800098785C78000440EA04201043DB7840EA1E
:104C9000036010BDC26A5318525C597898780004BA
:104CA00040EA0120F1E7036B43B1C36BC91A436BC0
:104CB0005A18585C527840EA02207047C36A5A1862
:104CC000585C537840EA03207047000070B50446F2
:104CD000006B0D461646D8B1A36B934208D2092348
:104CE0000D4AA1210D4884F840300D4B32F068F890
:104CF0000368DB689847206B3246616B03681B6969
:104D0000984710B90D2384F84030606BE56370BD9F
:104D1000E06A0844FBE700BFEB000408A1000408B8
:104D2000D80004082DE9F843436904462BB9224B07
:104D3000E721224A224832F043F808228169FFF72E
:104D4000C5FFA16943F2300646F2643704312046BC
:104D5000FFF78EFFA3691844A36A00F108029A4284
:104D600006D3012300206361236AA361BDE8F883B1
:104D7000636900F1090108222046013321F0010195
:104D80006361A161FFF7A2FFD4F81890204649465D
:104D9000FFF789FF09F1020180462046FFF783FFF4
:104DA00009F1040105462046FFF762FFB045D1D165
:104DB000BD42CFD10120D9E72D01040876010408B6
:104DC000A10004080129036838BF0121DB6A70B51E
:104DD0000D4604469847A84204D223682046DB6A61
:104DE000984705466B1EE6691022204606EB03161F
:104DF00006F10801FFF76AFF06F110012046FFF7F0
:104E000037FF236A043B0344C4E9055370BD000027
:104E1000002148222DE9F0410446816180F84010CC
:104E2000FFF754FFA6690423634A31462046FFF783
:104E30000FFF48B10323614A40F22F1184F840303C
:104E40005F4B604831F0BCFF06F1080104235E4A65
:104E50002046A161FFF7FCFE38B10423574A40F217
:104E6000371184F84030594BEBE706F10C0104236D
:104E7000574A2046A161FFF7EBFE074638B10523EC
:104E80004E4A4FF49F7184F84030524BD9E706F1F7
:104E900010012046FFF7ECFE054620B94E4B4FF4BB
:104EA000A271464ACDE706F1140804234B4A204676
:104EB0004146FFF7CDFE002849D0062384F8403054
:104EC0000423474A06F118012046FFF7C1FE0028D7
:104ED0003FD0072384F840304544424F0C222046FF
:104EE0002946FFF7F3FE05F1080604233A4620465B
:104EF0003146FFF7ADFE94F84030002848D0002B33
:104F000048D1A36AAB4249D805F10C0304352046C9
:104F1000A3612946FFF7ACFE304429466062204673
:104F2000FFF7A6FE0644042220463146FFF7CEFED8
:104F300004232D4A31462046FFF78AFE002838D147
:104F40000123E6616361A3692362BDE8F081012763
:104F5000B6E7002FC0D006F120012046FFF788FEFB
:104F60004FF47A7306F13001B0FBF3F06060204635
:104F7000FFF77EFE06F14001A0602046FFF778FEB5
:104F800006F14401E0602046FFF772FE2061A3E7CE
:104F9000002BB9D00A2384F84030D6E7291D2046DB
:104FA000FFF766FE85190C2220462946FFF78EFE84
:104FB00099E70B23EFE700BFA9010408C701040824
:104FC000AE010408A1000408F4010408F901040872
:104FD00011020408160204082C020408380204080E
:104FE0003D0204084202040847020408C0E90A21FD
:104FF00000220263FFF70CBF10B5002304460846E9
:10500000E3620B6821639B689847A0622046BDE875
:105010001040FFF7FDBE000037B5134B0024134DC1
:105020001C60134B1C60134B2C601C60124B1960EE
:10503000124B1A60124B1C60124B2A684FF4C07559
:105040001C701C74C3E90244C3E9064403EB021359
:105050000D4AD2686A4300924FF450425B680AF0EE
:1050600035FA204603B030BD68F5002458F5002419
:1050700048F5002478F5002470F5002474F5002428
:1050800050F500240C00002430F500244B68012B5F
:1050900015D1CB681A071EBF23F00F031033CB6066
:1050A0008B6818071EBF23F00F0310338B60CB688B
:1050B0008A681B09120953430E4A13607047022B7A
:1050C0000ED1CB681A0703D023F00F031033CB6047
:1050D0008B685A071EBF23F0070308338B607047A5
:1050E000002BFCD1CB685807F2D023F0070308331C
:1050F000EDE700BF60F500240B4A13680B4430B4A1
:1051000013600A4A126893420CD2094CD21A2568DD
:10511000B2F5504F294428BF4FF45042216030BCB3
:105120000AF036BA30BC704778F5002474F50024D4
:1051300070F50024F8B5204C0121204D0646236867
:105140001F4F1B01E954236805EB03139A601D4BA5
:105150001968226805EB0212D1601A68F9680A44DE
:105160001A602368013323602368012B01D90023CF
:10517000236023681B01EB5C33B1022130460AF047
:10518000D9F9114B01221A6022683046FB6805EB01
:1051900002154FF4C07269685A430AF0FCF90B4BD0
:1051A0001B681A7A3AB99B7A2BB9094B1868BDE883
:1051B000F84002F07AB9F8BD58F500240C0000243C
:1051C00030F5002450F5002468F500245CF5002437
:1051D0004CF5002472B6FEE7014B01221A607047BD
:1051E0006CF5002438B5164D04462B6813B1154BE9
:1051F0001B681BBB144B1868037A63B9134B144A22
:105200001B681B01D35C012B05D10E4B1B6813B926
:1052100003681B6998470F4A1368012B0CD10E4B8A
:105220000B491B681B01CB5C33B92B6823B90221E6
:10523000204613600AF0DBFB022038BD0120FCE7AA
:105240006CF5002444F500245CF5002448F50024A6
:105250000C00002468F5002458F5002470B50546BC
:10526000002A3BD0002B39D01D4802240461EC6891
:1052700026074FF4A06618BF24F00F04466018BF3D
:10528000103404602409C4602C6914F00F0418BFA2
:10529000C4F1100484600698124C40082060124843
:1052A000124C03601248FFF7B7FE6A6C114B104DA9
:1052B0001A602846FFF796FF20602368022B05D16D
:1052C0000D4B4FF0FF31186802F0C3F82368012B33
:1052D000EFD10023094A1360094A136070BD00BF73
:1052E00030F5002454F500247CF5002464F50024F6
:1052F000A81D03245CF500244CF500246CF5002463
:1053000044F500242DE9F04F9946436985B00446E1
:105310000F4690462BB9294BB321294A294831F031
:105320004FFD08228169FFF7D1FCA669204631466E
:10533000FFF7B9FCB11C83462046FFF7B4FC311DD2
:1053400082462046FFF794FC06F10801A36A054651
:105350000A189A4226D243F230039B4517D146F2EF
:1053600064339A4513D190B10246A1612046FFF7FC
:10537000ADFC0E9B01462A462046CDF80080CDE9C3
:1053800001933B46FFF76AFF636901336361A369D9
:105390002B4405B908330133626A23F001039342B9
:1053A000A36109D1012301206361236AA36180F015
:1053B000010005B0BDE8F08F0020F8E72D010408DA
:1053C0004C020408A1000408F8B504468169164699
:1053D0000822FFF77BFCA7692046391DFFF748FC30
:1053E00007F10801024605462046FFF76FFC01461B
:1053F0006EB12A46074C084D33460748FFF70CFEAE
:105400002846FFF7EFFE20602368002BF8D001202C
:10541000F8BD00BF64F50024A81D0324D0F80CC01B
:1054200017494FEA0C120B68B2FBF3F24B68F0B568
:105430005A430224134B144D12015C63CF682D684C
:105440003E01ED1B3C05AC4515D38968C1F1100147
:10545000214359640D4909680A44DA630C4A126809
:10546000921B1A6400221A610A4ADA614268DA6001
:10547000094A1A60F0BD44F010045C64EAE700BF1A
:1054800030F500240010005260F500247CF5002463
:1054900054F500240B0009FF012301000C4B0022EE
:1054A000027019688260013119601968012900D9F8
:1054B0001A60084B084A1B68D2689B1AC2689A4255
:1054C00002D3064B01221A60054B186801F0EDBFAC
:1054D00048F5002460F5002430F5002444F500244C
:1054E0004CF50024704710B50446FEF7ADFB0223CF
:1054F00084F86C3010BDFEF789BBFEF78DBBFEF75C
:10550000E4BBFEF7E4BBFEF75DBBFEF7E5BDFEF7CF
:10551000CFBDFEF761BBFEF7BFBBFEF787BD11F045
:1055200044B810B50446882129F0D2FE204610BDAB
:1055300070477047704770477047000010B5124CB5
:1055400001228021204603F0C1FA642002F082FB90
:1055500000228021204603F0B9FA642002F07AFB91
:1055600001228021204603F0B1FA4FF47A7002F054
:1055700071FB09200022072102F0C0FF0920BDE8CD
:10558000104002F0EDBF00BF0018025870B588B09F
:1055900010260D46144604AB32460021184633F05F
:1055A00075FF1A4A117811B9002008B070BD0021AA
:1055B000012311706422009082211548CDE9016217
:1055C000324603F01DFC0028EED19DF911309DF804
:1055D0001120002BE8DA9DF810000128E4D102F038
:1055E0003F029DF812309DF8131043EA0223094A46
:1055F00001F03F01084E13609DF8142042EA012299
:1056000032602B6033682360CFE700BF88F5002449
:105610007C1C032484F5002480F5002410B5044686
:10562000042129F055FE204610BD0000082802D1B3
:10563000014B01221A70704788F50024704708B5A5
:10564000FFF73AFABDE80840FFF7C2B9FFF736BAEC
:1056500000F108034FF0FF3243600361C0E9022309
:1056600000230360704700230361704743689A6812
:105670004B608A6051609960036808610133036080
:10568000704730B50C68631C0AD103695A684A60D8
:1056900091608B605960036808610133036030BD1D
:1056A00000F10802134652681568A542FAD9EDE7E1
:1056B0000369D0E901128A6051605968814208BFCC
:1056C0005A60002202611A68013A1A60186870472D
:1056D00010B5044602F03EF9A46B02F05BF9B4FA8F
:1056E00084F0400910BD70B51646026C0446856B07
:1056F00042B906689EB9806801F0AAFAA660013531
:10570000A56370BD6EB94068FAF79AFF6368226CB2
:105710001344A2689342636024BF2368636000203F
:10572000EDE7C068FAF78CFF226CE36851429B1AE0
:1057300022689342E3603EBFA3685B18E360022ED9
:10574000EDD10DB1013DEAE72846D8E7034608460A
:105750001A6C10B462B1DC68996814448C42DC6045
:105760005DF8044B24BF1968D960D968FAF768BF9F
:105770005DF8044B704770B5044602F0EBF894F8FE
:10578000455004F124066DB2002D01DD636AB3B902
:10579000FF2304F1100684F8453002F0FBF802F014
:1057A000D9F894F844506DB2002D01DD23697BB91E
:1057B000FF2384F84430BDE8704002F0EBB8304677
:1057C00001F062F908B101F0E9F9013D6DB2DBE7E2
:1057D000304601F059F908B101F0E0F9013D6DB230
:1057E000E2E738B50D46044640B94FF0500383F365
:1057F0001188BFF36F8FBFF34F8FFEE702F0AAF857
:105800002268D4E90F3162604B43D0185B1AA06064
:105810001A440020FF23E260A06384F8443084F837
:105820004530A5B9236973B104F1100001F02CF9DA
:1058300048B14FF0E0234FF08052C3F8042DBFF37E
:105840004F8FBFF36F8F02F0A5F8012038BD04F130
:105850001000FFF7FDFE04F12400FFF7F9FEF2E768
:1058600037B50D461C4640B94FF0500383F31188FD
:10587000BFF36F8FBFF34F8FFEE743B94FF0500375
:1058800083F31188BFF36F8FBFF34F8FFEE74AB1E9
:1058900091B94FF0500383F31188BFF36F8FBFF3BB
:1058A0004F8FFEE741B14FF0500383F31188BFF3F0
:1058B0006F8FBFF34F8FFEE750230193019B502B57
:1058C00008D04FF0500383F31188BFF36F8FBFF3FD
:1058D0004F8FFEE70121002D08BF2246019B84F86F
:1058E00046102260C4E90F052046FFF77AFF9DF8B5
:1058F0001830204684F84C3003B030BDF8B50D4662
:105900001746064640B94FF0500383F31188BFF3A2
:105910006F8FBFF34F8FFEE74843503001F0E0FE3A
:10592000044670B1002380F8463065B100F15003A1
:10593000012120462360C4E90F65FFF752FF84F878
:105940004C702046F8BD0346F2E713B513460C46EB
:1059500040B94FF0500383F31188BFF36F8FBFF34B
:105960004F8FFEE7884208D24FF0500383F311882F
:10597000BFF36F8FBFF34F8FFEE70222009200222A
:105980001146FFF76DFF00B1846302B010BD10B582
:105990000C4640B94FF0500383F31188BFF36F8F6B
:1059A000BFF34F8FFEE7884208D24FF0500383F3D6
:1059B0001188BFF36F8FBFF34F8FFEE702220021E4
:1059C000FFF79CFF00B1846310BD2DE9FF410F4636
:1059D0001E460446019240B94FF0500383F31188EC
:1059E000BFF36F8FBFF34F8FFEE751B9036C43B125
:1059F0004FF0500383F31188BFF36F8FBFF34F8FC6
:105A0000FEE7022E0BD1E36B012B08D04FF05003C1
:105A100083F31188BFF36F8FBFF34F8FFEE701F061
:105A2000C9F8054620B300254FF0000801F092FFA9
:105A3000A26BE36B9A4227D2324639462046FFF7E3
:105A400052FE636A1BB104F1240001F01DF848B155
:105A50004FF0E0234FF08052C3F8042DBFF34F8F77
:105A6000BFF36F8F01F096FF012004B0BDE8F08115
:105A7000019B002BD8D04FF0500383F31188BFF364
:105A80006F8FBFF34F8FFEE7022ED5D0019B1BB95E
:105A900001F080FF0020E8E715B902A801F036F810
:105AA00001F078FF00F076FD01F054FF94F84430E7
:105AB000FF2B01D184F8448094F84530FF2B01D1AD
:105AC00084F8458001F066FF01A902A801F02AF8D8
:105AD00038BB01F03FFFA26BE36B9A420ED101F09D
:105AE00059FF019904F1100000F096FF2046FFF7DE
:105AF00042FE00F0FBFD48B1012597E701F04AFFA7
