:020000040800F2
:1000000000000824F1560108E9380108EB3801081E
:10001000ED380108EF380108F13801080000000050
:10002000000000000000000000000000B182000895
:10003000F33801080000000041830008D17A00086D
:10004000415701084157010841570108415701082C
:10005000415701084157010841570108415701081C
:1000600041570108F5380108415701084157010877
:1000700041570108415701084157010841570108FC
:10008000415701084157010841570108FD3801084F
:1000900009390108153901081939010841570108C2
:1000A00041570108415701084157010841570108CC
:1000B0001D390108415701084157010841570108FE
:1000C00041570108415701084157010841570108AC
:1000D000415701084157010841570108415701089C
:1000E000415701084157010800000000415701082D
:1000F000415701084157010841570108415701087C
:100100004157010869390108415701084157010861
:10011000415701084157010841570108415701085B
:10012000415701084157010841570108415701084B
:10013000415701084157010841570108415701083B
:10014000415701084157010800000000000000006D
:10015000415701084157010841570108415701081B
:10016000415701084157010841570108415701080B
:100170004157010829390108415701084157010831
:1001800041570108415701084157010841570108EB
:1001900041570108415701084157010841570108DB
:1001A000353901084157010821500008415701081D
:1001B00041570108415701084157010841570108BB
:1001C00041570108415701084157010841570108AB
:1001D000415701084157010841570108415701089B
:1001E000415701084157010841570108415701088B
:1001F000415701084157010841570108415701087B
:10020000415701084157010841570108415701086A
:10021000415701084157010841570108415701085A
:1002200041570108413901084D390108415701087A
:10023000415701084157010841570108415701083A
:10024000415701084157010841570108415701082A
:10025000415701084157010841570108415701081A
:10026000415701084157010841570108415701080A
:1002700041570108415701084157010841570108FA
:10028000415701084157010841570108000000008B
:08029000415701084157010824
:1002C00002780B78012A28BF9A4240F0D8806DE965
:1002D000044540EA0104CDE902676FF0000C4FEAE3
:1002E00044721AB380EA010414F0070F6BD100F0D6
:1002F000070420F0070004F0030521F007014FEA8E
:10030000C505F0E8042314F0040FF1E804670CFAC3
:1003100005F462EA040266EA04060BD063EA040309
:10032000624667EA0407664604E000BFF0E804237B
:10033000F1E8046782FA4CF582EA0604A4FA8CF428
:100340006CBB83FA4CF583EA0705A5FA8CF595B9E1
:1003500050E9022351E9026782FA4CF582EA060469
:10036000A4FA8CF483FA4CF583EA0705A5FA8CF518
:100370002543DBD09CB92DBAB5FA85F424F00704E7
:1003800027FA04F1DDE9026723FA04F303F0FF0022
:1003900001F0FF01FDE80445A0EB0100704724BA1D
:1003A000B4FA84F424F0070426FA04F1DDE90267C4
:1003B00022FA04F202F0FF0001F0FF01FDE804451B
:1003C000A0EB0100704714F0030F3CD110F00304C0
:1003D00028D150F8082B51F8083B82FA4CF582EAF4
:1003E0000305A5FA8CF55DB950F8042C51F8043CCE
:1003F00082FA4CF582EA0305A5FA8CF5002DE8D0C7
:100400002DBAB5FA85F424F0070423FA04F122FA90
:1004100004F202F0FF0001F0FF01FDE80445A0EB4B
:10042000010070474FEAC40420F0030050F8082B85
:1004300021F0030151F8083B0CFA04F462EA0402CB
:1004400063EA0403C9E710F003041DD0A1EB040123
:1004500020F00300E40750F8042B06D012D28B786A
:100460005FFAA2F4E41A06D12BB1CB785FFAB2F4AA
:10047000E41A00D133B920465DF8104B7047A2EB67
:100480000300704701F1040150F8042BCC0721F060
:10049000030151F8043B48D824D222F07F4482FA69
:1004A0004CF594EA1325A5FA8CF50AD165B951F8F3
:1004B000043B84EA0204B4EB036F0ED150F8042B22
:1004C000EBE74FEA132355E035F07F454DD108782F
:1004D000FDE80445C0F1000070474FEA126203F0E6
:1004E000FF0347E002EA1C4482FA4CF594EA134504
:1004F000A5FA8CF50AD165B951F8043B84EA0204E7
:10050000B4EB034F0CD150F8042BEBE74FEA134345
:1005100030E015EA1C4528D10B884FEA124229E049
:100520004FEA124203EA1C4324E002F0FF0482FA7D
:100530004CF594EA1365A5FA8CF50AD165B951F822
:10054000043B84EA0204B4EB032F09D150F8042BD6
:10055000EBE74FEA13630DE015F0FF0F05D10B68D1
:100560004FEA122223F07F4304E04FF00000FDE841
:100570000445704712BA1BBA82FA4CF482EA0304AB
:10058000A4FA8CF5B5FA85F402FA04F203FA04F33E
:100590004FEA1260FDE80445A0EB1360704700BF0E
:1005A00001F0FF01102A2BDB10F0070F08D010F824
:1005B000013B013A8B422DD010F0070F42B3F6D128
:1005C000F0B441EA012141EA014122F007047FF041
:1005D00000070023F0E80256083C85EA010586EA98
:1005E000010685FA47F5A3FA87F586FA47F6A5FAD4
:1005F00087F68EB9EED1F0BC01F0FF0102F00702E0
:1006000032B110F8013B013A83EA010313B1F8D18A
:100610000020704701387047002D06BF354603386B
:10062000073815F0010F07D1013015F4807F02BFA4
:10063000013015F4C03F0130F0BC0138704700BFF5
:10064000844641EA000313F003036DD1403A41D3DD
:1006500051F8043B40F8043B51F8043B40F8043B9C
:1006600051F8043B40F8043B51F8043B40F8043B8C
:1006700051F8043B40F8043B51F8043B40F8043B7C
:1006800051F8043B40F8043B51F8043B40F8043B6C
:1006900051F8043B40F8043B51F8043B40F8043B5C
:1006A00051F8043B40F8043B51F8043B40F8043B4C
:1006B00051F8043B40F8043B51F8043B40F8043B3C
:1006C00051F8043B40F8043B51F8043B40F8043B2C
:1006D000403ABDD2303211D351F8043B40F8043BCC
:1006E00051F8043B40F8043B51F8043B40F8043B0C
:1006F00051F8043B40F8043B103AEDD20C3205D3DC
:1007000051F8043B40F8043B043AF9D2043208D0D3
:10071000D2071CBF11F8013B00F8013B01D30B8845
:1007200003806046704700BF082A13D38B078DD023
:1007300010F003038AD0C3F10403D21ADB071CBFF5
:1007400011F8013B00F8013B80D331F8023B20F85F
:10075000023B7BE7043AD9D3013A11F8013B00F898
:10076000013BF9D20B7803704B7843708B78837020
:10077000604670470000000000000000000000001C
:1007800030B490F800F020F007016FF0000C10F08A
:10079000070491F820F040F048804FF000046FF01B
:1007A0000700D1E9002391F840F000F1080082FA37
:1007B0004CF2A4FA8CF283FA4CF3A2FA8CF34BBB02
:1007C000D1E9022382FA4CF200F10800A4FA8CF27B
:1007D00083FA4CF3A2FA8CF3E3B9D1E9042382FA49
:1007E0004CF200F10800A4FA8CF283FA4CF3A2FA5E
:1007F0008CF37BB9D1E9062301F1200182FA4CF296
:1008000000F10800A4FA8CF283FA4CF3A2FA8CF3FC
:10081000002BC6D0002A04BF04301A4612BAB2FA1E
:1008200082F200EBD20030BC7047D1E9002304F023
:100830000305C4F100004FEAC50514F0040F91F858
:1008400040F00CFA05F562EA05021CBF63EA0503F5
:1008500062464FF00004AAE781F0004102E000BFC9
:1008600083F0004330B54FEA41044FEA430594EA70
:10087000050F08BF90EA020F1FBF54EA000C55EAAB
:10088000020C7FEA645C7FEA655C00F0E2804FEA7C
:100890005454D4EB5555B8BF6D420CDD2C4480EA5E
:1008A000020281EA030382EA000083EA010180EA8E
:1008B000020281EA0303362D88BF30BD11F0004FDC
:1008C0004FEA01314FF4801C4CEA113102D0404212
:1008D00061EB410113F0004F4FEA03334CEA13334D
:1008E00002D0524263EB430394EA050F00F0A78065
:1008F000A4F10104D5F1200E0DDB02FA0EFC22FA60
:1009000005F2801841F1000103FA0EF2801843FA53
:1009100005F359410EE0A5F120050EF1200E012A44
:1009200003FA0EFC28BF4CF0020C43FA05F3C01882
:1009300051EBE37101F0004507D54FF0000EDCF1FB
:10094000000C7EEB00006EEB0101B1F5801F1BD3A4
:10095000B1F5001F0CD349085FEA30004FEA3C0CA8
:1009600004F101044FEA445212F5800F80F09A809E
:10097000BCF1004F08BF5FEA500C50F1000041EBA2
:10098000045141EA050130BD5FEA4C0C404141EBA6
:100990000101013C28BFB1F5801FE9D291F0000FA1
:1009A00004BF01460020B1FA81F308BF2033A3F150
:1009B0000B03B3F120020CDA0C3208DD02F1140C47
:1009C000C2F10C0201FA0CF021FA02F10CE002F182
:1009D0001402D8BFC2F1200C01FA02F120FA0CFC7B
:1009E000DCBF41EA0C019040E41AA2BF01EB0451C4
:1009F000294330BD6FEA04041F3C1CDA0C340EDCC2
:100A000004F11404C4F1200220FA04F001FA02F304
:100A100040EA030021FA04F345EA030130BDC4F1C2
:100A20000C04C4F1200220FA02F001FA04F340EAB7
:100A30000300294630BD21FA04F0294630BD94F068
:100A4000000F83F4801306BF81F480110134013D4F
:100A50004EE77FEA645C18BF7FEA655C29D094EAC0
:100A6000050F08BF90EA020F05D054EA000C04BF3E
:100A70001946104630BD91EA030F1EBF0021002029
:100A800030BD5FEA545C05D14000494128BF41F0C8
:100A9000004130BD14F580043CBF01F5801130BD2C
:100AA00001F0004545F0FE4141F470014FF00000B7
:100AB00030BD7FEA645C1ABF194610467FEA655C68
:100AC0001CBF0B46024650EA013406BF52EA03350A
:100AD00091EA030F41F4002130BD00BF90F0000FF8
:100AE00004BF0021704730B54FF4806404F1320434
:100AF0004FF000054FF0000150E700BF90F0000FED
:100B000004BF0021704730B54FF4806404F1320413
:100B100010F0004548BF40424FF000013EE700BFE3
:100B200042004FEAE2014FEA31014FEA02701FBF73
:100B300012F07F4393F07F4F81F06051704732F0A5
:100B40007F4208BF704793F07F4F04BF41F40021FC
:100B5000704730B54FF4607401F0004521F000415A
:100B60001CE700BF50EA010208BF704730B54FF0E4
:100B700000050AE050EA010208BF704730B511F0E5
:100B8000004502D5404261EB41014FF4806404F11D
:100B900032045FEA915C3FF4D8AE4FF003025FEAA3
:100BA000DC0C18BF03325FEADC0C18BF033202EB27
:100BB000DC02C2F1200300FA03FC20FA02F001FA81
:100BC00003FE40EA0E0021FA02F11444BDE600BF24
:100BD00080F0004002E000BF81F0004142001FBFF2
:100BE0005FEA410392EA030F7FEA226C7FEA236CFB
:100BF0006AD04FEA1262D2EB1363C1BFD2184140F0
:100C000048404140B8BF5B42192B88BF704710F085
:100C1000004F40F4000020F07F4018BF404211F028
:100C2000004F41F4000121F07F4118BF494292EA90
:100C3000030F3FD0A2F1010241FA03FC10EB0C00BC
:100C4000C3F1200301FA03F100F0004302D5494249
:100C500060EB4000B0F5000F13D3B0F1807F06D3F6
:100C600040084FEA310102F10102FE2A51D2B1F1EE
:100C7000004F40EBC25008BF20F0010040EA0300E3
:100C80007047490040EB0000013A28BFB0F5000F63
:100C9000EDD2B0FA80FCACF1080CB2EB0C0200FA19
:100CA0000CF0AABF00EBC25052421843BCBFD04068
:100CB0001843704792F0000F81F4000106BF80F4E2
:100CC00000000132013BB5E74FEA41037FEA226CA5
:100CD00018BF7FEA236C21D092EA030F04D092F070
:100CE000000F08BF0846704790EA010F1CBF0020A4
:100CF000704712F07F4F04D1400028BF40F0004001
:100D0000704712F100723CBF00F50000704700F020
:100D1000004343F0FE4040F4000070477FEA226247
:100D200016BF08467FEA23630146420206BF5FEA18
:100D3000412390EA010F40F4800070474FF0000318
:100D400004E000BF10F0004348BF40425FEA000CDF
:100D500008BF704743F0964301464FF000001CE087
:100D600050EA010208BF70474FF000030AE000BFDD
:100D700050EA010208BF704711F0004302D540421B
:100D800061EB41015FEA010C02BF8446014600208D
:100D900043F0B64308BFA3F18053A3F50003BCFAA8
:100DA0008CF2083AA3EBC25310DB01FA02FC634455
:100DB00000FA02FCC2F12002BCF1004F20FA02F25C
:100DC00043EB020008BF20F00100704702F120024F
:100DD00001FA02FCC2F1200250EA4C0021FA02F2B0
:100DE00043EB020008BF20EADC70704753B94AB9F0
:100DF000002908BF00281CBF4FF0FF314FF0FF3023
:100E000000F0E2B8ADF1080C6DE904CE3BF09CFDBA
:100E1000DDF804E0DDE9022304B0704700F134019D
:100E200091E838009C46A6464CF8045D90E8FF0F18
:100E3000E54600BD90EC210B704700BF80EC210B14
:100E4000704700BF90EC200B704700BF80EC200B78
:100E5000704700BFD0EC200B704700BFC0EC200BE8
:100E6000704700BFF0EC0201F0EC0211F0EC02213F
:100E7000F0EC0231F0EC0241F0EC0251F0EC0261D6
:100E8000F0EC0271F0EC0281F0EC0291F0EC02A1C6
:100E9000F0EC02B1F0EC02C1F0EC02D1F0EC02E1B6
:100EA000F0EC02F1704700BFE0EC0201E0EC02114F
:100EB000E0EC0221E0EC0231E0EC0241E0EC025116
:100EC000E0EC0261E0EC0271E0EC0281E0EC029106
:100ED000E0EC02A1E0EC02B1E0EC02C1E0EC02D1F6
:100EE000E0EC02E1E0EC02F1704700BFB0FC0181F0
:100EF000B0FC0191B0FC01A1B0FC01B1704700BF92
:100F0000A0FC0181A0FC0191A0FC01A1A0FC01B109
:100F1000704700BFEC4600B52DE900502DE9FF1FDA
:100F20004FF000032DE90C0001A93BF0C7FFDDF8ED
:100F300040E012B0704700BFEC4600B52DE900500C
:100F40002DE9FF1F4FF000032DE90C0001A93BF034
:100F5000F1FFDDF840E012B0704700BFEC4600B58D
:100F60002DE900502DE9FF1F4FF000032DE90C0083
:100F700001A93CF001F8DDF840E012B0704700BF75
:100F8000EC4600B52DE900502DE9FF1F4FF000039E
:100F90002DE90C0001AB3BF0C5FFDDF840E012B0DD
:100FA000704700BFEC4600B52DE900502DE9FF1F4A
:100FB0004FF000032DE90C0001AA3CF03DF8DDF8EC
:100FC00040E012B0704700BF704700BF0348044BB9
:100FD000834202D0034B03B118477047C007002477
:100FE000C0070024000000000548064B1B1AD90F5B
:100FF00001EBA301491002D0034B03B1184770471E
:10100000C0070024C00700240000000010B5064CF3
:10101000237843B9FFF7DAFF044B13B10448AFF369
:1010200000800123237010BDC08100240000000057
:10103000B4DA030808B5054B1BB105490548AFF301
:101040000080BDE80840FFF7CFBF00BF00000000F0
:10105000C4810024B4DA030870470438704770472D
:1010600010B5044610212DF06BFC204610BDA0F1F8
:101070000400F5E784B030B585B0054609AC84E8D6
:101080000E000CAB93E807008DE8070094E80E0013
:10109000E86800F03FFA05B0BDE8304004B07047A2
:1010A000A0F10400FFF7E6BF82B0C0686B4683E89A
:1010B000060093E8060002B000F022BBA0F1040095
:1010C000FFF7F2BF82B0C0686B4683E8060093E882
:1010D000060002B000F028BBA0F10400FFF7F2BF49
:1010E00082B0C0686B4683E8060093E8060002B051
:1010F00000F062B9A0F10400FFF7F2BF84B0C0684D
:1011000004B000F091B9A0F10400FFF7F7BF84B07C
:1011100030B585B0054609AC84E80E000CAB93E809
:1011200007008DE8070094E80E00E86800F0A2F9D7
:1011300005B0BDE8304004B07047A0F10400FFF7EF
:10114000E6BF84B013B505AC84E80E00BDF82030CE
:10115000ADF80030C06894E80E0000F04FFB02B01C
:10116000BDE8104004B07047A0F10400FFF7E9BFEC
:1011700082B0C0686B4683E8060093E8060002B0C0
:1011800000F084BAA0F10400FFF7F2BF84B037B5D5
:1011900007AC054684E80E00DDE90A018DE803008E
:1011A00094E80E00E86800F0C7FB03B0BDE83040EB
:1011B00004B07047A0F10400FFF7E8BF0022C1604F
:1011C0008260024A02603C324260704764DB03087E
:1011D0007047704770470000034B10B5044603602A
:1011E00001F03CFA204610BD3CF9030810B5044656
:1011F000FFF7F2FF46F21C1120462DF0A1FB20461E
:1012000010BD0268B0EE401AD0ED0E0AD26F90ED1C
:101210000D0A104710B5044601F062FB0A4B00218D
:1012200000222046236004F5C043C3F80C11C3F824
:1012300010110649C3F80821C3F81411A3F81821A6
:1012400083F81A2110BD00BF3CF9030800009D423D
:1012500038B5044601F0EBF95023524A022104F557
:10126000A2501EF05AFA04F644304F4D1CF068F9B3
:1012700004F5A05000232A460A210C301EF04DFA36
:1012800004F5BA601CF05CF900232A460A2104F533
:10129000A1501EF042FA04F21C601CF051F904F552
:1012A000A75000232A46082104301EF036FA04F520
:1012B00057601CF045F904F5A95000232A46042183
:1012C0001C301EF02AFA04F644701CF039F904F5BB
:1012D000A1510622354814311EF04FFC04F5CD60B3
:1012E0001CF02EF904F5A25000232A460A210430EE
:1012F0001EF013FA04F5A25000232A460A211830E2
:101300001EF00BFA04F6E8301CF01AF904F5A550AB
:1013100000232A460A211C301EF0FFF904F5A650CE
:1013200000232A460A2110301EF0F7F904F5526016
:101330001CF006F904F5A35000232A460A210C30BC
:101340001EF0EBF900232A460A2104F5A4501EF0F2
:10135000E4F904F638401CF0F3F804F5AB50002330
:101360002A46082104301EF0D8F904F582501430C2
:101370001CF0E6F804F5AB500D4B0A210D4A143071
:101380001EF0CBF904F585501CF0DAF804F5C042E4
:10139000002304F58054A2F8183182F81A3184F839
:1013A000B53238BDCCDB0308CFDB0308D2DB030842
:1013B000D6DB0308DBDB030837B50446194D02AB67
:1013C00000F5A25003E906000430BDF802302A46B9
:1013D0000A211EF0A2F904F5A250BDF800302A46F9
:1013E0000A2118301EF099F904F6E8301CF0A8F82C
:1013F00004F5A550BDF806302A460A211C301EF01F
:101400008CF904F5A650BDF804302A460A211030A4
:101410001EF083F904F5526003B0BDE830401CF0C3
:101420008FB800BFCFDB0308B7EEE07A0A2130B5F2
:10143000044687B00E4D00F5A3508DED020A2A46F2
:101440000C308DED007B1EF068F99DED027A2A4686
:101450000A21B7EEC77A04F5A4508DED007B1EF08B
:101460005CF904F6384007B0BDE830401CF068B8BD
:10147000CFDB030884B037B5044607A8244D80E8C5
:101480000E0004F5A95013460A212A4608301EF022
:1014900044F904F5A850079B2A460A2114301EF08F
:1014A0003CF904F6AC601CF04BF804F6F8601CF054
:1014B00047F89DED097A082104F5AC50B7EEC77ADC
:1014C0002A4608448DED007B1EF027F99DED0A7A2F
:1014D00004F5AC502A46B7EEC77A082118308DEDD6
:1014E000007B1EF01AF904F58F5014301CF028F818
:1014F00004F5A0500B9B2A460A210C301EF00DF972
:1015000004F5BA6003B0BDE8304004B01CF018B870
:10151000CFDB030884B070B504462DED048B82B098
:1015200004F50E750BA89DED0F9ADDED108A80E88D
:101530000E00284618F02EF8284604F204451BF049
:10154000FFFF0C99284618F025F828461BF0F8FFF5
:101550000D9B032B00F28480DFE803F085027C7F83
:101560000122502304F5805104F5A25081F8B522E0
:101570000221404A1EF0D1F804F644301BF0E0FF8F
:1015800004F5945010301BF0DBFF0E9B04F5A151C5
:101590000622012B01F1140168D0022B68D03648D5
:1015A0001EF0EBFA9FED358A04F5CD6004F6582560
:1015B0001BF0C6FF04F5A75069EE089A01AB304A4C
:1015C0000821043028EE888A8DED019A1EF0CCFAAD
:1015D00004F5576004F2B4661BF0B2FFB0EE690A7E
:1015E0002846FFF70EFE284604F5F4651BF0A8FF19
:1015F000B0EE480A3046FFF704FEB0EE480A28462F
:10160000FFF7FFFD30461BF09BFF28461BF098FFBD
:1016100004F5A75001AB1A4A08211430CDED018A18
:101620001EF0A2FA04F6BC501BF08AFF04F5A85085
:1016300001AB134A08210430CDED018A1EF094FA63
:1016400004F6086002B0BDEC048BBDE8704004B045
:101650001BF076BF0022442384E70022522381E757
:1016600000222D237EE700224E237BE7054897E7E3
:10167000054895E7CCDB0308D2DB03082EFA8E3C45
:10168000E9DB0308DEDB0308E4DB030830B52DEDFE
:10169000028B85B000F16C0504466B46284683E852
:1016A00006009DED018AFDEEC87A17EE901A17F03C
:1016B00071FF28461BF044FF04F5AB5003AB0E4A04
:1016C000082104308DED038A1EF04EFA04F5825095
:1016D00014301BF035FF009B084A0A2104F5A15085
:1016E0001EF01BF804F21C6005B0BDEC028BBDE8D7
:1016F00030401BF025BF00BFEEDB0308F4DB03081E
:101700001FB56B4600F2B46083E80600019B994266
:1017100003A914BF2B232C23ADF80C3016F048FF7F
:1017200005B05DF804FB000030B585B000F58E55BE
:1017300004466B46083583E806009DF8022000F554
:10174000C043511E4A424A4183F81A219DF80320A2
:10175000032A22D8DFE802F02102070A0122A3F8B7
:101760001821142307E04FF48072F8E740F20112C9
:10177000A3F818211323284603A9ADF80C3017F05D
:10178000C8FF284604F59F551BF0DAFE9DF800308F
:101790000BB1012B03D0272302E00022DFE7262331
:1017A00003A92846ADF80C3017F0B3FF28461BF00C
:1017B000C7FE9DF8013004F5AB510A22022B04F557
:1017C000855401F114010DD0032B0DD0012B14BF52
:1017D000064807481EF0D1F9204605B0BDE8304064
:1017E0001BF0AEBE0348F5E70348F3E7D6DB03087A
:1017F000F8DB0308FCDB030804DC030884B0F7B55E
:10180000044609A880E80E0004F5AD509DF8243088
:10181000484A0A2118309DF82A709DF82B601DF067
:101820007CFF04F5AE5004F59A559DF826300A2148
:10183000404A0C301DF071FF28461BF081FE9DF8D8
:1018400025303C4A0A2104F5AF501DF066FF04F52F
:10185000AF509DF827300A21364A14301DF05DFF45
:1018600028461BF06DFE04F581559DF8283008359B
:10187000002B53D01F23284601A9ADF8043017F0E0
:1018800048FF284604F58B551BF05AFE1035002FF3
:101890004BD02423284601A9ADF8043017F039FFB6
:1018A000284604F58C551BF04BFE1C35002E3ED00F
:1018B0001B2301A92846ADF8043017F02AFF28465B
:1018C0001BF03EFE082104F5AD50BDF82C30194A3E
:1018D00008441DF022FF04F5925004301BF030FE46
:1018E00004F5A450BDF82E300A21124A14301DF020
:1018F00014FF04F688401BF023FE04F5A550BDF844
:1019000030300A210B4A08301DF007FF04F6D4409E
:1019100003B0BDE8F04004B01BF012BE9DF82930C2
:101920000BB11A23A7E71523A5E72523B2E71C234C
:10193000BFE700BFCFDB030884B073B5044607A838
:101940000A9E04F5955580E80E009DF81C301C3564
:10195000032B1CD8DFE803F01B02171910232846BD
:1019600001A9ADF8043017F0D4FE284604F59755C8
:101970001BF0E6FD9DF81D300835032B26D8DFE867
:1019800003F025080D0F0E23E9E70D23E7E70F23EA
:10199000E5E7072301A9ADF8043006E00523F9E7E0
:1019A00004230DEB0301ADF80430284617F0B1FE17
:1019B00028461BF0C5FD04F598559DF81E301435DA
:1019C000032B44D8DFE803F043043F410623E1E75B
:1019D000192301A92846ADF8043017F09AFE2846CD
:1019E00004F68C051BF0ACFD3146284617F0D2FDFD
:1019F00004F5A9503346174A04211C301DF08DFE12
:101A000004F644701BF09CFD28461BF099FD04F57C
:101A1000AA50099B08210F4A04301DF07EFE04F5F0
:101A200079601BF08DFD04F5AA500B9B0821094A33
:101A300014301DF072FE04F6DC7002B0BDE8704098
:101A400004B01BF07DBD1823C3E71623C1E717239D
:101A5000BFE700BFCFDB0308F7B500F5C0473C2365
:101A600000F587560446D7F808510C36013595FB2A
:101A7000F3F2C7F8085103FB125597F818314BB130
:101A80001D2D01A93046D4BF1D231E23ADF80430FF
:101A900017F03FFE304604F588561BF051FD97F8CD
:101AA000193118364BB11D2D01A93046D4BF28235A
:101AB0002923ADF8043017F02CFE304604F58A5483
:101AC0001BF03EFD97F81A3104344BB11D2D01A9CE
:101AD0002046D4BF20232123ADF8043017F019FE8F
:101AE000204603B0BDE8F0401BF02ABD0022C0F83C
:101AF0008420704730B52DED028B85B09FED388A7C
:101B0000DFED388A04A80A9C00E90E0008220021B3
:101B10000DEB020010F018F82368082283421146EA
:101B200018BF20600DEB020014BF0125002510F046
:101B30000BF8636803221021834218BF606002A87B
:101B400018BF012510F000F8A36803221621834274
:101B500018BFA06002A818BF01250FF0F5FFE368C9
:101B600010222021834218BFE06002A818BF01257F
:101B70000FF0EAFFFFF7F4F8B0EE487A07EE900AAC
:101B8000102202A83021A7EEA87AD4ED047A77EECD
:101B9000C77AF0EEE77AF4EEE87AF1EE10FAC4BF15
:101BA00084ED047A01250FF0CFFFFFF7D9F8F0EEAE
:101BB000487A07EE100AE7EE287A94ED057A37EEB8
:101BC000677AB0EEC77AB4EEE87AF1EE10FAC4BFE5
:101BD0000125C4ED057A284605B0BDEC028B30BD69
:101BE000000061C4CDCCCC3D30B585B004A8089CC4
:101BF00000E90E00012202A800210FF0A5FF2378C2
:101C000003220121834218BF207002A814BF0125BE
:101C100000250FF099FF637801220421834218BF49
:101C2000607002A818BF01250FF08EFFA378032271
:101C30000521834218BFA07002A818BF01250FF02C
:101C400083FFE37801220A21834218BFE07002A8D3
:101C500018BF01250FF078FF237901220C21834260
:101C600018BF207102A818BF01250FF06DFF63791E
:101C700083421CBF01256071284605B030BD0000BD
:101C800030B52DED028B85B09FED268ADFED268ADB
:101C900004A80A9C00E90E00202202A800210FF0EF
:101CA00053FFFFF75DF8B0EE487A07EE900A202266
:101CB00002A8A7EEA87AD4ED007A1146F8EE677A6A
:101CC00077EEC77AF0EEE77AF4EEE87AF1EE10FA02
:101CD000C5BFBCEEC77A0125002584ED007A0FF060
:101CE00033FFFFF73DF8F0EE487A07EE100AE7EE13
:101CF000287A94ED017AB8EE477A37EE677AB0EE3B
:101D0000C77AB4EEE87AF1EE10FAC4BF0125FCEE12
:101D1000E77A2846C8BFC4ED017A05B0BDEC028B56
:101D200030BD00BF0000FAC30AD7233C30B585B0F0
:101D300004A8089C00E90E00202202A800210FF050
:101D400003FF23680C222021834218BF206002A8D1
:101D500014BF012500250FF0F7FEFFF701F8DFEDB6
:101D60000B6A07EE100AD4ED017A27EE267A77EE99
:101D7000C77AF0EEE77AF4EEE67AF1EE10FAC4BF35
:101D8000012584ED017A284605B030BDCDCCCC3D8F
:101D900030B585B0002504A8089C00E90E00052296
:101DA00002A800210FF0D0FE237805228D4208BF43
:101DB0008342114618BF207002A818BF01250FF0FA
:101DC000C3FE63780522002908BF83424FF00A0151
:101DD00018BF607002A818BF01250FF0B5FEA378E8
:101DE0000522002908BF83424FF00F0118BFA070E1
:101DF00002A818BF01250FF0A7FEE37801220029F1
:101E000008BF83424FF0140118BFE07002A818BF4A
:101E100001250FF099FE23790122002908BF834292
:101E20004FF0150118BF207102A818BF01250FF04F
:101E30008BFE63790122002908BF83424FF016010F
:101E400018BF607102A818BF01250FF07DFEA379AD
:101E50000122002908BF83424FF0170118BFA0716B
:101E600002A818BF01250FF06FFEE3790C220029AC
:101E700008BF83424FF0180118BFE07102A818BFD5
:101E800001250FF061FE194B0C22C018238961F166
:101E90000001002908BF83424FF0240118BF2081B0
:101EA00002A818BF01250FF04FFE104B0C22C018DE
:101EB000638961F10001002908BF83424FF03001BE
:101EC00018BF608102A818BF01250FF03DFE074B27
:101ED000C018A38961F10001002908BF83421CBF1B
:101EE0000125A081284605B030BD00BF3CF6FFFFAC
:101EF00030B585B0002404A8089D00E90E0010222A
:101F000002A800210FF020FE214B2A881B1802A8EE
:101F100061F100018C4208BF9A424FF0100218BFD5
:101F20006B80114618BF01240FF00EFE184B6A8813
:101F30001B1802A861F10001002908BF9A424FF066
:101F400010024FF020011CBF6B8001240FF0FCFD3C
:101F50000F4BAA881B1802A861F10001002908BFD5
:101F60009A424FF010024FF030011CBFAB800124A9
:101F70000FF0EAFD064BEA881B1861F10001002909
:101F800008BF9A421CBF0124EB80204605B030BD3B
:101F900078ECFFFF30B585B004A8089C00E90E007E
:101FA000102202A800210FF0CFFD2D4B181861F16F
:101FB0000001FEF7DDFE94ED007A07EE900A102294
:101FC00002A8B4EE677A1146F1EE10FA1ABFC4ED1A
:101FD000007A012500250FF0B7FD214B181861F19B
:101FE0000001FEF7C5FE94ED017A07EE900A10227B
:101FF00002A82021B4EE677AF1EE10FA1CBFC4EDFE
:10200000017A01250FF0A0FD164B181861F10001AF
:10201000FEF7AEFE94ED027A07EE900A102202A8B7
:102020003021B4EE677AF1EE10FA1CBFC4ED027AEB
:1020300001250FF089FD0A4B181861F10001FEF728
:1020400097FE94ED037A07EE900AB4EE677AF1EE0C
:1020500010FA1CBF0125C4ED037A284605B030BD37
:1020600078ECFFFF3CF6FFFF30B52DED028B85B01D
:10207000DFED508A04A80A9C00E90E000822002126
:102080000DEB02000FF060FDFEF76AFED4ED007A62
:1020900007EE100A0822F8EE677A27EE287A0DEB91
:1020A0000200114677EEC77AF0EEE77AF4EEE87AAE
:1020B000F1EE10FAC5BFBCEEC77A0125002584ED0C
:1020C000007A0FF041FDFEF74BFED4ED017A07EEEA
:1020D000100A0A22F8EE677A02A827EE287A102161
:1020E00077EEC77AF0EEE77AF4EEE87AF1EE10FADE
:1020F000C2BFBCEEC77A012584ED017A0FF024FD42
:10210000FEF72EFE07EE100AD4ED027A0A2227EE21
:10211000287A02A81A2177EEC77AF0EEE77AF4EE71
:10212000E87AF1EE10FAC4BF84ED027A01250FF0CF
:102130000BFDFEF715FE08EE100AD4ED037A0A2215
:1021400028EE288A02A8242177EEC87AF0EEE77AF2
:10215000F4EEE87AF1EE10FAC4BF84ED038A0125AB
:102160000FF0F2FCD4ED047A0A2202A8F8EE677AA6
:102170002E21F4EE487AF1EE10FA1FBFFCEEC87A79
:10218000012517EE903A23610FF0DEFCD4ED057ABD
:10219000F8EE677AF4EE487AF1EE10FA1CBF0125EA
:1021A000BCEEC88A284618BF84ED058A05B0BDEC90
:1021B000028B30BD0AD7233C30B585B0002504A87A
:1021C000089C00E90E00032202A800210FF0BCFCCD
:1021D000237803228D4208BF8342114618BF207026
:1021E00002A818BF01250FF0AFFC63780322002975
:1021F00008BF83424FF0060118BF207002A818BF25
:1022000001250FF0A1FCA3780322002908BF834217
:102210004FF0090118BFA07002A818BF01250FF0E8
:1022200093FCE3780322002908BF83424FF00901A1
:1022300018BFE07002A818BF01250FF085FC2379B4
:102240000A22002908BF83424FF00C0118BF2071F9
:1022500002A818BF01250FF077FC1438E3884FF06F
:102260000A0261F10001002908BF83424FF01A0100
:1022700018BFE08002A818BF01250FF065FC1438D4
:10228000A3684FF0080261F10001002908BF8342F2
:102290004FF0280118BFA0600DEB020018BF012508
:1022A0000FF052FCE3680822002908BF83424FF078
:1022B000300118BFE0600DEB020018BF01250FF0E0
:1022C00043FC2369002908BF83421CBF012520610C
:1022D000284605B030BD00002DE9F04788B004461F
:1022E0000A27DFF8DC8105ADDFF8D8910023294605
:1022F000D8F800001A4605F02BFE78BB059B4B452D
:1023000000F2C780B3F1805F26D903F17043013B2F
:10231000102B21D8DFE803F009253645597120201C
:102320008C20202020202020A3000094204695E827
:102330000E00FFF7DFFB78B1D4F8846004F10C03E2
:10234000D6F800C093E807008DE807003046DCF8B7
:1023500008A094E80E00D047013FC7D108B0BDE8FF
:10236000F08704F118062046009695E80E00FFF766
:1023700087FC0028F0D0D4F884000368DB6896E876
:10238000060020E004F120062046009695E80E00A5
:10239000FFF72AFC0028DFD0D4F8840003681B690B
:1023A000EDE704F13E032046009395E80E00FFF7A9
:1023B0009FFD0028D0D0D4F88400D4F83E100368E4
:1023C000D4F842205B699847C6E704F148032046E9
:1023D000009395E80E00FFF7DDFD0028BCD0D4F88F
:1023E000840094ED120A0368D4ED130A9B6994EDFE
:1023F000141AD4ED151A9847AEE704F15806204692
:10240000009695E80E00FFF72FFE0028A4D0D4F820
:1024100084C004F16403DCF800E093E807008DE871
:102420000700604696E80E00DEF81C60B04793E7B0
:1024300004F130062046009695E80E00FFF7A8FC50
:10244000002889D0D4F88400A38FD0F800C0ADF85C
:10245000003096E80E00DCF82060B0477CE704F11D
:1024600070062046009695E80E00FFF7A5FE0028AE
:102470003FF472AFD4F884C0D4E91F01DCF800E067
:102480008DE80300604696E80E00DEF82460B04751
:1024900062E70A4A93427FF45FAF04F128062046C0
:1024A000009695E80E00FFF741FC00283FF454AF7A
:1024B000D4F8840003689B6A61E700BF2300001022
:1024C000141B032411000010704700F5987308686E
:1024D000496803C37047704701F076BD10B50446E4
:1024E0004FF4AE712CF02CFA204610BD10B5044606
:1024F000D0F85801FFF7F0FE2046BDE8104019F073
:1025000007BF10B50446D0F8400158B10368DB6836
:10251000984738B1D4F8400103689B689847002376
:10252000C4F8403110BD000010B5044601F018FD9C
:10253000014B2046236010BD70F90308002070474E
:1025400081807047C1807047018170474181704729
:102550007047704770477047704710B4C48803686D
:10256000121B84885B6D091B12B25DF8044B09B223
:1025700018474FF6FF7383814FF0FF3303621368F0
:10258000C361106070477047704770470020704704
:102590008B88838001207047704701767047818265
:1025A000C2827047704730B585B003680446018128
:1025B0006D460146D3F884303C342846984795E868
:1025C000070084E8070005B030BD30B585B003686A
:1025D000044641816D460146D3F884303C34284698
:1025E000984795E8070084E8070005B030BD002251
:1025F000028042808280C280704780F83610704727
:10260000036870B504461B6B15469847236820463F
:1026100029465B6EBDE87040184700207047806C0B
:102620007047806C7047C06C704770477047704748
:1026300010B5044608212CF083F9204610BD10B5D2
:1026400004464C212CF07CF9204610BD10B5044600
:1026500050212CF075F9204610BD0000034B10B539
:102660000446036017F07EFF204610BD7CFB030884
:10267000064B10B50446036017F074FF46F20811CC
:1026800020462CF05DF9204610BD00BF7CFB0308FE
:1026900090F8252012B103685B691847704708B5A8
:1026A000FFF7F6FF08BD90F825201AB190F8242016
:1026B00002B1186070470000036870B55E6B044695
:1026C000114B8DB21B682BB9104B6C21104A11486D
:1026D00033F0AEFE1049828D0988914203D80F4B2A
:1026E0006D210B4AF3E713F812200D4B1B6853F8CA
:1026F000220003681B6B9847291A3346204609B20B
:10270000BDE87040184700BF642D03240DDC0308AA
:102710004FDC03088ADC0308582D0324CFDC0308B0
:102720005C2D0324036870B504461B6B154698475F
:102730002368204629465B6BBDE87040184770B59A
:1027400004461D46BDF91060FFF7ECFF23682946DB
:1027500020469B6B9847236831462046DB6BBDE8DB
:10276000704018470022C0E90122C0E90322C0E9F5
:102770000522C0E907224FF480728284014A026078
:10278000704700BFC4F9030838B504460D46262239
:10279000002136F0B3F92046FFF7E4FF064B204650
:1027A000294623602B88E384FF2384F8283016F021
:1027B000B0FF204638BD00BF140E0408002370B5DA
:1027C000124E05468380124B0360336893F85C20F9
:1027D0000AB1186D00B9986803681B6B9847336895
:1027E000B0FA80F4186D640930B103681B6B984728
:1027F000002808BF44F001042CB9064B2C21064ADE
:10280000064833F015FE284670BD00BF042D032492
:102810002CFA03080DDD03086BDD0308A4DD0308B3
:1028200010B50446FFF7CAFF4FF6FF732046A38199
:102830000023A37384F82030C4E90433C4E90633C9
:10284000024B23602433A36010BD00BF10080408AE
:1028500000224FF0FF318260C0E90021704710B5BF
:102860000446FFF7F5FF204610BD000010B50446F2
:102870000021262236F042F92046FFF773FF094B6C
:102880004FF47F0204F13C002360074BA3624FF634
:10289000FF73A3850023C4E90C322387FFF7D8FF19
:1028A000204610BD340C04084CFA030810B5044649
:1028B000FFF7DCFF024B204623600023A36410BD1A
:1028C0005CFA030810B50446FFF7D0FF034B20461F
:1028D00023600023C4E9123310BD00BFECFA0308E3
:1028E0002DE9F04F044600274FF6FF7604F16C0AFD
:1028F00004F50E7804F2044904F6582B2DED028BF2
:10290000B7B09FEDDF8A1BF05DF9DE4B2246E7632F
:10291000394633AD42F8403B2D9226222D9836F0B1
:10292000EDF82D98FFF71EFFD74B5046A76623649E
:10293000FF23DFEDD68A84F8663016F023FD04F518
:10294000037318462E93FFF76BFF404616F01AFDEF
:1029500004F5767318462F93FFF762FF484616F08A
:1029600011FD04F2A45318463093FFF759FF04F504
:10297000BA6318461C93FFF799FF04F21C631846CC
:102980001D93FFF793FF04F5CD6318461E93FFF7E1
:102990008DFF04F2B4631846039315F001FC04F5AF
:1029A000F4631846049315F0FBFB04F68C031846F9
:1029B000059316F0E7FC04F62C2318463193FFF735
:1029C0002FFF584615F0ECFB04F6443318461F93CE
:1029D000FFF76CFF04F539632946ADF8CC60184663
:1029E0002093FFF7D1FE04F6BC332946ADF8CC6046
:1029F00018462193FFF7C8FE04F6E83318461593EE
:102A0000FFF760FF04F6384318461693FFF75AFFA6
:102A100004F6884318461793FFF748FF04F6D4439B
:102A200018461893FFF742FF04F5526318461993AE
:102A3000FFF748FF04F5576318462293FFF736FF68
:102A400004F6BC5318462393FFF730FF04F60863DF
:102A500018462493FFF72AFF04F654632946ADF87D
:102A6000CC6018462593FFF78FFE04F5686329466E
:102A7000ADF8CC6018462693FFF786FE04F6AC63EB
:102A800018461A93FFF712FF04F6F86318461B93D3
:102A9000FFF70CFF04F6447318462793FFF706FF71
:102AA00004F5796318462893FFF700FF04F6DC73FA
:102AB00018462993FFF7FAFE04F581532946ADF82D
:102AC000CC60083318460693FFF75EFE04F5825388
:102AD000143318460793FFF7E9FE04F585531846AB
:102AE0002A93FFF7E3FE04F587532946ADF8CC603F
:102AF0000C3318460893FFF747FE04F58853294620
:102B0000ADF8CC60183318460993FFF73DFE04F585
:102B10008A532946ADF8CC60043318460A93FFF770
:102B200033FE04F58B532946ADF8CC6010331846BC
:102B30000B93FFF729FE04F58C532946ADF8CC60C2
:102B40001C3318460C93FFF71FFE04F58E532946DD
:102B5000ADF8CC60083318460D93FFF715FE04F569
:102B60008F53143318460E93FFF7ACFE04F59253BF
:102B7000043318460F93FFF799FE04F59453294642
:102B8000ADF8CC60103318461093FFF7FDFD04F547
:102B900095532946ADF8CC601C3318461193FFF7C6
:102BA000F3FD04F597532946ADF8CC600833184679
:102BB0001293FFF7E9FD04F598532946ADF8CC6070
:102BC000143318461393FFF7DFFD04F59A531846A4
:102BD0002B93FFF777FE04F59C531033184614939C
:102BE000FFF770FE04F59F532946ADF8CC601846F8
:102BF0002C93FFF7C9FD04F5B0504FF49641261D04
:102C0000083017F0A5FC4FF448733A4639462D9822
:102C100000934FF4A063FFF792FD4FF07F432D998F
:102C20003046A36612F08DFF112350462946ADF8B9
:102C3000CC3012F019FF4FF4A8735046F8227821D7
:102C40000093FFF77CFDA8225046114616F076FC53
:102C5000504679226FF0860116F0E6FC3B4696223C
:102C600050463946009712F0A7FD5046394616F0F7
:102C700091FC5046064912F0D7FD1322682309E063
:102C800000007A447CFB0308C40C04080000724274
:102C90005FDF01085046232116F03CFC504601211D
:102CA00016F0C1FB5046012116F0C0FB5046012131
:102CB00016F0BFFB4FF0120329462E98ADF8CC302A
:102CC00014F08EFA504616F0CAFB2E9B83625046D3
:102CD00016F0C5FB4FF489534363504616F0BFFB13
:102CE0004FF488530364504616F0B9FBB42114F036
:102CF00019FB4FF4A8733A4650460093394616F034
:102D000073FB514630464FF0F00A12F01AFF4FF0B5
:102D1000020340462946ADF8CC3012F0A5FE5346DA
:102D200040464FF494723946CDF800A0FFF707FDF6
:102D300078224046114616F001FC40463A466FF0B4
:102D4000B30116F071FC3B466422404639460097B9
:102D500012F032FD4046394616F01CFC4046E2496E
:102D600012F062FD072243234046232116F0D2FBD6
:102D70004046012116F057FB4046012116F056FB54
:102D80004046012116F055FB032329462F98ADF844
:102D9000CC3014F025FA404616F061FB2F9B83627D
:102DA000404616F05CFB4FF489534363404616F0EF
:102DB00056FB4FF488530364404616F050FBB42191
:102DC00014F0B0FA53463A4640463946CDF800A0D2
:102DD00016F00AFB4046012116F02EFB4146304614
:102DE0004FF0010812F0ADFE4FF00A0348462946A5
:102DF000ADF8CC3012F038FE534648464FF494728A
:102E00004FF4A871CDF800A0FFF799FC782248464E
:102E1000114616F093FB48463A46B42116F004FCDE
:102E20003B46642248463946009712F0C5FC4846A6
:102E3000394616F0AFFB4846AB4912F0F5FC0722C5
:102E400043234846232116F065FB4846012116F02E
:102E5000EAFA4846012116F0E9FA4846012116F03F
:102E6000E8FA0B2329463098ADF8CC3014F0B8F9C5
:102E7000484616F0F4FA309B8362484616F0EFFAA3
:102E80004FF489534363484616F0E9FA4FF48B53E5
:102E90000364484616F0E3FAB42114F043FA5346AB
:102EA0003A4648463946CDF800A016F09DFA494604
:102EB000304604F2A46912F044FE262308220A21B7
:102EC0001C984FF0804A00934FF4A373FFF737FC30
:102ED0004FF0FF332846A4F80476C4F80036FFF715
:102EE000B7FC04F20C6395E8070083E8070004F5DB
:102EF000805329461C98A3F80C742D9304F5A05315
:102F00000C33C4F81836794B33931523ADF8D03011
:102F100016F09AF91C99304612F013FE1E230A216E
:102F20002E221D9800934FF4AD73FFF708FC4FF06D
:102F3000FF322846A4F85076C4F84C26FFF788FCE8
:102F400004F5CB6395E8070083E807002D9A04F5A4
:102F5000A15329461D98A2F82074C4F86436634B27
:102F600033931423ADF8D03016F06EF91D99304626
:102F700012F0E7FD18229923D4211E98009240F206
:102F80004D22FFF7DCFB4FF0FF322846A4F89C7679
:102F9000C4F89826FFF75CFC95E8070089E807006D
:102FA00084F8A1862846FFF753FC04F5A15395E861
:102FB0000700143389E807002D9A29461E98A2F8C5
:102FC0003474C4F8B036494BDFF838913393132387
:102FD000ADF8D03016F038F91E99304612F0B1FD38
:102FE0004A2240F28B210398FFF79CFB4FF02B0203
:102FF00029460398ADF8CC2015F0DAFA3C4B039A39
:10300000C4F8BC363B4B1046C2F830A0D36215F072
:1030100073F9B7EE000A039815F0DBFA039A10462D
:1030200082ED168A15F068F9039A1046C2F84890A6
:10303000C2ED118A82ED138A15F05EF9039A1046EB
:10304000C2F85490C2ED148A15F056F99FED2A1A71
:103050000398F0EE410AB0EE410A15F0B2FA039976
:10306000304684F8DD7612F06CFD4A2240F2BD3124
:103070000498FFF757FB4FF02B0229460498ADF850
:10308000CC2015F095FA1D4B049AC4F8A8371C4BB8
:103090001046C2F830A0D36215F02EF9B7EE000A40
:1030A000049815F096FA049ADFF85CA0104682EDB9
:1030B000168A15F021F9049A1046C2F844A0C2F805
:1030C000489082ED138A15F017F9049A1046C2F859
:1030D00050A0C2F854904FF0080A15F00DF99FED7A
:1030E000061A049812E000BF5FDF01084CFA0308DB
:1030F00079007C000000A4410000000089007C00F1
:103100000000E44100007842000089424FF0B80915
:10311000F0EE410AB0EE410A15F053FA0499304638
:1031200084F8C97712F00DFD29460598ADF8CCA0BA
:1031300012F09AFC4B4640F241124FF4816105981F
:10314000CDF80090FFF7FBFA5C220598114616F0C7
:10315000F5F94FF4B4726FF0B301059816F064FA04
:103160003B46642239460598009712F025FB394604
:10317000059816F00FFA8249059812F055FB524651
:1031800035232321059816F0C5F94146059816F018
:103190004AF94146059816F049F94146059816F056
:1031A00048F9092329463198ADF8CC3014F018F8C5
:1031B000059816F054F9319ADFF8E4818262059897
:1031C00016F04DF94FF448634363059816F047F93C
:1031D0004FF41C630364059816F041F9B42114F010
:1031E000A1F84B463A4639460598CDF8009016F0BE
:1031F000FBF805993046DFF8AC9112F0A2FC3C22B6
:1032000058464FF44671FFF78DFA2A23294658464F
:10321000ADF8CC3015F0CCF94FF098135846C4F8FF
:10322000603A584BCBF82C30CBF8303015F064F8BE
:10323000B7EE000A584615F0CCF958468BED168AC1
:1032400015F05AF85846CBF84480CBF848808BEDFF
:10325000138A15F051F85846CBF85080CBF85480BB
:1032600015F04AF89FED481A5846F0EE410AB0EEC4
:10327000410A15F0A6F95946304684F8817A12F0D1
:1032800060FC29234FF401724FF483711F9804F5F9
:10329000A25B00933423FFF752FA4FF0FF31284628
:1032A000A4F8787BC4F8741B0BF1040BFFF7D0FA79
:1032B00004F5386395E8070083E807002D9A04F5C4
:1032C000A25329461F98A2F84074C4F88C3B2F4B98
:1032D00033934FF01803ADF8D03015F0B5FF1F99B8
:1032E000304612F02EFC40F24B2240F29A212098F8
:1032F000FFF718FA4FF02B02294620989046ADF8B8
:10330000CC2016F006FA2099304612F01AFC40F252
:103310004B224FF478712198FFF704FA294621983F
:10332000ADF8CC8016F0F5F92199304612F009FC81
:10333000CB2240F242211598FFF7F4F94FF0FF330A
:103340002846A4F81C7CC4F8183CFFF781FA04F660
:10335000244395E8070083E80700D9F800302BB92B
:103360000B4B60210B4A0C4833F062F8DFF83880D1
:10337000B8F80030172B19D8084B6121054AF2E73D
:103380005FDF01080000C040000000004CFA0308A5
:103390000DDC030804DE03088ADC0308CFDC030825
:1033A00000009842642D0324582D0324DFF88CA3D9
:1033B0001721DAF8000001F08FF8DD4A03460A21F0
:1033C00058461CF0AAF9C4F830BCD9F8003004F50E
:1033D000A25B0BF1180B002BC2D0B8F80030162BF3
:1033E000CAD91621DAF8000001F076F8D04A03466F
:1033F0000A2158461CF091F91598C4F834BC04F51C
:10340000A35B15F001FFCB4B4FF012022946159834
:103410000BF10C0B3393ADF8D02015F015FF159977
:10342000304612F08EFB40F2EB2140F2BF2216989C
:10343000FFF778F94FF0FF322846A4F86C7CC4F807
:10344000682CFFF705FA04F6744395E8070083E853
:103450000700D9F80030002B82D0B8F80030172BC5
:103460008AD91721DAF8000001F036F8B04A03468D
:103470000A2158461CF051F9D9F80030C4F880BC34
:1034800004F5A45B002B3FF46BAFB8F80030162BAB
:103490007FF672AF1621DAF8000001F01DF8A44A99
:1034A00003460A2158461CF038F91698C4F884BC23
:1034B00015F0AAFE9F4B2946169833934FF002034E
:1034C000ADF8D03015F0C0FE1699304612F039FB39
:1034D0004FF4827240F242211798FFF723F94FF020
:1034E000FF332846A4F8BC7CC4F8B83CFFF7B0F919
:1034F00004F6C44395E807005D4683E80700D9F861
:1035000000301435002B3FF42BAFB8F80030172BE8
:103510007FF632AF1721DAF8000000F0DDFF844AB1
:1035200003460A212846DFF80CA21CF0F6F817988B
:10353000C4F8D05C33AD15F067FE04232946179814
:10354000ADF8D0304FF0FF3B0027CDF8CCA015F000
:103550007BFE17993046DFF8E89112F0F2FA4FF44B
:1035600082724FF46C711898FFF7DCF82846C4F8A3
:1035700004BD04F5A558A4F8087DFFF769F904F522
:10358000516308F1080895E8070083E80700D9F8B7
:103590000030002B3FF4E4AE674A1388172B7FF608
:1035A000EBAE664B1721186800F096FF604A0346A1
:1035B0000A2140461CF0B1F81898C4F81C8D04F597
:1035C000A55815F021FE032329461898ADF8D030F0
:1035D00008F11C08CDF8CCA015F036FE189930463D
:1035E00012F0AFFACB224FF46C711998FFF79AF8EA
:1035F0002846C4F850BDA4F8547DFFF729F904F615
:103600005C5395E8070083E80700D9F80030002BE9
:103610003FF4A6AE484A1388172B7FF6ADAE474B52
:103620001721186800F058FF414A03460A21404616
:103630001CF073F8C4F8688DD9F8003004F5A6586A
:1036400008F11008002B3FF48BAE3B4A1388162B71
:103650007FF692AE394B16214FF01809186800F02A
:103660003BFF334A03460A2140461CF056F819989E
:10367000C4F86C8D04F5805815F0C6FD1123294659
:103680001998ADF8D030CDF8CCA015F0DDFD199922
:10369000304612F056FA5523242240F23A3122984D
:1036A000CDF80090FFF74BF82846C4F8A0BDA4F869
:1036B000A47DFFF7CDF804F6AC5395E8070083E846
:1036C000070004F5A753A8F8E474294622980433A8
:1036D000CDF8CCA0C4F8B83D1023ADF8D03015F02B
:1036E000B3FD2299304612F02CFA552324224FF4D0
:1036F00026712398CDF80090FFF721F82846C4F8EA
:10370000ECBDA4F8F07DFFF7A3F804F6F85395E8B4
:10371000070083E8070004F5A753A8F8F4742946C6
:1037200023981433CDF8CCA0C4F8043E0AE000BFBF
:10373000DBDB03084CFA0308582D0324602D032417
:10374000642D03244FF00F03ADF8D03015F07CFD4D
:103750002399304612F0F5F95523242240F2DE3148
:103760002498CDF800904FF00C09FEF7E8FF2846AA
:10377000C4F838BEA4F83C7EFFF76AF804F6446348
:1037800095E8070083E8070004F5A853A8F8047536
:10379000294624980433CDF8CCA0C4F8503E0E231B
:1037A000ADF8D03015F050FD2499304612F0C9F92B
:1037B00040F2811225984FF4E471FEF7B3FF2946D9
:1037C0002598ADF8CC7015F0A4FF2599304612F07D
:1037D000B8F940F2811226983A21FEF7A3FF294654
:1037E0002698ADF8CC9015F094FF2699304612F04B
:1037F000A8F955220A211A98FEF794FF2846C4F822
:10380000DCBEA4F8E07EFFF723F804F6E86395E851
:10381000070083E8070004F5A8531A98A8F8147560
:103820001433C4F8F43E15F0EFFC0D2329461A9822
:10383000ADF8D030CDF8CCA015F006FD1A99304681
:1038400012F07FF978220A211B98FEF76BFF2846B9
:10385000C4F828BFA4F82C7FFEF7FAFF04F63473EF
:1038600095E8070083E8070004F5A9531B98A8F81A
:1038700028750833C4F8403F15F0C6FC29461B984C
:10388000ADF8D090CDF8CCA015F0DEFC1B993046F9
:1038900012F057F9152240F23D41279800924E232D
:1038A0004FF4BF72FEF74BFFE34B2846A4F8787F36
:1038B000C4F8743FFEF7CCFF04F5786395E8070081
:1038C00083E8070004F5A953A8F83C752946279812
:1038D0001C33CDF8CCA0C4F88C3F0B23ADF8D0300E
:1038E00015F0B2FC2799304612F02BF91F234A46F7
:1038F00040F2951128984FF01E090093C323FEF75C
:103900001EFF2846C4F8C0BFA4F8C47FFEF7A0FF7E
:1039100004F6CC7395E8070083E8070004F5AA5382
:10392000A8F84475294628980433CDF8CCA0C4F8EB
:10393000D83F0A23ADF8D03015F086FC28993046E0
:1039400012F0FFF8C323332240F295112998CDF8E5
:103950000090FEF7F4FE2846C8F80CB0A8F81070E6
:10396000FEF776FF08F1180395E8070083E80700E3
:1039700004F5AA53294629981433A8F85475CDF8AC
:10398000CCA0C8F824300923ADF8D03015F05CFC89
:103990002999304612F0D5F83946069840F29B2214
:1039A000FEF7C0FE4FF0150229460698ADF8CC2070
:1039B00015F0AFFE0699304612F0C3F820234FF4FD
:1039C000A772D421079800939923FEF7B8FE2846E2
:1039D000C8F884B0A8F88870FEF73AFF08F19003A1
:1039E00095E8070083E8070004F5AB5329460798DC
:1039F0000433A8F86475CDF8CCA0C8F89C3008232F
:103A0000ADF8D03015F020FC0799304612F099F847
:103A10002D2340F26E2240F2FB212A980093D323FB
:103A2000FEF78DFE2846C8F8D0B0A8F8D470FEF78F
:103A30000FFF08F1DC0395E8070083E8070004F5B1
:103A4000AB5329462A981433A8F87475CDF8CCA046
:103A5000C8F8E8300723ADF8D03015F0F5FB2A9907
:103A6000304612F06EF840F20F1208983021FEF73F
:103A700059FE29460898ADF8CC9015F04AFE0899F1
:103A8000304612F05EF840F20F1209984FF4E471DC
:103A9000FEF748FE292329460998ADF8CC3015F0E9
:103AA00038FE0999304612F04CF84FF40672394648
:103AB0000A98FEF737FE212329460A98ADF8CC3044
:103AC00015F027FE0A99304612F03BF840F29B228F
:103AD0000B989221FEF726FE252329460B98ADF878
:103AE000CC3015F016FE0B99304612F02AF840F251
:103AF0009B220C9840F23111FEF714FE1C2329463C
:103B00000C98ADF8CC3015F004FE0C99304612F04C
:103B100018F897220D98E421FEF704FE1423294695
:103B20000D98ADF8CC3015F0F4FD0D99304612F03B
:103B300008F8362340F23B224FF4C7710E984FF03D
:103B40000609009340F20713FEF7F9FD2846C8F86E
:103B500024B2A8F82872FEF77BFE08F50C7395E8EE
:103B6000070083E8070004F5AC5329460E98083394
:103B7000A8F88875CDF8CCA0C8F83C3204F5AC5351
:103B8000ADF8D0901833C8F8403215F05DFB0E99AF
:103B9000304611F0D6FF2B2340F2F52240F29A2155
:103BA0000F9800934FF4C973FEF7C9FD2846C8F873
:103BB00074B2A8F87872FEF74BFE04F5945395E8BA
:103BC000070083E8070004F5AD5329460F98083332
:103BD000A8F8A875CDF8CCA0C8F88C320523ADF8AC
:103BE000D03015F031FB0F99304611F0AAFF40F2AA
:103BF0009B2210984FF4E771FEF794FD222329468B
:103C00001098ADF8CC3015F084FD1099304611F0C5
:103C100098FF40F24F1211984FF41671FEF782FD93
:103C20004FF00F0329461198ADF8CC3015F071FD17
:103C30001199304602E000BFF7F7FFFF11F081FF56
:103C400040F2831212984FF41671FEF76BFD29466D
:103C50001298ADF8CC9015F05CFD1299304611F039
:103C600070FF4FF4D97213984FF41671FEF75AFD96
:103C7000172329461398ADF8CC3015F04AFD139957
:103C8000304611F05EFF2F234FF490724FF43071E5
:103C90002B9800934FF4A373FEF751FD2846C8F804
:103CA00070B3A8F87473FEF7D3FD08F55F7395E859
:103CB000070083E8070004F5AD5329462B98183315
:103CC000A8F8B875CDF8CCA0C8F8883304F5AE5381
:103CD0000C33C8F88C330123ADF8D03015F0B4FAAA
:103CE0002B99304611F02DFF302340F2152240F27F
:103CF000C221149800934FF4A373FEF720FD2846C9
:103D0000C8F8C0B3A8F8C473FEF7A2FD08F5737332
:103D100095E8070083E8070004F5AF532946149897
:103D2000C8F8D8331433A8F8E075C8F8DC33CDF8F8
:103D3000CCA0ADF8D07015F087FA1499304611F088
:103D400000FF4FF4BE722C9840F22231FEF7EAFCDD
:103D5000272329462C98ADF8CC3015F0DAFC3046F4
:103D60002C9911F0EEFE204637B0BDEC028BBDE879
:103D7000F08F00BF704770477047416070477047D1
:103D80007047012303727047704710B441680346BF
:103D9000C2689B68541001EB6200D20748BF0A5901
:103DA0005DF8044B48BFD35818470346406830B10C
:103DB0009A681AB9D86800F001007047012070476E
:103DC00010B504460C212AF0BBFD204610BD10B5ED
:103DD000044610212AF0B4FD204610BD10B504465B
:103DE0004FF4AE712AF0ACFD204610BD10B518F0AE
:103DF000EDF90368BDE81040DB6B18472DE9F14F82
:103E0000D0E9556A0746B06803681B6A984746F2CE
:103E10001B13984205D8444BA321444A444832F02E
:103E200007FB706803681B6A98470F2803D8414B4B
:103E3000A4213E4AF2E7F06803681B6A98470B2802
:103E400003D83D4BA521394AE8E7DFF8F49018F094
:103E5000BDF9043018F0FAF9D9F8000010B1036880
:103E6000DB689847D9F8000010B103681B689847D1
:103E7000DFF8D080D8F8000010B103685B6998477C
:103E8000D7F83C0110B103685B689847D8F8000088
:103E900010B103681B689847D7F83C0110B103685C
:103EA0009B689847F06800214FF0000B03685B6A3D
:103EB0009847224B0446C0F804B080F808B0594631
:103EC0000360B06803685B6A98470546FDF7A2F98E
:103ED0007068594603685B6A984706462946FDF7AD
:103EE0006DF9331DC7F83C612846CAF884302B6849
:103EF000C6F808A0DB68C9F80040C8F80050EE63B7
:103F00009847336830461B6898472146284619F081
:103F1000F4FF236820461B699847236820465B69A5
:103F200001B0BDE8F04F18474FDE0308DDDE03089F
:103F3000AFDF0308F4DF030897E003081CFC030865
:103F40004C2D0324502D0324044B1B6893F85C2054
:103F50000AB1186D00B99868704700BF042D03249A
:103F6000F8B5174604460E4618F046FA124B0025DF
:103F70001C602946114B2360114BC4E95135114B8C
:103F80001868C4E953550368C4E94F559B68C4E9F0
:103F900055769847284600F063FAFFF7D5FF22F0E0
:103FA000FEFFFFF7D1FF23F075F8FFF7CDFF23F0F9
:103FB0007DF82046F8BD00BF542D0324C8FB03083C
:103FC000B0FB0308042D0324064BC0F84801C0F8D9
:103FD0004C310023C0F8503100F5A273C0F84031D5
:103FE000704700BFFD3D000813B5002451B10368C0
:103FF00001AA01948DF803409C680DF10303A047CA
:1040000002B010BD0846FBE7C0897047008A7047C0
:10401000C088704780887047807A00F07F007047C2
:10402000807AC00970470020704700009FED010AA8
:10403000704700BF00000000406A7047806A704708
:1040400070470B888A889BB2D20A10B54C88C16928
:1040500043EA044351F82200184410BD10B5044649
:10406000BAB1107B68B1537BD27A1B0203F4E063D0
:104070001A43236A03EB82031A888A4202D193F916
:10408000020010BD05D80138043380B20028F3D1F6
:10409000F7E70020F5E710B504462C212AF050FC84
:1040A000204610BD30B58BB00446BDF86050089571
:1040B000BDF85C5007959DF8505006959DF84C5002
:1040C00005959DF8485004959DF8445003959DF83A
:1040D000405002959DF83C500195BDF83850009530
:1040E00019F0D6FA064B20462360159BE361169B18
:1040F0002362199B63621A9BA3620BB030BD00BFA1
:1041000040FC03087047000030B5164D8FB02C6896
:10411000BFF35B8F14F0010421D128462AF012FC72
:10412000E8B13F23082210490993104B1048089327
:10413000104B0A940793012304940194CDE905439D
:104140000423CDE902430A23CDE90B440093FFF792
:10415000A9FF094832F08CF928462AF00FFC0448E0
:104160000FB030BDDC810024E46F040844900408E3
:10417000E0810024409004080541000870470000D9
:1041800030B5174D8FB02C68BFF35B8F14F001046E
:1041900022D128462AF0D6FBF0B13F232C22114928
:1041A0000993114B11480893114B0A94079301236B
:1041B00004940194CDE905430423CDE902431A2375
:1041C000CDE90B4400931F23FFF76CFF094832F041
:1041D0004FF928462AF0D2FB04480FB030BD00BF8B
:1041E0000C82002454700408308F040810820024CC
:1041F0003C9104087D4100087047000030B5174D20
:104200008FB02C68BFF35B8F14F0010422D12846D5
:104210002AF098FBF0B13F23252211490993114B55
:1042200011480893114B0A940793012304940194B5
:10423000CDE905430423CDE902432823CDE90B440E
:1042400000933023FFF72EFF094832F011F928467A
:104250002AF094FB04480FB030BD00BF3C8200241C
:10426000FC890408D88F0408408200244091040887
:10427000F94100087047000030B5174D8FB02C6829
:10428000BFF35B8F14F0010422D128462AF05AFBB9
:10429000F0B13F233A2211490993114B1148089379
:1042A000114B0A940793012304940194CDE905333B
:1042B0000423CDE902431423CDE90B4400931823D2
:1042C000FFF7F0FE094832F0D3F828462AF056FBF3
:1042D00004480FB030BD00BF6C820024048C040879
:1042E0004890040870820024449104087542000834
:1042F000704708B5062915D8DFE801F01008040852
:104300000C0C100000F020F8806808BD00F01CF8CC
:104310004068FAE700F018F8C068F6E700F014F813
:104320000068F2E70020F0E710B5044604212AF007
:1043300007FB204610BD000000487047B4FC03088E
:104340002D20704719207047004870479C82002438
:1043500010B5074CFFF714FF2060FFF74FFF6060B8
:10436000FFF7D2FEA060FFF787FFE06010BD00BF3F
:104370009C82002400207047002070470EB403B5D3
:1043800003AB002153F8042B019318F0B1FF02B0E6
:104390005DF804EB03B070470CB407B504AB53F8F9
:1043A000042B019318F0A4FF03B05DF804EB02B0F6
:1043B00070470000436C10B5044673B3038F2BB9EC
:1043C000184BC521184A194832F032F8C38E00EB59
:1043D00043035B8C0BB31AF0D6FA238F012B03D85F
:1043E000134BCB21134AEEE7E28E40F63F10531CED
:1043F0009BB2092B194688BFA3F10A0104EB4101C6
:10440000498C814209D10A2B04EB420228BF0023C8
:10441000508C04EB4303588451842046BDE810407F
:104420001AF0B5B93AE1030843E10308EEE10308E5
:1044300036E2030844E203081AF071B910B586B0F9
:1044400002AC84E806001A460AAB214605930193A4
:10445000099B0093089B17F02DFA06B010BD0000D1
:1044600038B518BB124B13481C681349B4B1226805
:1044700022440260626822440A60A26814440F4B1E
:1044800000221A80FFF760FF0546FFF75BFF0C4B29
:104490001C600C4B1D600C4B188007E00B4B03603D
:1044A0000B4B0B600B4B1C68002CE8D138BD00BFD8
:1044B000B8820024B0820024AC820024B48200249C
:1044C000642D03245C2D0324582D032448910408F3
:1044D000C093040838000408044B1B6853F82100FB
:1044E000034B1B6803EB4000704700BFAC82002405
:1044F000B0820024012380F87C1080F87D30704762
:10450000704700207047000081640039024B18BFDB
:1045100001211970704700BFF72C03247047002059
:104520007047C36B0BB10846184770474FF6FF70D2
:104530007047406803689B691847704770470000E0
:10454000034B902283F85A2383F85823704700BF07
:1045500000E100E0094A0A49D3680A48C3F30A03A4
:10456000013B9BB20B801169C1F30A010139018043
:104570001364536B43F00103536370470010005002
:10458000BE820024BC820024014BD3F8AC007047EB
:1045900000100050024B0122C3F8AC105A62704761
:1045A000001000500163C0E90D217047704700EB17
:1045B0008100114640680368DB68184780F83C10AA
:1045C0007047000038B5044611F0ADFD23689D6EBC
:1045D00017F0FCFD01462046A8472368094A4FF022
:1045E0005041D3F88C5020460023A8476368064A00
:1045F0005364064B5A60064A1A639A634FF41622B4
:104600005A6338BD00E02ED008830024C082002405
:1046100000C05DD011F06EBD38B504460D46406C4B
:104620004FF0FF3103F047FB606C03F067FB24237E
:1046300003FB0545002385F8283094F828300BB992
:10464000236BA36338BD11F01EBD11F09CBE10B5E5
:10465000044612F02FFB23682046D3F8BC30BDE897
:104660001040184710B5044611F04EFE606803680C
:10467000BDE810401B69184710B5044648212AF0D0
:104680005FF9204610BD000090F838100D4B10B5B2
:1046900090F87C401A788C4209D03AB90A490B4A02
:1046A00008881488108001220C801A7010BD002A1E
:1046B000FCD0064A0449148808880C801080002227
:1046C000F3E700BFF62C0324FE2C0324002D032463
:1046D000124A5369DB0370B51ED50023C2F884303B
:1046E000BFF34F8FD2F8803043F6E074C3F3C900B4
:1046F000C3F34E335B0103EA0406014646EA8175C3
:104700000139C2F87452F9D2203B13F1200FF2D1D3
:10471000BFF34F8FBFF36F8F70BD00BF00ED00E0A0
:1047200008B5094B1B888B4203D8084B1B88934262
:1047300005D9074BA521074A074831F079FE074BF9
:104740001980074B1A8008BD002D0324FE2C03247A
:1047500016E3030879E30308BCE30308FC2C0324F5
:10476000FA2C032408B531B1044B4FF4B871044A54
:10477000044831F05DFE90F8290008BDFFE303080E
:1047800013E403089DE5030810B531B1064B4FF45F
:10479000B571064A064831F04BFE40681146036881
:1047A000BDE810401B6B1847FFE30308DEE5030874
:1047B0009DE5030808B529B1034B7921034A044854
:1047C00031F036FEC06808BDFFE303088CE703083C
:1047D0009DE5030810B5044629B1194BA221194AD9
:1047E000194831F025FE052A15D8DFE802F003113B
:1047F00015171C22406803681B69984758B10123AC
:1048000084F8293084F82C300023C4E9043302E012
:10481000002380F8293010BD0362F5E7036201230D
:1048200080F82A30F0E7002380F829300123036262
:10483000F1E7003B18BF012380F82D30EBE700BF04
:10484000FFE3030841E903089DE5030810B50C46A2
:1048500011461A462CB1064B9021064A064831F003
:10486000E7FDC46040680368BDE810409B681847D6
:10487000FFE3030815EB03089DE5030808B529B11C
:10488000054B8221054A064831F0D2FDC0E90411EA
:10489000C0E9063208BD00BFFFE30308F0EC0308DF
:1048A0009DE5030890F83D3010B5044653B14FF034
:1048B000FF31406C03F0FFF9002384F83D30012301
:1048C00084F83E3010BD00002DE9F0410D4604464D
:1048D000194635B9154B40F20131154A154831F0EA
:1048E000A7FDC0E91052003A0368134E18BF012219
:1048F000D3F8903032709847E569A5B12B681F68EE
:10490000337873B1236820465B6B9847236C8342EE
:1049100007D1616C094B28461A883B46BDE8F04137
:104920001847216CF6E7BDE8F08100BFACEE030844
:10493000E4EE0308BCE30308F82C0324FC2C032456
:1049400010B50446104629B1134BD021134A144820
:1049500031F06EFD94F8293033B1124B1B6893F897
:104960006F2063691344636194F82B300BB9012005
:1049700010BDA368036303685B699847002394F83C
:104980002C0084F82B300028F1D194F82D30002B26
:10499000EED184F82900EBE7FFE3030832EF0308C8
:1049A0009DE50308042D032470B51A4C054611F04B
:1049B000ADFB94F8293013B994F82A30ABB1E16912
:1049C000D4E90532534322694A4393420DD394F804
:1049D0003C0038B19B1AB3FBF1F2994298BF02F147
:1049E000FF326262012384F82E300123206C84F8A8
:1049F0003D3003F018FA94F83E302BB1606C03F0B0
:104A00007DF9002384F83E3068680368BDE8704093
:104A10001B691847C0820024034690F87E0018B135
:104A2000586803681B68184770470000084B4FF030
:104A30008062C3F88820BFF34F8FBFF36F8F4FF0B2
:104A40008072C3F88820BFF34F8FBFF36F8F70471A
:104A500000E100E0034B4FF080629A604FF08072FB
:104A60009A60704700E100E0034690F8280070B5B6
:104A7000C8B901229D6BD8609A624FF4807205F527
:104A8000162418619A8558619861D8611862586235
:104A900083F82E00D3E90C26324494420AD90B4BFA
:104AA00052210B4A03E00B4B40F2C5110A4A0B4856
:104AB00031F0BEFC9D609C634FF4207381F834009C
:104AC000CB864FF4F07308630B8770BD8AF203083E
:104AD000C5F20308D3F0030803F103089DE50308BA
:104AE00038B5184C23685BB3174B184A1B6C1188F8
:104AF0008B4216D1164B0025198805F0DBF8236888
:104B000093F86E2083F88050013283F86E2000F015
:104B100067FB206812F0CEF82846BDE8384001F067
:104B2000C6B905F0C7F82468236820461B6A984771
:104B30000123002084F88030BDE8384001F0B8B986
:104B400038BD00BF042D032400100050BE82002495
:104B5000BC8200242DE9F743044601264FF4A067E8
:104B60004FF0FF31206C03F032F94FF0FF31606CF1
:104B700003F0A1F894F82E3043B36568D4F8208090
:104B80002B6884F82B60B8F1000F23D05B6A414694
:104B900028469847002323622B684FF42072009721
:104BA0002846D3F814804FF4F073A168C0472369F6
:104BB00084F82C0001332361F0B12B6828469B6AEE
:104BC000984701380023E06084F82E30606C03F0D1
:104BD00095F8C5E7626A002ADED02846D3E9099332
:104BE0009847616A01442846C8472369626AC4F845
:104BF000248013442361CFE70120E3E7014808B58F
:104C0000FFF7A8FFC082002438B51448002500F043
:104C1000BBFC134C134B2A462946012023604FF45A
:104C20008073A563A387A38584F83E5084F82E5033
:104C3000C4E90C55C4E91055C4E90155C4E903554C
:104C4000C4E90555C4E90755C4E9095503F075F8E9
:104C50002064284602F0FAFF606438BD088300240F
:104C6000C08200244400040803685B6C18470120DC
:104C7000704740F2EF307047104B07B5D3F8D4209F
:104C800005215A2042F01002C3F8D420D3F8D420D2
:104C900002F010020192019ADA6F42F01002DA6714
:104CA000DA6F22F01002DA67002204F0E7F85A20E7
:104CB00003B05DF804EB04F013B900BF00440258E0
:104CC00010B504464FF0FF31D0F8A40D02F0F3FF09
:104CD000606803681B68984778B9637A6BB1237A78
:104CE0005BB984F8A03D204623685B6A9847D4F8F6
:104CF000A40DBDE8104003F001B80B490B4A0B6846
:104D00001B01D35C012BF2D1207A0028EFD1A07ACD
:104D10000028ECD1086884F8A03D02EB0010237253
:104D200001F03AF8E3E700BF80F500240C0000240E
:104D3000054B4FF080620360044BC3F88820BFF33B
:104D40004F8FBFF36F8F70478800040800E100E0C9
:104D500010B5044640F6A851FFF7EAFF204629F0B7
:104D6000EFFD204610BD000008B50A2809D8DFE88D
:104D700000F006100E08080808101010100002209D
:104D800008BD054B8D21054A054831F051FB002037
:104D9000F6E70120F4E700BF68F4030883F4030892
:104DA000CEF4030838B50C46887FFFF7DDFF124BC1
:104DB000A58AE28A586342EA054221695A64628BF5
:104DC000D963521B1A642568082D0ED19A611A61A5
:104DD00058620A4A207F42EA0062DA61E2681A6297
:104DE000074A5961D9601A6038BD0022D8611A613A
:104DF000E2689A63034AF6E70010005209000100D6
:104E0000012302000123030008B50B280BD8DFE8BB
:104E100000F00612100A0A0A0A0808080808022008
:104E200008BD0520FCE7054B6C21054A054831F01B
:104E3000FFFA0020F4E70120F2E700BF68F403085E
:104E4000F9F40308CEF403082DE9F04191F81D8030
:104E50000C464046FFF7D8FFA77F05463846FFF7C8
:104E6000D3FF06463846FFF77FFFA18A628B434B8C
:104E7000521A1A649A61228B521A1A61E28A586392
:104E800042EA014221695A646268D963DA602068A3
:104E9000802828D0227F0FD8202866D0402864D0D0
:104EA00004281AD045EA0265344BB84545F400356C
:104EB000DD6160D0324A44E0B0F5807F04D0B0F5C7
:104EC000007FEFD12F4800E02F4840EA0262DA610C
:104ED000E2681A625E62596132E045EA026242F4B7
:104EE0000032DA61F6E7A068021DDA62227F45EA45
:104EF000026545F40035DD615E625961017841B1BA
:104F0000012921D0214B40F21711214A214831F0CB
:104F10008FFADA69418822F47F42013922F01002C7
:104F200042EA01220121DA61144BDA6942F02002DF
:104F3000DA61DA699206FCD410229A600029B9D0AD
:104F4000154A1A60BDE8F081B2F1FF01DA694088C4
:104F500022F47F4218BF0121013822F0100242EAF8
:104F6000002242F01002DA61DEE745EA0262034BFA
:104F700042F40032B5E742F20132E2E7001000529B
:104F800001230100090002000A00020043F50308A2
:104F90005DF50308CEF403080123020090F8A03D5C
:104FA00010B50446D3B903689B6A984719491A4A51
:104FB0000B681B01D35C012B2AD11848006838BB51
:104FC000207A28BBA07A18BB086884F8A03D237219
:104FD00002EB0010BDE8104000F0DEBE037A43B1E2
:104FE000002303720B4B18680B4B03EB001000F00F
:104FF00013FF606803681B68984748B9637A3BB140
:10500000236884F8A00D20465B6ABDE8104018476D
:1050100010BD00BF80F500240C0000247CF50024A6
:10502000094B5A6891070ED51A6892050BD51A6874
:1050300022F400721A6002229A60044B1B685868BE
:1050400003685B691847704700100052042D032461
:1050500070B504460E4B0C30002625466022606079
:105060002672667245F8203B294611F07BFF04F555
:105070005A63EE6024359D42FBD184F8A06D002078
:10508000C4F8A46D02F0E2FDC4F8A40D204670BD82
:1050900088000408034B1A68D207FCD423229A60C4
:1050A000704700BF001000520B4A5369DB0311D553
:1050B00000290FDD00F01F031944BFF34F8F014497
:1050C000C2F8680220300B1A002BF9DCBFF34F8FB7
:1050D000BFF36F8F704700BF00ED00E030B50F4C9D
:1050E0002568ED07FCD423251204FF2BA56042F0B0
:1050F00001024FF0020565636264E063E16008D07D
:105100001B0643F00213E361054B65626061236097
:1051100030BD044BE3610123F9E700BF00100052EA
:1051200001000200020002FF30B50B4C2568ED07BC
:10513000FCD4232512041B06A56042F001020225BF
:1051400043F4003365636264E063E160E361034B51
:1051500065626061236030BD0010005201000200F2
:105160000121002208B5084602F0E7FD0A4B18604D
:1051700028B90A4B28210A4A0A4831F059F9002275
:105180000421012002F078FE074B186018B9074B84
:105190002C21034AF0E708BD548300249BF5030843
:1051A000E4F5030813F603085083002440F60308CF
:1051B000024B4FF0FF31186802F009BE54830024FF
:1051C000014B186802F02FBE54830024024B0021CB
:1051D000186802F0FCBD00BF54830024FFF7F0BF45
:1051E0000023034803491A46006802F080BE00BF4E
:1051F000508300240400002413B50023074C01A9A8
:105200001A46206802F0A4FE4FF0FF33002201A9E5
:10521000206802F09DFE02B010BD00BF5083002444
:10522000012070470C2070470C2303FB010008305D
:1052300070470C2303FB01000830704701207047C2
:1052400046F21C10704746F21C1303FB01000830A5
:10525000704746F21C1303FB010008307047012021
:1052600070471020704700EB01100830704700EBCA
:105270000110083070470846FEF7A6BE034B10B574
:105280000446036010F080FA204610BD4001040877
:1052900010B50446FFF7F2FF1421204629F050FB19
:1052A000204610BD034B10B50446036010F06CFAA5
:1052B000204610BD0C01040810B50446FFF7F2FFAC
:1052C00046F22411204629F03BFB204610BD000089
:1052D000034B10B50446036010F056FA204610BD8B
:1052E000D800040810B50446FFF7F2FF1821204645
:1052F00029F026FB204610BD094B10B5044603607B
:1053000000F5C2405030FFF7B9FF04F12C00FFF761
:10531000C9FF04F11400FFF7DBFF204610BD00BFFA
:105320007401040808B50248FFF7E6FF08BD00BF96
:105330002092002410B50446FFF7DEFF46F2483104
:10534000204629F0FDFA204610BD00002DE9F3416A
:10535000FEF7F2FF00240546FEF7F2FF2346014662
:105360002246284600941AF0E1FC264B264A2046A5
:10537000264D1A60FFF774F825481AF03DFC2B689B
:10538000BFF35B8FDB0736D4284629F0DBFA90B3F6
:10539000204C214F214B04F1140007F19C0604F12D
:1053A0002C0823606060C4F80880E760266110F074
:1053B000EDF91B4B4046636110F0E8F9194B384694
:1053C000E36210F0E3F904F5C043174A03F5B27045
:1053D000C3F85021FCF78AFB224607F1140130463E
:1053E000FDF7A2F83046FEF7EFFD104831F040F827
:1053F000284629F0C3FA0E4802B0BDE8F04100F09B
:1054000030BD00BF602D0324E08300241C920024E3
:10541000080000242092002470F300247401040882
:10542000D80004080C0104084001040825530008B2
:105430005883002470470000014810F088BE00BF68
:105440005883002470B5254E254B264C3046264DFA
:105450002360FFF7FDFD28461FF0F0FE234B0022DE
:105460004FF4807122481A639A8683F85C209A660A
:1054700083F874209A67DC60C3E913121D49C3E9FD
:105480001B121D49C3E91F011C491D48C3F88410A4
:105490001C49C3E90422C3E90622C3E90822C3E97F
:1054A0000A22C3E90F22C3E91122C3E91522C3E985
:1054B0001822C3E901650B604FF4A06183F838201E
:1054C0000180114801804FF4487110480180104854
:1054D000018010490A70104A1A6070BD708400245F
:1054E000B802040818920024E4830024588300249E
:1054F00000000101010000010004C8004200140086
:10550000002D0324042D0324FC2C0324FE2C03244F
:10551000FA2C0324F62C0324CC0104080148FFF7DD
:1055200007BC00BF708400244069704790F84000B9
:105530007047036B23B9C06A003818BF0120704759
:1055400001207047806870477047043010B50C46E2
:105550000FC884E80F0010BD7047000008B5034A6B
:105560004FF4E571024B034830F062FF82F6030806
:1055700041E10308DDF6030810B50446482129F08F
:10558000DFF9204610BD000000220E4B10B5114679
:1055900004460360C26380F84020C0E90522C0E9E8
:1055A0000722C0E90922C0E90B22C0E90D22C0E9A7
:1055B0000322C0E90122012002F0BFFB024B186068
:1055C000204610BD8801040884F5002410B40C4660
:1055D00011461A46036B3BB1C36B406BE41A20447F
:1055E0005DF8044B33F044BBC06AF8E7036B10B5B9
:1055F00073B1C36B426BC91A5318525C98785C78CC
:10560000000440EA04201043DB7840EA036010BD48
:10561000C26A5318525C59789878000440EA012015
:10562000F1E7036B43B1C36BC91A436B5A18585C5B
:10563000527840EA02207047C36A5A18585C53787F
:1056400040EA03207047000070B50446006B0D4629
:105650001646D8B1A36B934208D209230D4AA12163
:105660000D4884F840300D4B30F0E2FE0368DB68F3
:105670009847206B3246616B03681B69984710B9E5
:105680000D2384F84030606BE56370BDE06A084428
:10569000FBE700BF27F70308DDF6030814F703084C
:1056A0002DE9F843436904462BB9224BE721224AEE
:1056B000224830F0BDFE08228169FFF7C5FFA169CD
:1056C00043F2300646F2643704312046FFF78EFF7E
:1056D000A3691844A36A00F108029A4206D3012381
:1056E00000206361236AA361BDE8F883636900F168
:1056F000090108222046013321F001016361A16103
:10570000FFF7A2FFD4F8189020464946FFF789FF1B
:1057100009F1020180462046FFF783FF09F10401E9
:1057200005462046FFF762FFB045D1D1BD42CFD13B
:105730000120D9E769F70308B2F70308DDF603088B
:105740000129036838BF0121DB6A70B50D460446A4
:105750009847A84204D223682046DB6A984705464A
:105760006B1EE6691022204606EB031606F10801BF
:10577000FFF76AFF06F110012046FFF737FF236AA3
:10578000043B0344C4E9055370BD000000214822D6
:105790002DE9F0410446816180F84010FFF754FF85
:1057A000A6690423634A31462046FFF70FFF48B13C
:1057B0000323614A40F22F1184F840305F4B604868
:1057C00030F036FE06F1080104235E4A2046A1614E
:1057D000FFF7FCFE38B10423574A40F2371184F832
:1057E0004030594BEBE706F10C010423574A2046A1
:1057F000A161FFF7EBFE074638B105234E4A4FF48F
:105800009F7184F84030524BD9E706F110012046D1
:10581000FFF7ECFE054620B94E4B4FF4A271464A05
:10582000CDE706F1140804234B4A20464146FFF712
:10583000CDFE002849D0062384F840300423474A8F
:1058400006F118012046FFF7C1FE00283FD00723CC
:1058500084F840304544424F0C2220462946FFF749
:10586000F3FE05F1080604233A4620463146FFF7C9
:10587000ADFE94F84030002848D0002B48D1A36AF0
:10588000AB4249D805F10C0304352046A3612946F3
:10589000FFF7ACFE3044294660622046FFF7A6FEC3
:1058A0000644042220463146FFF7CEFE04232D4A4B
:1058B00031462046FFF78AFE002838D10123E661F1
:1058C0006361A3692362BDE8F0810127B6E7002F79
:1058D000C0D006F120012046FFF788FE4FF47A730E
:1058E00006F13001B0FBF3F060602046FFF77EFE6A
:1058F00006F14001A0602046FFF778FE06F1440162
:10590000E0602046FFF772FE2061A3E7002BB9D0CC
:105910000A2384F84030D6E7291D2046FFF766FEAB
:1059200085190C2220462946FFF78EFE99E70B23A6
:10593000EFE700BFE5F7030803F80308EAF70308F9
:10594000DDF6030830F8030835F803084DF80308BE
:1059500052F8030868F8030874F8030879F8030894
:105960007EF8030883F80308C0E90A2100220263D5
:10597000FFF70CBF10B5002304460846E3620B682E
:1059800021639B689847A0622046BDE81040FFF75E
:10599000FDBE000037B5134B0024134D1C60134BA4
:1059A0001C60134B2C601C60124B1960124B1A6068
:1059B000124B1C60124B2A684FF4C0751C701C748B
:1059C000C3E90244C3E9064403EB02130D4AD2685B
:1059D0006A4300924FF450425B680AF037FA20465F
:1059E00003B030BDA0F5002490F5002480F500241C
:1059F000B0F50024A8F50024ACF5002488F50024B7
:105A00000C00002468F500244B68012B15D1CB68ED
:105A10001A071EBF23F00F031033CB608B681807E3
:105A20001EBF23F00F0310338B60CB688A681B09FD
:105A3000120953430E4A13607047022B0ED1CB68F4
:105A40001A0703D023F00F031033CB608B685A077B
:105A50001EBF23F0070308338B607047002BFCD177
:105A6000CB685807F2D023F007030833EDE700BFF7
:105A700098F500240B4A13680B4430B413600A4AAB
:105A8000126893420CD2094CD21A2568B2F5504FD5
:105A9000294428BF4FF45042216030BC0AF038BA84
:105AA00030BC7047B0F50024ACF50024A8F5002404
:105AB000F8B5204C0121204D064623681F4F1B01DD
:105AC000E954236805EB03139A601D4B196822689B
:105AD00005EB0212D1601A68F9680A441A6023685B
:105AE000013323602368012B01D90023236023683D
:105AF0001B01EB5C33B1022130460AF0DBF9114B9C
